:020000040000FA
:04000000FEEF2EF0F1
:08000800056ED8CF06F0E0CF31
:1000100007F00001E9CF0DF0EACF08F0E1CF09F0D9
:10002000E2CF0AF0D9CF0BF0DACF0CF0F3CF14F017
:10003000F4CF15F0FACF16F000C00FF001C010F0A9
:1000400002C011F003C012F004C013F09DA02CEF09
:1000500000F09EB0D9EF01F09DAA32EF00F09EBAF9
:100060006EEF02F00FC000F010C001F011C002F0FE
:1000700012C003F013C004F00E8E0DC0E9FF08C0DB
:10008000EAFF09C0E1FF0AC0E2FF0BC0D9FF0CC0C4
:10009000DAFF14C0F3FF15C0F4FF16C0FAFF0550D5
:1000A00007C0E0FF06C0D8FF1000F2CF0EF0F29EAE
:1000B000F76AC40FF66E000EF7220900F5500EBE67
:1000C000F28E120000401050F2CF0EF0F29EF76A4E
:1000D000E20FF66E000EF7220900F5500EBEF28E0A
:1000E000120030302F30302F30300000F2CF0EF0C1
:1000F000F29EF76A060FF66E010EF7220900F55020
:100100000EBEF28E120030303A30303A30300000FD
:10011000F2CF0EF0F29EF76A2A0FF66E010EF7226A
:100120000900F5500EBEF28E120020202000F2CF02
:100130000EF0F29EF76A480FF66E010EF7220900E4
:10014000F5500EBEF28E12004F4B0D0A0000F2CF9A
:100150000EF0F29EF76A680FF66E010EF7220900A4
:10016000F5500EBEF28E1200232020202020000029
:10017000F2CF0EF0F29EF76A8A0FF66E010EF722AA
:100180000900F5500EBEF28E12000D0A20444C20DC
:10019000256C64207061676573202E2E0000F2CFFD
:1001A0000EF0F29EF76AB80FF66E010EF722090004
:1001B000F5500EBEF28E12000D0A20504147452028
:1001C000256C643A0000F2CF0EF0F29EF76AE00F61
:1001D000F66E010EF7220900F5500EBEF28E1200E7
:1001E0000D0A64656C6574696E6720656E7469726A
:1001F0006520666C61736820646174612000F2CFD1
:100200000EF0F29EF76A180FF66E020EF722090042
:10021000F5500EBEF28E12000D0A4144433D2025DA
:100220006C750000F2CF0EF0F29EF76A3E0FF66E8C
:10023000020EF7220900F5500EBEF28E12000D0AD2
:100240004163743A256C752F256C7500F2CF0EF062
:10025000F29EF76A660FF66E020EF7220900F5505D
:100260000EBEF28E12000D0A526573746172743AFA
:10027000256C7500F2CF0EF0F29EF76A8E0FF66EC7
:10028000020EF7220900F5500EBEF28E12000D0A82
:1002900043757272656E743A256C75202825642941
:1002A0000000F2CF0EF0F29EF76ABC0FF66E020E5F
:1002B000F7220900F5500EBEF28E12000D0A5469A5
:1002C0006D65723A256C7500F2CF0EF0F29EF76AFA
:1002D000E20FF66E020EF7220900F5500EBEF28E06
:1002E00012000D0A234461793A256C750000F2CFA3
:1002F0000EF0F29EF76A080FF66E030EF722090061
:10030000F5500EBEF28E12000D0A526573746172C2
:10031000742043617573653A25336400F2CF0EF0A3
:10032000F29EF76A360FF66E030EF7220900F550BB
:100330000EBEF28E12000000006A016A026A036AB1
:10034000F76BF86BF96BFA6BF651F511F411F311C9
:100350002CE0200EFB6FD890EF37F037F137F237F3
:10036000F737F837F937FA37F651FA5D08E1F55102
:10037000F95D05E1F451F85D02E1F351F75D0FE33A
:10038000F351F75FF451D8A0F43DF85FF551D8A0D0
:10039000F53DF95FF651D8A0F63DFA5FD8800036FA
:1003A000013602360336FB2FD6D7EA6AF70EE96E1E
:1003B000000CCE50CFCF03F00101636FCFCF64F1BB
:1003C000800ECF24CF6E63C1CEFF010E2026000E1B
:1003D0002122222223221F82040023C0F2F022C005
:1003E000F1F021C0F0F020C0EFF00001F66BF56BEA
:1003F000F46B0F0EF36FA0DFEFCF63F1ECCF64F17E
:10040000ECCF65F1ECCF66F10101635307E1645372
:1004100005E1655303E1665301E11F8E23C0F2F04D
:1004200022C0F1F021C0F0F020C0EFF00001F66B27
:10043000F56B010EF46FC20EF36F7EDFEFCF63F149
:10044000ECCF64F1ECCF65F1ECCF66F101016353C1
:1004500007E1645305E1655303E1665301E11F8041
:1004600023C0F2F022C0F1F021C0F0F020C0EFF084
:100470000001F66BF56B010EF46F2C0EF36F5CDF71
:10048000EFCF63F1ECCF64F1ECCF65F1ECCF66F127
:10049000010163511E0807E1645305E1655303E15F
:1004A0006653D8B41F8A0001C253D8A4C2079E90D5
:1004B00032EF00F0EA6AF10EE96EEF500EE0030E43
:1004C000016E006A002EFED7012EFBD73C0E006E97
:1004D000002EFED700D0EF2EF2D7000C9EAAFED73A
:1004E000AECF63F101018484020E0001F16FE2DFFF
:1004F00001016351080814E1000168530FE0680727
:10050000010163519EA8FED7AD6E200E9EA8FED7B6
:10051000AD6E63519EA8FED7AD6E00011AD00101E9
:1005200063511F0816E263517E0813E3000168510E
:1005300012080FE36851682B036A540FE96E000E2E
:100540000320EA6E63C1EFFF010163519EA8FED74D
:10055000AD6E010163510D081AE10D0E9EA8FED784
:10056000AD6E0A0E9EA8FED7AD6E3E0E9EA8FED7BB
:10057000AD6E036A00016851540FE96E000E03204E
:10058000EA6EEF6A68510108D8A01F86686B010EF9
:100590000001C26F9E9A32EF00F0D76703D0D86790
:1005A00002D007D0D82BD6C0EEFFD72FFCD7D82F3C
:1005B000FAD7000CD16B200ED06FCF6BCF51030850
:1005C00021E3CF51D025D26F000ED121D36F040E7D
:1005D000CF25D46FF2CFD5F0F29ED4C0A9FFA69C50
:1005E000A69EA680A850D5BFF28ED56FD3C0EAFFD5
:1005F000D2C0E9FFD5C0D6F0D86B010ED76FCDDFE2
:10060000CF2BDCD7D16BBA0ED06FBB51060809E2F5
:10061000FF0A03E1BA51D00804E2070EBB6FD00E07
:10062000BA6FCF6BCF5101081EE3CF51D025D26FE7
:10063000000ED121D36FF2CFD4F0F29ECFC0A9FF2C
:10064000A69CA69EA680A850D4BFF28ED56FD3C01C
:10065000EAFFD2C0E9FFD5C0D6F0D86B010ED76F44
:100660009CDFCF2BDFD7D16B6E0ED06FBB516F5D90
:1006700008E303E16E51BA5D04E2BBC06FF0BAC09B
:100680006EF0CF6BCF51010821E3CF51D025D26F4F
:10069000000ED121D36F020ECF25D46FF2CFD5F04B
:1006A000F29ED4C0A9FFA69CA69EA680A850D5BF46
:1006B000F28ED56FD3C0EAFFD2C0E9FFD5C0D6F025
:1006C000D86B010ED76F69DFCF2BDCD7D16BC60E8D
:1006D000D06FCF6BCF51010821E3CF51D025D26F1E
:1006E000000ED121D36F080ECF25D46FF2CFD5F0F5
:1006F000F29ED4C0A9FFA69CA69EA680A850D5BFF6
:10070000F28ED56FD3C0EAFFD2C0E9FFD5C0D6F0D4
:10071000D86B010ED76F41DFCF2BDCD74BEF2FF01B
:10072000D951016AD85D03E2D8C000F00CD0006A4C
:10073000080EDA6FD8370036D951005CD8B0006E99
:100740000136DA2FF7D7000C200ED3A9300ED46F64
:10075000D2C000F0D2AF07D0001E002A00C0D2F0F5
:100760002D0ED46FD38F0150D2C0D8F0640ED96F44
:10077000D7DF00C0D2F0300E0124D56FD2C0D8F040
:100780000A0ED96FCDDF300E0024D76F300E012452
:10079000D66FD4C000F0D3A702D0D3AFD395D3B9CE
:1007A0000BD0D3AF22D0D3B520D000C0D5F0D3B377
:1007B0001CD000C0D6F019D0300ED55D16E100C0B7
:1007C000D5F0200ED46FD3A704D0D395D383D3AF65
:1007D000D393300ED65D09E100C0D6F0200ED56F60
:1007E000D3A7F7D7D393D3AFD391D3A504D0D45104
:1007F0009EA8FED7AD6ED3A304D0D5519EA8FED738
:10080000AD6ED3A104D0D6519EA8FED7AD6ED75100
:100810009EA8FED7AD6E000CD06BD051030830E31C
:10082000040ED025D16FD051080DF3CFD2F023C0E4
:10083000D6F022C0D5F021C0D4F020C0D3F0D253DE
:1008400007E0D890D633D533D433D333D22FF9D76A
:10085000D1C0A9FFD3C0A8FFA69CA69EA684F2CFB4
:1008600000F0F29E0F01550EA76EAA0EA76EA6828B
:10087000A6B2FED7A6940050F2120001D02BCDD71D
:10088000D06BD05101082AE3020ED025D16FD05190
:10089000080DF3CF00F06FC0D3F06EC0D2F000525D
:1008A00005E0D890D333D233002EFBD7D1C0A9FFB7
:1008B000D2C0A8FFA69CA69EA684F2CF00F0F29E0E
:1008C0000F01550EA76EAA0EA76EA682A6B2FED77E
:1008D000A6940050F2120001D02BD3D7D06BD05188
:1008E00001082AE3080ED025D16FD051080DF3CFAF
:1008F00000F0C7C0D3F0C6C0D2F0005205E0D890D7
:10090000D333D233002EFBD7D1C0A9FFD2C0A8FF6A
:10091000A69CA69EA684F2CF00F0F29E0F01550E73
:10092000A76EAA0EA76EA682A6B2FED7A694005006
:10093000F2120001D02BD3D7CF2D2BD0D06BD051BA
:10094000010827E3D051080DF3CF00F0BBC0D2F06F
:10095000BAC0D1F0005205E0D890D233D133002E86
:10096000FBD7D0C0A9FFD1C0A8FFA69CA69EA68495
:10097000F2CF00F0F29E0F01550EA76EAA0EA76EE1
:10098000A682A6B2FED7A6940050F2120001D02B88
:10099000D6D7000CF439006E0F0E001600500F0B66
:1009A000006EF00E83140010836E290E006E002E70
:1009B000FED70000838E290E006E002EFED70000A9
:1009C000839E290E006E002EFED70000000CF0A1C1
:1009D0008490F0B18480F151F00BF26FF46FDADFA4
:1009E000F139006EF00E00160050F00BF36FF46F4B
:1009F000D1DF8480000C8490839E186AF2BE188E2A
:100A0000F29E0F0EF16F56DD18BEF28E010ED06F02
:100A1000D05103080EE3300EF46FBCDF186AF2BE4B
:100A2000188EF29E0F0EF16F45DD18BEF28ED02BA0
:100A3000EFD7200EF46FAEDF186AF2BE188EF29E6A
:100A40000F0EF16F37DD18BEF28EF06B060EF16FF0
:100A5000BEDF290E006E002EFED70000F06B0C0EDC
:100A6000F16FB5DF290E006E002EFED70000F06B8F
:100A7000100EF16FACDF290E006E002EFED70000C5
:100A8000F06B2C0EF16FA3DF290E006E002EFED747
:100A90000000F06B010EF16F9ADF290E006E002E40
:100AA000FED70000000C94968B9694948B8492EF62
:100AB0002FF0D751D903F3CF01F0F4CF00F0DA03D0
:100AC000F3500026D851D903F3500020026EDAEF1C
:100AD00005F0D56BD36B0A0ED46FD26BD16BCF51AF
:100AE000D01104E1000E016E026EE6D0D551D52B77
:100AF000036ACF25E96ED0510320EA6EEFCFD6F01E
:100B0000D6512D080DE1010ED36FD551D52B036AB7
:100B1000CF25E96ED0510320EA6EEFCFD6F00DD08D
:100B2000D6512B080AE1D551D52B036ACF25E96EA2
:100B3000D0510320EA6EEFCFD6F0D6512F08D8B0AF
:100B4000ADD0D6513908D8A0A9D0D651300821E16E
:100B5000036AD551CF25E96ED0510320EA6EEF50DC
:100B600078080AE0036AD551CF25E96ED0510320F9
:100B7000EA6EEF5058080DE1100ED46FD52BD55109
:100B8000D52B036ACF25E96ED0510320EA6EEFCF53
:100B9000D6F0D4510A0821E1D6512F081DE2D651D2
:100BA00039081AE3D86B0A0ED76FD2C0DAF0D1C079
:100BB000D9F07FD7300ED65D0124D16F000E022010
:100BC000D26FD551D52B036ACF25E96ED0510320C2
:100BD000EA6EEFCFD6F0E0D761D0D45110085EE1D5
:100BE000D651600806E2D6517A0803E3D651DF0BEE
:100BF00001D0D651D66FD6512F0803E2D65139080D
:100C000006E2D65140084AE2D651460847E3D6519B
:100C10002F0819E2D651390816E3D135D76FD235EE
:100C2000D86FD737D837D737D837D737D837F00E28
:100C3000D717300ED65DD725016E000ED82101C022
:100C4000D1F0D26F16D0D135D76FD235D86FD73714
:100C5000D837D737D837D737D837F00ED717410E10
:100C6000D65D0A0FD725016E000ED82101C0D1F044
:100C7000D26FD551D52B036ACF25E96ED051032011
:100C8000EA6EEF50D66F600806E2D6517A0803E3A9
:100C9000D651DF0B01D0D651D66FADD7D4510A084B
:100CA00007E1D32D05D0D11FD21FD12BD8B4D22B21
:100CB000D1C001F0D2C002F0000CED51030B036A69
:100CC000F2CFF0F0F29E55EC00F0F0BFF28EEE6F36
:100CD000EC51EE27EE518009EF6FF06BF16F77DE8C
:100CE000000CEB510C0A05E0060A12E0020A16E0BD
:100CF0001AD0F06B010EF16F6ADE186AF2BE188E20
:100D0000F29E020EF16F5AEC02F018BEF28E11D074
:100D1000010EEC6F020EED6FD0DF0BD0F06B100EFA
:100D2000F16F55DE06D0010EF06FEBC0F1F04FDE33
:100D300000D0000CEACFEAF0E9CFE9F0E339F0099E
:100D4000E56FE527E20FE66F320FE86FE3510F0B17
:100D5000E627E627E827E90FE76FE727E727E239E5
:100D60000F0BE727E827E737E837E81FE837E251B6
:100D70000F0BE827E537070EE46F0A0EE707E827B1
:100D8000FDE3E607E727FDE3E507E627FDE3E407E4
:100D9000E527FDE3EA6AE40EE96E070EE915E99D31
:100DA000E926E80EE95CD8B4E98DEF50006E08E161
:100DB000E9BD06D0E9B913D0E9B702D0200E03D0BF
:100DC000E987E999300E0026EACFE3F0E9CFE2F0B7
:100DD00000C0EBF086DFE3C0EAFFE2C0E9FFEE50BF
:100DE000E9ADDFD7000CEACFEAF0E9CFE9F0E3396B
:100DF000F009E56FE527E20FE66F320FE86FE35188
:100E00000F0BE627E627E827E90FE76FE727E72735
:100E1000E2390F0BE727E827E737E837E81FE8371D
:100E2000E2510F0BE827E537070EE46F0A0EE707DC
:100E3000E827FDE3E607E727FDE3E507E627FDE30F
:100E4000E407E527FDE3EA6AE40EE96E070EE9151B
:100E5000E99DE926E80EE95CD8B4E98DEF50006E13
:100E600008E1E9BD06D0E9B90CD0E9B702D0200EFF
:100E700003D0E987E999300E002600509EA8FED7DE
:100E8000AD6EEE50E9ADE6D7000CB60E006E036A0B
:100E9000026A016AE251E311E411E51102E1006A1C
:100EA0000DD0D89001BE09D0E237E337E437E537FB
:100EB000033602360136002EF4D7019EBBEF0BF04D
:100EC00001014C51D8B471D0006E5051D8B46DD0DE
:100ED000002604E3810E002668E204D07F0E005E47
:100EE00064E363E04DC154F15151541B4D8F518F58
:100EF0004F515303F4CF56F14E515203F4CF03F048
:100F0000F3CF55F15303F3505627F4505523000EF9
:100F100003224F515203F3505627F4505523000E2D
:100F2000026A032202224D515303F3505527F45015
:100F30000322000E02224D515203F3500326F450B7
:100F40000222000E016A01224F515103F35055272E
:100F5000F4500322000E022201224E515103F3509D
:100F60000326F4500222000E01224D515103F3508A
:100F70000226F4500122002A01BE05D0553703365F
:100F8000023601360006000E55AF0AD0032A0222AF
:100F90000122015005E1025003E1035001E1002A62
:100FA00054BF018E54AF019E04D0006A016A026AE8
:100FB000036A0001000C01014851D8B4A5D0546F58
:100FC0004C51D8B4A1D0545F05E37F0E5427D8B05C
:100FD0009BD006D0810E545FD8A096D0D8B494D0C0
:100FE00054C100F0016A026A036A536B49C152F1AD
:100FF000528F4AC151F14BC150F1190E546F4F51EC
:10100000505F0DE2010E515F0AE2525F08E2535F4A
:1010100006E2532B522B512B4F51502728D04E51C3
:10102000515F12E2010E525F0FE2535F0DE2532B4C
:10103000522B4E5151274F51502719E3512B17E195
:10104000522B15E1532B13D04D518009525F0EE204
:10105000010E535F0BE2532B4D51800952274E5125
:101060005127E9E3522BE7E1532BE5D70380542FB7
:1010700001D00BD0D8905037513752375337D890D2
:101080000336023601365537BAD755A106D0D89067
:10109000013202320332553302D0000635E055BF2B
:1010A0001ED0D89050375137523753374F51505F79
:1010B00007E2010E515F04E2525F02E2535F1AE35E
:1010C0004E51515F05E2010E525F02E2535F12E39F
:1010D0004D518009525F03E2010E535F0BE3032A77
:1010E00009E1022A07E1012A05E1002A0DE00132A7
:1010F0000232033249C154F14D51541B54AF02D056
:10110000018E06D0019E04D0006A016A026A036A59
:101110000001000C800ED8A202D00101531B010176
:10112000586B596B4FC157F15351571B4E51D8B49F
:10113000DFD0566F006E5251D8B4E3D0565FD8B4AA
:1011400083D03EE353C15CF15C8F54C15BF155C168
:101150005AF1596BD8905C335B335A335933562F5D
:10116000F8D757AF03D05881E0D05891569158899D
:10117000010EEA6E510EE96EEBD0589957BF0AD0B6
:1011800056A113D05C335B335A335933002AD8B499
:10119000C7D00BD05CBF0CD0D89059375A375B37CB
:1011A0005C370006D8B4BCD0F5D7588D6DD0589DAB
:1011B0004FC157F14FAF02D05C8FABD05C9FA9D02D
:1011C00052C156F152C100F04E51565F4FC15CF111
:1011D0005C8F50C15BF151C15AF1596BD8905C33AF
:1011E0005B335A335933562FF8D757AF03D0588350
:1011F0009CD058935691588B010EEA6E550EE96EAD
:10120000A7D0589B57BF0AD056A113D05C335B338D
:101210005A335933002AD8B483D00BD05CBF0CD0DA
:10122000D89059375A375B375C370006D8B478D036
:10123000F5D7588F29D0589F53C157F153AF02D0DB
:101240005C8F67D05C9F65D053C15CF15C8F54C1EB
:101250005BF155C15AF157AF04D05C9F588565D0FA
:101260005895596B5691010EEA6E510EE96E70D089
:1012700057BF1CD04FC157F156A106D05C335B332A
:101280005A335933002A4CE059AF0BD05A2B09E19D
:101290005B2B07E15C2B05E15C335B335A33002A9F
:1012A0003FE058BD84D758BFC6D71CD0800E5C1B0A
:1012B0005CAF04D03AD053C157F10AD04FC157F1B7
:1012C0005C5306E15B5304E15A5302E1006A21D00A
:1012D0005CBF08D0D89059375A375B375C37002E3F
:1012E000F7D71ED057AF02D05C8F13D05C9F11D0C0
:1012F00052C100F053C15CF154C15BF155C15AF1C8
:1013000008D04EC100F04FC15CF150C15BF151C13A
:101310005AF15CC101F05BC102F05AC103F034D054
:10132000006A016A026A036A2FD0596B5A1F5B1F59
:101330005C1F591F592B05E15A2B03E15B2B01E17F
:101340005C2B58B112D758B354D758B589D7B3D7F7
:10135000EF505A2705E35B2B03E15C2BD8B4568191
:10136000ED52EF505B2703E35C2BD8B45681ED526E
:10137000EF50EFBE01D0800A5C27D8B0568158B933
:10138000FCD658BB3ED774D70001000CE651B60816
:10139000E66F036AE7C0EAF0E78FD890E733E833F7
:1013A000E9330332023201320032E62FF6D7EAAFD8
:1013B0000BD0001E011E021E031E002AD8B4012AF3
:1013C000D8B4022AD8B4032A04EF0CF0FF6B010151
:1013D000006B010E016FDA6AD96A046BF70E036FB6
:1013E000EA6AFB0EE96E04C1E2FF03C1E1FF01C13D
:1013F00002F1D890E550EE02F3500001FF23F450C3
:1014000001010023022FF5D7FFC0DEFF00C1FFF06E
:10141000006BD8B0002B032BD8B4042B012B015147
:101420000508DEE10001000CFE5101010219800BEC
:10143000086F0001FEAF0BD0FB1FFC1FFD1FFE1F3E
:10144000FB2BD8B4FC2BD8B4FD2BD8B4FE2B010158
:1014500002AF17D00001FF1F0101001F011F021F73
:101460000001FF2BD8A403D00101002B0001D8A458
:1014700003D00101012B0001D8A402D00101022BED
:101480000101006A016A026A036A036B046B056B5F
:10149000066B0251011100110001FF1133E0200E13
:1014A0000101076FD8900001FB37FC37FD37FE378D
:1014B000010103370437053706370251065D0AE19B
:1014C0000151055D07E10051045D04E10001FF5198
:1014D0000101035D11E30001FF510101035F0051B0
:1014E000D8A0003D045F0151D8A0013D055F025125
:1014F000D8A0023D065FD88000360136023603369A
:10150000072FD0D7010108AF0BD0001E011E021E0D
:10151000031E002AD8B4012AD8B4022AD8B4032A58
:10152000010EEA6E030EE96E0001000C010EEF6F72
:10153000F06BF16BF26BF46BF56BEBBF01D018D075
:10154000010EF46FEBC0FAF0EAC0F9F0E9C0F8F070
:10155000E8C0F7F0FF0EFE6FFD6FFC6FFB6F36DF2C
:1015600003C0EBF002C0EAF001C0E9F000C0E8F00F
:10157000EF5306E1F05304E1F15302E1F25377E057
:10158000EBC0FEF0EAC0FDF0E9C0FCF0E8C0FBF003
:101590000101026B016B006BECC0FFF0000144DF46
:1015A00003C0F2F002C0F1F001C0F0F000C0EFF0B3
:1015B000036AF551ED25016EEE51032201C0F7F0EB
:1015C00003C0F8F0EACFFAF0E9CFF9F0EBC0FEF093
:1015D000EAC0FDF0E9C0FCF0E8C0FBF00101026BDD
:1015E000016B006BECC0FFF000011EDFEFCF00F0DD
:1015F000ECCF01F0ECCF02F0ECCF03F0FAC0EAFF41
:10160000F9C0E9FF03C0FEF002C0FDF001C0FCF02C
:1016100000C0FBF0300E0024006E000E0120000E12
:101620000220000E0320F8C0EAFFF7C0E9FF00C067
:10163000EFFF036AF551ED25E96EEE510320EA6EE6
:10164000EF5039080AE2036AF551ED25E96EEE51D3
:101650000320EA6E070EEF24EF6EF52BF2C0EBF0DD
:10166000F1C0EAF0F0C0E9F0EFC0E8F081D7F42D66
:101670000AD0036AF551ED25E96EEE510320EA6EBA
:101680002D0EEF6EF52BF36BD890F531F35D2FE255
:10169000036AF351ED25E96EEE510320EA6EEFCFB8
:1016A000F6F0036AF351ED25016EEE51032203C0FB
:1016B000F8F0F351F55DFF0F036AED25E96EEE5189
:1016C0000320EA6EEFCFFBF0F8C0EAFF01C0E9FFAC
:1016D000FBC0EFFFF351F55DFF0F036AED25E96EE7
:1016E000EE510320EA6EF6C0EFFFF32BCDD7036A6D
:1016F000F551ED25E96EEE510320EA6EEF6AEDC07B
:1017000001F0EEC002F0000CE5C0E7F0E4C0E6F046
:10171000E7C003F0E6C0E9FFE7C0EAFFEF5204E0EC
:10172000E62BD8B4E72BF4D7E451E65D006EE55123
:10173000E759036E00C001F0000CE66BE551E65D71
:101740000FE2036AE651E325E96EE4510320EA6EF5
:10175000EFCFE7F0E7C0EBF071EC06F0E62BEED749
:10176000000C23C0E5F022C0E4F021C0E3F020C06B
:10177000E2F045EF07F003C04FF102C04EF101C0A7
:101780004DF100C04CF10101536B526B516B7F0E58
:10179000506F000160EC07F000C0E2F001C0E3F020
:1017A00002C0E4F003C0E5F003C04BF102C04AF10F
:1017B00001C049F100C048F101014F6BC00E4E6FEE
:1017C000280E4D6F8F0E4C6F0001DBEC07F0D892A6
:1017D000790E0101516FDA0E506F150E4F6F940E96
:1017E0004E6F03C055F102C054F101C053F100C067
:1017F00052F100018FDC03C0E9F002C0E8F001C043
:10180000E7F000C0E6F0C2D503C075F002C074F086
:1018100001C073F000C072F02C0E7225766F7D0E41
:101820007321776F000E7421786F000E7521796F28
:10183000186AF2BE188EF29E79C0F2F078C0F1F00C
:1018400077C0F0F076C0EFF0F66B020EF56F3A0E4F
:10185000F46FB10EF36F9CEC01F018BEF28E03C072
:101860007DF002C07CF001C07BF000C07AF0186A05
:10187000F2BE188EF29E79C0F2F078C0F1F077C017
:10188000F0F076C0EFF0F66B020EF56F3A0EF46FE3
:10189000B10EF36F9CEC01F018BEF28EEFCF7EF02C
:1018A000ECCF7FF0ECCF80F0ECCF81F0186AF2BE85
:1018B000188EF29E81C0F2F080C0F1F07FC0F0F08F
:1018C0007EC0EFF0F66BF56B8E0EF46FAC0EF36F1F
:1018D0009CEC01F018BEF28E03C0E5F002C0E4F00B
:1018E00001C0E3F000C0E2F0010E0024E66F000E3C
:1018F0000120E76F000E0220E86F000E0320E96F61
:10190000FA6FE8C0F9F0E7C0F8F0E6C0F7F0FE6B58
:10191000FD6BFC6B030EFB6F59DD0330856F0230EE
:10192000846F0130836F0030826F8533843383335B
:1019300082333F0E851785C0FAF084C0F9F083C06A
:10194000F8F082C0F7F0FE6BFD6B8E0EFC6FAC0EF4
:10195000FB6F3CDD00507E5D866F01507F59876FC5
:1019600002508059886F03508159896F186AF2BEFE
:10197000188EF29E89C0F2F088C0F1F087C0F0F0B6
:1019800086C0EFF0F66BF56B050EF46FB50EF36FD6
:101990009CEC01F018BEF28E03C08DF002C08CF0FA
:1019A00001C08BF000C08AF0186AF2BE188EF29E59
:1019B00089C0F2F088C0F1F087C0F0F086C0EFF087
:1019C000F66BF56B050EF46FB50EF36F9CEC01F042
:1019D00018BEF28EEFCF8EF0ECCF8FF0ECCF90F000
:1019E000ECCF91F0186AF2BE188EF29E91C0F2F020
:1019F00090C0F1F08FC0F0F08EC0EFF0F66BF56B99
:101A0000010EF46F6D0EF36F9CEC01F018BEF28EB8
:101A100003C0E5F002C0E4F001C0E3F000C0E2F072
:101A2000010E0024E66F000E0120E76F000E022079
:101A3000E86F000E0320E96FFA6FE8C0F9F0E7C025
:101A4000F8F0E6C0F7F0FE6BFD6BFC6B030EFB6F6E
:101A5000BDDC0330956F0230946F0130936F00301E
:101A6000926F95339433933392333F0E951795C00D
:101A7000FAF094C0F9F093C0F8F092C0F7F0FE6B62
:101A8000FD6B010EFC6F6D0EFB6FA0DC00508E5DD8
:101A9000966F01508F59976F02509059986F03506D
:101AA0009159996F7DC0FAF07CC0F9F07BC0F8F0D5
:101AB0007AC0F7F0FE6BFD6B010EFC6F900EFB6FB2
:101AC00085DC03C0E5F002C0E4F001C0E3F000C033
:101AD000E2F085C0FAF084C0F9F083C0F8F082C06B
:101AE000F7F0FE6BFD6BFC6B640EFB6F6FDC005060
:101AF000E225E66F0150E321E76F0250E421E86F31
:101B00000350E521E96F8A35006E8B35016E8C3507
:101B1000026E8D35036E0036013602360336FC0E3A
:101B200000160050E625EA6F0150E721EB6F0250E6
:101B3000E821EC6F0350E921ED6F9251EA259A6F8D
:101B40009351EB219B6F9451EC219C6F9551ED21AA
:101B50009D6F99C0FAF098C0F9F097C0F8F096C060
:101B6000F7F0FE6BFD6BFC6B050EFB6F2FDC03C00B
:101B7000E5F002C0E4F001C0E3F000C0E2F0340E92
:101B80000024E66F010E0120E76F000E0220E86FCF
:101B9000000E0320E96F186AF2BE188EF29EF26FF3
:101BA000E8C0F1F0E7C0F0F0E6C0EFF0F66BF56BDF
:101BB000F46B990EF36F9CEC01F018BEF28E020EDE
:101BC000005C9E6F000E01589F6F000E0258A06FC0
:101BD000000E0358A16F040E9E25E26F000E9F2198
:101BE000E36F000EA021E46F000EA121E56FFA6FF4
:101BF000E4C0F9F0E3C0F8F0E2C0F7F0FE6BFD6B73
:101C0000FC6B990EFB6FE6EC09F003C0E6F002C036
:101C1000E5F001C0E4F000C0E3F0186AF2BE188EEF
:101C2000F29E03C0F2F002C0F1F001C0F0F000C07B
:101C3000EFF0F66BF56BF46B050EF36F9CEC01F0B7
:101C400018BEF28E0050965DE46F01509759E56F13
:101C500002509859E66F03509959E76F7A0EE425C0
:101C6000A26F000EE521A36F000EE621A46F000E07
:101C7000E721A56FC00E9A5DE26F120E9B59E36FCC
:101C8000000E9C59E46F000E9D59E56F020E9E25D3
:101C9000E66F000E9F21E76F000EA021E86F000E97
:101CA000A121E96F186AF2BE188EF29EF26FE8C0A9
:101CB000F1F0E7C0F0F0E6C0EFF0F66BF56BF46B17
:101CC0000C0EF36F9CEC01F018BEF28E0050E22572
:101CD000A66F0150E321A76F0250E421A86F0350C3
:101CE000E521A96F020E9E25E26F000E9F21E36F92
:101CF000000EA021E46F000EA121E56F186AF2BE6C
:101D0000188EF29EF26FE4C0F1F0E3C0F0F0E2C092
:101D1000EFF0F66BF56BF46B0C0EF36F9CEC01F0CF
:101D200018BEF28EEFCFE3F0ECCFE4F0ECCFE5F0AD
:101D3000ECCFE6F0010EE325AA6F000EE421AB6FB5
:101D4000000EE521AC6F000EE621AD6F010EA2255D
:101D5000AE6F000EA321AF6F000EA421B06F000E76
:101D6000A521B16F700E2024E26F620E2120E36F77
:101D7000000E2220E46F000E2320E56F186AF2BEE9
:101D8000188EF29EF26FE4C0F1F0E3C0F0F0E2C012
:101D9000EFF0F66B010EF56F510EF46F800EF36FDE
:101DA0009CEC01F018BEF28EEFCFB2F0ECCFB3F0A6
:101DB000ECCFB4F0ECCFB5F0EA6A2C0EE96EF2CFBE
:101DC000E2F0F29E000E64EC00F00A000900F5500B
:101DD000EE6E0009FBE1E2BFF28EEB6BEA6BE96BA2
:101DE000AEC0E8F00A0EEC6FEE6B400EED6F96ECB5
:101DF0000AF0E56B400EE46F87DC012C03D040C095
:101E00002DF00CD0EA6A2C0EE96EE26A400EE16E0B
:101E1000020E016EE6CFEEFF012EFCD7EB6BEA6BF4
:101E2000E96BAAC0E8F00A0EEC6FEE6B400EED6FA6
:101E300096EC0AF0E56B400EE46F66DC012C03D0F3
:101E400040C030F00CD0EA6A2F0EE96EE26A400E14
:101E5000E16E020E016EE6CFEEFF012EFCD7186A8E
:101E6000F2BE188EF29EA9C0F2F0A8C0F1F0A7C091
:101E7000F0F0A6C0EFF0F66BF56B070EF46FD00E26
:101E8000F36F9CEC01F018BEF28EEFCF00F0ECCFB8
:101E900001F0ECCF02F0ECCF03F000C0E2F0EB6B0E
:101EA000EA6BE96B00C0E8F00A0EEC6FEE6B400ED7
:101EB000ED6F96EC0AF0E56B400EE46F25DC012C2B
:101EC00003D040C033F00CD0EA6A320EE96EE26A09
:101ED000400EE16E020E016EE6CFEEFF012EFCD742
:101EE000EC6BED6B5DEC06F0E56B2C0EE46F0CDC3F
:101EF00001C0E2F0E46B2C0EE36F01C0E5F01DDCE5
:101F0000EA6A2C0EE96EF2CFE2F0F29E000E76EC59
:101F100000F00A000900F550EE6E0009FBE1E2BF97
:101F2000F28E186AF2BE188EF29EB5C0F2F0B4C0FE
:101F3000F1F0B3C0F0F0B2C0EFF0F66BF56B0E0E3F
:101F4000F46F100EF36F9CEC01F018BEF28E00C01F
:101F5000E2F0EB6BEA6BE96B00C0E8F00A0EEC6FA5
:101F6000EE6B400EED6F96EC0AF0E56B400EE46F01
:101F700084EC0BF00150020822E3E56B400EE46FA5
:101F800084EC0BF02E0ED8800154E26F000ED8A026
:101F9000E806E36FE56B400EE46F84EC0BF001C0E4
:101FA000E4F0E3C0EAFFE2C0E9FFE26A400EE16E5E
:101FB0000150016E04E0E6CFEEFF012EFCD7186A57
:101FC000F2BE188EF29EB5C0F2F0B4C0F1F0B3C00C
:101FD000F0F0B2C0EFF0F66BF56B0E0EF46F100E72
:101FE000F36F9CEC01F018BEF28EEFCFE2F0ECCF75
:101FF000E3F0ECCFE4F0ECCFE5F0EACFE7F0E9CFA7
:10200000E6F0186AF2BE188EF29EE5C0F2F0E4C067
:10201000F1F0E3C0F0F0E2C0EFF0F66BF56BF46BBB
:102020003C0EF36F9CEC01F018BEF28EE7C0EAFFA5
:10203000E6C0E9FF00C0E3F0EB6BEA6BE96B00C0C0
:10204000E8F00A0EEC6FEE6B400EED6F96EC0AF0C6
:10205000E56B400EE46F84EC0BF00150020822E3C4
:10206000E56B400EE46F84EC0BF0310ED880015428
:10207000E26F000ED8A0E806E36FE56B400EE46F58
:1020800084EC0BF001C0E4F0E3C0EAFFE2C0E9FF3A
:10209000E26A400EE16E0150016E04E0E6CFEEFF11
:1020A000012EFCD7186AF2BE188EF29EB5C0F2F06F
:1020B000B4C0F1F0B3C0F0F0B2C0EFF0F66BF56B66
:1020C000F46B3C0EF36F9CEC01F018BEF28EEFCF78
:1020D00000F0ECCF01F0ECCF02F0ECCF03F000C049
:1020E000E2F0EB6BEA6BE96B00C0E8F00A0EEC6F14
:1020F000EE6B400EED6F96EC0AF0E56B400EE46F70
:1021000084EC0BF00150020822E3E56B400EE46F13
:1021100084EC0BF0340ED8800154E26F000ED8A08E
:10212000E806E36FE56B400EE46F84EC0BF001C052
:10213000E4F0E3C0EAFFE2C0E9FFE26A400EE16ECC
:102140000150016E04E0E6CFEEFF012EFCD7EC6BF0
:10215000010EED6F5DEC06F0E56B2C0EE46F84EC88
:102160000BF001C0E2F0E46B2C0EE36F01C0E5F070
:102170009DEC0BF0EA6A2C0EE96EF2CFE2F0F29ED3
:10218000000E88EC00F00A000900F550EE6E000920
:10219000FBE1E2BFF28EEB6BEA6BE96BC6C0E8F0E5
:1021A0000A0EEC6FEE6B400EED6F96EC0AF0E56BED
:1021B000400EE46F84EC0BF00150030822E3E56B62
:1021C000400EE46F84EC0BF02F0ED8800154E26FC8
:1021D000000ED8A0E806E36FE56B400EE46F84ECD8
:1021E0000BF001C0E4F0E3C0EAFFE2C0E9FFE26AFD
:1021F000400EE16E0150016E04E0E6CFEEFF012ECD
:10220000FCD7EC6B020EED6F5DEC06F0E56B2C0E6F
:10221000E46F84EC0BF001C0E2F0E46B2C0EE36F92
:1022200001C0E5F09DEC0BF0000CDB6BDC6BDD6BB3
:10223000DE6BDF6BE06B050EE16F93988A989390ED
:102240008A9093928A9293948A9493968A9683988A
:10225000186AF2BE188EF29E140EF16F5AEC02F05C
:1022600018BEF28ED95302E193988A888388186A3F
:10227000F2BE188EF29E140EF16F5AEC02F018BEE8
:10228000F28E93908A80186AF2BE188EF29E0A0E21
:10229000F16F5AEC02F018BEF28E92841F9480B453
:1022A0001F8423C027F022C026F021C025F020C0C3
:1022B00024F023C02BF022C02AF021C029F020C036
:1022C00028F0E06BDF6B2450205C006E2550215815
:1022D000016E265022582750235801C0DCF000C060
:1022E000DBF02850205C006E29502158016E2A50E6
:1022F00022582B50235801C0DEF000C0DDF0D6512B
:10230000DC5D05E303E1D551DB5D01E382D0D4510F
:10231000E05D06E303E1D351DF5D02E393908A9031
:10232000D851DE5D05E303E1D751DD5D01E371D0F6
:10233000DA5305E01FB002D01FA601D06AD0000E0C
:102340001FB4010EE26F9282000E80B2010EE25DB8
:102350005AE023C02BF022C02AF021C029F020C06F
:1023600028F092821F9480B21F84D95308E16E53E3
:1023700002E16F5304E06E51D8B46F076E07D95372
:102380000AE06F51BB5D07E303E1BA516E5D03E202
:102390006E2BD8B46F2B010EDF27000EE0230B0E3F
:1023A000EC6F020EED6F5DEC06F0DF51010BE26F9A
:1023B000E36BE25307E1E35305E12A0EEB6F71ECA7
:1023C00006F004D02E0EEB6F71EC06F00C0EEC6FE5
:1023D000020EED6F5DEC06F0010EE96E6FC0E3F0EA
:1023E0006EC0E2F09AEC06F084840D0E9EA8FED733
:1023F000AD6E010EE96EE0C0E3F0DFC0E2F0F3EC99
:1024000006F0010EC26F1FA203D01F92B1EC0BF0B9
:102410005AD70C0EEC6F020EED6F5DEC06F0010E5C
:10242000E96E6FC0E3F06EC0E2F09AEC06F09390B4
:102430008A9093928A9293948A9493968A96839898
:10244000186AF2BE188EF29E320EF16F5AEC02F04C
:1024500018BEF28E93988A98186AF2BE188EF29E71
:10246000320EF16F5AEC02F018BEF28EDFC001F0AE
:10247000E0C002F0000CEACFDAF0E9CFD9F0D3AF38
:1024800008D0D98FD9A9D92BD21FD31FD22BD8B41A
:10249000D32BD339F009D56FD527E20FD66F320F82
:1024A000D86FD3510F0BD627D627D827E90FD76F70
:1024B000D727D727D2390F0BD727D827D737D837E1
:1024C000D81FD837D2510F0BD827D537070ED46F66
:1024D0000A0ED707D827FDE3D607D727FDE3D50790
:1024E000D627FDE3D407D527FDE3EA6AD40EE96ECB
:1024F000070ED915D99DE906D91507E1D9B9E92AF9
:10250000D9B903D0200E006E1CD0E926D80EE95CA4
:10251000D8B4D98DEF50006E08E1D9BD06D0D9B935
:1025200014D0D9B702D0200E0BD0D9AF06D02D0EC3
:10253000006EED50D99DD99F04D0D987D999300E1E
:10254000002600509EA8FED7AD6EEE50D9ADDED766
:10255000000C94948B948B8A949A94968B86949680
:102560008B968B8A949A94968B8694968B968B9A5C
:10257000949A94968B8694968B968B8A949A94963A
:102580008B8694968B968B9A949A94968B86949637
:102590008B968B8A949A94968B8694968B968B8A3C
:1025A000949A94968B8694968B968B8A949A94960A
:1025B0008B8694968B96F96BF93D01D062D0F86BBF
:1025C00094968B869488000E82B8010EF827949614
:1025D0008B9694968B86D890F8379488000E82B8A4
:1025E000010EF82794968B9694968B86D890F837A0
:1025F0009488000E82B8010EF82794968B969496D4
:102600008B86D890F8379488000E82B8010EF82790
:1026100094968B9694968B86D890F8379488000E73
:1026200082B8010EF82794968B9694968B86D89054
:10263000F8379488000E82B8010EF82794968B968E
:1026400094968B86D890F8379488000E82B8010E45
:10265000F82794968B9694968B86D890F837948822
:10266000000E82B8010EF82794968B96F8AF01D031
:1026700008D0100E006E002EFED700000400F92BCB
:102680009BD794948B84000CF907F8C000F0F951A3
:10269000016E04E0D8900032012EFCD70050010BEF
:1026A00002E18B9A01D08B8A949A94968B869496A9
:1026B0008B96F953E9E1000CFA07F9C0FCF0F8C079
:1026C000FBF0FA51006E05E0D890FC33FB33002E8E
:1026D000FBD7FB51010B006E036A0050031002E1AF
:1026E0008B9A01D08B8A949A94968B8694968B962B
:1026F000FA53E2E1000CF29CF29EF2BEFDD7040018
:10270000D19094948B849EAA04D09EAAFED7AE50FA
:10271000FAD7D66BD56B010ED125016E000ED221F2
:10272000036ED651035C52E303E10150D55D4EE2E6
:1027300010DF8484D76BD75197EC00F0D72B006E55
:1027400000509EA8FED7AD6E040ED75DF4E1010ED9
:10275000C26F94948B94D551010B006E036A0050A4
:10276000031006E0820EF86F080EF96F8DDF05D0BA
:10277000850EF86F080EF96F87DF0A0ED525D76F23
:10278000000ED621D86FF96FD7C0F8F00F0EFA6F90
:1027900093DFF96BF86B090EFA6F8EDFD46BD36B96
:1027A000D45100080DE39EAAFED7AECFD7F0D7C014
:1027B000F8F0080EF96F68DFD32BD8B4D42BF0D71C
:1027C00094948B84D52BD8B4D62BA5D7C00EF212F7
:1027D0000400D180D9EF1AF0E8BF10D00F0E006EC0
:1027E000E73900160A0E005C03E2300E002602D024
:1027F000E851002600509EA8FED7AD6E0F0EE717D9
:102800000A0EE75D02E2300E02D0E89FE851E727AA
:10281000E7519EA8FED7AD6E000CFD6BFC6BFD5121
:10282000FB5D2CE303E1FA51FC5D28E2FF6BFE6BDC
:10283000FF5320E1FE5107081DE394968B86FC515F
:10284000F8250101006F0001FD51F9210101016F1F
:10285000948882B802D0D89001D0D88001C1EAFF14
:1028600000C1E9FFEF3694968B960001FE2BD8B499
:10287000FF2BDED7FC2BD8B4FD2BD1D7000C69DEA3
:1028800094948B94D20EF86F080EF96FFDDEF2C0AF
:10289000F9F0F1C0F8F00F0EFA6F0EDFF86B010ED1
:1028A000F96FF2DEF3C0F8F0080EF96FEDDEF86BA9
:1028B000100EF96FE9DEF86B100EF96FE5DEF5C06A
:1028C000F9F0F4C0F8F0F7C0FBF0F6C0FAF0A5DFBD
:1028D00094948B84000C8484E46BE4510F0844E3EB
:1028E0000D0E9EA8FED7AD6E0A0E9EA8FED7AD6E49
:1028F000E4C0E7F0370EE86F6FDF200E9EA8FED72A
:10290000AD6E3A0E9EA8FED7AD6E200E9EA8FED7E5
:10291000AD6EE451100DF3CFE6F0D2C0F2F0D1C0AD
:10292000F1F0E6C0F3F0F56BD30EF46FF76B100E19
:10293000F66FA5DFE56BE5510F0814E3036AE55177
:10294000D30FE96E000E0320EA6EEFCFE6F0E6C08B
:10295000E7F0370EE86F40DF200E9EA8FED7AD6E81
:10296000E52BE9D7E42BB9D7010EC26FCAEF18F0F7
:10297000CF6BCF3D01D019D0ECDD94948B94500EE9
:10298000F86F080EF96F80DEF86B040EF96F7CDECD
:10299000CFC0F8F0080EF96F77DEF86B0C0EF96F08
:1029A00073DE94948B84CF2BE4D7D3DDD9EF1AF068
:1029B000D76BD56B0A0ED66FD46BD36BD26BD16B42
:1029C000CF51D01105E1006A016A026A036A3DD164
:1029D000D751D72B036ACF25E96ED0510320EA6E79
:1029E000EFCFD8F0D8512D080DE1010ED56FD7519A
:1029F000D72B036ACF25E96ED0510320EA6EEFCFC3
:102A0000D8F00DD0D8512B080AE1D751D72B036A43
:102A1000CF25E96ED0510320EA6EEFCFD8F0D85120
:102A20002F08D8B0FAD0D8513908D8A0F6D0D8514C
:102A3000300821E1036AD751CF25E96ED051032038
:102A4000EA6EEF5078080AE0036AD751CF25E96EA5
:102A5000D0510320EA6EEF5058080DE1100ED66FEA
:102A6000D72BD751D72B036ACF25E96ED05103203E
:102A7000EA6EEFCFD8F0D6510A0844E1D8512F08BA
:102A800040E2D85139083DE3D890D135DA6FD235DC
:102A9000DB6FD335DC6FD435DD6FD135006ED235C9
:102AA000016ED335026ED435036E00360136023620
:102AB00003360036013602360336F80E0016DA51B8
:102AC0000026DB510122DC510222DD51032203C02A
:102AD000D4F002C0D3F001C0D2F000C0D1F0300E6B
:102AE000D85DD127000ED223D323D423D751D72B9F
:102AF000036ACF25E96ED0510320EA6EEFCFD8F0FC
:102B0000BDD78BD0D6511008D8A487D0D851600833
:102B100006E2D8517A0803E3D851DF0B01D0D8512F
:102B2000D86FD8512F0803E2D851390807E2D8519D
:102B30004008D8B072D0D85146086FE3D8512F085A
:102B40002DE2D85139082AE3D135DA6FD235DB6F5F
:102B5000D335DC6FD435DD6FDA37DB37DC37DD3783
:102B6000DA37DB37DC37DD37DA37DB37DC37DD37D1
:102B7000F00EDA17300ED85DDA25006E000EDB217C
:102B8000016E000EDC21026E000EDD21D46F02C04A
:102B9000D3F001C0D2F000C0D1F02AD0D135DA6F25
:102BA000D235DB6FD335DC6FD435DD6FDA37DB3709
:102BB000DC37DD37DA37DB37DC37DD37DA37DB3781
:102BC000DC37DD37F00EDA17410ED85D0A0FDA2553
:102BD000006E000EDB21016E000EDC21026E000E85
:102BE000DD21D46F02C0D3F001C0D2F000C0D1F01B
:102BF000D751D72B036ACF25E96ED0510320EA6E57
:102C0000EF50D86F600806E2D8517A0803E3D85134
:102C1000DF0B01D0D851D86F84D7D6510A080DE107
:102C2000D52D0BD0D11FD21FD31FD41FD12BD8B479
:102C3000D22BD8B4D32BD8B4D42BD1C000F0D2C06F
:102C400001F0D3C002F0D4C003F00CEF19F0700E05
:102C5000DF25E36F620EE021E46F000EE121E56FF6
:102C6000000EE221E66F186AF2BE188EF29EF26F35
:102C7000E5C0F1F0E4C0F0F0E3C0EFF0F66B010E58
:102C8000F56F510EF46F800EF36F9CEC01F018BEDF
:102C9000F28E03C0E7F002C0E6F001C0E5F000C02C
:102CA000E4F0186AF2BE188EF29E03C0F2F002C081
:102CB000F1F001C0F0F000C0EFF0F66BF56B050E1F
:102CC000F46FB50EF36F9CEC01F018BEF28EEFCFEF
:102CD00000F0ECCF01F0ECCF02F0ECCF03F001C03C
:102CE00002F000C001F0000CD890E031EC6FDF3151
:102CF000EB6F0A0EEB25ED6F000EEC21EE6FDF514E
:102D0000010B006E036A026E0034EF6F0334F06F44
:102D1000EF37F037EF37F037EF37F037EF37F0377F
:102D2000EF37F037EF37F037800EEF17EEC0F2F0E5
:102D3000EDC0F1F0EFC0F3F0F56BE10EF46FF76B5F
:102D4000040EF66F9CDDEA6AE70EE96EE26AE10EB8
:102D5000E16E040E016EE6CFEEFF012EFCD7E7C058
:102D600000F0E8C001F0E9C002F0EAC003F0000C96
:102D7000A9EC12F094948B94D10EF86F080EF96FB1
:102D800083DCF96BF86B100EFA6F96DCF86B080EAB
:102D9000F96F7ADCFF0ED06FF96BCF0EF86FFB6B1B
:102DA000010EFA6F3ADDD02BD0510F0B15E10D0E4D
:102DB0009EA8FED7AD6E0A0E9EA8FED7AD6E200E61
:102DC0009EA8FED7AD6ED0C0E7F0370EE86F04DDE9
:102DD0003A0E9EA8FED7AD6ECFC0E7F0370EE86F73
:102DE000FBDC200E9EA8FED7AD6ED03DD5D79494C7
:102DF0008B8400EF1AF0016A026A006A036AD451F8
:102E000002E1D35118E0100ED56FD890D137D237E8
:102E100000360336D451035C02E1D351005C07E372
:102E2000D351005ED8A00306D451035ED88001368A
:102E30000236D52FEAD7000CE950D46F3B0EDB6F7A
:102E40009A0EDA6FCA0ED96FD86B0A0ED66F186A4F
:102E5000F2BE188EF29ED3C0F2F0D2C0F1F0D1C013
:102E6000F0F0D0C0EFF0DBC0F6F0DAC0F5F0D9C07A
:102E7000F4F0D8C0F3F09CEC01F018BEF28E0150D3
:102E8000EFCFD0F0ECCFD1F0ECCFD2F0ECCFD3F04D
:102E900000520FE1D651010A0CE0D4510BE00F0BA8
:102EA000D65D01E00DE2D4BF0BD0D4BD03D0200E1F
:102EB00002D0D46B300E002600509EA8FED7AD6E17
:102EC000186AF2BE188EF29EDBC0F2F0DAC0F1F0A2
:102ED000D9C0F0F0D8C0EFF0F66BF56BF46B0A0ECA
:102EE000F36F9CEC01F018BEF28E03C0DBF002C061
:102EF000DAF001C0D9F000C0D8F0D62FA8D786EFFD
:102F00001AF0A9EC12F094948B94840EF86F080ECA
:102F1000F96F44EC13F0F96BF86B100EFA6F5CEC80
:102F200013F0DBC0F8F0080EF96F44EC13F0DC513D
:102F300001080DE2FF0EDD6FDAC0F8F0080EF96F40
:102F400044EC13F0DD2BDC51DD5DF6E306D0DAC096
:102F5000F8F0080EF96F44EC13F094948B84000C95
:102F60001F96630E545CE90FD8B023D3170FDAEF26
:102F70001AF0EA6A540EE96EE26A550EE16E120E1C
:102F8000016EE6CFEEFF012EFCD7D06B540ECF6F53
:102F900069EC05F002C0D0F001C0CFF0CF5303E1DF
:102FA000D05301E106D3D06B540ECF6F69EC05F01E
:102FB00002C0D0F001C0CFF0D890C035D16FC1357C
:102FC000D26F02C0D4F001C0D3F0230ED66F280E0A
:102FD000D56FD2C0D8F0D1C0D7F0010ED96FDA6B5F
:102FE00015EC11F0E6D2EA6A540EE96EE26A550E6B
:102FF000E16E120E016EE6CFEEFF012EFCD7D06B14
:10300000540ECF6F69EC05F002C0D0F001C0CFF0D4
:10301000CF5303E1D05301E1CCD2D06B540ECF6F2C
:1030200069EC05F002C0D0F001C0CFF0D890C035F7
:10303000D16FC135D26F02C0D4F001C0D3F0230EDE
:10304000D66F280ED56FD2C0D8F0D1C0D7F0D96BCB
:10305000DA6B15EC11F0ADD2EA6A540EE96EE26A51
:10306000550EE16E120E016EE6CFEEFF012EFCD77B
:10307000D06B540ECF6F69EC05F002C0D0F001C0E8
:10308000CFF0CF5303E1D05301E193D28484D06BCE
:10309000540ECF6F69EC05F002C0D0F001C0CFF044
:1030A000D16BD151B8EC00F0D12B006E00509EA82E
:1030B000FED7AD6E060ED15DF4E1100EE96ED0C004
:1030C000D3F0CFC0D2F03BEC12F0090ED26FD25148
:1030D000B8EC00F0D22B006E00509EA8FED7AD6E6B
:1030E000120ED25DF4E1010EC26FD06B540ECF6FA1
:1030F00069EC05F002C0D0F001C0CFF002C0D2F000
:1031000001C0D1F07BEF13F0F29CF29EF2BEFDD72E
:103110000400D190EA6A540EE96EE26A550EE16E3F
:10312000120E016EE6CFEEFF012EFCD78484D06B29
:10313000540ECF6F69EC05F002C0D0F001C0CFF0A3
:10314000D16BD151CFEC00F0D12B006E00509EA876
:10315000FED7AD6E080ED15DF4E1100EE96ED0C061
:10316000D3F0CFC0D2F03BEC12F03A0E9EA8FED7BF
:10317000AD6E010EC26FD06B540ECF6F69EC05F0CF
:1031800002C0D0F001C0CFF002C0D2F001C0D1F037
:103190006BEF14F0C00EF2120400D1800AD2EA6A7A
:1031A000540EE96EE26A550EE16E120E016EE6CF24
:1031B000EEFF012EFCD7D06B540ECF6F69EC05F0FB
:1031C00002C0D0F00150CF6F160802E1D05301E0E9
:1031D000F0D18484CF6BCF51E3EC00F0CF2B006EA5
:1031E00000509EA8FED7AD6E1D0ECF5DF4E1010E1E
:1031F000C26FB8EF14F0EA6A540EE96EE26A550E37
:10320000E16E120E016EE6CFEEFF012EFCD7D06B01
:10321000540ECF6FD8EF14F003C023F002C022F099
:1032200001C021F000C020F0F06B020EF16FE7EC5E
:1032300004F0186AF2BE188EF29E23C0F2F022C08B
:10324000F1F021C0F0F020C0EFF0070EF66F860E0F
:10325000F56F1F0EF46F800EF36F9CEC01F018BE3B
:10326000F28EEFCFCFF0ECCFD0F0ECCFD1F0ECCFAF
:10327000D2F0D2C0E2F0D1C0E1F0D0C0E0F0CFC0D7
:10328000DFF0E5DC02C0D1F001C0D0F002C0E0F018
:1032900001C0DFF029DD03C0D4F002C0D3F001C0CB
:1032A000D2F000C0D1F0EACFD6F0E9CFD5F003C01C
:1032B000FAF002C0F9F001C0F8F000C0F7F0FE6BC0
:1032C000FD6B010EFC6FC20EFB6FE6EC09F0D6C081
:1032D000EAFFD5C0E9FF03C06DF002C06CF001C089
:1032E0006BF000C06AF09D80C00EF2121F80CF6BA1
:1032F0000CEC04F01F985DD1D890C035CF6FC1356C
:10330000D06F070ED46FD00ED36F230ED66F280E5A
:10331000D56FD0C0D8F0CFC0D7F0010ED96FDA6B1F
:1033200015EC11F0D890C035CF6FC135D06F070EB6
:10333000D46FD00ED36F230ED66F280ED56FD0C0AA
:10334000D8F0CFC0D7F0D96BDA6B15EC11F002C012
:10335000BBF001C0BAF06F6B6E6B010ECF6F0CEC5F
:1033600004F027D1EA6A540EE96EE26A550EE16E66
:10337000120E016EE6CFEEFF012EFCD7D06B540E7D
:10338000CF6F69EC05F002C0D0F00150CF6F160886
:1033900002E1D05301E00DD1010ECF6F0CEC04F02F
:1033A00008D1000E016EC250C70B0110C26E100E84
:1033B000006E002EFED70000C284C2B4FED7C3CF79
:1033C000C3F0C4CFC4F0CF6BCF51FFEC00F0CF2BD4
:1033D000006E00509EA8FED7AD6E070ECF5DF4E1E3
:1033E000100EE96EC4C0E3F0C3C0E2F0F3EC06F0E7
:1033F000E0D0F29CF29EF2BEFDD70400D190B8D48A
:10340000C00EF2120400D180D4D0CF6BCF5112EC99
:1034100001F0CF2B006E00509EA8FED7AD6E060EB9
:10342000CF5DF4E1100EE96E6FC0E3F06EC0E2F024
:10343000F3EC06F02F0E9EA8FED7AD6E100EE96ECF
:10344000BBC0E3F0BAC0E2F0F3EC06F0CF6BCF51B3
:1034500026EC01F0CF2B006E00509EA8FED7AD6E7B
:103460000A0ECF5DF4E1100EE96EC7C0E3F0C6C0EE
:10347000E2F0F3EC06F0C4C0D2F0C3C0D1F0D46BDC
:10348000C5C0D3F0B8DC02C0D0F001C0CFF0D16B22
:10349000D1513AEC01F0D12B006E00509EA8FED71E
:1034A000AD6E0A0ED15DF4E1100EE96ED0C0E3F00E
:1034B000CFC0E2F0F3EC06F0200E9EA8FED7AD6E72
:1034C000280E9EA8FED7AD6EC5C0D2F01F0ED36FDA
:1034D000A4EC03F0290E9EA8FED7AD6ECF6BCF51A2
:1034E00051EC01F0CF2B006E00509EA8FED7AD6EC0
:1034F000080ECF5DF4E1410EE96E23C0D3F022C087
:10350000D2F021C0D1F020C0D0F096D4186AF2BE1B
:10351000188EF29E23C0F2F022C0F1F021C0F0F02C
:1035200020C0EFF0070EF66F860EF56F1F0EF46FDA
:10353000800EF36F9CEC01F018BEF28EEFCFCFF04F
:10354000ECCFD0F0ECCFD1F0ECCFD2F0D2C0E2F0A3
:10355000D1C0E1F0D0C0E0F0CFC0DFF027EC16F032
:1035600002C0D1F001C0D0F0D26BD25164EC01F0B6
:10357000D22B006E00509EA8FED7AD6E070ED25D16
:10358000F4E1100EE96ED1C0E3F0D0C0E2F0F3EC4C
:1035900006F00FD0AA0EDA6FDB6BFF0EDC6FB1DC2A
:1035A00008D09D900400D19004D09D80D18004006B
:1035B00000D0000CF2CF0EF0F29EE824F76AF73646
:1035C000D90FF66E350EF7220A00F550FA6E080094
:1035D000F5500EBEF28EF96E943558309E31B235EC
:1035E000B235F8320A34B235B235B235722FE62F21
:1035F000AA35B235B23508316433F631B235B23559
:10360000F233A235A2339E989E9A9D9AAB9EAB98B8
:10361000AC98AC9A030E006E002EFED7AB88AB8E32
:10362000AC8A9D8A40EF30F0D7C0E2F0D6C0E1F01E
:10363000D5C0E0F0D4C0DFF027EC16F002C0D9F01E
:1036400001C0D8F0D9C0E0F0D8C0DFF074EC16F0BB
:1036500003C0E2F002C0E1F001C0E0F000C0DFF022
:10366000EACFE4F0E9CFE3F003C0FAF002C0F9F0EA
:1036700001C0F8F000C0F7F0FE6BFD6B010EFC6FAF
:10368000C20EFB6FE6EC09F0E4C0EAFFE3C0E9FF1D
:1036900003C0DDF002C0DCF001C0DBF000C0DAF0F6
:1036A000186AF2BE188EF29ED7C0F2F0D6C0F1F0C2
:1036B000D5C0F0F0D4C0EFF0070EF66F860EF56FB0
:1036C0001F0EF46F800EF36F9CEC01F018BEF28EAB
:1036D000EFCF00F0ECCF01F0ECCF02F0ECCF03F035
:1036E0000350DD5D0FE30BE10250DC5D0BE307E10E
:1036F0000150DB5D07E303E1DA51005C03E2000EF9
:10370000016E97D0186AF2BE188EF29ED7C0F2F002
:10371000D6C0F1F0D5C0F0F0D4C0EFF0070EF66FD0
:10372000860EF56F1F0EF46F800EF36F9CEC01F0A8
:1037300018BEF28EEFCFDFF0ECCFE0F0ECCFE1F08F
:10374000ECCFE2F0DA51DF5DE36FDB51E059E46F7B
:10375000DC51E159E56FDD51E259E66FEACFE8F05F
:10376000E9CFE7F0186AF2BE188EF29EF26FE5C05C
:10377000F1F0E4C0F0F0E3C0EFF0F66BF56B010E92
:10378000F46FC20EF36F9CEC01F018BEF28EE8C02D
:10379000EAFFE7C0E9FF00C0C8F0C8517B0803E2B8
:1037A000FF0E016E46D0D890D931E06FD831DF6F6F
:1037B0000A0EDF25E16F000EE021E26FD851010B08
:1037C000006E036A026E0034E36F0334E46FE33784
:1037D000E437E337E437E337E437E337E437E33715
:1037E000E437E337E437800EE317040EE325E56F93
:1037F000000EE421E66FC851E525E76F000EE621D3
:10380000E86FE2C0F2F0E1C0F1F0E7C0F3F0F56B71
:10381000DE0EF46FF76B010EF66F3FEC14F0C8513B
:10382000050805E2DE5303E1FF0E016E02D0DEC0A3
:1038300001F00BEF1DF0A9EC12F094948B94830E21
:10384000F86F080EF96F44EC13F0D6C0F9F0D5C04C
:10385000F8F00F0EFA6F5CEC13F0F96BF86B090ED1
:10386000FA6F5CEC13F094948B84FEEF1DF0FBEC8C
:1038700004F0186AF2BE188EF29E23C0F2F022C045
:10388000F1F021C0F0F020C0EFF0070EF66F860EC9
:10389000F56F1F0EF46F800EF36F9CEC01F018BEF5
:1038A000F28EEFCFD0F0ECCFD1F0ECCFD2F0ECCF66
:1038B000D3F06D51D35DD8A073D00BE16C51D25DC4
:1038C0006FE307E16B51D15D6BE303E16A51D05DBA
:1038D00067E3800E6A25D06F510E6B21D16F010E08
:1038E0006C21D26F000E6D21D36F186AF2BE188E54
:1038F000F29EF26FD2C0F1F0D1C0F0F0D0C0EFF084
:10390000070EF66F860EF56F1F0EF46F800EF36FC5
:103910009CEC01F018BEF28EEFCFD1F0ECCFD2F0DC
:10392000ECCFD3F0ECCFD4F0D4C0E2F0D3C0E1F0D0
:10393000D2C0E0F0D1C0DFF027EC16F002C0D3F027
:1039400001C0D2F002C0E0F001C0DFF074EC16F06C
:1039500003C0D6F002C0D5F001C0D4F000C0D3F04F
:10396000EACFD8F0E9CFD7F003C0FAF002C0F9F0FF
:1039700001C0F8F000C0F7F0FE6BFD6B010EFC6FAC
:10398000C20EFB6FE6EC09F0D8C0EAFFD7C0E9FF32
:1039900003C06DF002C06CF001C06BF000C06AF0B3
:1039A00020506A5D006E21506B59016E22506C5997
:1039B000026E23506D59B96F02C0B8F001C0B7F064
:1039C00000C0B6F0186AF2BE188EF29E23C0F2F064
:1039D00022C0F1F021C0F0F020C0EFF0070EF66F2A
:1039E000860EF56F1F0EF46F800EF36F9CEC01F0E6
:1039F00018BEF28EEFCFD0F0ECCFD1F0ECCFD2F0FA
:103A0000ECCFD3F0D3C0D7F0D2C0D6F0D1C0D5F030
:103A1000D0C0D4F009D601C0CFF0CF5345E1186A29
:103A2000F2BE188EF29E23C0F2F022C0F1F021C047
:103A3000F0F020C0EFF0070EF66F860EF56F1F0E48
:103A4000F46F800EF36F9CEC01F018BEF28EEFCF96
:103A5000D0F0ECCFD1F0ECCFD2F0ECCFD3F0D3C09C
:103A6000E2F0D2C0E1F0D1C0E0F0D0C0DFF027EC4E
:103A700016F002C0D2F00150D16F010BD36FD46B9E
:103A8000D3530AE1D45308E1AA0EDA6FDB6BFF0EC1
:103A9000DC6F81EC17F008D0AA0EDA6F800EDB6FB6
:103AA0007F0EDC6F81EC17F0CF3D01D002D0CF53F9
:103AB00002E1B40ECF6FCF51B408D8B49FD0C4C0C8
:103AC000D2F0C3C0D1F0D46BC5C0D3F0FBEC16F07C
:103AD00001C0D0F0186AF2BE188EF29E23C0F2F038
:103AE00022C0F1F021C0F0F020C0EFF0070EF66F19
:103AF000860EF56F1F0EF46F800EF36F9CEC01F0D5
:103B000018BEF28EEFCFD1F0ECCFD2F0ECCFD3F0E5
:103B1000ECCFD4F0D4C0E2F0D3C0E1F0D2C0E0F0FA
:103B2000D1C0DFF027EC16F002C0D3F00150D26F05
:103B3000010B006E036A026E0034D46F0334D56F3C
:103B4000D437D537D437D537D437D537D437D53719
:103B5000D437D537D437D537800ED417040ED425B3
:103B6000D66F000ED521D76FC851D625D86F000E5D
:103B7000D721D96FD0C0DAF0D8C0DBF0010EDC6FEE
:103B800081EC17F0186AF2BE188EF29E23C0F2F094
:103B900022C0F1F021C0F0F020C0EFF0070EF66F68
:103BA000860EF56F1F0EF46F800EF36F9CEC01F024
:103BB00018BEF28EEFCFD0F0ECCFD1F0ECCFD2F038
:103BC000ECCFD3F0D3C0E2F0D2C0E1F0D1C0E0F04E
:103BD000D0C0DFF027EC16F002C0D2F001C0D1F067
:103BE000D8900230036E0130026EF20FD36F030ED5
:103BF0000320D46FD66FD3C0D5F01DD6EA6A2C0E41
:103C0000E96EF2CFD0F0F29E000EA7EC00F00A00B1
:103C10000900F550EE6E0009FBE1D0BFF28E186A84
:103C2000F2BE188EF29E23C0F2F022C0F1F021C045
:103C3000F0F020C0EFF0070EF66F860EF56F1F0E46
:103C4000F46F800EF36F9CEC01F018BEF28EEFCF94
:103C5000D0F0ECCFD1F0ECCFD2F0ECCFD3F0D3C09A
:103C6000E2F0D2C0E1F0D1C0E0F0D0C0DFF027EC4C
:103C700016F002C0D2F001C0D1F0EB6BEA6B02C0CB
:103C8000E9F001C0E8F00A0EEC6FEE6B400EED6F4C
:103C900096EC0AF0E56B400EE46F84EC0BF0300E0E
:103CA000D8800154D06F000ED8A0E806D16FE56B24
:103CB000400EE46F84EC0BF001C0D2F0D1C0EAFFFB
:103CC000D0C0E9FFE26A400EE16E0150016E04E0EF
:103CD000E6CFEEFF012EFCD70A0EEC6FED6B5DEC2C
:103CE00006F00A0EEC6FED6B5DEC06F00A0EEC6F61
:103CF000ED6B5DEC06F0E56B2C0EE46F84EC0BF0E5
:103D000001C0D0F0E46B2C0EE36F01C0E5F09DEC38
:103D10000BF0EA6A2C0EE96EF2CFD0F0F29E000EA4
:103D200088EC00F00A000900F550EE6E0009FBE196
:103D3000D0BFF28EDF0E2F6EEB6BEA6BE96BCFC05C
:103D4000E8F00A0EEC6FEE6B400EED6F96EC0AF0A9
:103D5000E56B400EE46F84EC0BF00150030822E3A6
:103D6000E56B400EE46F84EC0BF02F0ED88001540D
:103D7000D06F000ED8A0E806D16FE56B400EE46F5F
:103D800084EC0BF001C0D2F0D1C0EAFFD0C0E9FF53
:103D9000E26A400EE16E0150016E04E0E6CFEEFFF4
:103DA000012EFCD70A0EEC6F010EED6F5DEC06F0F4
:103DB000E56B2C0EE46F84EC0BF001C0D0F0E46BEB
:103DC0002C0EE36F01C0E5F09DEC0BF0CFC001F0CD
:103DD000000C49C150F101014D51501B50AF05D0AD
:103DE000D894D89049BFD8802FD049C150F14CC148
:103DF00051F14851515F06E050AF26D0D850010A2A
:103E0000D86E22D04DC151F14951515F06E050AFFB
:103E10001BD0D850010AD86E17D04EC151F14A516B
:103E2000515F06E050AF10D0D850010AD86E0CD0C8
:103E30004FC151F14B51515F06E050AF05D0D85002
:103E4000010AD86E01D0D8900001000C0101169132
:103E5000169309C10DF108C10CF107C10BF106C1A0
:103E60000AF109C14BF108C14AF107C149F106C184
:103E700048F14F6B4E6B4D6B4C6B0001AADF05E3B5
:103E8000010116810B51800A0B6F01014B6B4A6BCC
:103E9000496B7F0E486F0DC14FF10CC14EF10BC144
:103EA0004DF10AC14CF1000194DF1BE301014B6BA2
:103EB0004A6B496B7F0E486F0DC14FF10CC14EF13B
:103EC0000BC14DF10AC14CF10001DBEC07F003C05E
:103ED0000DF102C00CF101C00BF100C00AF10101AB
:103EE00016830A0E01014F6F890E4E6F340E4D6F0F
:103EF0007C0E4C6F0DC153F10CC152F10BC151F14D
:103F00000AC150F1000160EC07F000C017F101C0D8
:103F100018F102C019F103C01AF103C04FF102C039
:103F20004EF101C04DF100C04CF10DC153F10CC177
:103F300052F10BC151F10AC150F160EC07F000C021
:103F40001BF101C01CF102C01DF103C01EF1D8928B
:103F500003C051F102C050F101C04FF100C04EF159
:103F60007C0E0101556F790E546F350E536F810E23
:103F7000526F00018AEC08F003C011F102C010F189
:103F800001C00FF100C00EF111C14FF110C14EF18F
:103F90000FC14DF10EC14CF10DC153F10CC152F1E5
:103FA0000BC151F10AC150F160EC07F000C017F1EC
:103FB00001C018F102C019F103C01AF103C04FF19A
:103FC00002C04EF101C04DF100C04CF10DC153F1E2
:103FD0000CC152F10BC151F10AC150F160EC07F074
:103FE00000C01BF101C01CF102C01DF103C01EF195
:103FF000D89203C051F102C050F101C04FF100C08E
:104000004EF13F0E0101556F020E546F330E536F88
:10401000830E526F00018AEC08F003C011F102C058
:1040200010F101C00FF100C00EF111C14FF110C12C
:104030004EF10FC14DF10EC14CF10DC153F10CC148
:1040400052F10BC151F10AC150F160EC07F000C010
:1040500017F101C018F102C019F103C01AF103C031
:104060004FF102C04EF101C04DF100C04CF10DC145
:1040700053F10CC152F10BC151F10AC150F160EC86
:1040800007F000C01BF101C01CF102C01DF103C00C
:104090001EF1D89203C051F102C050F101C04FF19E
:1040A00000C04EF1330E0101556F8C0E546F1E0E81
:1040B000536F830E526F00018AEC08F003C011F1B8
:1040C00002C010F101C00FF100C00EF101014F6BF1
:1040D0004E6B4D6B7F0E4C6F0DC153F10CC152F105
:1040E0000BC151F10AC150F1000160EC07F000C0B2
:1040F00017F101C018F102C019F103C01AF103C091
:104100004FF102C04EF101C04DF100C04CF10DC1A4
:1041100053F10CC152F10BC151F10AC150F160ECE5
:1041200007F000C01BF101C01CF102C01DF103C06B
:104130001EF1D89203C051F102C050F101C04FF1FD
:1041400000C04EF11B0E0101556FE40E546F350E89
:10415000536F820E526F00018AEC08F003C015F114
:1041600002C014F101C013F100C012F115C14FF1EA
:1041700014C14EF113C14DF112C14CF10DC153F1F7
:104180000CC152F10BC151F10AC150F160EC07F0C2
:1041900000C017F101C018F102C019F103C01AF1F3
:1041A00003C04FF102C04EF101C04DF100C04CF10F
:1041B0000DC153F10CC152F10BC151F10AC150F1C3
:1041C00060EC07F000C01BF101C01CF102C01DF142
:1041D00003C01EF1D89203C051F102C050F101C0DA
:1041E0004FF100C04EF1A40E0101556FDB0E546F6C
:1041F000670E536F830E526F00018AEC08F003C004
:1042000015F102C014F101C013F100C012F115C183
:104210004FF114C14EF113C14DF112C14CF10DC15A
:1042200053F10CC152F10BC151F10AC150F160ECD4
:1042300007F000C017F101C018F102C019F103C066
:104240001AF103C04FF102C04EF101C04DF100C0A0
:104250004CF10DC153F10CC152F10BC151F10AC126
:1042600050F160EC07F000C01BF101C01CF102C06E
:104270001DF103C01EF1D89203C051F102C050F1EC
:1042800001C04FF100C04EF1330E0101556F8C0E8D
:10429000546F1E0E536F830E526F00018AEC08F0AC
:1042A00003C015F102C014F101C013F100C012F1F6
:1042B0000DC14FF10CC14EF10BC14DF10AC14CF1D2
:1042C00011C153F110C152F10FC151F10EC150F1A2
:1042D00060EC07F000C017F101C018F102C019F13D
:1042E00003C01AF103C04BF102C04AF101C049F109
:1042F00000C048F115C14FF114C14EF113C14DF189
:1043000012C14CF1DBEC07F003C011F102C010F157
:1043100001C00FF100C00EF1010116A31DD0D8821B
:10432000DB0E516F0F0E506F490E4F6F7F0E4E6FA9
:1043300011C155F110C154F10FC153F10EC152F129
:1043400000018AEC08F003C011F102C010F101C0B5
:104350000FF100C00EF1010116A103D00F51800A28
:104360000F6F0EC100F00FC101F010C102F011C1BA
:1043700003F00001000C8E0E006E4DC101F04CC127
:1043800002F0036A015209E102C001F0026A080E5C
:10439000005E015202E1006A08D0D89001BE04D04C
:1043A000023601360006F9D7019E000C8E0E006E13
:1043B00001014851005E49C102F04AC101F0028E7C
:1043C000005209E0D890025202E1015204E00232A8
:1043D0000132002EF7D749AF05D0011E021E012A77
:1043E000D8B4022A0001000C7F0E01012E6F2F6B42
:1043F000306B316B7E0E386F800E396F3A6B3B6BD2
:104400007A0E3C6F2A0E3D6FAA0E3E6FA30E3F6FD1
:10441000750E406FB60E416F090E426F9C0E436FD2
:104420006F0E446F4F0E456FB40E466F0B0E476F05
:1044300025C14BF124C14AF123C149F122C148F100
:104440004F6B4E6B4D6B4C6B0001C3DC04E3010101
:104450002351800A236F25C14BF124C14AF123C1A6
:1044600049F122C148F1DB0E01014F6F0F0E4E6F73
:10447000490E4D6F7F0E4C6F0001DBEC07F003C05F
:104480004BF102C04AF101C049F100C048F18EDF92
:1044900001C032F125C14BF124C14AF123C149F1D8
:1044A00022C148F1DB0E01014F6F0F0E4E6F490E16
:1044B0004D6F7F0E4C6F0001DBEC07F000C048F140
:1044C00001C049F102C04AF103C04BF101014D6B3B
:1044D00032C14CF100014FDFD8824BC151F14AC1CA
:1044E00050F149C14FF148C14EF103C055F102C02E
:1044F00054F101C053F100C052F18AEC08F003C03E
:1045000037F102C036F101C035F100C034F1030EBD
:1045100001013217325303E0325102081DE137C165
:104520004FF136C14EF135C14DF134C14CF1DB0EC6
:10453000536F0F0E526F490E516F7F0E506F000177
:1045400060EC07F003C02DF102C02CF101C02BF18B
:1045500000C02AF16FD00101322D37D0D882516BC3
:10456000506B4F6B7F0E4E6F37C155F136C154F112
:1045700035C153F134C152F100018AEC08F000C09A
:1045800048F101C049F102C04AF103C04BF103C038
:104590004FF102C04EF101C04DF100C04CF1DB0EF5
:1045A0000101536F0F0E526F490E516F7F0E506F06
:1045B000000160EC07F003C02DF102C02CF101C036
:1045C0002BF100C02AF136D00101D88237C151F158
:1045D00036C150F135C14FF134C14EF1556B546BBA
:1045E000536B7F0E526F00018AEC08F000C048F157
:1045F00001C049F102C04AF103C04BF103C04FF1C1
:1046000002C04EF101C04DF100C04CF1DB0E0101C2
:10461000536F0F0E526F490E516F7F0E506F000196
:1046200060EC07F003C02DF102C02CF101C02BF1AA
:1046300000C02AF10101296B286B276B7F0E266FC2
:104640002DC14FF12CC14EF12BC14DF12AC14CF1BE
:104650002DC153F12CC152F12BC151F12AC150F19E
:10466000000160EC07F003C02DF102C02CF101C085
:104670002BF100C02AF10101336B3351030866E3CB
:1046800031C14FF130C14EF12FC14DF12EC14CF16E
:104690002DC153F12CC152F12BC151F12AC150F15E
:1046A000000160EC07F003C031F102C030F101C03D
:1046B0002FF100C02EF101013351040DF350036AB4
:1046C000380FE96E010E0320EA6EEFCF48F1ECCF10
:1046D00049F1ECCF4AF1ECCF4BF14BC14FF14AC15C
:1046E0004EF149C14DF148C14CF131C153F130C1D6
:1046F00052F12FC151F12EC150F1000160EC07F0D1
:10470000EACF4DF1E9CF4CF1D89229C151F128C13E
:1047100050F127C14FF126C14EF103C055F102C03F
:1047200054F101C053F100C052F18AEC08F04DC1C0
:10473000EAFF4CC1E9FF03C029F102C028F101C022
:1047400027F100C026F10101332B97D7325102081F
:1047500002E0322D03D02751800A276F26C100F0D6
:1047600027C101F028C102F029C103F00001000CAB
:10477000D8821DC151F11CC150F11BC14FF11AC1AA
:104780004EF1DB0E0101556F0F0E546F490E536F42
:104790007F0E526F00018AEC08F000C01EF101C0CC
:1047A0001FF102C020F103C021F103C025F102C0B6
:1047B00024F101C023F100C022F116DE000C11C16A
:1047C00025F110C124F10FC123F10EC122F10CDE3D
:1047D00003C015F102C014F101C013F100C012F1C1
:1047E00015C14BF114C14AF113C149F112C148F18D
:1047F00001014F6B4E6B4D6B4C6B0001E9EC1EF0F1
:1048000009E1F60E006E400E016E970E026ECE0E9E
:10481000036E23D011C11DF110C11CF10FC11BF19A
:104820000EC11AF1A5DF03C019F102C018F101C0D1
:1048300017F100C016F119C14BF118C14AF117C1A7
:1048400049F116C148F115C14FF114C14EF113C120
:104850004DF112C14CF1DBEC07F0000C13C14BF130
:1048600012C14AF111C149F110C148F101014F6B68
:104870004E6B4D6B4C6B0001E9EC1EF001E205E163
:10488000006A016A026A036A7DD013C117F112C17E
:1048900016F111C115F110C114F1010E01011D6FC6
:1048A000140E1C6F1CC1E9FF1DC1EAFFEF50216B04
:1048B000206F7F0E2025226F000E2121236FD890BC
:1048C000233122311DC1EAFF1CC1E9FFEF6E17C180
:1048D0001BF116C11AF115C119F114C118F113C158
:1048E0004BF112C14AF111C149F110C148F117C190
:1048F0004FF116C14EF115C14DF114C14CF100013B
:10490000DBEC07F0D89217C151F116C150F115C177
:104910004FF114C14EF103C055F102C054F101C072
:1049200053F100C052F18AEC08F003C017F102C045
:1049300016F101C015F100C014F101011CC1E9FF1D
:104940001DC1EAFFEF061BC14BF11AC14AF119C1A3
:1049500049F118C148F117C14FF116C14EF115C107
:104960004DF114C14CF10001E9EC1EF0D8B402D0B5
:104970000101ADD718C100F019C101F01AC102F050
:104980001BC103F0000CD56BD46B570ED36F850E93
:10499000D26FCD0ED96FCC0ED86F7C0ED76F820E32
:1049A000D66FCD0EE16FCC0EE06F140EDF6F820E6E
:1049B000DE6FE96BE86B100EE76F840EE66FE56B58
:1049C000E46B300EE36F810EE26FCD0EE16FCC0E23
:1049D000E06F140EDF6F820EDE6FD9C04BF1D8C0CE
:1049E0004AF1D7C049F1D6C048F1E9C04FF1E8C05B
:1049F0004EF1E7C04DF1E6C04CF1DBEC07F000C032
:104A000002F101C003F102C004F103C005F103C0CB
:104A100009F102C008F101C007F100C006F126EC5F
:104A20001FF003C001F102C000F101C0FFF000C09F
:104A3000FEF001014D6BD1C04CF100019CDC03C0C4
:104A40004FF102C04EF101C04DF100C04CF1DB0E40
:104A50000101536F0F0E526F490E516F800E506F50
:104A6000000160EC07F000C002F101C003F102C0D8
:104A700004F103C005F103C04BF102C04AF101C0CB
:104A800049F100C048F101014F6B4E6B340E4D6F80
:104A9000860E4C6F0001DBEC07F000C006F101C090
:104AA00007F102C008F103C009F1D88203C051F137
:104AB00002C050F101C04FF100C04EF101C155F1EB
:104AC00000C154F1FFC053F1FEC052F18AEC08F06E
:104AD00000C00AF101C00BF102C00CF103C00DF1DE
:104AE00003C01DF102C01CF101C01BF100C01AF18E
:104AF0003FDE03C0F1F002C0F0F001C0EFF000C0F3
:104B0000EEF001014D6BD1C04CF1000134DC03C06B
:104B10004FF102C04EF101C04DF100C04CF1DB0E6F
:104B20000101536F0F0E526F490E516F800E506F7F
:104B3000000160EC07F000C002F101C003F102C007
:104B400004F103C005F103C04BF102C04AF101C0FA
:104B500049F100C048F101014F6B4E6B340E4D6FAF
:104B6000860E4C6F0001DBEC07F000C006F101C0BF
:104B700007F102C008F103C009F1D88203C051F166
:104B800002C050F101C04FF100C04EF101C155F11A
:104B900000C154F1FFC053F1FEC052F18AEC08F09D
:104BA00000C00AF101C00BF102C00CF103C00DF10D
:104BB00003C025F102C024F101C023F100C022F19D
:104BC00013DC03C0F5F002C0F4F001C0F3F000C044
:104BD000F2F001014D6BD1C04CF10001BBEC21F0B2
:104BE00003C04FF102C04EF101C04DF100C04CF1C5
:104BF000DB0E0101536F0F0E526F490E516F800E85
:104C0000506F000160EC07F000C002F101C003F139
:104C100002C004F103C005F103C04BF102C04AF128
:104C200001C049F100C048F101014F6B4E6B340ED9
:104C30004D6F860E4C6F0001DBEC07F000C006F1F3
:104C400001C007F102C008F103C009F1D88203C016
:104C500051F102C050F101C04FF100C04EF101C14D
:104C600055F100C154F1FFC053F1FEC052F18AEC7E
:104C700008F000C00AF101C00BF102C00CF103C042
:104C80000DF103C011F102C010F101C00FF100C01D
:104C90000EF195DD03C0F9F002C0F8F001C0F7F0A5
:104CA00000C0F6F0E9C04FF1E8C04EF1E7C04DF1A9
:104CB000E6C04CF1E9C053F1E8C052F1E7C051F150
:104CC000E6C050F160EC07F000C002F101C003F152
:104CD00002C004F103C005F1D9C04FF1D8C04EF1B4
:104CE000D7C04DF1D6C04CF1D9C053F1D8C052F164
:104CF000D7C051F1D6C050F160EC07F0D89205C191
:104D000051F104C150F103C14FF102C14EF103C092
:104D100055F102C054F101C053F100C052F18AECC8
:104D200008F000C006F101C007F102C008F103C09D
:104D300009F103C013F102C012F101C011F100C06A
:104D400010F18CDD00C007F101C008F102C009F1CB
:104D500003C00AF1E1C04BF1E0C04AF1DFC049F104
:104D6000DEC048F1F1C04FF1F0C04EF1EFC04DF19F
:104D7000EEC04CF1DBEC07F0EACF0CF1E9CF0BF120
:104D8000D8820AC151F109C150F108C14FF107C1E0
:104D90004EF103C055F102C054F101C053F100C0FF
:104DA00052F18AEC08F00CC1EAFF0BC1E9FF03C025
:104DB000DDF002C0DCF001C0DBF000C0DAF0E1C0E1
:104DC0004BF1E0C04AF1DFC049F1DEC048F1F9C063
:104DD0004FF1F8C04EF1F7C04DF1F6C04CF1DBECED
:104DE00007F0D882D5C051F1D4C050F1D3C04FF1F3
:104DF000D2C04EF103C055F102C054F101C053F1CD
:104E000000C052F18AEC08F000C002F101C003F1C9
:104E100002C004F103C005F1DDC04FF1DCC04EF16A
:104E2000DBC04DF1DAC04CF1F5C053F1F4C052F1E2
:104E3000F3C051F1F2C050F160EC07F0D88205C127
:104E400051F104C150F103C14FF102C14EF103C051
:104E500055F102C054F101C053F100C052F18AEC87
:104E600008F003C0FDF002C0FCF001C0FBF000C080
:104E7000FAF0DDC04FF1DCC04EF1DBC04DF1DAC01D
:104E80004CF1F1C053F1F0C052F1EFC051F1EEC05E
:104E900050F160EC07F000C002F101C003F102C064
:104EA00004F103C005F103C04FF102C04EF101C08F
:104EB0004DF100C04CF1DDC053F1DCC052F1DBC05C
:104EC00051F1DAC050F160EC07F000C006F101C00A
:104ED00007F102C008F103C009F103C04FF102C09D
:104EE0004EF101C04DF100C04CF1F1C053F1F0C0E2
:104EF00052F1EFC051F1EEC050F160EC07F000C08C
:104F00000AF101C00BF102C00CF103C00DF1FDC0AC
:104F10004FF1FCC04EF1FBC04DF1FAC04CF1FDC0A9
:104F200053F1FCC052F1FBC051F1FAC050F160ECFA
:104F300007F0D8920DC151F10CC150F10BC14FF1E6
:104F40000AC14EF103C055F102C054F101C053F142
:104F500000C052F18AEC08F000C00EF101C00FF160
:104F600002C010F103C011F1E5C04FF1E4C04EF1F1
:104F7000E3C04DF1E2C04CF1E5C053F1E4C052F1A1
:104F8000E3C051F1E2C050F160EC07F0D88211C1EA
:104F900051F110C150F10FC14FF10EC14EF103C0DC
:104FA00055F102C054F101C053F100C052F18AEC36
:104FB00008F003C0EDF002C0ECF001C0EBF000C05F
:104FC000EAF0EDC013F1ECC012F1EBC011F1EAC050
:104FD00010F144DC03C0EDF002C0ECF001C0EBF0D6
:104FE00000C0EAF0EDC04BF1ECC04AF1EBC049F172
:104FF000EAC048F101014F6B4E6B480E4D6F840EB5
:105000004C6F0001E9EC1EF005E3006A016A026AD8
:10501000036A08D0EAC000F0EBC001F0ECC002F077
:10502000EDC003F0000C01010791F5C0FAF0F4C0E7
:10503000F9F0F3C0F8F0F2C0F7F0F5C04BF1F4C0AE
:105040004AF1F3C049F1F2C048F14F6B4E6B4D6B22
:105050004C6B0001E9EC1EF006E301010781000141
:10506000F851800AF86F01014B6B4A6B496B7E0E59
:10507000486FFAC04FF1F9C04EF1F8C04DF1F7C0DA
:105080004CF10001E9EC1EF047E3D8820101516BBD
:10509000506B4F6B7F0E4E6FFAC055F1F9C054F153
:1050A000F8C053F1F7C052F100018AEC08F000C0DB
:1050B00008F101C009F102C00AF103C00BF103C0FD
:1050C0004BF102C04AF101C049F100C048F10101B1
:1050D0004F6B4E6B4D6B800E4C6F0001DBEC07F09D
:1050E00000C00CF101C00DF102C00EF103C00FF1C0
:1050F00003C013F102C012F101C011F100C010F1A0
:105100002EEC24F003C0FAF002C0F9F001C0F8F070
:1051100000C0F7F0020EF627FAC04FF1F9C04EF1C9
:10512000F8C04DF1F7C04CF1FAC053F1F9C052F19B
:10513000F8C051F1F7C050F160EC07F003C006F180
:1051400002C005F101C004F100C003F1370E0101F6
:105150004F6FBF0E4E6F7D0E4D6F4C6F06C153F1FA
:1051600005C152F104C151F103C150F1000160ECDD
:1051700007F000C008F101C009F102C00AF103C044
:105180000BF1D89203C051F102C050F101C04FF1B0
:1051900000C04EF13D0E0101556FAA0E546F930EE3
:1051A000536F810E526F00018AEC08F003C0FEF0CD
:1051B00002C0FDF001C0FCF000C0FBF0FEC04FF1EA
:1051C000FDC04EF1FCC04DF1FBC04CF106C153F1E6
:1051D00005C152F104C151F103C150F160EC07F077
:1051E00000C008F101C009F102C00AF103C00BF1CF
:1051F000D89203C051F102C050F101C04FF100C07C
:105200004EF1EE0E0101556F500E546F330E536F79
:10521000810E526F00018AEC08F003C0FEF002C05C
:10522000FDF001C0FCF000C0FBF001014F6B4E6BC4
:105230004D6B7F0E4C6F06C153F105C152F104C195
:1052400051F103C150F1000160EC07F000C008F11A
:1052500001C009F102C00AF103C00BF1D89203C0EA
:1052600051F102C050F101C04FF100C04EF10A0EE1
:105270000101556F8D0E546FB10E536F810E526F39
:1052800000018AEC08F003C002F102C001F101C084
:1052900000F100C0FFF002C14FF101C14EF100C1A9
:1052A0004DF1FFC04CF106C153F105C152F104C1EB
:1052B00051F103C150F160EC07F000C008F101C0EA
:1052C00009F102C00AF103C00BF1D89203C051F1F9
:1052D00002C050F101C04FF100C04EF1EE0E0101CD
:1052E000556F500E546F330E536F810E526F000185
:1052F0008AEC08F003C002F102C001F101C000F124
:1053000000C0FFF0FAC04FF1F9C04EF1F8C04DF106
:10531000F7C04CF1FEC053F1FDC052F1FCC051F199
:10532000FBC050F160EC07F000C008F101C009F1CA
:1053300002C00AF103C00BF103C04BF102C04AF1F5
:1053400001C049F100C048F102C14FF101C14EF165
:1053500000C14DF1FFC04CF1DBEC07F003C0FEF0E3
:1053600002C0FDF001C0FCF000C0FBF0F6A32ED09F
:1053700001014F6B4E6B4D6B800E4C6FFEC053F1B5
:10538000FDC052F1FCC051F1FBC050F1000160ECD6
:1053900007F0D882DB0E0101516F0F0E506F490EDE
:1053A0004F6F7F0E4E6F03C055F102C054F101C024
:1053B00053F100C052F100018AEC08F003C0FEF086
:1053C00002C0FDF001C0FCF000C0FBF0010107A12C
:1053D00004D00001FC51800AFC6F0001F6A11DD031
:1053E000D882DB0E0101516F0F0E506F490E4F6FC7
:1053F0007F0E4E6FFEC055F1FDC054F1FCC053F15D
:10540000FBC052F100018AEC08F003C0FEF002C0BC
:10541000FDF001C0FCF000C0FBF0FBC000F0FCC0E0
:1054200001F0FDC002F0FEC003F022EF2AF0EDC053
:10543000F5F0ECC0F4F0EBC0F3F0EAC0F2F0010ECE
:10544000F66FF1D503C0F1F002C0F0F001C0EFF04B
:1054500000C0EEF0EEC000F0EFC001F0F0C002F0CE
:10546000F1C003F0AFEF2DF001010991FDC002F191
:10547000FCC001F1FBC000F1FAC0FFF0FDC04BF130
:10548000FCC04AF1FBC049F1FAC048F14F6B4E6BCA
:105490004D6B4C6B0001E9EC1EF005E30101098145
:1054A0000051800A006F02C14BF101C14AF100C1F5
:1054B00049F1FFC048F101014F6B4E6B4D6B8E0EF1
:1054C0004C6F0001E9EC1EF001E219E102C14BF161
:1054D00001C14AF100C149F1FFC048F1D6EC21F009
:1054E00002C04DF101C04CF1BBEC21F003C006F14C
:1054F00002C005F101C004F100C003F1D3D002C124
:105500004BF101C14AF100C149F1FFC048F1800EE1
:1055100001014F6F960E4E6F180E4D6F960E4C6F29
:105520000001E9EC1EF0D8A0B5D002C14BF101C1D9
:105530004AF100C149F1FFC048F101014F6B4E6BC8
:105540004D6B8E0E4C6F0001DBEC07F003C04BF18E
:1055500002C04AF101C049F100C048F1D6EC21F087
:1055600002C008F101C007F102C14BF101C14AF1CB
:1055700000C149F1FFC048F101014F6B4E6B4D6B0B
:105580008E0E4C6F0001DBEC07F000C00AF101C089
:105590000BF102C00CF103C00DF108C14DF107C1C0
:1055A0004CF1BBEC21F0D8820DC151F10CC150F18E
:1055B0000BC14FF10AC14EF103C055F102C054F1C5
:1055C00001C053F100C052F18AEC08F001014F6BA9
:1055D0004E6B4D6B8E0E4C6F03C053F102C052F1F7
:1055E00001C051F100C050F1000160EC07F003C0B0
:1055F00002F102C001F101C000F100C0FFF008C1DA
:105600004DF107C14CF1BBEC21F001014F6B4E6B2A
:105610004D6B8E0E4C6F03C053F102C052F101C0AE
:1056200051F100C050F1000160EC07F003C006F139
:1056300002C005F101C004F100C003F102C14BF149
:1056400001C14AF100C149F1FFC048F1D6EC21F097
:1056500002C04DF101C04CF1BBEC21F0D89206C163
:1056600051F105C150F104C14FF103C14EF103C026
:1056700055F102C054F101C053F100C052F18AEC5F
:1056800008F003C006F102C005F101C004F100C03A
:1056900003F108D002C106F101C105F100C104F116
:1056A000FFC003F102C14BF101C14AF100C149F150
:1056B000FFC048F1D6EC21F002C04DF101C04CF121
:1056C000BBEC21F0D88202C151F101C150F100C1FF
:1056D0004FF1FFC04EF103C055F102C054F101C0BB
:1056E00053F100C052F18AEC08F003C002F102C08D
:1056F00001F101C000F100C0FFF0010109A103D0D8
:105700000451800A046F02C14BF101C14AF100C18A
:1057100049F1FFC048F14F6B4E6B4D6B4C6B000174
:10572000E9EC1EF046E0010109A121D00001FE5381
:10573000D8B402D001011BD0D88206C151F105C1F5
:1057400050F104C14FF103C14EF10101556B546B8F
:10575000536B7F0E526F00018AEC08F003C006F114
:1057600002C005F101C004F100C003F1010109B15B
:1057700021D00001FE2D01D002D001011BD0D89212
:1057800006C151F105C150F104C14FF103C14EF101
:105790000101556B546B536B7F0E526F00018AEC05
:1057A00008F003C006F102C005F101C004F100C019
:1057B00003F10101FDC04BF1FCC04AF1FBC049F10E
:1057C000FAC048F14F6B4E6B4D6B4C6B0001E9EC2E
:1057D0001EF006E10101066B056B046B036B000113
:1057E00003C100F004C101F005C102F006C103F0DD
:1057F000000CF8C0FDF0F7C0FCF0F6C0FBF0F5C0FF
:10580000FAF0010EFE6F30DE72EF2CF0F9C0FDF001
:10581000F8C0FCF0F7C0FBF0F6C0FAF0FE6B24DE37
:1058200096EF2CF0E8C04BF1E7C04AF1E6C049F131
:10583000E5C048F101014F6B4E6B4D6B4C6B0001A5
:10584000E9EC1EF0D8B4A1D0E4C04BF1E3C04AF1BA
:10585000E2C049F1E1C048F1E8C04FF1E7C04EF1C4
:10586000E6C04DF1E5C04CF1DBEC07F000C0EDF017
:1058700001C0EEF002C0EFF003C0F0F003C04BF146
:1058800002C04AF101C049F100C048F101014F6B6B
:105890004E6B4D6B4C6B0001E9EC1EF024E3E4C051
:1058A0004BF1E3C04AF1E2C049F1E1C048F1E8C080
:1058B0004FF1E7C04EF1E6C04DF1E5C04CF1DBEC35
:1058C00007F000C0F1F001C0F2F002C0F3F003C035
:1058D000F4F003C0F8F002C0F7F001C0F6F000C029
:1058E000F5F087D723D0E4C04BF1E3C04AF1E2C022
:1058F00049F1E1C048F1E8C04FF1E7C04EF1E6C020
:105900004DF1E5C04CF1DBEC07F000C0F2F001C056
:10591000F3F002C0F4F003C0F5F003C0F9F002C0E8
:10592000F8F001C0F7F000C0F6F070D703C0ECF05B
:1059300002C0EBF001C0EAF000C0E9F0ECC04FF1AA
:10594000EBC04EF1EAC04DF1E9C04CF1E8C053F1B3
:10595000E7C052F1E6C051F1E5C050F160EC07F04C
:10596000D882E4C051F1E3C050F1E2C04FF1E1C090
:105970004EF103C055F102C054F101C053F100C013
:1059800052F18AEC08F001D000D00FEF2EF0D86B66
:10599000D76B200ED66F860ED56FDC6BDB6B200EBF
:1059A000DA6F870ED96F01014D6BD0C04CF1000149
:1059B000BBEC21F000C0E1F001C0E2F002C0E3F076
:1059C00003C0E4F003C04FF102C04EF101C04DF13D
:1059D00000C04CF1DB0E0101536F0F0E526F490EE8
:1059E000516F800E506F000160EC07F000C0E5F0D1
:1059F00001C0E6F002C0E7F003C0E8F003C04BF1DD
:105A000002C04AF101C049F100C048F101014F6BE9
:105A10004E6B340E4D6F860E4C6F0001DBEC07F0C1
:105A200000C0E9F001C0EAF002C0EBF003C0ECF006
:105A300003C011F102C010F101C00FF100C00EF15E
:105A4000DFEC23F003C0D4F002C0D3F001C0D2F0E9
:105A500000C0D1F001014F6B4E6B800E4D6F7F0E79
:105A60004C6FDCC053F1DBC052F1DAC051F1D9C048
:105A700050F1000160EC07F000C0E1F001C0E2F07D
:105A800002C0E3F003C0E4F0D4C04FF1D3C04EF144
:105A9000D2C04DF1D1C04CF1D4C053F1D3C052F1BA
:105AA000D2C051F1D1C050F160EC07F0D8920101A1
:105AB000516B506B4F6B7F0E4E6F03C055F102C0A0
:105AC00054F101C053F100C052F100018AEC08F01A
:105AD00000C0E5F001C0E6F002C0E7F003C0E8F066
