:020000040000FA
:040000002EEF2FF0C0
:08000800056ED8CF06F0E0CF31
:1000100007F00001E9CF0DF0EACF08F0E1CF09F0D9
:10002000E2CF0AF0D9CF0BF0DACF0CF0F3CF14F017
:10003000F4CF15F0FACF16F000C00FF001C010F0A9
:1000400002C011F003C012F004C013F09DA02CEF09
:1000500000F09EB0DDEF01F09DAA32EF00F09EBAF5
:1000600072EF02F00FC000F010C001F011C002F0FA
:1000700012C003F013C004F00E8E0DC0E9FF08C0DB
:10008000EAFF09C0E1FF0AC0E2FF0BC0D9FF0CC0C4
:10009000DAFF14C0F3FF15C0F4FF16C0FAFF0550D5
:1000A00007C0E0FF06C0D8FF1000F2CF0EF0F29EAE
:1000B000F76AC40FF66E000EF7220900F5500EBE67
:1000C000F28E120000401050F2CF0EF0F29EF76A4E
:1000D000E20FF66E000EF7220900F5500EBEF28E0A
:1000E000120030302F30302F30300000F2CF0EF0C1
:1000F000F29EF76A060FF66E010EF7220900F55020
:100100000EBEF28E120030303A30303A30300000FD
:10011000F2CF0EF0F29EF76A2A0FF66E010EF7226A
:100120000900F5500EBEF28E120020202000F2CF02
:100130000EF0F29EF76A480FF66E010EF7220900E4
:10014000F5500EBEF28E12004F4B0D0A0000F2CF9A
:100150000EF0F29EF76A680FF66E010EF7220900A4
:10016000F5500EBEF28E1200232020202020000029
:10017000F2CF0EF0F29EF76A8A0FF66E010EF722AA
:100180000900F5500EBEF28E12000D0A20444C20DC
:10019000256C64207061676573202E2E0000F2CFFD
:1001A0000EF0F29EF76AB80FF66E010EF722090004
:1001B000F5500EBEF28E12000D0A20504147452028
:1001C000256C643A0000F2CF0EF0F29EF76AE00F61
:1001D000F66E010EF7220900F5500EBEF28E1200E7
:1001E0000D0A64656C6574696E6720656E7469726A
:1001F0006520666C61736820646174612000F2CFD1
:100200000EF0F29EF76A180FF66E020EF722090042
:10021000F5500EBEF28E12000D0A4144433D2025DA
:100220006C750000F2CF0EF0F29EF76A3E0FF66E8C
:10023000020EF7220900F5500EBEF28E12000D0AD2
:100240004163743A256C752F256C7500F2CF0EF062
:10025000F29EF76A660FF66E020EF7220900F5505D
:100260000EBEF28E12000D0A526573746172743AFA
:10027000256C7500F2CF0EF0F29EF76A8E0FF66EC7
:10028000020EF7220900F5500EBEF28E12000D0A82
:1002900043757272656E743A256C75202825642941
:1002A0000000F2CF0EF0F29EF76ABC0FF66E020E5F
:1002B000F7220900F5500EBEF28E12000D0A5469A5
:1002C0006D65723A256C7500F2CF0EF0F29EF76AFA
:1002D000E20FF66E020EF7220900F5500EBEF28E06
:1002E00012000D0A234461793A256C750000F2CFA3
:1002F0000EF0F29EF76A080FF66E030EF722090061
:10030000F5500EBEF28E12000D0A566572322E3175
:1003100020526573746172742043617573653A2568
:1003200033640000F2CF0EF0F29EF76A3E0FF66ED5
:10033000030EF7220900F5500EBEF28E12000000E7
:10034000006A016A026A036AF36BF46BF56BF66B81
:10035000F251F111F011EF112CE0200EF76FD8904F
:10036000EB37EC37ED37EE37F337F437F537F63751
:10037000F251F65D08E1F151F55D05E1F051F45DF2
:1003800002E1EF51F35D0FE3EF51F35FF051D8A0BD
:10039000F03DF45FF151D8A0F13DF55FF251D8A0E6
:1003A000F23DF65FD8800036013602360336F72F6D
:1003B000D6D7EA6AF30EE96E000CCE50CFCF03F029
:1003C0000101606FCFCF61F1800ECF24CF6E60C18D
:1003D000CEFF010E2026000E2122222223221F8280
:1003E000040023C0EEF022C0EDF021C0ECF020C0EC
:1003F000EBF00001F26BF16BF06B0F0EEF6FA0DF13
:10040000EFCF60F1ECCF61F1ECCF62F1ECCF63F1B3
:100410000101605307E1615305E1625303E1635356
:1004200001E11F8E23C0EEF022C0EDF021C0ECF000
:1004300020C0EBF00001F26BF16B010EF06FC20E09
:10044000EF6F7EDFEFCF60F1ECCF61F1ECCF62F1C7
:10045000ECCF63F10101605307E1615305E16253A1
:1004600003E1635301E11F8023C0EEF022C0EDF0F1
:1004700021C0ECF020C0EBF00001F26BF16B010E3B
:10048000F06F2C0EEF6F5CDFEFCF60F1ECCF61F11E
:10049000ECCF62F1ECCF63F1010160511E0807E17E
:1004A000615305E1625303E16353D8B41F8A00012D
:1004B000C253D8A4C2079E9032EF00F0EA6AEA0E57
:1004C000E96EEF500EE0030E016E006A002EFED7BB
:1004D000012EFBD73C0E006E002EFED700D0EF2E73
:1004E000F2D7000C9EAAFED7AECF60F10101848442
:1004F000020E0001EA6FE2DF01016051080814E119
:10050000000168530FE06807010160519EA8FED703
:10051000AD6E200E9EA8FED7AD6E60519EA8FED790
:10052000AD6E00011AD0010160511F0816E2605142
:100530007E0813E30001685112080FE36851682B2D
:10054000036A540FE96E000E0320EA6E60C1EFFFEC
:10055000010160519EA8FED7AD6E010160510D08EA
:100560001AE10D0E9EA8FED7AD6E0A0E9EA8FED70C
:10057000AD6E3E0E9EA8FED7AD6E036A00016851B7
:10058000540FE96E000E0320EA6EEF6A685101080D
:10059000D8A01F86686B010E0001C26F9E9A32EFD1
:1005A00000F0D96703D0DA6702D007D0DA2BD8C0C1
:1005B000EEFFD92FFCD7DA2FFAD7000CD36B200E21
:1005C000D26FD16BD151030821E3D151D225D46F21
:1005D000000ED321D56F040ED125D66FF2CFD7F000
:1005E000F29ED6C0A9FFA69CA69EA680A850D7BF03
:1005F000F28ED76FD5C0EAFFD4C0E9FFD7C0D8F0DC
:10060000DA6B010ED96FCDDFD12BDCD7D36BBA0EED
:10061000D26FBB51060809E2FF0A03E1BA51D008C4
:1006200004E2070EBB6FD00EBA6FD16BD151010837
:100630001EE3D151D225D46F000ED321D56FF2CF56
:10064000D6F0F29ED1C0A9FFA69CA69EA680A85077
:10065000D6BFF28ED76FD5C0EAFFD4C0E9FFD7C0AE
:10066000D8F0DA6B010ED96F9CDFD12BDFD7D36BBB
:100670006E0ED26FBB516F5D08E303E16E51BA5D40
:1006800004E2BBC06FF0BAC06EF0D16BD15101086B
:1006900021E3D151D225D46F000ED321D56F020EA4
:1006A000D125D66FF2CFD7F0F29ED6C0A9FFA69C77
:1006B000A69EA680A850D7BFF28ED76FD5C0EAFFFE
:1006C000D4C0E9FFD7C0D8F0DA6B010ED96F69DF6B
:1006D000D12BDCD7D36BC60ED26FD16BD1510108B1
:1006E00021E3D151D225D46F000ED321D56F080E4E
:1006F000D125D66FF2CFD7F0F29ED6C0A9FFA69C27
:10070000A69EA680A850D7BFF28ED76FD5C0EAFFAD
:10071000D4C0E9FFD7C0D8F0DA6B010ED96F41DF42
:10072000D12BDCD77DEF2FF0DB51016ADA5D03E2DC
:10073000DAC000F00CD0006A080EDC6FDA37003641
:10074000DB51005CD8B0006E0136DC2FF7D7000C0F
:10075000200ED5A9300ED66FD4C000F0D4AF07D08C
:10076000001E002A00C0D4F02D0ED66FD58F015088
:10077000D4C0DAF0640EDB6FD7DF00C0D4F0300EE7
:100780000124D76FD4C0DAF00A0EDB6FCDDF300E54
:100790000024D96F300E0124D86FD6C000F0D5A741
:1007A00002D0D5AFD595D5B90BD0D5AF22D0D5B520
:1007B00020D000C0D7F0D5B31CD000C0D8F019D0DD
:1007C000300ED75D16E100C0D7F0200ED66FD5A74A
:1007D00004D0D595D583D5AFD593300ED85D09E13A
:1007E00000C0D8F0200ED76FD5A7F7D7D593D5AFD7
:1007F000D591D5A504D0D6519EA8FED7AD6ED5A370
:1008000004D0D7519EA8FED7AD6ED5A104D0D85143
:100810009EA8FED7AD6ED9519EA8FED7AD6E000C36
:10082000D26BD251030830E3040ED225D36FD251DC
:10083000080DF3CFD4F023C0D8F022C0D7F021C0E8
:10084000D6F020C0D5F0D45307E0D890D833D733B2
:10085000D633D533D42FF9D7D3C0A9FFD5C0A8FF3D
:10086000A69CA69EA684F2CF00F0F29E0F01550E24
:10087000A76EAA0EA76EA682A6B2FED7A6940050B7
:10088000F2120001D22BCDD7D26BD25101082AE34C
:10089000020ED225D36FD251080DF3CF00F06FC0F6
:1008A000D5F06EC0D4F0005205E0D890D533D433E3
:1008B000002EFBD7D3C0A9FFD4C0A8FFA69CA69E3C
:1008C000A684F2CF00F0F29E0F01550EA76EAA0E7D
:1008D000A76EA682A6B2FED7A6940050F21200011F
:1008E000D22BD3D7D26BD25101082AE3080ED225DE
:1008F000D36FD251080DF3CF00F0C7C0D5F0C6C0FA
:10090000D4F0005205E0D890D533D433002EFBD775
:10091000D3C0A9FFD4C0A8FFA69CA69EA684F2CFF0
:1009200000F0F29E0F01550EA76EAA0EA76EA682CA
:10093000A6B2FED7A6940050F2120001D22BD3D754
:10094000D12D2BD0D26BD251010827E3D251080D03
:10095000F3CF00F0BBC0D4F0BAC0D3F0005205E032
:10096000D890D433D333002EFBD7D2C0A9FFD3C045
:10097000A8FFA69CA69EA684F2CF00F0F29E0F01CF
:10098000550EA76EAA0EA76EA682A6B2FED7A69493
:100990000050F2120001D22BD6D7000CF239006EB3
:1009A0000F0E001600500F0B006EF00E8314001097
:1009B000836E290E006E002EFED70000838E290E56
:1009C000006E002EFED70000839E290E006E002EC2
:1009D000FED70000000CEEA18490EEB18480EF51B0
:1009E000F00BF06FF26FDADFEF39006EF00E0016E9
:1009F0000050F00BF16FF26FD1DF8480000C849017
:100A0000839E186AF2BE188EF29E0F0EEA6F56DDB4
:100A100018BEF28E010ED26FD25103080EE3300ED3
:100A2000F26FBCDF186AF2BE188EF29E0F0EEA6FEC
:100A300045DD18BEF28ED22BEFD7200EF26FAEDF5F
:100A4000186AF2BE188EF29E0F0EEA6F37DD18BEDE
:100A5000F28EEE6B060EEF6FBEDF290E006E002EDB
:100A6000FED70000EE6B0C0EEF6FB5DF290E006EA7
:100A7000002EFED70000EE6B100EEF6FACDF290EDC
:100A8000006E002EFED70000EE6B2C0EEF6FA3DF82
:100A9000290E006E002EFED70000EE6B010EEF6FE8
:100AA0009ADF290E006E002EFED70000000C9496EF
:100AB0008B9694948B84C4EF2FF0D951DB03F3CF42
:100AC00001F0F4CF00F0DC03F3500026DA51DB0331
:100AD000F3500020026EDEEF05F0D76BD56B0A0EE7
:100AE000D66FD46BD36BD151D21104E1000E016EDD
:100AF000026EE6D0D751D72B036AD125E96ED251C9
:100B00000320EA6EEFCFD8F0D8512D080DE1010E89
:100B1000D56FD751D72B036AD125E96ED251032067
:100B2000EA6EEFCFD8F00DD0D8512B080AE1D7519B
:100B3000D72B036AD125E96ED2510320EA6EEFCF9D
:100B4000D8F0D8512F08D8B0ADD0D8513908D8A096
:100B5000A9D0D851300821E1036AD751D125E96ED7
:100B6000D2510320EA6EEF5078080AE0036AD751A9
:100B7000D125E96ED2510320EA6EEF5058080DE1FD
:100B8000100ED66FD72BD751D72B036AD125E96E1C
:100B9000D2510320EA6EEFCFD8F0D6510A0821E1F6
:100BA000D8512F081DE2D85139081AE3DA6B0A0E22
:100BB000D96FD4C0DCF0D3C0DBF07FD7300ED85D66
:100BC0000124D36F000E0220D46FD751D72B036AB4
:100BD000D125E96ED2510320EA6EEFCFD8F0E0D7ED
:100BE00061D0D65110085EE1D851600806E2D851B4
:100BF0007A0803E3D851DF0B01D0D851D86FD85110
:100C00002F0803E2D851390806E2D85140084AE2D9
:100C1000D851460847E3D8512F0819E2D85139086E
:100C200016E3D335D96FD435DA6FD937DA37D937F8
:100C3000DA37D937DA37F00ED917300ED85DD92523
:100C4000016E000EDA2101C0D3F0D46F16D0D33577
:100C5000D96FD435DA6FD937DA37D937DA37D937A8
:100C6000DA37F00ED917410ED85D0A0FD925016E7B
:100C7000000EDA2101C0D3F0D46FD751D72B036A0D
:100C8000D125E96ED2510320EA6EEF50D86F60088B
:100C900006E2D8517A0803E3D851DF0B01D0D851CE
:100CA000D86FADD7D6510A0807E1D52D05D0D31F8F
:100CB000D41FD32BD8B4D42BD3C001F0D4C002F0AE
:100CC000000CEB51030B036AF2CFEEF0F29E55ECF1
:100CD00000F0EEBFF28EEC6FEA51EC27EC51800988
:100CE000ED6FEE6BEF6F77DE000CE9510C0A05E05B
:100CF000060A12E0020A16E01AD0EE6B010EEF6F40
:100D00006ADE186AF2BE188EF29E020EEA6F5EEC80
:100D100002F018BEF28E11D0010EEA6F020EEB6FD8
:100D2000D0DF0BD0EE6B100EEF6F55DE06D0010E4C
:100D3000EE6FE9C0EFF04FDE00D0000CEACFE8F034
:100D4000E9CFE7F0E139F009E36FE327E20FE46F61
:100D5000320FE66FE1510F0BE427E427E627E90F96
:100D6000E56FE527E527E0390F0BE527E627E537AF
:100D7000E637E61FE637E0510F0BE627E337070EAD
:100D8000E26F0A0EE507E627FDE3E407E527FDE34A
:100D9000E307E427FDE3E207E327FDE3EA6AE20E67
:100DA000E96E070EE715E79DE926E60EE95CD8B483
:100DB000E78DEF50006E08E1E7BD06D0E7B913D02C
:100DC000E7B702D0200E03D0E787E799300E002660
:100DD000EACFE1F0E9CFE0F000C0E9F086DFE1C062
:100DE000EAFFE0C0E9FFEE50E7ADDFD7000CB60E3A
:100DF000006E036A026A016AE051E111E211E31137
:100E000002E1006A0DD0D89001BE09D0E037E13789
:100E1000E237E337033602360136002EF4D7019E5F
:100E200078EF0BF001014E51D8B471D0006E5251E1
:100E3000D8B46DD0002604E3810E002668E204D009
:100E40007F0E005E64E363E04FC156F15351561BC1
:100E50004F8F538F51515503F4CF58F150515403D4
:100E6000F4CF03F0F3CF57F15503F3505827F45064
:100E70005723000E032251515403F3505827F450C6
:100E80005723000E026A032202224F515503F350EA
:100E90005727F4500322000E02224F515403F350FF
:100EA0000326F4500222000E016A0122515153031D
:100EB000F3505727F4500322000E02220122505112
:100EC0005303F3500326F4500222000E01224F5127
:100ED0005303F3500226F4500122002A01BE05D02C
:100EE00057370336023601360006000E57AF0AD0D8
:100EF000032A02220122015005E1025003E10350BE
:100F000001E1002A56BF018E56AF019E04D0006A4F
:100F1000016A026A036A0001000C01014A51D8B457
:100F2000A5D0566F4E51D8B4A1D0565F05E37F0EC1
:100F30005627D8B09BD006D0810E565FD8A096D049
:100F4000D8B494D056C100F0016A026A036A556BA6
:100F50004BC154F1548F4CC153F14DC152F1190E94
:100F6000566F5151525F0DE2010E535F0AE2545F1A
:100F700008E2555F06E2552B542B532B5151522753
:100F800028D05051535F12E2010E545F0FE2555FBB
:100F90000DE2552B542B505153275151522719E331
:100FA000532B17E1542B15E1552B13D04F518009CA
:100FB000545F0EE2010E555F0BE2552B4F51800935
:100FC000542750515327E9E3542BE7E1552BE5D73C
:100FD0000380562F01D00BD0D89052375337543757
:100FE0005537D8900336023601365737BAD757A14E
:100FF00006D0D890013202320332573302D00006B5
:1010000035E057BF1ED0D890523753375437553735
:101010005151525F07E2010E535F04E2545F02E256
:10102000555F1AE35051535F05E2010E545F02E22F
:10103000555F12E34F518009545F03E2010E555F83
:101040000BE3032A09E1022A07E1012A05E1002A4C
:101050000DE00132023203324BC156F14F51561BA3
:1010600056AF02D0018E06D0019E04D0006A016AFC
:10107000026A036A0001000C800ED8A202D00101AE
:10108000551B01015A6B5B6B51C159F15551591BED
:101090005051D8B4DFD0586F006E5451D8B4E3D05B
:1010A000585FD8B483D03EE355C15EF15E8F56C120
:1010B0005DF157C15CF15B6BD8905E335D335C339F
:1010C0005B33582FF8D759AF03D05A81E0D05A91EB
:1010D00058915A89010EEA6E530EE96EEBD05A9977
:1010E00059BF0AD058A113D05E335D335C335B33F4
:1010F000002AD8B4C7D00BD05EBF0CD0D8905B37D5
:101100005C375D375E370006D8B4BCD0F5D75A8D52
:101110006DD05A9D51C159F151AF02D05E8FABD005
:101120005E9FA9D054C158F154C100F05051585F8E
:1011300051C15EF15E8F52C15DF153C15CF15B6BD9
:10114000D8905E335D335C335B33582FF8D759AF9B
:1011500003D05A839CD05A9358915A8B010EEA6E51
:10116000570EE96EA7D05A9B59BF0AD058A113D089
:101170005E335D335C335B33002AD8B483D00BD04D
:101180005EBF0CD0D8905B375C375D375E370006AA
:10119000D8B478D0F5D75A8F29D05A9F55C159F174
:1011A00055AF02D05E8F67D05E9F65D055C15EF1AE
:1011B0005E8F56C15DF157C15CF159AF04D05E9F9F
:1011C0005A8565D05A955B6B5891010EEA6E530EA5
:1011D000E96E70D059BF1CD051C159F158A106D049
:1011E0005E335D335C335B33002A4CE05BAF0BD086
:1011F0005C2B09E15D2B07E15E2B05E15E335D337E
:101200005C33002A3FE05ABD84D75ABFC6D71CD0F2
:10121000800E5E1B5EAF04D03AD055C159F10AD0A2
:1012200051C159F15E5306E15D5304E15C5302E1A3
:10123000006A21D05EBF08D0D8905B375C375D373D
:101240005E37002EF7D71ED059AF02D05E8F13D075
:101250005E9F11D054C100F055C15EF156C15DF1E1
:1012600057C15CF108D050C100F051C15EF152C1CC
:101270005DF153C15CF15EC101F05DC102F05CC182
:1012800003F034D0006A016A026A036A2FD05B6BF4
:101290005C1F5D1F5E1F5B1F5B2B05E15C2B03E189
:1012A0005D2B01E15E2B5AB112D75AB354D75AB510
:1012B00089D7B3D7EF505C2705E35D2B03E15E2BA5
:1012C000D8B45881ED52EF505D2703E35E2BD8B4BC
:1012D0005881ED52EF50EFBE01D0800A5E27D8B0A2
:1012E00058815AB9FCD65ABB3ED774D70001000CBE
:1012F000E451B608E46F036AE5C0E8F0E58FD890E2
:10130000E533E633E7330332023201320032E42FB1
:10131000F6D7E8AF0BD0001E011E021E031E002AE6
:10132000D8B4012AD8B4022AD8B4032AC1EF0BF0EA
:10133000FD6BFE6B010EFF6FDA6AD96A0101026B69
:10134000F50E016FEA6AF90EE96E02C1E2FF01C112
:10135000E1FFFFC000F1D890E550EE02F35000012C
:10136000FD23F450FE230101002FF5D7FDC0DEFF61
:10137000FEC0FDF00001FE6BD8B0FE2B0101012B79
:10138000D8B4022B0001FF2BFF510508D8B402D0BE
:101390000101D8D7000CFC5101010019800B066F28
:1013A0000001FCAF0BD0F91FFA1FFB1FFC1FF92B2C
:1013B000D8B4FA2BD8B4FB2BD8B4FC2B010100AF66
:1013C00011D00001FD1FFE1FFF1F0101001F0001C2
:1013D000FD2BD8B4FE2BD8B4FF2BD8A402D001012A
:1013E000002B0101006A016A026A036A016B026B49
:1013F000036B046B00510001FF11FE11FD1140E071
:10140000200E0101056FD8900001F937FA37FB373C
:10141000FC37010101370237033704370051045DFF
:101420000EE10001FF510101035D09E10001FE51E0
:101430000101025D04E10001FD510101015D1AE3BA
:101440000001FD510101015F0001FE51D8A0FE3DE8
:1014500001D003D00101025F0001FF51D8A0FF3D80
:1014600001D002D00101035F01010051D8A0003D6D
:10147000045FD8800036013602360336052FC3D705
:10148000010106AF0BD0001E011E021E031E002A22
:10149000D8B4012AD8B4022AD8B4032A010EEA6EBD
:1014A000E96E0001000C010EED6FEE6BEF6BF06B5F
:1014B000F26BF36BE9BF01D018D0010EF26FE9C0F7
:1014C000F8F0E8C0F7F0E7C0F6F0E6C0F5F0FF0E80
:1014D000FC6FFB6FFA6FF96F2BDF03C0E9F002C0FE
:1014E000E8F001C0E7F000C0E6F0ED5306E1EE538E
:1014F00004E1EF5302E1F05377E0E9C0FCF0E8C00B
:10150000FBF0E7C0FAF0E6C0F9F00101006B000162
:10151000FF6BFE6BEAC0FDF03EDF03C0F0F002C0DF
:10152000EFF001C0EEF000C0EDF0036AF351EB25DF
:10153000016EEC51032201C0F5F003C0F6F0EACFD2
:10154000F8F0E9CFF7F0E9C0FCF0E8C0FBF0E7C045
:10155000FAF0E6C0F9F00101006B0001FF6BFE6BD1
:10156000EAC0FDF018DFEFCF00F0ECCF01F0ECCFD8
:1015700002F0ECCF03F0F8C0EAFFF7C0E9FF03C0C8
:10158000FCF002C0FBF001C0FAF000C0F9F0300E30
:101590000024006E000E0120000E0220000E032029
:1015A000F6C0EAFFF5C0E9FF00C0EFFF036AF351A0
:1015B000EB25E96EEC510320EA6EEF5039080AE2A0
:1015C000036AF351EB25E96EEC510320EA6E070E36
:1015D000EF24EF6EF32BF0C0E9F0EFC0E8F0EEC0BF
:1015E000E7F0EDC0E6F081D7F22D0AD0036AF3519F
:1015F000EB25E96EEC510320EA6E2D0EEF6EF32B16
:10160000F16BD890F331F15D2FE2036AF151EB25D4
:10161000E96EEC510320EA6EEFCFF4F0036AF1516A
:10162000EB25016EEC51032203C0F6F0F151F35D9E
:10163000FF0F036AEB25E96EEC510320EA6EEFCF52
:10164000F9F0F6C0EAFF01C0E9FFF9C0EFFFF15180
:10165000F35DFF0F036AEB25E96EEC510320EA6EA0
:10166000F4C0EFFFF12BCDD7036AF351EB25E96E00
:10167000EC510320EA6EEF6AEBC001F0ECC002F01F
:10168000000CE3C0E5F0E2C0E4F0E5C003F0E4C024
:10169000E9FFE5C0EAFFEF5204E0E42BD8B4E52B04
:1016A000F4D7E251E45D006EE351E559036E00C0EA
:1016B00001F0000CE46BE351E45D0FE2036AE451D6
:1016C000E125E96EE2510320EA6EEFCFE5F0E5C0D7
:1016D000E9F075EC06F0E42BEED7000C23C0E3F044
:1016E00022C0E2F021C0E1F020C0E0F0F7EF06F008
:1016F00003C051F102C050F101C04FF100C04EF1E2
:101700000101556B546B536B7F0E526F000112EC4D
:1017100007F000C0E0F001C0E1F002C0E2F003C059
:10172000E3F003C04DF102C04CF101C04BF100C029
:101730004AF10101516BC00E506F280E4F6F8F0E92
:101740004E6F00018DEC07F0D892790E0101536FB6
:10175000DA0E526F150E516F940E506F03C057F191
:1017600002C056F101C055F100C054F1000184DC03
:1017700003C0E7F002C0E6F001C0E5F000C0E4F00D
:10178000B7D503C075F002C074F001C073F000C09B
:1017900072F02C0E7225766F7D0E7321776F000E1E
:1017A0007421786F000E7521796F186AF2BE188E59
:1017B000F29E79C0EEF078C0EDF077C0ECF076C024
:1017C000EBF0F26B020EF16F3A0EF06FB10EEF6FAD
:1017D000A0EC01F018BEF28E03C07DF002C07CF0D8
:1017E00001C07BF000C07AF0186AF2BE188EF29E3B
:1017F00079C0EEF078C0EDF077C0ECF076C0EBF099
:10180000F26B020EF16F3A0EF06FB10EEF6FA0ECBB
:1018100001F018BEF28EEFCF7EF0ECCF7FF0ECCF70
:1018200080F0ECCF81F0186AF2BE188EF29E81C073
:10183000EEF080C0EDF07FC0ECF07EC0EBF0F26B1C
:10184000F16B8E0EF06FAC0EEF6FA0EC01F018BED6
:10185000F28E03C0E3F002C0E2F001C0E1F000C08C
:10186000E0F0010E0024E46F000E0120E56F000E91
:101870000220E66F000E0320E76FF86FE6C0F7F076
:10188000E5C0F6F0E4C0F5F0FC6BFB6BFA6B030E01
:10189000F96F4EDD0330856F0230846F0130836F46
:1018A0000030826F85338433833382333F0E851754
:1018B00085C0F8F084C0F7F083C0F6F082C0F5F080
:1018C000FC6BFB6B8E0EFA6FAC0EF96F31DD0050C6
:1018D0007E5D866F01507F59876F02508059886FF7
:1018E00003508159896F186AF2BE188EF29E89C022
:1018F000EEF088C0EDF087C0ECF086C0EBF0F26B44
:10190000F16B050EF06FB50EEF6FA0EC01F018BE95
:10191000F28E03C08DF002C08CF001C08BF000C0CD
:101920008AF0186AF2BE188EF29E89C0EEF088C066
:10193000EDF087C0ECF086C0EBF0F26BF16B050EBA
:10194000F06FB50EEF6FA0EC01F018BEF28EEFCF86
:101950008EF0ECCF8FF0ECCF90F0ECCF91F0186AD6
:10196000F2BE188EF29E91C0EEF090C0EDF08FC0E6
:10197000ECF08EC0EBF0F26BF16B010EF06F6D0EC0
:10198000EF6FA0EC01F018BEF28E03C0E3F002C0CE
:10199000E2F001C0E1F000C0E0F0010E0024E46FCD
:1019A000000E0120E56F000E0220E66F000E0320FE
:1019B000E76FF86FE6C0F7F0E5C0F6F0E4C0F5F0C9
:1019C000FC6BFB6BFA6B030EF96FB2DC0330956FA7
:1019D0000230946F0130936F0030926F95339433DF
:1019E000933392333F0E951795C0F8F094C0F7F0FB
:1019F00093C0F6F092C0F5F0FC6BFB6B010EFA6F32
:101A00006D0EF96F95DC00508E5D966F01508F5909
:101A1000976F02509059986F03509159996F7DC0FC
:101A2000F8F07CC0F7F07BC0F6F07AC0F5F0FC6B04
:101A3000FB6B010EFA6F900EF96F7ADC03C0E3F0D6
:101A400002C0E2F001C0E1F000C0E0F085C0F8F0B3
:101A500084C0F7F083C0F6F082C0F5F0FC6BFB6B3E
:101A6000FA6B640EF96F64DC0050E025E46F0150FE
:101A7000E121E56F0250E221E66F0350E321E76FB9
:101A80008A35006E8B35016E8C35026E8D35036E96
:101A90000036013602360336FC0E00160050E425EF
:101AA000E86F0150E521E96F0250E621EA6F03502B
:101AB000E721EB6F9251E8259A6F9351E9219B6FD3
:101AC0009451EA219C6F9551EB219D6F99C0F8F0DC
:101AD00098C0F7F097C0F6F096C0F5F0FC6BFB6B82
:101AE000FA6B050EF96F24DC03C0E3F002C0E2F0EC
:101AF00001C0E1F000C0E0F0340E0024E46F010EFC
:101B00000120E56F000E0220E66F000E0320E76F54
:101B1000186AF2BE188EF29EEE6FE6C0EDF0E5C0D8
:101B2000ECF0E4C0EBF0F26BF16BF06B990EEF6F41
:101B3000A0EC01F018BEF28E020E005C9E6F000E4B
:101B400001589F6F000E0258A06F000E0358A16F3E
:101B5000040E9E25E06F000E9F21E16F000EA02174
:101B6000E26F000EA121E36FF86FE2C0F7F0E1C071
:101B7000F6F0E0C0F5F0FC6BFB6BFA6B990EF96FB9
:101B800098EC09F003C0E4F002C0E3F001C0E2F019
:101B900000C0E1F0186AF2BE188EF29E03C0EEF0AB
:101BA00002C0EDF001C0ECF000C0EBF0F26BF16BA5
:101BB000F06B050EEF6FA0EC01F018BEF28E005036
:101BC000965DE26F01509759E36F02509859E46FA8
:101BD00003509959E56F7A0EE225A26F000EE321BA
:101BE000A36F000EE421A46F000EE521A56FC00EC7
:101BF0009A5DE06F120E9B59E16F000E9C59E26FE7
:101C0000000E9D59E36F020E9E25E46F000E9F218A
:101C1000E56F000EA021E66F000EA121E76F186AA4
:101C2000F2BE188EF29EEE6FE6C0EDF0E5C0ECF06D
:101C3000E4C0EBF0F26BF16BF06B0C0EEF6FA0EC0D
:101C400001F018BEF28E0050E025A66F0150E12190
:101C5000A76F0250E221A86F0350E321A96F020E83
:101C60009E25E06F000E9F21E16F000EA021E26F24
:101C7000000EA121E36F186AF2BE188EF29EEE6F7D
:101C8000E2C0EDF0E1C0ECF0E0C0EBF0F26BF16B24
:101C9000F06B0C0EEF6FA0EC01F018BEF28EEFCFE0
:101CA000E1F0ECCFE2F0ECCFE3F0ECCFE4F0010EAA
:101CB000E125AA6F000EE221AB6F000EE321AC6FAD
:101CC000000EE421AD6F010EA225AE6F000EA32120
:101CD000AF6F000EA421B06F000EA521B16F700E82
:101CE0002024E06F620E2120E16F000E2220E26FBF
:101CF000000E2320E36F186AF2BE188EF29EEE6F7C
:101D0000E2C0EDF0E1C0ECF0E0C0EBF0F26B010EF0
:101D1000F16F510EF06F800EEF6FA0EC01F018BE66
:101D2000F28EEFCFB2F0ECCFB3F0ECCFB4F0ECCF5B
:101D3000B5F0EA6A2C0EE96EF2CFE0F0F29E000EEA
:101D400064EC00F00A000900F550EE6E0009FBE1BA
:101D5000E0BFF28EE96BE86BE76BAEC0E6F00A0E0F
:101D6000EA6FEC6B400EEB6F53EC0AF0E36B400E46
:101D7000E26F87DC012C03D040C02DF00CD0EA6A62
:101D80002C0EE96EE26A400EE16E020E016EE6CFA5
:101D9000EEFF012EFCD7E96BE86BE76BAAC0E6F01B
:101DA0000A0EEA6FEC6B400EEB6F53EC0AF0E36B3C
:101DB000400EE26F66DC012C03D040C030F00CD046
:101DC000EA6A2F0EE96EE26A400EE16E020E016EC3
:101DD000E6CFEEFF012EFCD7186AF2BE188EF29EF7
:101DE000A9C0EEF0A8C0EDF0A7C0ECF0A6C0EBF0E3
:101DF000F26BF16B070EF06FD00EEF6FA0EC01F0FD
:101E000018BEF28EEFCF00F0ECCF01F0ECCF02F075
:101E1000ECCF03F000C0E0F0E96BE86BE76B00C0CB
:101E2000E6F00A0EEA6FEC6B400EEB6F53EC0AF033
:101E3000E36B400EE26F25DC012C03D040C033F091
:101E40000CD0EA6A320EE96EE26A400EE16E020ED2
:101E5000016EE6CFEEFF012EFCD7EA6BEB6B61EC77
:101E600006F0E36B2C0EE26F0CDC01C0E0F0E26BDD
:101E70002C0EE16F01C0E3F01DDCEA6A2C0EE96E66
:101E8000F2CFE0F0F29E000E76EC00F00A000900BE
:101E9000F550EE6E0009FBE1E0BFF28E186AF2BE6B
:101EA000188EF29EB5C0EEF0B4C0EDF0B3C0ECF009
:101EB000B2C0EBF0F26BF16B0E0EF06F100EEF6F25
:101EC000A0EC01F018BEF28E00C0E0F0E96BE86B08
:101ED000E76B00C0E6F00A0EEA6FEC6B400EEB6FAA
:101EE00053EC0AF0E36B400EE26F41EC0BF0015053
:101EF000020822E3E36B400EE26F41EC0BF02E0E82
:101F0000D8800154E06F000ED8A0E806E16FE36BC3
:101F1000400EE26F41EC0BF001C0E2F0E1C0EAFFDD
:101F2000E0C0E9FFE26A400EE16E0150016E04E09C
:101F3000E6CFEEFF012EFCD7186AF2BE188EF29E95
:101F4000B5C0EEF0B4C0EDF0B3C0ECF0B2C0EBF051
:101F5000F26BF16B0E0EF06F100EEF6FA0EC01F054
:101F600018BEF28EEFCFE0F0ECCFE1F0ECCFE2F074
:101F7000ECCFE3F0EACFE5F0E9CFE4F0186AF2BE87
:101F8000188EF29EE3C0EEF0E2C0EDF0E1C0ECF09E
:101F9000E0C0EBF0F26BF16BF06B3C0EEF6FA0EC7E
:101FA00001F018BEF28EE5C0EAFFE4C0E9FF00C010
:101FB000E1F0E96BE86BE76B00C0E6F00A0EEA6F50
:101FC000EC6B400EEB6F53EC0AF0E36B400EE26FEC
:101FD00041EC0BF00150020822E3E36B400EE26F8C
:101FE00041EC0BF0310ED8800154E06F000ED8A008
:101FF000E806E16FE36B400EE26F41EC0BF001C0CD
:10200000E2F0E1C0EAFFE0C0E9FFE26A400EE16E03
:102010000150016E04E0E6CFEEFF012EFCD7186AF6
:10202000F2BE188EF29EB5C0EEF0B4C0EDF0B3C0B3
:10203000ECF0B2C0EBF0F26BF16BF06B3C0EEF6FBB
:10204000A0EC01F018BEF28EEFCF00F0ECCF01F063
:10205000ECCF02F0ECCF03F000C0E0F0E96BE86BEE
:10206000E76B00C0E6F00A0EEA6FEC6B400EEB6F18
:1020700053EC0AF0E36B400EE26F41EC0BF00150C1
:10208000020822E3E36B400EE26F41EC0BF0340EEA
:10209000D8800154E06F000ED8A0E806E16FE36B32
:1020A000400EE26F41EC0BF001C0E2F0E1C0EAFF4C
:1020B000E0C0E9FFE26A400EE16E0150016E04E00B
:1020C000E6CFEEFF012EFCD7EA6B010EEB6F61EC61
:1020D00006F0E36B2C0EE26F41EC0BF001C0E0F078
:1020E000E26B2C0EE16F01C0E3F05AEC0BF0EA6AF0
:1020F0002C0EE96EF2CFE0F0F29E000E88EC00F0BC
:102100000A000900F550EE6E0009FBE1E0BFF28E17
:10211000E96BE86BE76BC6C0E6F00A0EEA6FEC6BA2
:10212000400EEB6F53EC0AF0E36B400EE26F41ECB4
:102130000BF00150030822E3E36B400EE26F41EC29
:102140000BF02F0ED8800154E06F000ED8A0E806E7
:10215000E16FE36B400EE26F41EC0BF001C0E2F087
:10216000E1C0EAFFE0C0E9FFE26A400EE16E015023
:10217000016E04E0E6CFEEFF012EFCD7EA6B020E03
:10218000EB6F61EC06F0E36B2C0EE26F41EC0BF0B1
:1021900001C0E0F0E26B2C0EE16F01C0E3F05AECFD
:1021A0000BF0000CDB6BDC6BDD6BDE6B050EDF6FA9
:1021B00093988A9893908A9093928A9293948A940F
:1021C00093968A968388186AF2BE188EF29E140E31
:1021D000EA6F5EEC02F018BEF28ED95302E19398DA
:1021E0008A888388186AF2BE188EF29E140EEA6FEF
:1021F0005EEC02F018BEF28E93908A80186AF2BEEE
:10220000188EF29E0A0EEA6F5EEC02F018BEF28E95
:1022100092841F9480B41F8423C027F022C026F02C
:1022200021C025F020C024F023C02BF022C02AF0CA
:1022300021C029F020C028F0C96BC86B2450205C55
:10224000006E25502158016E2650225827502358E1
:1022500001C0DCF000C0DBF02850205C006E29508B
:102260002158016E2A5022582B50235801C0DEF00D
:1022700000C0DDF0D651DC5D05E303E1D551DB5D47
:1022800001E376D0D451C95D06E303E1D351C85DC3
:1022900002E393908A90D851DE5D05E303E1D751C4
:1022A000DD5D01E365D0DA5305E01FB002D01FA663
:1022B00001D05ED0000E1FB4010EE06F9282000EBE
:1022C00080B2010EE05D4EE023C02BF022C02AF068
:1022D00021C029F020C028F092821F9480B21F8470
:1022E000D95308E16E5302E16F5304E06E51D8B444
:1022F0006F076E07D9530AE06F51BB5D07E303E137
:10230000BA516E5D03E26E2BD8B46F2B010EC82755
:10231000000EC9230B0EEA6F020EEB6F61EC06F0A4
:10232000C851010BE06FE16BE05307E1E15305E1B8
:102330002A0EE96F75EC06F004D02E0EE96F75ECED
:1023400006F00C0EEA6F020EEB6F61EC06F0010E68
:10235000E96E6FC0E1F06EC0E0F09EEC06F08484A0
:10236000010EC26F1FA203D01F926EEC0BF066D756
:102370000C0EEA6F020EEB6F61EC06F0010EE96ED7
:102380006FC0E1F06EC0E0F09EEC06F093908A9092
:1023900093928A9293948A9493968A968388186AE1
:1023A000F2BE188EF29E320EEA6F5EEC02F018BE9C
:1023B000F28E93988A98186AF2BE188EF29E320EA8
:1023C000EA6F5EEC02F018BEF28E000CEACFDCF091
:1023D000E9CFDBF0D5AF08D0DB8FDBA9DB2BD41F37
:1023E000D51FD42BD8B4D52BD539F009D76FD72723
:1023F000E20FD86F320FDA6FD5510F0BD827D827DD
:10240000DA27E90FD96FD927D927D4390F0BD92764
:10241000DA27D937DA37DA1FDA37D4510F0BDA2750
:10242000D737070ED66F0A0ED907DA27FDE3D8078C
:10243000D927FDE3D707D827FDE3D607D727FDE344
:10244000EA6AD60EE96E070EDB15DB9DE906DB15A1
:1024500007E1DBB9E92ADBB903D0200E006E1CD0FE
:10246000E926DA0EE95CD8B4DB8DEF50006E08E1A6
:10247000DBBD06D0DBB914D0DBB702D0200E0BD009
:10248000DBAF06D02D0E006EED50DB9DDB9F04D040
:10249000DB87DB99300E002600509EA8FED7AD6E7C
:1024A000EE50DBADDED7000C94948B948B8A949A1B
:1024B00094968B8694968B968B8A949A94968B8618
:1024C00094968B968B9A949A94968B8694968B96E8
:1024D0008B8A949A94968B8694968B968B9A949AE0
:1024E00094968B8694968B968B8A949A94968B86E8
:1024F00094968B968B8A949A94968B8694968B96C8
:102500008B8A949A94968B8694968B96FB6BFB3D64
:1025100001D062D0FA6B94968B869488000E82B8B4
:10252000010EFA2794968B9694968B86D890FA375C
:102530009488000E82B8010EFA2794968B96949692
:102540008B86D890FA379488000E82B8010EFA274D
:1025500094968B9694968B86D890FA379488000E32
:1025600082B8010EFA2794968B9694968B86D89013
:10257000FA379488000E82B8010EFA2794968B964B
:1025800094968B86D890FA379488000E82B8010E04
:10259000FA2794968B9694968B86D890FA379488DF
:1025A000000E82B8010EFA2794968B9694968B862D
:1025B000D890FA379488000E82B8010EFA279496C4
:1025C0008B96FAAF01D008D0100E006E002EFED709
:1025D00000000400FB2B9BD794948B84000CFB071A
:1025E000FAC000F0FB51016E04E0D8900032012ED9
:1025F000FCD70050010B02E18B9A01D08B8A949A90
:1026000094968B8694968B96FB53E9E1000CFC071D
:10261000FBC0FEF0FAC0FDF0FC51006E05E0D89062
:10262000FE33FD33002EFBD7FD51010B006E036A14
:102630000050031002E18B9A01D08B8A949A9496F1
:102640008B8694968B96FC53E2E1000CF29CF29EF2
:10265000F2BEFDD70400D19094948B849EAA04D03E
:102660009EAAFED7AE50FAD7D86BD76B010ED325F2
:10267000016E000ED421036ED851035C52E303E1D6
:102680000150D75D4EE210DF8484D96BD95197ECAD
:1026900000F0D92B006E00509EA8FED7AD6E040E40
:1026A000D95DF4E1010EC26F94948B94D751010B64
:1026B000006E036A0050031006E0820EFA6F080EE7
:1026C000FB6F8DDF05D0850EFA6F080EFB6F87DF7D
:1026D0000A0ED725D96F000ED821DA6FFB6FD9C04B
:1026E000FAF00F0EFC6F93DFFB6BFA6B090EFC6FB9
:1026F0008EDFD66BD56BD65100080DE39EAAFED7B0
:10270000AECFD9F0D9C0FAF0080EFB6F68DFD52B39
:10271000D8B4D62BF0D794948B84D72BD8B4D82B9D
:10272000A5D7C00EF2120400D18013EF1BF0EABF50
:1027300010D00F0E006EE93900160A0E005C03E29D
:10274000300E002602D0EA51002600509EA8FED787
:10275000AD6E0F0EE9170A0EE95D02E2300E02D0EF
:10276000EA9FEA51E927E9519EA8FED7AD6E000C19
:10277000FF6BFE6BFF51FD5D2EE303E1FC51FE5D3F
:102780002AE20101016B006B015320E100510708AF
:102790001DE394968B860001FE51FA250101026F1C
:1027A0000001FF51FB210101036F948882B802D020
:1027B000D89001D0D88003C1EAFF02C1E9FFEF360B
:1027C00094968B96002BD8B4012BDED70001FE2BFC
:1027D000D8B4FF2BCFD7000C67DE94948B94D20E25
:1027E000FA6F080EFB6FFBDEF4C0FBF0F3C0FAF0EB
:1027F0000F0EFC6F0CDFFA6B010EFB6FF0DEF5C005
:10280000FAF0080EFB6FEBDEFA6B100EFB6FE7DEE3
:10281000FA6B100EFB6FE3DEF7C0FBF0F6C0FAF0C8
:10282000F9C0FDF0F8C0FCF0A3DF94948B84000C99
:102830008484E66BE6510F0844E30D0E9EA8FED794
:10284000AD6E0A0E9EA8FED7AD6EE6C0E9F0370E5B
:10285000EA6F6DDF200E9EA8FED7AD6E3A0E9EA8E1
:10286000FED7AD6E200E9EA8FED7AD6EE651100DC0
:10287000F3CFE8F0D4C0F4F0D3C0F3F0E8C0F5F043
:10288000F76BD50EF66FF96B100EF86FA5DFE76BDF
:10289000E7510F0814E3036AE751D50FE96E000E04
:1028A0000320EA6EEFCFE8F0E8C0E9F0370EEA6FF8
:1028B0003EDF200E9EA8FED7AD6EE72BE9D7E62BB4
:1028C000B9D7010EC26FD7EF18F0D16BD13D01D04F
:1028D00019D0EADD94948B94500EFA6F080EFB6FBA
:1028E0007EDEFA6B040EFB6F7ADED1C0FAF0080EC2
:1028F000FB6F75DEFA6B0C0EFB6F71DE94948B84AC
:10290000D12BE4D7D1DD13EF1BF0D96BD76B0A0EB7
:10291000D86FD66BD56BD46BD36BD151D21105E187
:10292000006A016A026A036A3DD1D951D92B036A50
:10293000D125E96ED2510320EA6EEFCFDAF0DA51F9
:102940002D080DE1010ED76FD951D92B036AD1257E
:10295000E96ED2510320EA6EEFCFDAF00DD0DA51F2
:102960002B080AE1D951D92B036AD125E96ED2513E
:102970000320EA6EEFCFDAF0DA512F08D8B0FAD0A0
:10298000DA513908D8A0F6D0DA51300821E1036ACB
:10299000D951D125E96ED2510320EA6EEF50780863
:1029A0000AE0036AD951D125E96ED2510320EA6EBB
:1029B000EF5058080DE1100ED86FD92BD951D92BF3
:1029C000036AD125E96ED2510320EA6EEFCFDAF027
:1029D000D8510A0844E1DA512F0840E2DA513908A7
:1029E0003DE3D890D335DC6FD435DD6FD535DE6F60
:1029F000D635DF6FD335006ED435016ED535026E16
:102A0000D635036E003601360236033600360136FF
:102A100002360336F80E0016DC510026DD51012285
:102A2000DE510222DF51032203C0D6F002C0D5F0EE
:102A300001C0D4F000C0D3F0300EDA5DD327000E11
:102A4000D423D523D623D951D92B036AD125E96EB6
:102A5000D2510320EA6EEFCFDAF0BDD78BD0D85138
:102A60001008D8A487D0DA51600806E2DA517A0853
:102A700003E3DA51DF0B01D0DA51DA6FDA512F08B4
:102A800003E2DA51390807E2DA514008D8B072D0CF
:102A9000DA5146086FE3DA512F082DE2DA5139088E
:102AA0002AE3D335DC6FD435DD6FD535DE6FD6350F
:102AB000DF6FDC37DD37DE37DF37DC37DD37DE373A
:102AC000DF37DC37DD37DE37DF37F00EDC17300E6F
:102AD000DA5DDC25006E000EDD21016E000EDE21C8
:102AE000026E000EDF21D66F02C0D5F001C0D4F017
:102AF00000C0D3F02AD0D335DC6FD435DD6FD535A7
:102B0000DE6FD635DF6FDC37DD37DE37DF37DC37BA
:102B1000DD37DE37DF37DC37DD37DE37DF37F00E26
:102B2000DC17410EDA5D0A0FDC25006E000EDD2198
:102B3000016E000EDE21026E000EDF21D66F02C094
:102B4000D5F001C0D4F000C0D3F0D951D92B036A1D
:102B5000D125E96ED2510320EA6EEF50DA6F60089A
:102B600006E2DA517A0803E3DA51DF0B01D0DA51D9
:102B7000DA6F84D7D8510A080DE1D72D0BD0D31FB7
:102B8000D41FD51FD61FD32BD8B4D42BD8B4D52B54
:102B9000D8B4D62BD3C000F0D4C001F0D5C002F019
:102BA000D6C003F019EF19F0700EE125E56F620E43
:102BB000E221E66F000EE321E76F000EE421E86FEB
:102BC000186AF2BE188EF29EEE6FE7C0EDF0E6C016
:102BD000ECF0E5C0EBF0F26B010EF16F510EF06F0F
:102BE000800EEF6FA0EC01F018BEF28E03C0E9F08A
:102BF00002C0E8F001C0E7F000C0E6F0186AF2BEDB
:102C0000188EF29E03C0EEF002C0EDF001C0ECF0B1
:102C100000C0EBF0F26BF16B050EF06FB50EEF6FCD
:102C2000A0EC01F018BEF28EEFCF00F0ECCF01F077
:102C3000ECCF02F0ECCF03F001C002F000C001F0D5
:102C4000000CD890E231EE6FE131ED6F0A0EED2508
:102C5000EF6F000EEE21F06FE151010B006E036A81
:102C6000026E0034F16F0334F26FF137F237F1374F
:102C7000F237F137F237F137F237F137F237F13710
:102C8000F237800EF117F0C0F4F0EFC0F3F0F1C0AE
:102C9000F5F0F76BE30EF66FF96B040EF86F9CDD41
:102CA000EA6AE90EE96EE26AE30EE16E040E016E75
:102CB000E6CFEEFF012EFCD7E9C000F0EAC001F03C
:102CC000EBC002F0ECC003F0000C54EC12F0949452
:102CD0008B94530EFA6F080EFB6F81DCD7C0FBF0AC
:102CE000D6C0FAF00F0EFC6F92DCFB6BFA6B090E8C
:102CF000FC6F8DDC94948B84000CEACFDDF0E9CF7F
:102D0000DCF0D639F009D86FD827E20FD96F320F2F
:102D1000DB6FD6510F0BD927D927DB27E90FDA6FE5
:102D2000DA27DA27D5390F0BDA27DB27DA37DB3753
:102D3000DB1FDB37D5510F0BDB27D837070ED76FDB
:102D40000A0EDA07DB27FDE3D907DA27FDE3D80708
:102D5000D927FDE3D707D827FDE3EA6AD70EE96E46
:102D6000070EDC15DC9DE926DB0EE95CD8B4DC8DB2
:102D7000EF50006E08E1DCBD06D0DCB90CD0DCB74A
:102D800002D0200E03D0DC87DC99300E00260050E4
:102D90009EA8FED7AD6EEE50DCADE6D7000C54EC2D
:102DA00012F094948B94D10EFA6F080EFB6F17DC1F
:102DB000FB6BFA6B100EFC6F2ADCFA6B080EFB6FD4
:102DC0000EDCFF0ED26FFB6BD10EFA6FFD6B010EA6
:102DD000FC6FCEDCD22BD2510F0B15E10D0E9EA84D
:102DE000FED7AD6E0A0E9EA8FED7AD6E200E9EA831
:102DF000FED7AD6ED2C0E9F0370EEA6F98DC3A0E1E
:102E00009EA8FED7AD6ED1C0E9F0370EEA6F8FDC19
:102E1000200E9EA8FED7AD6ED23DD5D794948B845C
:102E20003DEF1AF0016A026A006A036AD65102E1B4
:102E3000D55118E0100ED76FD890D337D43700365D
:102E40000336D651035C02E1D551005C07E3D5514E
:102E5000005ED8A00306D651035ED8800136023644
:102E6000D72FEAD7000CE950D66F3B0EDD6F9A0ED4
:102E7000DC6FCA0EDB6FDA6B0A0ED86F186AF2BE0F
:102E8000188EF29ED5C0EEF0D4C0EDF0D3C0ECF0B9
:102E9000D2C0EBF0DDC0F2F0DCC0F1F0DBC0F0F04E
:102EA000DAC0EFF0A0EC01F018BEF28E0150EFCFC7
:102EB000D2F0ECCFD3F0ECCFD4F0ECCFD5F0005281
:102EC0000FE1D851010A0CE0D6510BE00F0BD85D91
:102ED00001E00DE2D6BF0BD0D6BD03D0200E02D04C
:102EE000D66B300E002600509EA8FED7AD6E186A35
:102EF000F2BE188EF29EDDC0EEF0DCC0EDF0DBC05D
:102F0000ECF0DAC0EBF0F26BF16BF06B0A0EEF6FE6
:102F1000A0EC01F018BEF28E03C0DDF002C0DCF0C0
:102F200001C0DBF000C0DAF0D82FA8D7C0EF1AF04C
:102F300054EC12F094948B94840EFA6F080EFB6F8D
:102F4000EFEC12F0FB6BFA6B100EFC6F07EC13F05A
:102F5000DDC0FAF0080EFB6FEFEC12F0DE51010855
:102F60000DE2FF0EDF6FDCC0FAF0080EFB6FEFEC36
:102F700012F0DF2BDE51DF5DF6E306D0DCC0FAF0A5
:102F8000080EFB6FEFEC12F094948B84000C1F96EC
:102F9000630E545CE90FD8B046D3170F14EF1BF043
:102FA000EA6A540EE96EE26A550EE16E120E016E87
:102FB000E6CFEEFF012EFCD7D26B540ED16F6DEC35
:102FC00005F002C0D2F001C0D1F0D15303E1D253D9
:102FD00001E129D3D26B540ED16F6DEC05F002C024
:102FE000D2F001C0D1F002C0D4F001C0D3F0230E62
:102FF000D66F280ED56FC1C0D8F0C0C0D7F0010E73
:10300000D96FDA6BD2EC10F00ED3EA6A540EE96E87
:10301000E26A550EE16E120E016EE6CFEEFF012E52
:10302000FCD7D26B540ED16F6DEC05F002C0D2F01C
:1030300001C0D1F0D15303E1D25301E1F4D2D26BFC
:10304000540ED16F6DEC05F002C0D2F001C0D1F08A
:1030500002C0D4F001C0D3F0230ED66F280ED56F76
:10306000C1C0D8F0C0C0D7F0D96BDA6BD2EC10F089
:10307000DAD2EA6A540EE96EE26A550EE16E120E79
:10308000016EE6CFEEFF012EFCD7D26B540ED16F4E
:103090006DEC05F002C0D2F001C0D1F0D15303E1D4
:1030A000D25301E1C0D28484D26B540ED16F6DEC47
:1030B00005F002C0D2F001C0D1F0D36BD351B8EC0F
:1030C00000F0D32B006E00509EA8FED7AD6E060E0A
:1030D000D35DF4E1100EE96ED2C0D5F0D1C0D4F0CA
:1030E000E6EC11F0090ED46FD451B8EC00F0D42BFB
:1030F000006E00509EA8FED7AD6E120ED45DF4E1B6
:10310000010EC26FD26B540ED16F6DEC05F002C090
:10311000D2F001C0D1F002C0D4F001C0D3F026EF4C
:1031200013F0F29CF29EF2BEFDD70400D190EA6A41
:10313000540EE96EE26A550EE16E120E016EE6CF94
:10314000EEFF012EFCD78484D26B540ED16F6DEC50
:1031500005F002C0D2F001C0D1F0D36BD351CFEC57
:1031600000F0D32B006E00509EA8FED7AD6E080E67
:10317000D35DF4E1100EE96ED2C0D5F0D1C0D4F029
:10318000E6EC11F03A0E9EA8FED7AD6E010EC26FAE
:10319000D26B540ED16F6DEC05F002C0D2F001C0BD
:1031A000D1F002C0D4F001C0D3F018EF14F0C00E7B
:1031B000F2120400D18037D2EA6A540EE96EE26A54
:1031C000550EE16E120E016EE6CFEEFF012EFCD71A
:1031D000D26B540ED16F6DEC05F002C0D2F00150ED
:1031E000D16F160802E1D25301E01DD28484D16B65
:1031F000D151E3EC00F0D12B006E00509EA8FED719
:10320000AD6E1D0ED15DF4E1010EC26F65EF14F0DD
:10321000EA6A540EE96EE26A550EE16E120E016E14
:10322000E6CFEEFF012EFCD7D26B540ED16F85EFA7
:1032300014F003C023F002C022F001C021F000C04E
:1032400020F0EE6B020EEF6FEBEC04F0186AF2BEAA
:10325000188EF29E23C0EEF022C0EDF021C0ECF0FB
:1032600020C0EBF0070EF26F860EF16F1F0EF06FAD
:10327000800EEF6FA0EC01F018BEF28EEFCFD1F010
:10328000ECCFD2F0ECCFD3F0ECCFD4F0D4C0E4F05C
:10329000D3C0E3F0D2C0E2F0D1C0E1F085DC02C0DF
:1032A000D3F001C0D2F002C0E2F001C0E1F0C9DC0D
:1032B00003C0D6F002C0D5F001C0D4F000C0D3F0F6
:1032C000EACFD8F0E9CFD7F003C0F8F002C0F7F0AA
:1032D00001C0F6F000C0F5F0FC6BFB6B010EFA6F5D
:1032E000C20EF96F98EC09F0D8C0EAFFD7C0E9FF29
:1032F00003C06DF002C06CF001C06BF000C06AF05A
:103300009D80C00EF2121F80D16B10EC04F0186A81
:10331000F2BE188EF29E23C0EEF022C0EDF021C066
:10332000ECF020C0EBF0070EF26F860EF16F1F0E6F
:10333000F06F800EEF6FA0EC01F018BEF28EEFCFB1
:10334000D1F0ECCFD2F0ECCFD3F0ECCFD4F0D4C0AE
:10335000E4F0D3C0E3F0D2C0E2F0D1C0E1F024DC6D
:1033600002C0D3F001C0D2F0D8900230036E013019
:10337000026EF20FD46F030E0320D56FD76FD4C047
:10338000D6F0A3DC1F984FD1070ED46FD00ED36FA9
:10339000230ED66F280ED56FC1C0D8F0C0C0D7F0AD
:1033A000010ED96FDA6BD2EC10F0070ED46FD00E8D
:1033B000D36F230ED66F280ED56FC1C0D8F0C0C012
:1033C000D7F0D96BDA6BD2EC10F0C9C0BBF0C8C033
:1033D000BAF06F6B6E6B010ED16F10EC04F023D15D
:1033E000EA6A540EE96EE26A550EE16E120E016E43
:1033F000E6CFEEFF012EFCD7D26B540ED16F6DECF1
:1034000005F002C0D2F00150D16F160802E1D2538C
:1034100001E009D1010ED16F10EC04F004D1000ECF
:10342000016EC250C70B0110C26E100E006E002E4E
:10343000FED70000C284C2B4FED7C3CFC3F0C4CF4E
:10344000C4F0D16BD151FFEC00F0D12B006E0050D5
:103450009EA8FED7AD6E070ED15DF4E1100EE96EA9
:10346000C4C0D6F0C3C0D5F048DCDDD0F29CF29EDB
:10347000F2BEFDD70400D19092D4C00EF212040027
:10348000D180D1D0D16BD15112EC01F0D12B006E93
:1034900000509EA8FED7AD6E060ED15DF4E1100E71
:1034A000E96E6FC0D6F06EC0D5F027DC2F0E9EA857
:1034B000FED7AD6E100EE96EBBC0D6F0BAC0D5F027
:1034C0001CDCD16BD15126EC01F0D12B006E0050E9
:1034D0009EA8FED7AD6E0A0ED15DF4E1100EE96E26
:1034E000C7C0D6F0C6C0D5F008DCC4C0D4F0C3C095
:1034F000D3F0D66BC5C0D5F095DC02C0D2F001C0C8
:10350000D1F0D36BD3513AEC01F0D32B006E0050C5
:103510009EA8FED7AD6E0A0ED35DF4E1100EE96EE3
:10352000D2C0D6F0D1C0D5F07DEC16F0200E9EA80A
:10353000FED7AD6E280E9EA8FED7AD6EC5C0D4F0E6
:103540001F0ED56FA8EC03F0290E9EA8FED7AD6E16
:10355000D16BD15151EC01F0D12B006E00509EA8DF
:10356000FED7AD6E080ED15DF4E1410EE96E23C0C9
:10357000D5F022C0D4F021C0D3F020C0D2F073D453
:10358000186AF2BE188EF29E23C0EEF022C0EDF053
:1035900021C0ECF020C0EBF0070EF26F860EF16F49
:1035A0001F0EF06F800EEF6FA0EC01F018BEF28ED0
:1035B000EFCFD1F0ECCFD2F0ECCFD3F0ECCFD4F012
:1035C000D4C0E4F0D3C0E3F0D2C0E2F0D1C0E1F067
:1035D000D4EC15F002C0D3F001C0D2F0D46BD451BA
:1035E00064EC01F0D42B006E00509EA8FED7AD6EA7
:1035F000070ED45DF4E1100EE96ED3C0D6F0D2C050
:10360000D5F07DEC16F00FD0AA0EDC6FDD6BFF0E4F
:10361000DE6F8EDC08D01F880400D19004D01F9884
:10362000D180040000D0000CF2CF0EF0F29EE8240E
:10363000F76AF7364D0FF66E360EF7220A00F55090
:10364000FA6E0800F5500EBEF28EF96E0836723032
:10365000B831263626368833843426362636263642
:10366000A02F0A301E36263626362231E03310329D
:10367000263626366C3416361E349E989E9A9D9AAF
:10368000AB9EAB98AC98AC9A030E006E002EFED7A2
:10369000AB88AB8EAC8A9D8AB6EF30F0D9C0E4F02F
:1036A000D8C0E3F0D7C0E2F0D6C0E1F0D4EC15F01A
:1036B00002C0DBF001C0DAF0DBC0E2F0DAC0E1F01A
:1036C00021EC16F003C0E4F002C0E3F001C0E2F028
:1036D00000C0E1F0EACFE6F0E9CFE5F003C0F8F092
:1036E00002C0F7F001C0F6F000C0F5F0FC6BFB6B18
:1036F000010EFA6FC20EF96F98EC09F0E6C0EAFF0E
:10370000E5C0E9FF03C0DFF002C0DEF001C0DDF07C
:1037100000C0DCF0186AF2BE188EF29ED9C0EEF03E
:10372000D8C0EDF0D7C0ECF0D6C0EBF0070EF26FCA
:10373000860EF16F1F0EF06F800EEF6FA0EC01F0A0
:1037400018BEF28EEFCF00F0ECCF01F0ECCF02F01C
:10375000ECCF03F00350DF5D0FE30BE10250DE5DC1
:103760000BE307E10150DD5D07E303E1DC51005CA1
:1037700003E2000E016E97D0186AF2BE188EF29E18
:10378000D9C0EEF0D8C0EDF0D7C0ECF0D6C0EBF069
:10379000070EF26F860EF16F1F0EF06F800EEF6F47
:1037A000A0EC01F018BEF28EEFCFE1F0ECCFE2F02A
:1037B000ECCFE3F0ECCFE4F0DC51E15DE56FDD51FF
:1037C000E259E66FDE51E359E76FDF51E459E86FE4
:1037D000EACFEAF0E9CFE9F0186AF2BE188EF29E5D
:1037E000EE6FE7C0EDF0E6C0ECF0E5C0EBF0F26B99
:1037F000F16B010EF06FC20EEF6FA0EC01F018BE7E
:10380000F28EEAC0EAFFE9C0E9FF00C0CAF0CA517F
:103810007B0803E2FF0E016E46D0D890DB31E26FE9
:10382000DA31E16F0A0EE125E36F000EE221E46F69
:10383000DA51010B006E036A026E0034E56F033447
:10384000E66FE537E637E537E637E537E637E5375C
:10385000E637E537E637E537E637800EE517040E3D
:10386000E525E76F000EE621E86FCA51E725E96F0D
:10387000000EE821EA6FE4C0F4F0E3C0F3F0E9C021
:10388000F5F0F76BE00EF66FF96B010EF86FECECEC
:1038900013F0CA51050805E2E05303E1FF0E016E83
:1038A00002D0E0C001F045EF1DF054EC12F094940A
:1038B0008B94830EFA6F080EFB6FEFEC12F0D8C0FA
:1038C000FBF0D7C0FAF00F0EFC6F07EC13F0FB6BA8
:1038D000FA6B090EFC6F07EC13F094948B8438EFAD
:1038E0001EF0FFEC04F0186AF2BE188EF29E23C0A0
:1038F000EEF022C0EDF021C0ECF020C0EBF0070E9E
:10390000F26F860EF16F1F0EF06F800EEF6FA0EC5E
:1039100001F018BEF28EEFCFD2F0ECCFD3F0ECCFA7
:10392000D4F0ECCFD5F06D51D55DD8A073D00BE1BC
:103930006C51D45D6FE307E16B51D35D6BE303E141
:103940006A51D25D67E3800E6A25D26F510E6B21FA
:10395000D36F010E6C21D46F000E6D21D56F186AE4
:10396000F2BE188EF29EEE6FD4C0EDF0D3C0ECF034
:10397000D2C0EBF0070EF26F860EF16F1F0EF06FE4
:10398000800EEF6FA0EC01F018BEF28EEFCFD3F0F7
:10399000ECCFD4F0ECCFD5F0ECCFD6F0D6C0E4F03D
:1039A000D5C0E3F0D4C0E2F0D3C0E1F0D4EC15F020
:1039B00002C0D5F001C0D4F002C0E2F001C0E1F0D5
:1039C00021EC16F003C0D8F002C0D7F001C0D6F049
:1039D00000C0D5F0EACFDAF0E9CFD9F003C0F8F0B3
:1039E00002C0F7F001C0F6F000C0F5F0FC6BFB6B15
:1039F000010EFA6FC20EF96F98EC09F0DAC0EAFF17
:103A0000D9C0E9FF03C06DF002C06CF001C06BF0DB
:103A100000C06AF020506A5D006E21506B59016E43
:103A200022506C59026E23506D59B96F02C0B8F024
:103A300001C0B7F000C0B6F0186AF2BE188EF29E50
:103A400023C0EEF022C0EDF021C0ECF020C0EBF07E
:103A5000070EF26F860EF16F1F0EF06F800EEF6F84
:103A6000A0EC01F018BEF28EEFCFD2F0ECCFD3F085
:103A7000ECCFD4F0ECCFD5F0D5C0D9F0D4C0D8F08D
:103A8000D3C0D7F0D2C0D6F009D601C0D1F0D153FF
:103A900045E1186AF2BE188EF29E23C0EEF022C0F5
:103AA000EDF021C0ECF020C0EBF0070EF26F860EB7
:103AB000F16F1F0EF06F800EEF6FA0EC01F018BEDB
:103AC000F28EEFCFD2F0ECCFD3F0ECCFD4F0ECCF3E
:103AD000D5F0D5C0E4F0D4C0E3F0D3C0E2F0D2C05A
:103AE000E1F0D4EC15F002C0D4F00150D36F010B1B
:103AF000D56FD66BD5530AE1D65308E1AA0EDC6F19
:103B0000DD6BFF0EDE6F98EC17F008D0AA0EDC6FAD
:103B1000800EDD6F7F0EDE6F98EC17F0D13D01D087
:103B200002D0D15302E1B40ED16FD151B408D8B450
:103B30009FD0C4C0D4F0C3C0D3F0D66BC5C0D5F0FD
:103B400012EC17F001C0D2F0186AF2BE188EF29E85
:103B500023C0EEF022C0EDF021C0ECF020C0EBF06D
:103B6000070EF26F860EF16F1F0EF06F800EEF6F73
:103B7000A0EC01F018BEF28EEFCFD3F0ECCFD4F072
:103B8000ECCFD5F0ECCFD6F0D6C0E4F0D5C0E3F062
:103B9000D4C0E2F0D3C0E1F0D4EC15F002C0D5F00F
:103BA0000150D46F010B006E036A026E0034D66FB1
:103BB0000334D76FD637D737D637D737D637D73737
:103BC000D637D737D637D737D637D737800ED61729
:103BD000040ED625D86F000ED721D96FCA51D8252B
:103BE000DA6F000ED921DB6FD2C0DCF0DAC0DDF075
:103BF000010EDE6F98EC17F0186AF2BE188EF29E76
:103C000023C0EEF022C0EDF021C0ECF020C0EBF0BC
:103C1000070EF26F860EF16F1F0EF06F800EEF6FC2
:103C2000A0EC01F018BEF28EEFCFD2F0ECCFD3F0C3
:103C3000ECCFD4F0ECCFD5F0D5C0E4F0D4C0E3F0B5
:103C4000D3C0E2F0D2C0E1F0D4EC15F002C0D4F061
:103C500001C0D3F0D8900230036E0130026EF20F33
:103C6000D56F030E0320D66FD86FD5C0D7F01DD601
:103C7000EA6A2C0EE96EF2CFD2F0F29E000EA7ECAB
:103C800000F00A000900F550EE6E0009FBE1D2BF1A
:103C9000F28E186AF2BE188EF29E23C0EEF022C099
:103CA000EDF021C0ECF020C0EBF0070EF26F860EB5
:103CB000F16F1F0EF06F800EEF6FA0EC01F018BED9
:103CC000F28EEFCFD2F0ECCFD3F0ECCFD4F0ECCF3C
:103CD000D5F0D5C0E4F0D4C0E3F0D3C0E2F0D2C058
:103CE000E1F0D4EC15F002C0D4F001C0D3F0E96BE0
:103CF000E86B02C0E7F001C0E6F00A0EEA6FEC6B79
:103D0000400EEB6F53EC0AF0E36B400EE26F41ECB8
:103D10000BF0300ED8800154D26F000ED8A0E80608
:103D2000D36FE36B400EE26F41EC0BF001C0D4F0B7
:103D3000D3C0EAFFD2C0E9FFE26A400EE16E015053
:103D4000016E04E0E6CFEEFF012EFCD70A0EEA6F0B
:103D5000EB6B61EC06F00A0EEA6FEB6B61EC06F0C0
:103D60000A0EEA6FEB6B61EC06F0E36B2C0EE26F70
:103D700041EC0BF001C0D2F0E26B2C0EE16F01C000
:103D8000E3F05AEC0BF0EA6A2C0EE96EF2CFD2F0B7
:103D9000F29E000E88EC00F00A000900F550EE6E6D
:103DA0000009FBE1D2BFF28EDF0E2F6EE96BE86BEC
:103DB000E76BD1C0E6F00A0EEA6FEC6B400EEB6FDA
:103DC00053EC0AF0E36B400EE26F41EC0BF0015054
:103DD000030822E3E36B400EE26F41EC0BF02F0E81
:103DE000D8800154D26F000ED8A0E806D36FE36BE1
:103DF000400EE26F41EC0BF001C0D4F0D3C0EAFFFB
:103E0000D2C0E9FFE26A400EE16E0150016E04E0AB
:103E1000E6CFEEFF012EFCD70A0EEA6F010EEB6F24
:103E200061EC06F0E36B2C0EE26F41EC0BF001C08D
:103E3000D2F0E26B2C0EE16F01C0E3F05AEC0BF014
:103E4000D1C001F0000C4BC152F101014F51521B86
:103E500052AF05D0D894D8904BBFD8802FD04BC14B
:103E600052F14EC153F14A51535F06E052AF26D092
:103E7000D850010AD86E22D04FC153F14B51535F35
:103E800006E052AF1BD0D850010AD86E17D050C1EF
:103E900053F14C51535F06E052AF10D0D850010A95
:103EA000D86E0CD051C153F14D51535F06E052AF63
:103EB00005D0D850010AD86E01D0D8900001000C6E
:103EC0000101189118930BC10FF10AC10EF109C13C
:103ED0000DF108C10CF10BC14DF10AC14CF109C142
:103EE0004BF108C14AF1516B506B4F6B4E6B0001A7
:103EF000AADF05E3010118810D51800A0D6F010150
:103F00004D6B4C6B4B6B7F0E4A6F0FC151F10EC165
:103F100050F10DC14FF10CC14EF1000194DF1BE3D4
:103F200001014D6B4C6B4B6B7F0E4A6F0FC151F112
:103F30000EC150F10DC14FF10CC14EF100018DECDD
:103F400007F003C00FF102C00EF101C00DF100C077
:103F50000CF1010118830A0E0101516F890E506F97
:103F6000340E4F6F7C0E4E6F0FC155F10EC154F1E0
:103F70000DC153F10CC152F1000112EC07F000C069
:103F800019F101C01AF102C01BF103C01CF103C0FA
:103F900051F102C050F101C04FF100C04EF10FC10C
:103FA00055F10EC154F10DC153F10CC152F112EC97
:103FB00007F000C01DF101C01EF102C01FF103C0D7
:103FC00020F1D89203C053F102C052F101C051F167
:103FD00000C050F17C0E0101576F790E566F350EFF
:103FE000556F810E546F00013CEC08F003C013F1D3
:103FF00002C012F101C011F100C010F113C151F162
:1040000012C150F111C14FF110C14EF10FC155F164
:104010000EC154F10DC153F10CC152F112EC07F075
:1040200000C019F101C01AF102C01BF103C01CF15C
:1040300003C051F102C050F101C04FF100C04EF178
:104040000FC155F10EC154F10DC153F10CC152F124
:1040500012EC07F000C01DF101C01EF102C01FF1FB
:1040600003C020F1D89203C053F102C052F101C045
:1040700051F100C050F13F0E0101576F020E566F13
:10408000330E556F830E546F00013CEC08F003C0F3
:1040900013F102C012F101C011F100C010F113C1FF
:1040A00051F112C150F111C14FF110C14EF10FC1C8
:1040B00055F10EC154F10DC153F10CC152F112EC86
:1040C00007F000C019F101C01AF102C01BF103C0D2
:1040D0001CF103C051F102C050F101C04FF100C00A
:1040E0004EF10FC155F10EC154F10DC153F10CC188
:1040F00052F112EC07F000C01DF101C01EF102C028
:104100001FF103C020F1D89203C053F102C052F155
:1041100001C051F100C050F1330E0101576F8C0EF8
:10412000566F1E0E556F830E546F00013CEC08F065
:1041300003C013F102C012F101C011F100C010F16F
:104140000101516B506B4F6B7F0E4E6F0FC155F1DC
:104150000EC154F10DC153F10CC152F1000112EC2A
:1041600007F000C019F101C01AF102C01BF103C031
:104170001CF103C051F102C050F101C04FF100C069
:104180004EF10FC155F10EC154F10DC153F10CC1E7
:1041900052F112EC07F000C01DF101C01EF102C087
:1041A0001FF103C020F1D89203C053F102C052F1B5
:1041B00001C051F100C050F11B0E0101576FE40E18
:1041C000566F350E556F820E546F00013CEC08F0AF
:1041D00003C017F102C016F101C015F100C014F1BF
:1041E00017C151F116C150F115C14FF114C14EF173
:1041F0000FC155F10EC154F10DC153F10CC152F173
:1042000012EC07F000C019F101C01AF102C01BF155
:1042100003C01CF103C051F102C050F101C04FF1C5
:1042200000C04EF10FC155F10EC154F10DC153F153
:104230000CC152F112EC07F000C01DF101C01EF1DB
:1042400002C01FF103C020F1D89203C053F102C095
:1042500052F101C051F100C050F1A40E0101576F9D
:10426000DB0E566F670E556F830E546F00013CECEA
:1042700008F003C017F102C016F101C015F100C02B
:1042800014F117C151F116C150F115C14FF114C10C
:104290004EF10FC155F10EC154F10DC153F10CC1D6
:1042A00052F112EC07F000C019F101C01AF102C07E
:1042B0001BF103C01CF103C051F102C050F101C059
:1042C0004FF100C04EF10FC155F10EC154F10DC1B7
:1042D00053F10CC152F112EC07F000C01DF101C006
:1042E0001EF102C01FF103C020F1D89203C053F1A8
:1042F00002C052F101C051F100C050F1330E010172
:10430000576F8C0E566F1E0E556F830E546F000143
:104310003CEC08F003C017F102C016F101C015F122
:1043200000C014F10FC151F10EC150F10DC14FF198
:104330000CC14EF113C155F112C154F111C153F129
:1043400010C152F112EC07F000C019F101C01AF1CE
:1043500002C01BF103C01CF103C04DF102C04CF1BF
:1043600001C04BF100C04AF117C151F116C150F123
:1043700015C14FF114C14EF18DEC07F003C013F1DC
:1043800002C012F101C011F100C010F1010118A327
:104390001DD0D882DB0E536F0F0E526F490E516F36
:1043A0007F0E506F13C157F112C156F111C155F173
:1043B00010C154F100013CEC08F003C013F102C03D
:1043C00012F101C011F100C010F1010118A103D0D8
:1043D0001151800A116F10C100F011C101F012C11A
:1043E00002F013C103F00001000C8E0E006E4FC1ED
:1043F00001F04EC102F0036A015209E102C001F06E
:10440000026A080E005E015202E1006A08D0D890EC
:1044100001BE04D0023601360006F9D7019E000C19
:104420008E0E006E01014A51005E4BC102F04CC17C
:1044300001F0028E005209E0D890025202E10152CE
:1044400004E002320132002EF7D74BAF05D0011E37
:10445000021E012AD8B4022A0001000C7F0E0101BD
:10446000306F316B326B336B7E0E3A6F800E3B6F69
:104470003C6B3D6B7A0E3E6F2A0E3F6FAA0E406F6B
:10448000A30E416F750E426FB60E436F090E446F57
:104490009C0E456F6F0E466F4F0E476FB40E486F00
:1044A0000B0E496F27C14DF126C14CF125C14BF1CF
:1044B00024C14AF1516B506B4F6B4E6B0001C3DC52
:1044C00004E301012551800A256F27C14DF126C162
:1044D0004CF125C14BF124C14AF1DB0E0101516FB2
:1044E0000F0E506F490E4F6F7F0E4E6F00018DEC17
:1044F00007F003C04DF102C04CF101C04BF100C008
:104500004AF18EDF01C034F127C14DF126C14CF1D3
:1045100025C14BF124C14AF1DB0E0101516F0F0E91
:10452000506F490E4F6F7F0E4E6F00018DEC07F0FC
:1045300000C04AF101C04BF102C04CF103C04DF183
:1045400001014F6B34C14EF100014FDFD8824DC1E4
:1045500053F14CC152F14BC151F14AC150F103C06A
:1045600057F102C056F101C055F100C054F13CECC6
:1045700008F003C039F102C038F101C037F100C0C2
:1045800036F1030E01013417345303E034510208AD
:104590001DE139C151F138C150F137C14FF136C178
:1045A0004EF1DB0E556F0F0E546F490E536F7F0E99
:1045B000526F000112EC07F003C02FF102C02EF180
:1045C00001C02DF100C02CF16FD00101342D37D086
:1045D000D882536B526B516B7F0E506F39C157F1BC
:1045E00038C156F137C155F136C154F100013CECE8
:1045F00008F000C04AF101C04BF102C04CF103C009
:104600004DF103C051F102C050F101C04FF100C0A3
:104610004EF1DB0E0101556F0F0E546F490E536FB3
:104620007F0E526F000112EC07F003C02FF102C0A1
:104630002EF101C02DF100C02CF136D00101D8823D
:1046400039C153F138C152F137C151F136C150F17E
:10465000576B566B556B7F0E546F00013CEC08F0A6
:1046600000C04AF101C04BF102C04CF103C04DF152
:1046700003C051F102C050F101C04FF100C04EF132
:10468000DB0E0101556F0F0E546F490E536F7F0EF5
:10469000526F000112EC07F003C02FF102C02EF19F
:1046A00001C02DF100C02CF101012B6B2A6B296B8D
:1046B0007F0E286F2FC151F12EC150F12DC14FF146
:1046C0002CC14EF12FC155F12EC154F12DC153F122
:1046D0002CC152F1000112EC07F003C02FF102C00F
:1046E0002EF101C02DF100C02CF10101356B3551C7
:1046F000030866E333C151F132C150F131C14FF1CA
:1047000030C14EF12FC155F12EC154F12DC153F1DD
:104710002CC152F1000112EC07F003C033F102C0CA
:1047200032F101C031F100C030F101013551040D09
:10473000F350036A3A0FE96E010E0320EA6EEFCFE1
:104740004AF1ECCF4BF1ECCF4CF1ECCF4DF14DC138
:1047500051F14CC150F14BC14FF14AC14EF133C13F
:1047600055F132C154F131C153F130C152F1000160
:1047700012EC07F0EACF4FF1E9CF4EF1D8922BC1FE
:1047800053F12AC152F129C151F128C150F103C09E
:1047900057F102C056F101C055F100C054F13CEC94
:1047A00008F04FC1EAFF4EC1E9FF03C02BF102C080
:1047B0002AF101C029F100C028F10101352B97D75A
:1047C0003451020802E0342D03D02951800A296FA8
:1047D00028C100F029C101F02AC102F02BC103F069
:1047E0000001000CD8821FC153F11EC152F11DC13E
:1047F00051F11CC150F1DB0E0101576F0F0E566FC6
:10480000490E556F7F0E546F00013CEC08F000C05C
:1048100020F101C021F102C022F103C023F103C045
:1048200027F102C026F101C025F100C024F116DEF7
:10483000000C13C127F112C126F111C125F110C1DD
:1048400024F10CDE03C017F102C016F101C015F10E
:1048500000C014F117C14DF116C14CF115C14BF157
:1048600014C14AF10101516B506B4F6B4E6B00014B
:1048700023EC1FF009E1F60E006E400E016E970E5C
:10488000026ECE0E036E23D013C11FF112C11EF1B2
:1048900011C11DF110C11CF1A5DF03C01BF102C045
:1048A0001AF101C019F100C018F11BC14DF11AC174
:1048B0004CF119C14BF118C14AF117C151F116C1A0
:1048C00050F115C14FF114C14EF18DEC07F0000C01
:1048D00015C14DF114C14CF113C14BF112C14AF194
:1048E0000101516B506B4F6B4E6B000123EC1FF0BD
:1048F00001E205E1006A016A026A036A7DD015C11E
:1049000019F114C118F113C117F112C116F1010EFA
:1049100001011F6F160E1E6F1EC1E9FF1FC1EAFFC6
:10492000EF50236B226F7F0E2225246F000E232170
:10493000256FD890253124311FC1EAFF1EC1E9FF40
:10494000EF6E19C11DF118C11CF117C11BF116C181
:104950001AF115C14DF114C14CF113C14BF112C143
:104960004AF119C151F118C150F117C14FF116C1E7
:104970004EF100018DEC07F0D89219C153F118C126
:1049800052F117C151F116C150F103C057F102C0E5
:1049900056F101C055F100C054F13CEC08F003C0E1
:1049A00019F102C018F101C017F100C016F10101A0
:1049B0001EC1E9FF1FC1EAFFEF061DC14DF11CC179
:1049C0004CF11BC14BF11AC14AF119C151F118C187
:1049D00050F117C14FF116C14EF1000123EC1FF049
:1049E000D8B402D00101ADD71AC100F01BC101F04B
:1049F0001CC102F01DC103F0000CD76BD66B4A0E30
:104A0000D56F850ED46FDB6BDA6BD96BD86BCD0E9F
:104A1000E36FCC0EE26F140EE16F820EE06FEB6B72
:104A2000EA6B700EE96F830EE86FE76BE66B300E92
:104A3000E56F810EE46FCD0EE36FCC0EE26F140EC6
:104A4000E16F820EE06FDBC04DF1DAC04CF1D9C0EE
:104A50004BF1D8C04AF1EBC051F1EAC050F1E9C0C6
:104A60004FF1E8C04EF18DEC07F000C004F101C039
:104A700005F102C006F103C007F103C00BF102C04B
:104A80000AF101C009F100C008F160EC1FF003C099
:104A900003F102C002F101C001F100C000F1010107
:104AA0004F6BD3C04EF10001A0DC03C051F102C036
:104AB00050F101C04FF100C04EF1DB0E0101556F06
:104AC0000F0E546F490E536F800E526F000112EC9F
:104AD00007F000C004F101C005F102C006F103C0F7
:104AE00007F103C04DF102C04CF101C04BF100C011
:104AF0004AF10101516B506B340E4F6F860E4E6FB1
:104B000000018DEC07F000C008F101C009F102C0FE
:104B10000AF103C00BF1D88203C053F102C052F175
:104B200001C051F100C050F103C157F102C156F16B
:104B300001C155F100C154F13CEC08F000C00CF18A
:104B400001C00DF102C00EF103C00FF103C01FF14F
:104B500002C01EF101C01DF100C01CF143DE03C004
:104B6000F3F002C0F2F001C0F1F000C0F0F001017A
:104B70004F6BD3C04EF1000138DC03C051F102C0CD
:104B800050F101C04FF100C04EF1DB0E0101556F35
:104B90000F0E546F490E536F800E526F000112ECCE
:104BA00007F000C004F101C005F102C006F103C026
:104BB00007F103C04DF102C04CF101C04BF100C040
:104BC0004AF10101516B506B340E4F6F860E4E6FE0
:104BD00000018DEC07F000C008F101C009F102C02E
:104BE0000AF103C00BF1D88203C053F102C052F1A5
:104BF00001C051F100C050F103C157F102C156F19B
:104C000001C155F100C154F13CEC08F000C00CF1B9
:104C100001C00DF102C00EF103C00FF103C027F176
:104C200002C026F101C025F100C024F117DC03C049
:104C3000F7F002C0F6F001C0F5F000C0F4F0010199
:104C40004F6BD3C04EF10001F5EC21F003C051F1E0
:104C500002C050F101C04FF100C04EF1DB0E010166
:104C6000556F0F0E546F490E536F800E526F000137
:104C700012EC07F000C004F101C005F102C006F11A
:104C800003C007F103C04DF102C04CF101C04BF16C
:104C900000C04AF10101516B506B340E4F6F860E0C
:104CA0004E6F00018DEC07F000C008F101C009F162
:104CB00002C00AF103C00BF1D88203C053F102C055
:104CC00052F101C051F100C050F103C157F102C1CE
:104CD00056F101C155F100C154F13CEC08F000C09F
:104CE0000CF101C00DF102C00EF103C00FF103C0C1
:104CF00013F102C012F101C011F100C010F199DDF1
:104D000003C0FBF002C0FAF001C0F9F000C0F8F0F7
:104D1000EBC051F1EAC050F1E9C04FF1E8C04EF1EB
:104D2000EBC055F1EAC054F1E9C053F1E8C052F1CB
:104D300012EC07F000C004F101C005F102C006F159
:104D400003C007F1DBC051F1DAC050F1D9C04FF117
:104D5000D8C04EF1DBC055F1DAC054F1D9C053F1DF
:104D6000D8C052F112EC07F0D89207C153F106C136
:104D700052F105C151F104C150F103C057F102C015
:104D800056F101C055F100C054F13CEC08F000C0F0
:104D900008F101C009F102C00AF103C00BF103C020
:104DA00015F102C014F101C013F100C012F190DD41
:104DB00000C009F101C00AF102C00BF103C00CF1FF
:104DC000E3C04DF1E2C04CF1E1C04BF1E0C04AF16B
:104DD000F3C051F1F2C050F1F1C04FF1F0C04EF10B
:104DE0008DEC07F0EACF0EF1E9CF0DF1D8820CC1BE
:104DF00053F10BC152F10AC151F109C150F103C085
:104E000057F102C056F101C055F100C054F13CEC1D
:104E100008F00EC1EAFF0DC1E9FF03C0DFF002C0D8
:104E2000DEF001C0DDF000C0DCF0E3C04DF1E2C017
:104E30004CF1E1C04BF1E0C04AF1FBC051F1FAC0C6
:104E400050F1F9C04FF1F8C04EF18DEC07F0D88267
:104E5000D7C053F1D6C052F1D5C051F1D4C050F1F2
:104E600003C057F102C056F101C055F100C054F122
:104E70003CEC08F000C004F101C005F102C006F1ED
:104E800003C007F1DFC051F1DEC050F1DDC04FF1CA
:104E9000DCC04EF1F7C055F1F6C054F1F5C053F146
:104EA000F4C052F112EC07F0D88207C153F106C1E9
:104EB00052F105C151F104C150F103C057F102C0D4
:104EC00056F101C055F100C054F13CEC08F003C0AC
:104ED000FFF002C0FEF001C0FDF000C0FCF0DFC03A
:104EE00051F1DEC050F1DDC04FF1DCC04EF1F3C036
:104EF00055F1F2C054F1F1C053F1F0C052F112EC8F
:104F000007F000C004F101C005F102C006F103C0C2
:104F100007F103C051F102C050F101C04FF100C0D0
:104F20004EF1DFC055F1DEC054F1DDC053F1DCC0FD
:104F300052F112EC07F000C008F101C009F102C003
:104F40000AF103C00BF103C051F102C050F101C0DE
:104F50004FF100C04EF1F3C055F1F2C054F1F1C071
:104F600053F1F0C052F112EC07F000C00CF101C097
:104F70000DF102C00EF103C00FF1FFC051F1FEC0F0
:104F800050F1FDC04FF1FCC04EF1FFC055F1FEC025
:104F900054F1FDC053F1FCC052F112EC07F0D8926D
:104FA0000FC153F10EC152F10DC151F10CC150F1BD
:104FB00003C057F102C056F101C055F100C054F1D1
:104FC0003CEC08F000C010F101C011F102C012F178
:104FD00003C013F1E7C051F1E6C050F1E5C04FF155
:104FE000E4C04EF1E7C055F1E6C054F1E5C053F11D
:104FF000E4C052F112EC07F0D88213C153F112C190
:1050000052F111C151F110C150F103C057F102C06A
:1050100056F101C055F100C054F13CEC08F003C05A
:10502000EFF002C0EEF001C0EDF000C0ECF0EFC018
:1050300015F1EEC014F1EDC013F1ECC012F148DC33
:1050400003C0EFF002C0EEF001C0EDF000C0ECF0E4
:10505000EFC04DF1EEC04CF1EDC04BF1ECC04AF1A8
:105060000101516B506B480E4F6F840E4E6F000163
:1050700023EC1FF005E3006A016A026A036A08D0A4
:10508000ECC000F0EDC001F0EEC002F0EFC003F0A4
:10509000000C01010991F7C0FCF0F6C0FBF0F5C06F
:1050A000FAF0F4C0F9F0F7C04DF1F6C04CF1F5C0DC
:1050B0004BF1F4C04AF1516B506B4F6B4E6B0001DA
:1050C00023EC1FF006E3010109810001FA51800A77
:1050D000FA6F01014D6B4C6B4B6B7E0E4A6FFCC03F
:1050E00051F1FBC050F1FAC04FF1F9C04EF100018F
:1050F00023EC1FF047E3D8820101536B526B516BD5
:105100007F0E506FFCC057F1FBC056F1FAC055F14D
:10511000F9C054F100013CEC08F000C00AF101C0F4
:105120000BF102C00CF103C00DF103C04DF102C040
:105130004CF101C04BF100C04AF10101516B506BC1
:105140004F6B800E4E6F00018DEC07F000C00EF12A
:1051500001C00FF102C010F103C011F103C015F13D
:1051600002C014F101C013F100C012F168EC24F088
:1051700003C0FCF002C0FBF001C0FAF000C0F9F07F
:10518000020EF827FCC051F1FBC050F1FAC04FF1FC
:10519000F9C04EF1FCC055F1FBC054F1FAC053F117
:1051A000F9C052F112EC07F003C008F102C007F198
:1051B00001C006F100C005F1370E0101516FBF0EAD
:1051C000506F7D0E4F6F4E6F08C155F107C154F1FE
:1051D00006C153F105C152F1000112EC07F000C005
:1051E0000AF101C00BF102C00CF103C00DF1D8921D
:1051F00003C053F102C052F101C051F100C050F19F
:105200003D0E0101576FAA0E566F930E556F810E1A
:10521000546F00013CEC08F003C000F102C0FFF045
:1052200001C0FEF000C0FDF000C151F1FFC050F11F
:10523000FEC04FF1FDC04EF108C155F107C154F158
:1052400006C153F105C152F112EC07F000C00AF19A
:1052500001C00BF102C00CF103C00DF1D89203C0E4
:1052600053F102C052F101C051F100C050F1EE0EF5
:105270000101576F500E566F330E556F810E546FEC
:1052800000013CEC08F003C000F102C0FFF001C0D7
:10529000FEF000C0FDF00101516B506B4F6B7F0EB3
:1052A0004E6F08C155F107C154F106C153F105C154
:1052B00052F1000112EC07F000C00AF101C00BF13D
:1052C00002C00CF103C00DF1D89203C053F102C02B
:1052D00052F101C051F100C050F10A0E0101576FA7
:1052E0008D0E566FB10E556F810E546F00013CEC60
:1052F00008F003C004F102C003F101C002F100C0D4
:1053000001F104C151F103C150F102C14FF101C1DA
:105310004EF108C155F107C154F106C153F105C161
:1053200052F112EC07F000C00AF101C00BF102C00B
:105330000CF103C00DF1D89203C053F102C052F139
:1053400001C051F100C050F1EE0E0101576F500E37
:10535000566F330E556F810E546F00013CEC08F010
:1053600003C004F102C003F101C002F100C001F169
:10537000FCC051F1FBC050F1FAC04FF1F9C04EF141
:1053800000C155F1FFC054F1FEC053F1FDC052F110
:1053900012EC07F000C00AF101C00BF102C00CF1E1
:1053A00003C00DF103C04DF102C04CF101C04BF13F
:1053B00000C04AF104C151F103C150F102C14FF1E3
:1053C00001C14EF18DEC07F003C000F102C0FFF007
:1053D00001C0FEF000C0FDF0F8A32ED00101516B1A
:1053E000506B4F6B800E4E6F00C155F1FFC054F1F2
:1053F000FEC053F1FDC052F1000112EC07F0D8825B
:10540000DB0E0101536F0F0E526F490E516F7F0E6D
:10541000506F03C057F102C056F101C055F100C0F2
:1054200054F100013CEC08F003C000F102C0FFF0B1
:1054300001C0FEF000C0FDF0010109A104D000018F
:10544000FE51800AFE6F0001F8A11DD0D882DB0E4C
:105450000101536F0F0E526F490E516F7F0E506F47
:1054600000C157F1FFC056F1FEC055F1FDC054F127
:1054700000013CEC08F003C000F102C0FFF001C0E5
:10548000FEF000C0FDF0FDC000F0FEC001F0FFC066
:1054900002F000C103F058EF2AF0EFC0F7F0EEC0C1
:1054A000F6F0EDC0F5F0ECC0F4F0010EF86FF1D5B8
:1054B00003C0F3F002C0F2F001C0F1F000C0F0F060
:1054C000F0C000F0F1C001F0F2C002F0F3C003F050
:1054D000DFEF2DF001010B91FFC004F1FEC003F1DD
:1054E000FDC002F1FCC001F1FFC04DF1FEC04CF166
:1054F000FDC04BF1FCC04AF1516B506B4F6B4E6BD2
:10550000000123EC1FF005E301010B810251800A29
:10551000026F04C14DF103C14CF102C14BF101C155
:105520004AF10101516B506B4F6B8E0E4E6F0001B3
:1055300023EC1FF001E219E104C14DF103C14CF16C
:1055400002C14BF101C14AF110EC22F002C04FF14F
:1055500001C04EF1F5EC21F003C008F102C007F1E3
:1055600001C006F100C005F1D3D004C14DF103C163
:105570004CF102C14BF101C14AF1800E0101516FA2
:10558000960E506F180E4F6F960E4E6F000123EC63
:105590001FF0D8A0B5D004C14DF103C14CF102C138
:1055A0004BF101C14AF10101516B506B4F6B8E0EF3
:1055B0004E6F00018DEC07F003C04DF102C04CF1BD
:1055C00001C04BF100C04AF110EC22F002C00AF118
:1055D00001C009F104C14DF103C14CF102C14BF10D
:1055E00001C14AF10101516B506B4F6B8E0E4E6F32
:1055F00000018DEC07F000C00CF101C00DF102C0FC
:105600000EF103C00FF10AC14FF109C14EF1F5ECE3
:1056100021F0D8820FC153F10EC152F10DC151F1E9
:105620000CC150F103C057F102C056F101C055F151
:1056300000C054F13CEC08F00101516B506B4F6B12
:105640008E0E4E6F03C055F102C054F101C053F1EC
:1056500000C052F1000112EC07F003C004F102C0D7
:1056600003F101C002F100C001F10AC14FF109C10B
:105670004EF1F5EC21F00101516B506B4F6B8E0E2A
:105680004E6F03C055F102C054F101C053F100C088
:1056900052F1000112EC07F003C008F102C007F15B
:1056A00001C006F100C005F104C14DF103C14CF188
:1056B00002C14BF101C14AF110EC22F002C04FF1DE
:1056C00001C04EF1F5EC21F0D89208C153F107C1A9
:1056D00052F106C151F105C150F103C057F102C0AA
:1056E00056F101C055F100C054F13CEC08F003C084
:1056F00008F102C007F101C006F100C005F108D0B1
:1057000004C108F103C107F102C106F101C105F1AD
:1057100004C14DF103C14CF102C14BF101C14AF189
:1057200010EC22F002C04FF101C04EF1F5EC21F077
:10573000D88204C153F103C152F102C151F101C138
:1057400050F103C057F102C056F101C055F100C03D
:1057500054F13CEC08F003C004F102C003F101C0B5
:1057600002F100C001F101010BA103D00651800A32
:10577000066F04C14DF103C14CF102C14BF101C1EF
:105780004AF1516B506B4F6B4E6B000123EC1FF0D5
:105790003CE001010BA11CD000531AE1D88208C1E2
:1057A00053F107C152F106C151F105C150F1576BD8
:1057B000566B556B7F0E546F00013CEC08F003C034
:1057C00008F102C007F101C006F100C005F10101B6
:1057D0000BB11CD0002D1AD0D89208C153F107C1CB
:1057E00052F106C151F105C150F1576B566B556B23
:1057F0007F0E546F00013CEC08F003C008F102C0BA
:1058000007F101C006F100C005F10101FFC04DF133
:10581000FEC04CF1FDC04BF1FCC04AF1516B506B26
:105820004F6B4E6B000123EC1FF006E10101086B8A
:10583000076B066B056B000105C100F006C101F0A6
:1058400007C102F008C103F0000CFAC0FFF0F9C074
:10585000FEF0F8C0FDF0F7C0FCF0010E0101006F92
:10586000000138DEA2EF2CF0FBC0FFF0FAC0FEF022
:10587000F9C0FDF0F8C0FCF00101006B00012ADE68
:10588000C6EF2CF0EAC04DF1E9C04CF1E8C04BF195
:10589000E7C04AF10101516B506B4F6B4E6B000139
:1058A00023EC1FF0D8B4A1D0E6C04DF1E5C04CF117
:1058B000E4C04BF1E3C04AF1EAC051F1E9C050F154
:1058C000E8C04FF1E7C04EF18DEC07F000C0EFF0FB
:1058D00001C0F0F002C0F1F003C0F2F003C04DF1DE
:1058E00002C04CF101C04BF100C04AF10101516B03
:1058F000506B4F6B4E6B000123EC1FF024E3E6C0AE
:105900004DF1E5C04CF1E4C04BF1E3C04AF1EAC00F
:1059100051F1E9C050F1E8C04FF1E7C04EF18DEC14
:1059200007F000C0F3F001C0F4F002C0F5F003C0CE
:10593000F6F003C0FAF002C0F9F001C0F8F000C0C0
:10594000F7F083D723D0E6C04DF1E5C04CF1E4C0B9
:105950004BF1E3C04AF1EAC051F1E9C050F1E8C0AF
:105960004FF1E7C04EF18DEC07F000C0F4F001C03C
:10597000F5F002C0F6F003C0F7F003C0FBF002C080
:10598000FAF001C0F9F000C0F8F06ED703C0EEF0F5
:1059900002C0EDF001C0ECF000C0EBF0EEC051F140
:1059A000EDC050F1ECC04FF1EBC04EF1EAC055F143
:1059B000E9C054F1E8C053F1E7C052F112EC07F02E
:1059C000D882E6C053F1E5C052F1E4C051F1E3C022
:1059D00050F103C057F102C056F101C055F100C0AB
:1059E00054F13CEC08F001D000D03FEF2EF0DA6B20
:1059F000D96B200ED86F860ED76FDE6BDD6B200E55
:105A0000DC6F870EDB6F01014F6BD2C04EF10001DE
:105A1000F5EC21F000C0E3F001C0E4F002C0E5F0D5
:105A200003C0E6F003C051F102C050F101C04FF1D4
:105A300000C04EF1DB0E0101556F0F0E546F490E81
:105A4000536F800E526F000112EC07F000C0E7F0B8
:105A500001C0E8F002C0E9F003C0EAF003C04DF174
:105A600002C04CF101C04BF100C04AF10101516B81
:105A7000506B340E4F6F860E4E6F00018DEC07F0A9
:105A800000C0EBF001C0ECF002C0EDF003C0EEF09E
:105A900003C013F102C012F101C011F100C010F1F6
:105AA00019EC24F003C0D6F002C0D5F001C0D4F048
:105AB00000C0D3F00101516B506B800E4F6F7F0E11
:105AC0004E6FDEC055F1DDC054F1DCC053F1DBC0D8
:105AD00052F1000112EC07F000C0E3F001C0E4F065
