:020000040000FA
:04000000A2EF31F04A
:08000800056ED8CF06F0E0CF31
:1000100007F00001E9CF0DF0EACF08F0E1CF09F0D9
:10002000E2CF0AF0D9CF0BF0DACF0CF0F3CF14F017
:10003000F4CF15F0FACF16F000C00FF001C010F0A9
:1000400002C011F003C012F004C013F09DA02CEF09
:1000500000F09EB0E0EF01F09DAA32EF00F09EBAF2
:1000600076EF02F00FC000F010C001F011C002F0F6
:1000700012C003F013C004F00E8E0DC0E9FF08C0DB
:10008000EAFF09C0E1FF0AC0E2FF0BC0D9FF0CC0C4
:10009000DAFF14C0F3FF15C0F4FF16C0FAFF0550D5
:1000A00007C0E0FF06C0D8FF1000F2CF0EF0F29EAE
:1000B000F76AC40FF66E000EF7220900F5500EBE67
:1000C000F28E120000401050F2CF0EF0F29EF76A4E
:1000D000E20FF66E000EF7220900F5500EBEF28E0A
:1000E000120030302F30302F30300000F2CF0EF0C1
:1000F000F29EF76A060FF66E010EF7220900F55020
:100100000EBEF28E120030303A30303A30300000FD
:10011000F2CF0EF0F29EF76A2A0FF66E010EF7226A
:100120000900F5500EBEF28E120020202000F2CF02
:100130000EF0F29EF76A480FF66E010EF7220900E4
:10014000F5500EBEF28E12004F4B0D0A0000F2CF9A
:100150000EF0F29EF76A680FF66E010EF7220900A4
:10016000F5500EBEF28E1200232020202020000029
:10017000F2CF0EF0F29EF76A8A0FF66E010EF722AA
:100180000900F5500EBEF28E12000D0A20444C20DC
:10019000256C64207061676573202E2E0000F2CFFD
:1001A0000EF0F29EF76AB80FF66E010EF722090004
:1001B000F5500EBEF28E12000D0A20504147452028
:1001C000256C643A0000F2CF0EF0F29EF76AE00F61
:1001D000F66E010EF7220900F5500EBEF28E1200E7
:1001E0000D0A64656C6574696E6720656E7469726A
:1001F0006520666C61736820646174612000F2CFD1
:100200000EF0F29EF76A180FF66E020EF722090042
:10021000F5500EBEF28E12000D0A4144433D2025DA
:100220006C750000F2CF0EF0F29EF76A3E0FF66E8C
:10023000020EF7220900F5500EBEF28E12000D0AD2
:100240004163743A256C752F256C7500F2CF0EF062
:10025000F29EF76A660FF66E020EF7220900F5505D
:100260000EBEF28E12000D0A526573746172743AFA
:10027000256C7500F2CF0EF0F29EF76A8E0FF66EC7
:10028000020EF7220900F5500EBEF28E12000D0A82
:1002900043757272656E743A256C75202825642941
:1002A0000000F2CF0EF0F29EF76ABC0FF66E020E5F
:1002B000F7220900F5500EBEF28E12000D0A5469A5
:1002C0006D65723A256C7500F2CF0EF0F29EF76AFA
:1002D000E20FF66E020EF7220900F5500EBEF28E06
:1002E00012000D0A234461793A256C750000F2CFA3
:1002F0000EF0F29EF76A080FF66E030EF722090061
:10030000F5500EBEF28E12000D0A566572322E3175
:1003100020526573746172742043617573653A2568
:1003200033640000F2CF0EF0F29EF76A3E0FF66ED5
:10033000030EF7220900F5500EBEF28E12000000E7
:10034000006A016A026A036A0101296B2A6B2B6B3E
:100350002C6B28512711261125112CE0200E2D6F12
:10036000D890213722372337243729372A372B379C
:100370002C3728512C5D08E127512B5D05E12651D2
:100380002A5D02E12551295D0FE32551295F2651A0
:10039000D8A0263D2A5F2751D8A0273D2B5F2851A2
:1003A000D8A0283D2C5FD8800036013602360336AF
:1003B0002D2FD6D7010EEA6E290EE96E0001000C32
:1003C000CE50CFCF03F00101746FCFCF75F1800E07
:1003D000CF24CF6E74C1CEFF010E2026000E212245
:1003E000222223221F82040023C024F122C023F1F1
:1003F00021C022F120C021F1286B276B266B0F0E44
:10040000256F00019DDFEFCF74F1ECCF75F1ECCFDC
:1004100076F1ECCF77F10101745307E1755305E1F3
:10042000765303E1775301E11F8E23C024F122C0EC
:1004300023F121C022F120C021F1286B276B010E8E
:10044000266FC20E256F00017BDFEFCF74F1ECCF7A
:1004500075F1ECCF76F1ECCF77F10101745307E140
:10046000755305E1765303E1775301E11F8023C003
:1004700024F122C023F121C022F120C021F1286BF8
:10048000276B010E266F2C0E256F000159DFEFCF71
:1004900074F1ECCF75F1ECCF76F1ECCF77F101018F
:1004A00074511E0807E1755305E1765303E1775354
:1004B000D8B41F8A0001C253D8A4C2079E9032EF5D
:1004C00000F0010EEA6E200EE96EEF500EE0030E12
:1004D000016E006A002EFED7012EFBD73C0E006E87
:1004E000002EFED700D0EF2EF2D7000C9EAAFED72A
:1004F000AECF74F101018484020E206F0001E1DFB0
:1005000001017451080814E1000168530FE0680705
:10051000010174519EA8FED7AD6E200E9EA8FED795
:10052000AD6E74519EA8FED7AD6E00011AD00101C8
:1005300074511F0816E274517E0813E300016851DC
:1005400012080FE36851682B036A540FE96E000E1E
:100550000320EA6E74C1EFFF010174519EA8FED71B
:10056000AD6E010174510D081AE10D0E9EA8FED763
:10057000AD6E0A0E9EA8FED7AD6E3E0E9EA8FED7AB
:10058000AD6E036A00016851540FE96E000E03203E
:10059000EA6EEF6A68510108D8A01F86686B010EE9
:1005A0000001C26F9E9A32EF00F001010E6703D086
:1005B0000F6702D007D00F2B0DC1EEFF0E2FFCD717
:1005C0000F2FFAD70001000C0101086B200E076FF6
:1005D000066B0651030823E306510725096F000E39
:1005E00008210A6F040E06250B6FF2CF0CF1F29E64
:1005F0000BC1A9FFA69CA69EA680A8500CBFF28E98
:100600000C6F0AC1EAFF09C1E9FF0CC10DF10F6BC4
:10061000010E0E6F0001C9DF0101062BDAD7086B4E
:10062000BA0E076F0001BB51060809E2FF0A03E199
:10063000BA51D00804E2070EBB6FD00EBA6F0101A9
:10064000066B0651010820E306510725096F000ECD
:1006500008210A6FF2CF0BF1F29E06C1A9FFA69CFA
:10066000A69EA680A8500BBFF28E0C6F0AC1EAFFAF
:1006700009C1E9FF0CC10DF10F6B010E0E6F0001F6
:1006800094DF0101062BDDD7086B6E0E076F0001AA
:10069000BB516F5D08E303E16E51BA5D04E2BBC07C
:1006A0006FF0BAC06EF00101066B0651010823E33A
:1006B00006510725096F000E08210A6F020E062554
:1006C0000B6FF2CF0CF1F29E0BC1A9FFA69CA69E68
:1006D000A680A8500CBFF28E0C6F0AC1EAFF09C1B8
:1006E000E9FF0CC10DF10F6B010E0E6F00015DDF14
:1006F0000101062BDAD7086BC60E076F066B065191
:10070000010823E306510725096F000E08210A6F2F
:10071000080E06250B6FF2CF0CF1F29E0BC1A9FF5C
:10072000A69CA69EA680A8500CBFF28E0C6F0AC194
:10073000EAFF09C1E9FF0CC10DF10F6B010E0E6F4D
:10074000000133DF0101062BDAD70001F3EF31F0AE
:1007500001011051016A0F5D03E20FC100F00CD0DE
:10076000006A080E116F0F3700361051005CD8B0C8
:10077000006E0136112FF7D70001000C200E010189
:100780000AA9300E0B6F09C100F009AF07D0001E97
:10079000002A00C009F12D0E0B6F0A8F015009C10C
:1007A0000FF1640E106F0001D3DF00C009F1300EAD
:1007B000012401010C6F09C10FF10A0E106F000135
:1007C000C7DF300E002401010E6F300E01240D6FC3
:1007D0000BC100F00AA702D00AAF0A950AB90BD0E4
:1007E0000AAF22D00AB520D000C00CF10AB31CD049
:1007F00000C00DF119D0300E0C5D16E100C00CF1F7
:10080000200E0B6F0AA704D00A950A830AAF0A9339
:10081000300E0D5D09E100C00DF1200E0C6F0AA72E
:10082000F7D70A930AAF0A910AA504D00B519EA8E4
:10083000FED7AD6E0AA304D00C519EA8FED7AD6EB4
:100840000AA104D00D519EA8FED7AD6E0E519EA8F0
:10085000FED7AD6E0001000C0101076B07510308C4
:1008600030E3040E0725086F0751080DF3CF09F197
:1008700023C00DF122C00CF121C00BF120C00AF100
:10088000095307E0D8900D330C330B330A33092F8B
:10089000F9D708C1A9FF0AC1A8FFA69CA69EA684F5
:1008A000F2CF00F0F29E0F01550EA76EAA0EA76EB2
:1008B000A682A6B2FED7A6940050F2120101072B21
:1008C000CDD7076B075101082AE3020E0725086FF1
:1008D0000751080DF3CF00F06FC00AF16EC009F1A7
:1008E000005205E0D8900A330933002EFBD708C127
:1008F000A9FF09C1A8FFA69CA69EA684F2CF00F07E
:10090000F29E0F01550EA76EAA0EA76EA682A6B282
:10091000FED7A6940050F2120101072BD3D7076B24
:10092000075101082AE3080E0725086F0751080D33
:10093000F3CF00F0C7C00AF1C6C009F1005205E0CC
:10094000D8900A330933002EFBD708C1A9FF09C18B
:10095000A8FFA69CA69EA684F2CF00F0F29E0F01EF
:10096000550EA76EAA0EA76EA682A6B2FED7A694B3
:100970000050F2120101072BD3D7062D2BD0076BA5
:100980000751010827E30751080DF3CF00F0BBC062
:1009900009F1BAC008F1005205E0D89009330833D4
:1009A000002EFBD707C1A9FF08C1A8FFA69CA69EE1
:1009B000A684F2CF00F0F29E0F01550EA76EAA0E8C
:1009C000A76EA682A6B2FED7A6940050F21201012D
:1009D000072BD6D70001000C01012739006E0F0E3E
:1009E000001600500F0B006EF00E83140010836E83
:1009F000290E006E002EFED70000838E290E006E99
:100A0000002EFED70000839E290E006E002EFED71A
:100A100000000001000C010123A1849023B1848017
:100A20002451F00B256F276F0001D6DF0101243917
:100A3000006EF00E00160050F00B266F276F0001BD
:100A4000CBDF8480000C8490839E186AF2BE188EDF
:100A5000F29E0F0E0101206F000133DD18BEF28EF1
:100A6000010E0101066F0651030812E3300E276FD5
:100A70000001B2DF186AF2BE188EF29E0F0E01015D
:100A8000206F00011EDD18BEF28E0101062BEBD790
:100A9000200E276F0001A0DF186AF2BE188EF29EAA
:100AA0000F0E0101206F00010CDD18BEF28E010156
:100AB000236B060E246F0001AEDF290E006E002EA0
:100AC000FED700000101236B0C0E246F0001A3DF91
:100AD000290E006E002EFED700000101236B100EC0
:100AE000246F000198DF290E006E002EFED7000053
:100AF0000101236B2C0E246F00018DDF290E006E87
:100B0000002EFED700000101236B010E246F0001AF
:100B100082DF290E006E002EFED70000000C949696
:100B20008B9694948B8440EF32F001010E511003A8
:100B3000F3CF01F0F4CF00F01103F35000260F5172
:100B40001003F3500020026E00011AEF06F00101BD
:100B50000C6B0A6B0A0E0B6F096B086B06510711C1
:100B600004E1000E016E026EE8D00C510C2B036AFA
:100B70000625E96E07510320EA6EEFCF0DF10D5106
:100B80002D080DE1010E0A6F0C510C2B036A06258E
:100B9000E96E07510320EA6EEFCF0DF10DD00D5134
:100BA0002B080AE10C510C2B036A0625E96E07514C
:100BB0000320EA6EEFCF0DF10D512F08D8B0AFD062
:100BC0000D513908D8A0ABD00D51300821E1036A8E
:100BD0000C510625E96E07510320EA6EEF507808A4
:100BE0000AE0036A0C510625E96E07510320EA6EFC
:100BF000EF5058080DE1100E0B6F0C2B0C510C2B05
:100C0000036A0625E96E07510320EA6EEFCF0DF166
:100C10000B510A0823E10D512F081FE20D5139082D
:100C20001CE30F6B0A0E0E6F09C111F108C110F120
:100C300000017BD7300E01010D5D0124086F000E0D
:100C40000220096F0C510C2B036A0625E96E07512F
:100C50000320EA6EEFCF0DF1DED761D00B51100803
:100C60005EE10D51600806E20D517A0803E30D5173
:100C7000DF0B01D00D510D6F0D512F0803E20D5107
:100C8000390806E20D5140084AE20D51460847E393
:100C90000D512F0819E20D51390816E308350E6F72
:100CA00009350F6F0E370F370E370F370E370F37E7
:100CB000F00E0E17300E0D5D0E25016E000E0F2189
:100CC00001C008F1096F16D008350E6F09350F6F96
:100CD0000E370F370E370F370E370F37F00E0E1750
:100CE000410E0D5D0A0F0E25016E000E0F2101C091
:100CF00008F1096F0C510C2B036A0625E96E0751A8
:100D00000320EA6EEF500D6F600806E20D517A087D
:100D100003E30D51DF0B01D00D510D6FADD70B511A
:100D20000A0807E10A2D05D0081F091F082BD8B4AF
:100D3000092B08C101F009C102F00001000C0101FA
:100D40002051030B036AF2CF23F1F29E000155EC10
:100D500000F0010123BFF28E216F1F512127215185
:100D60008009226F236B246F000155DE000C010106
:100D70001E510C0A000105E0060A16E0020A1CE0FA
:100D800022D00101236B010E246F000144DE186A9A
:100D9000F2BE188EF29E020E0101206F000161EC7E
:100DA00002F018BEF28E17D0010E01011F6F020E65
:100DB000206F0001C4DF0FD00101236B100E246FE0
:100DC000000129DE08D0010E0101236F1EC124F1AC
:100DD000000121DE00D0000CEACF1DF1E9CF1CF1AB
:100DE00001011639F009186F1827E20F196F320F39
:100DF0001B6F16510F0B192719271B27E90F1A6FA5
:100E00001A271A2715390F0B1A271B271A371B37D2
:100E10001B1F1B3715510F0B1B271837070E176F9A
:100E20000A0E1A071B27FDE319071A27FDE3180707
:100E30001927FDE317071827FDE3010EEA6E170EC9
:100E4000E96E070E1C151C9DE9261B0EE95CD8B443
:100E50001C8DEF50006E08E11CBD06D01CB915D0EA
:100E60001CB702D0200E03D01C871C99300E002620
:100E7000EACF16F1E9CF15F100C01EF1000177DFCE
:100E800016C1EAFF15C1E9FF0101EE501CADDDD727
:100E90000001000CB60E006E036A026A016A0101CD
:100EA000155116111711181102E1006A0DD0D890D2
:100EB00001BE09D0153716371737183703360236F3
:100EC0000136002EF4D7019E0001B8EF0BF00101AE
:100ED0006251D8B471D0006E6651D8B46DD000267E
:100EE00004E3810E002668E204D07F0E005E64E316
:100EF00063E063C16AF167516A1B638F678F655155
:100F00006903F4CF6CF164516803F4CF03F0F3CFBD
:100F10006BF16903F3506C27F4506B23000E03222E
:100F200065516803F3506C27F4506B23000E026A7E
:100F30000322022263516903F3506B27F45003220A
:100F4000000E022263516803F3500326F45002227C
:100F5000000E016A012265516703F3506B27F450BC
:100F60000322000E0222012264516703F35003267C
:100F7000F4500222000E012263516703F35002264F
:100F8000F4500122002A01BE05D06B370336023629
:100F900001360006000E6BAF0AD0032A022201229E
:100FA000015005E1025003E1035001E1002A6ABF4C
:100FB000018E6AAF019E04D0006A016A026A036A68
:100FC0000001000C01015E51D8B4A5D06A6F6251D6
:100FD000D8B4A1D06A5F05E37F0E6A27D8B09BD052
:100FE00006D0810E6A5FD8A096D0D8B494D06AC1DA
:100FF00000F0016A026A036A696B5FC168F1688F79
:1010000060C167F161C166F1190E6A6F6551665F73
:101010000DE2010E675F0AE2685F08E2695F06E2BF
:10102000692B682B672B6551662728D06451675F51
:1010300012E2010E685F0FE2695F0DE2692B682B17
:10104000645167276551662719E3672B17E1682B01
:1010500015E1692B13D063518009685F0EE2010E20
:10106000695F0BE2692B6351800968276451672728
:10107000E9E3682BE7E1692BE5D703806A2F01D00C
:101080000BD0D8906637673768376937D890033602
:10109000023601366B37BAD76BA106D0D890013231
:1010A000023203326B3302D0000635E06BBF1ED034
:1010B000D89066376737683769376551665F07E2EA
:1010C000010E675F04E2685F02E2695F1AE3645140
:1010D000675F05E2010E685F02E2695F12E3635138
:1010E0008009685F03E2010E695F0BE3032A09E1EF
:1010F000022A07E1012A05E1002A0DE0013202324D
:1011000003325FC16AF163516A1B6AAF02D0018E7C
:1011100006D0019E04D0006A016A026A036A0001D7
:10112000000C800ED8A202D00101691B01016E6B78
:101130006F6B65C16DF169516D1B6451D8B4DFD01F
:101140006C6F006E6851D8B4E3D06C5FD8B483D0B4
:101150003EE369C172F1728F6AC171F16BC170F1C6
:101160006F6BD8907233713370336F336C2FF8D745
:101170006DAF03D06E81E0D06E916C916E89010EDF
:10118000EA6E670EE96EEBD06E996DBF0AD06CA166
:1011900013D07233713370336F33002AD8B4C7D091
:1011A0000BD072BF0CD0D8906F3770377137723751
:1011B0000006D8B4BCD0F5D76E8D6DD06E9D65C1DC
:1011C0006DF165AF02D0728FABD0729FA9D068C1AC
:1011D0006CF168C100F064516C5F65C172F1728F8F
:1011E00066C171F167C170F16F6BD8907233713362
:1011F00070336F336C2FF8D76DAF03D06E839CD0F4
:101200006E936C916E8B010EEA6E6B0EE96EA7D039
:101210006E9B6DBF0AD06CA113D0723371337033E3
:101220006F33002AD8B483D00BD072BF0CD0D890C3
:101230006F377037713772370006D8B478D0F5D76A
:101240006E8F29D06E9F69C16DF169AF02D0728F28
:1012500067D0729F65D069C172F1728F6AC171F1F6
:101260006BC170F16DAF04D0729F6E8565D06E95C5
:101270006F6B6C91010EEA6E670EE96E70D06DBFF8
:101280001CD065C16DF16CA106D07233713370331F
:101290006F33002A4CE06FAF0BD0702B09E1712B3C
:1012A00007E1722B05E1723371337033002A3FE09E
:1012B0006EBD84D76EBFC6D71CD0800E721B72AFB6
:1012C00004D03AD069C16DF10AD065C16DF1725395
:1012D00006E1715304E1705302E1006A21D072BF4C
:1012E00008D0D8906F37703771377237002EF7D724
:1012F0001ED06DAF02D0728F13D0729F11D068C113
:1013000000F069C172F16AC171F16BC170F108D06E
:1013100064C100F065C172F166C171F167C170F11D
:1013200072C101F071C102F070C103F034D0006AE3
:10133000016A026A036A2FD06F6B701F711F721FE0
:101340006F1F6F2B05E1702B03E1712B01E1722BF5
:101350006EB112D76EB354D76EB589D7B3D7EF50ED
:10136000702705E3712B03E1722BD8B46C81ED5229
:10137000EF50712703E3722BD8B46C81ED52EF501C
:10138000EFBE01D0800A7227D8B06C816EB9FCD64E
:101390006EBB3ED774D70001000C01011951B6088D
:1013A000196F036A1AC11DF11A8FD8901A331B33B3
:1013B0001C330332023201320032192FF6D71DAF2F
:1013C0000BD0001E011E021E031E002AD8B4012AE3
:1013D000D8B4022AD8B4032A000101EF0CF00101AD
:1013E000326B336B010E346FDA6AD96A376F2A0EAB
:1013F000366F010EEA6E2E0EE96E37C1E2FF36C17E
:10140000E1FF34C135F1D890E550EE02F3503223BC
:10141000F4503323352FF7D732C1DEFF33C132F119
:10142000336BD8B0332B362BD8B4372B342B345105
:101430000508DFE10001000C010131513519800B75
:101440003B6F31AF0BD02E1F2F1F301F311F2E2BA4
:10145000D8B42F2BD8B4302BD8B4312B35AF0BD018
:10146000321F331F341F351F322BD8B4332BD8B45F
:10147000342BD8B4352B006A016A026A036A366BD2
:10148000376B386B396B35513411331132112CE015
:10149000200E3A6FD8902E372F3730373137363706
:1014A0003737383739373551395D08E13451385DD0
:1014B00005E13351375D02E13251365D0FE33251C0
:1014C000365F3351D8A0333D375F3451D8A0343D17
:1014D000385F3551D8A0353D395FD88000360136A8
:1014E000023603363A2FD6D73BAF0BD0001E011E73
:1014F000021E031E002AD8B4012AD8B4022AD8B486
:10150000032A010EEA6E360EE96E0001000C010E90
:101510000101226F236B246B256B276B286B1EBF89
:1015200001D01AD0010E276F1EC12DF11DC12CF163
:101530001CC12BF11BC12AF1FF0E316F306F2F6FD1
:101540002E6F00014CDF03C01EF102C01DF101C06F
:101550001CF100C01BF10101225306E1235304E1F9
:10156000245302E1255377E01EC131F11DC130F152
:101570001CC12FF11BC12EF1356B346B336B1FC1B6
:1015800032F1000159DF03C025F102C024F101C08E
:1015900023F100C022F1036A010128512025016EC8
:1015A0002151032201C02AF103C02BF1EACF2DF112
:1015B000E9CF2CF11EC131F11DC130F11CC12FF159
:1015C0001BC12EF1356B346B336B1FC132F100013F
:1015D00033DFEFCF00F0ECCF01F0ECCF02F0ECCF37
:1015E00003F02DC1EAFF2CC1E9FF03C031F102C0B5
:1015F00030F101C02FF100C02EF1300E01010024A6
:10160000006E000E0120000E0220000E03202BC1F0
:10161000EAFF2AC1E9FF00C0EFFF036A2851202535
:10162000E96E21510320EA6EEF5039080AE2036A9D
:1016300028512025E96E21510320EA6E070EEF2480
:10164000EF6E282B25C11EF124C11DF123C11CF111
:1016500022C11BF181D7272D0AD0036A28512025EA
:10166000E96E21510320EA6E2D0EEF6E282B266BBA
:10167000D8902831265D2FE2036A26512025E96E95
:1016800021510320EA6EEFCF29F1036A265120256C
:10169000016E2151032203C02BF12651285DFF0F5B
:1016A000036A2025E96E21510320EA6EEFCF2EF167
:1016B0002BC1EAFF01C0E9FF2EC1EFFF2651285DD3
:1016C000FF0F036A2025E96E21510320EA6E29C12C
:1016D000EFFF262BCDD7036A28512025E96E215133
:1016E0000320EA6EEF6A20C101F021C102F000017F
:1016F000000C18C11AF117C119F11AC103F0010148
:1017000019C1E9FF1AC1EAFFEF5206E0192BD8B45C
:101710001A2B0001F2D701011751195D006E185103
:101720001A59036E00C001F00001000C0101196B91
:101730001851195D11E2036A19511625E96E175106
:101740000320EA6EEFCF1AF11AC11EF10001B7ECC7
:1017500006F00101192BECD70001000C23C018F191
:1017600022C017F121C016F120C015F14AEF07F091
:1017700003C065F102C064F101C063F100C062F111
:101780000101696B686B676B7F0E666F000167EC28
:1017900007F000C015F101C016F102C017F103C037
:1017A00018F103C061F102C060F101C05FF100C037
:1017B0005EF10101656BC00E646F280E636F8F0EC2
:1017C000626F0001E2EC07F0D892790E0101676FB9
:1017D000DA0E666F150E656F940E646F03C06BF1C1
:1017E00002C06AF101C069F100C068F1000199DC32
:1017F00003C01CF102C01BF101C01AF100C019F1B5
:10180000CCD503C075F002C074F001C073F000C005
:1018100072F02C0E7225766F7D0E7321776F000E9D
:101820007421786F000E7521796F186AF2BE188ED8
:10183000F29E79C024F178C023F177C022F176C0FE
:1018400021F10101286B020E276F3A0E266FB10EAF
:10185000256F0001A0EC01F018BEF28E03C07DF0F0
:1018600002C07CF001C07BF000C07AF0186AF2BEC2
:10187000188EF29E79C024F178C023F177C022F14E
:1018800076C021F10101286B020E276F3A0E266FF8
:10189000B10E256F0001A0EC01F018BEF28EEFCF63
:1018A0007EF0ECCF7FF0ECCF80F0ECCF81F0186AC7
:1018B000F2BE188EF29E81C024F180C023F17FC059
:1018C00022F17EC021F10101286B276B8E0E266F5D
:1018D000AC0E256F0001A0EC01F018BEF28E03C023
:1018E00018F102C017F101C016F100C015F1010E88
:1018F00001010024196F000E01201A6F000E022052
:101900001B6F000E03201C6F2D6F1BC12CF11AC121
:101910002BF119C12AF1316B306B2F6B030E2E6F37
:1019200000015DDD010103300001856F010102301E
:101930000001846F010101300001836F010100305B
:101940000001826F85338433833382333F0E8517E2
:1019500085C02DF184C02CF183C02BF182C02AF107
:101960000101316B306B8E0E2F6FAC0E2E6F0001AC
:1019700036DD00507E5D866F01507F59876F0250C3
:101980008059886F03508159896F186AF2BE188E8A
:10199000F29E89C024F188C023F187C022F186C05D
:1019A00021F10101286B276B050E266FB50E256FFF
:1019B0000001A0EC01F018BEF28E03C08DF002C051
:1019C0008CF001C08BF000C08AF0186AF2BE188E4D
:1019D000F29E89C024F188C023F187C022F186C01D
:1019E00021F10101286B276B050E266FB50E256FBF
:1019F0000001A0EC01F018BEF28EEFCF8EF0ECCF1C
:101A00008FF0ECCF90F0ECCF91F0186AF2BE188E08
:101A1000F29E91C024F190C023F18FC022F18EC0BC
:101A200021F10101286B276B010E266F6D0E256FCA
:101A30000001A0EC01F018BEF28E03C018F102C044
:101A400017F101C016F100C015F1010E01010024CB
:101A5000196F000E01201A6F000E02201B6F000E7E
:101A600003201C6F2D6F1BC12CF11AC12BF119C162
:101A70002AF1316B306B2F6B030E2E6F0001AFDC40
:101A8000010103300001956F010102300001946FE4
:101A9000010101300001936F010100300001926FDC
:101AA00095339433933392333F0E951795C02DF1B0
:101AB00094C02CF193C02BF192C02AF10101316B3B
:101AC000306B010E2F6F6D0E2E6F000188DC005001
:101AD0008E5D966F01508F59976F02509059986F95
:101AE00003509159996F7DC02DF17CC02CF17BC0C2
:101AF0002BF17AC02AF10101316B306B010E2F6F8F
:101B0000900E2E6F00016BDC03C018F102C017F1BC
:101B100001C016F100C015F185C02DF184C02CF173
:101B200083C02BF182C02AF10101316B306B2F6B26
:101B3000640E2E6F000153DC005001011525196F52
:101B4000015016211A6F025017211B6F03501821E4
:101B50001C6F00018A35006E8B35016E8C35026E6C
:101B60008D35036E0036013602360336FC0E001644
:101B70000050010119251D6F01501A211E6F0250DE
:101B80001B211F6F03501C21206F00019251010186
:101B90001D2500019A6F935101011E2100019B6FC9
:101BA000945101011F2100019C6F955101012021D9
:101BB00000019D6F99C02DF198C02CF197C02BF1B9
:101BC00096C02AF10101316B306B2F6B050E2E6F21
:101BD000000105DC03C018F102C017F101C016F1C5
:101BE00000C015F1340E01010024196F010E01200F
:101BF0001A6F000E02201B6F000E03201C6F186A64
:101C0000F2BE188EF29E246F1BC123F11AC122F17D
:101C100019C121F1286B276B266B990E256F0001E6
:101C2000A0EC01F018BEF28E020E0101005C000172
:101C30009E6F000E0101015800019F6F000E01010F
:101C400002580001A06F000E010103580001A16FAE
:101C5000040E9E250101156F000E00019F21010158
:101C6000166F000E0001A0210101176F000E000188
:101C7000A1210101186F2D6F17C12CF116C12BF195
:101C800015C12AF1316B306B2F6B990E2E6F00014D
:101C9000EFEC09F003C019F102C018F101C017F10F
:101CA00000C016F1186AF2BE188EF29E03C024F12D
:101CB00002C023F101C022F100C021F10101286B13
:101CC000276B266B050E256F0001A0EC01F018BEF6
:101CD000F28E0050965D0101176F01500001975977
:101CE0000101186F0250000198590101196F03504A
:101CF0000001995901011A6F7A0E17250001A26F90
:101D0000000E010118210001A36F000E010119212D
:101D10000001A46F000E01011A210001A56FC00E81
:101D20009A5D0101156F120E00019B590101166F9A
:101D3000000E00019C590101176F000E00019D5912
:101D40000101186F020E00019E250101196F000E9E
:101D500000019F2101011A6F000E0001A021010165
:101D60001B6F000E0001A12101011C6F186AF2BE59
:101D7000188EF29E246F1BC123F11AC122F119C1E2
:101D800021F1286B276B266B0C0E256F0001A0EC50
:101D900001F018BEF28E0050010115250001A66F5A
:101DA0000150010116210001A76F02500101172106
:101DB0000001A86F0350010118210001A96F020E54
:101DC0009E250101156F000E00019F210101166F74
:101DD000000E0001A0210101176F000E0001A121DA
:101DE0000101186F186AF2BE188EF29E246F17C197
:101DF00023F116C122F115C121F1286B276B266B47
:101E00000C0E256F0001A0EC01F018BEF28EEFCF92
:101E100016F1ECCF17F1ECCF18F1ECCF19F1010E60
:101E2000010116250001AA6F000E01011721000112
:101E3000AB6F000E010118210001AC6F000E010113
:101E400019210001AD6F010EA225AE6F000EA32176
:101E5000AF6F000EA421B06F000EA521B16F700E00
:101E600020240101156F620E2120166F000E222022
:101E7000176F000E2320186F186AF2BE188EF29E9C
:101E8000246F17C123F116C122F115C121F1286B6E
:101E9000010E276F510E266F800E256F0001A0ECFA
:101EA00001F018BEF28EEFCFB2F0ECCFB3F0ECCF72
:101EB000B4F0ECCFB5F0EA6A2C0EE96EF2CF15F172
:101EC000F29E000E64EC00F00A000900F550EE6E80
:101ED0000009FBE1010115BFF28E1E6B1D6B1C6B2F
:101EE000AEC01BF10A0E1F6F216B400E206F000168
:101EF00087EC0AF00101186B400E176F000179ECB6
:101F00000BF0012C03D040C02DF00CD0EA6A2C0E4F
:101F1000E96EE26A400EE16E020E016EE6CFEEFF60
:101F2000012EFCD701011E6B1D6B1C6BAAC01BF19F
:101F30000A0E1F6F216B400E206F000187EC0AF024
:101F40000101186B400E176F000179EC0BF0012CAA
:101F500003D040C030F00CD0EA6A2F0EE96EE26A7E
:101F6000400EE16E020E016EE6CFEEFF012EFCD7B1
:101F7000186AF2BE188EF29EA9C024F1A8C023F1FF
:101F8000A7C022F1A6C021F10101286B276B070E23
:101F9000266FD00E256F0001A0EC01F018BEF28E66
:101FA000EFCF00F0ECCF01F0ECCF02F0ECCF03F07C
:101FB00000C015F101011E6B1D6B1C6B00C01BF1F5
:101FC0000A0E1F6F216B400E206F000187EC0AF094
:101FD0000101186B400E176F000179EC0BF0012C1A
:101FE00003D040C033F00CD0EA6A320EE96EE26AE8
:101FF000400EE16E020E016EE6CFEEFF012EFCD721
:1020000001011F6B206B00019FEC06F00101186BB2
:102010002C0E176F000179EC0BF001C015F10101D6
:10202000176B2C0E166F01C018F1000196EC0BF027
:10203000EA6A2C0EE96EF2CF15F1F29E000E76ECF4
:1020400000F00A000900F550EE6E0009FBE1010105
:1020500015BFF28E186AF2BE188EF29EB5C024F13A
:10206000B4C023F1B3C022F1B2C021F1286B276BB9
:102070000E0E266F100E256F0001A0EC01F018BEA9
:10208000F28E00C015F101011E6B1D6B1C6B00C0B0
:102090001BF10A0E1F6F216B400E206F000187ECB1
:1020A0000AF00101186B400E176F000179EC0BF07C
:1020B0000150020828E30101186B400E176F000160
:1020C00079EC0BF02E0ED88001540101156F000E33
:1020D000D8A0E806166F186B400E176F000179EC58
:1020E0000BF001C017F116C1EAFF15C1E9FFE26A62
:1020F000400EE16E01010150016E04E0E6CFEEFFFB
:10210000012EFCD70001186AF2BE188EF29EB5C0EF
:1021100024F1B4C023F1B3C022F1B2C021F1010116
:10212000286B276B0E0E266F100E256F0001A0EC9A
:1021300001F018BEF28EEFCF15F1ECCF16F1ECCF17
:1021400017F1ECCF18F1EACF1AF1E9CF19F1186ABB
:10215000F2BE188EF29E18C124F117C123F116C1E8
:1021600022F115C121F10101286B276B266B3C0E72
:10217000256F0001A0EC01F018BEF28E1AC1EAFF33
:1021800019C1E9FF00C016F101011E6B1D6B1C6B2C
:1021900000C01BF10A0E1F6F216B400E206F000163
:1021A00087EC0AF00101186B400E176F000179EC03
:1021B0000BF00150020828E30101186B400E176F65
:1021C000000179EC0BF0310ED88001540101156F3C
:1021D000000ED8A0E806166F186B400E176F0001AE
:1021E00079EC0BF001C017F116C1EAFF15C1E9FF48
:1021F000E26A400EE16E01010150016E04E0E6CF9B
:10220000EEFF012EFCD70001186AF2BE188EF29E76
:10221000B5C024F1B4C023F1B3C022F1B2C021F1A2
:102220000101286B276B266B3C0E256F0001A0EC8B
:1022300001F018BEF28EEFCF00F0ECCF01F0ECCF42
:1022400002F0ECCF03F000C015F101011E6B1D6B15
:102250001C6B00C01BF10A0E1F6F216B400E206F1C
:10226000000187EC0AF00101186B400E176F0001A6
:1022700079EC0BF00150020827E30101186B400EC6
:10228000176F000179EC0BF0340ED8800154010176
:10229000156F000ED8A0E806166F186B400E176F6A
:1022A000000179EC0BF001C017F116C1EAFF15C16E
:1022B000E9FFE26A400EE16E01010150016E04E0A7
:1022C000E6CFEEFF012EFCD701011F6B010E206F40
:1022D00000019FEC06F00101186B2C0E176F000136
:1022E00079EC0BF001C015F10101176B2C0E166F84
:1022F00001C018F1000196EC0BF0EA6A2C0EE96EB1
:10230000F2CF15F1F29E000E88EC00F00A000900F1
:10231000F550EE6E0009FBE1010115BFF28E1E6B58
:102320001D6B1C6BC6C01BF10A0E1F6F216B400E8C
:10233000206F000187EC0AF00101186B400E176F47
:10234000000179EC0BF00150030827E30101186B41
:10235000400E176F000179EC0BF02F0ED88001545E
:102360000101156F000ED8A0E806166F186B400E1D
:10237000176F000179EC0BF001C017F116C1EAFFED
:1023800015C1E9FFE26A400EE16E01010150016EE4
:1023900004E0E6CFEEFF012EFCD701011F6B020E19
:1023A000206F00019FEC06F00101186B2C0E176FD7
:1023B000000179EC0BF001C015F10101176B2C0E37
:1023C000166F01C018F1000196EC0BF0000C010132
:1023D000106B116B126B136B050E146F93988A9828
:1023E00093908A9093928A9293948A9493968A96E1
:1023F0008388186AF2BE188EF29E140E206F0001B8
:1024000061EC02F018BEF28E01010E5302E19398C6
:102410008A888388186AF2BE188EF29E140E206F86
:10242000000161EC02F018BEF28E93908A80186A67
:10243000F2BE188EF29E0A0E0101206F000161ECBF
:1024400002F018BEF28E92841F9480B41F8423C0C1
:1024500027F022C026F021C025F020C024F023C0A0
:102460002BF022C02AF021C029F020C028F0C96B2F
:10247000C86B2450205C006E25502158016E2650F8
:1024800022582750235801C011F100C010F12850E4
:10249000205C006E29502158016E2A5022582B5082
:1024A000235801C013F100C012F101010B51115D5D
:1024B00005E303E10A51105D01E393D009510001E6
:1024C000C95D08E305E1010108510001C85D02E3AF
:1024D00093908A9001010D51135D05E303E10C51C6
:1024E000125D01E37ED00F5305E01FB002D01FA69E
:1024F00001D077D0000E1FB4010E156F9282000E2E
:1025000080B2010E155D64E023C02BF022C02AF0DA
:1025100021C029F020C028F092821F9480B21F842D
:102520000E530DE100016E5305E16F53D8A402D0A4
:10253000010105D06E51D8B46F076E0701010E532B
:1025400011E000016F51BB5DD8B002D001010AD08B
:1025500006E1BA516E5DD8A002D0010103D06E2B06
:10256000D8B46F2B010E0001C827000EC9230B0E33
:1025700001011F6F020E206F00019FEC06F0C85191
:10258000010B0101156F166B155309E1165307E195
:102590002A0E1E6F0001B7EC06F006D001012E0EC8
:1025A0001E6F0001B7EC06F00C0E01011F6F020E4A
:1025B000206F00019FEC06F0010EE96E6FC016F16E
:1025C0006EC015F1ECEC06F08484010EC26F0101BF
:1025D0001FA204D01F920001AEEC0BF0000149D7FE
:1025E00001010C0E1F6F020E206F00019FEC06F020
:1025F000010EE96E6FC016F16EC015F1ECEC06F03D
:1026000093908A9093928A9293948A9493968A96BE
:102610008388186AF2BE188EF29E320E0101206F76
:10262000000161EC02F018BEF28E93988A98186A45
:10263000F2BE188EF29E320E0101206F000161EC95
:1026400002F018BEF28E000CEACF11F1E9CF10F1C2
:1026500001010AAF08D0108F10A9102B091F0A1F03
:10266000092BD8B40A2B0A39F0090C6F0C27E20F9A
:102670000D6F320F0F6F0A510F0B0D270D270F270C
:10268000E90F0E6F0E270E2709390F0B0E270F27A4
:102690000E370F370F1F0F3709510F0B0F270C374E
:1026A000070E0B6F0A0E0E070F27FDE30D070E270F
:1026B000FDE30C070D27FDE30B070C27FDE3010EDF
:1026C000EA6E0B0EE96E070E1015109DE906101547
:1026D00007E110B9E92A10B903D0200E006E1CD012
:1026E000E9260F0EE95CD8B4108DEF50006E08E1BA
:1026F00010BD06D010B914D010B702D0200E0BD0E8
:1027000010AF06D02D0E006EED50109D109F04D01E
:1027100010871099300E002600509EA8FED7AD6E8F
:10272000EE5010ADDED70001000C94948B948B8A90
:10273000949A94968B8694968B968B8A949A949678
:102740008B8694968B968B9A949A94968B86949675
:102750008B968B8A949A94968B8694968B968B9A6A
:10276000949A94968B8694968B968B8A949A949648
:102770008B8694968B968B8A949A94968B86949655
:102780008B968B8A949A94968B8694968B9601015D
:10279000306B303D01D062D02F6B94968B8694883D
:1027A000000E82B8010E2F2794968B9694968B86F6
:1027B000D8902F379488000E82B8010E2F27949658
:1027C0008B9694968B86D8902F379488000E82B87B
:1027D000010E2F2794968B9694968B86D8902F3740
:1027E0009488000E82B8010E2F2794968B969496AB
:1027F0008B86D8902F379488000E82B8010E2F2731
:1028000094968B9694968B86D8902F379488000E4A
:1028100082B8010E2F2794968B9694968B86D8902B
:102820002F379488000E82B8010E2F2794968B962E
:1028300094968B86D8902F379488000E82B8010E1C
:102840002F2794968B962FAF01D008D0100E006ED4
:10285000002EFED700000400302B9BD794948B846D
:102860000001000C010130072FC100F03051016E52
:1028700004E0D8900032012EFCD70050010B02E199
:102880008B9A01D08B8A949A94968B8694968B9689
:102890003053E9E10001000C0101310730C133F18F
:1028A0002FC132F13151006E05E0D890333332330D
:1028B000002EFBD73251010B006E036A005003104B
:1028C00002E18B9A01D08B8A949A94968B86949687
:1028D0008B963153E2E10001000CF29CF29EF2BEB5
:1028E000FDD70400D19094948B849EAA04D09EAA14
:1028F000FED7AE50FAD701010D6B0C6B010E082507
:10290000016E000E0921036E0D51035C62E303E1C9
:1029100001500C5D5EE2000108DF848401010E6B52
:102920000E51000197EC00F001010E2B006E0050DB
:102930009EA8FED7AD6E040E0E5DF2E1010E000101
:10294000C26F94948B9401010C51010B006E036AC9
:102950000050031008E0820E2F6F080E306F000148
:1029600081DF07D00101850E2F6F080E306F000147
:1029700079DF0A0E01010C250E6F000E0D210F6F7D
:10298000306F0EC12FF10F0E316F000185DF010195
:10299000306B2F6B090E316F00017EDF01010B6B75
:1029A0000A6B0B5100080FE39EAAFED7AECF0EF1C3
:1029B0000EC12FF1080E306F000154DF01010A2B08
:1029C000D8B40B2BEED794948B840C2BD8B40D2B4E
:1029D00095D7C00EF2120400D1800001DBEF1CF08D
:1029E00001011FBF10D00F0E006E1E3900160A0E17
:1029F000005C03E2300E002602D01F51002600507A
:102A00009EA8FED7AD6E0F0E1E170A0E1E5D02E2C7
:102A1000300E02D01F9F1F511E271E519EA8FED7A9
:102A2000AD6E0001000C0101346B336B3451325D2B
:102A300028E303E13151335D24E2366B356B3653C5
:102A40001CE13551070819E394968B8633512F25E5
:102A5000376F34513021386F948882B802D0D890C3
:102A600001D0D88038C1EAFF37C1E9FFEF3694962C
:102A70008B96352BD8B4362BE2D7332BD8B4342BE6
:102A8000D5D70001000C51DE94948B94D20E010135
:102A90002F6F080E306F0001E5DE29C130F128C12B
:102AA0002FF10F0E0101316F0001F6DE01012F6BD6
:102AB000010E306F0001D6DE2AC12FF1080E010190
:102AC000306F0001CFDE01012F6B100E306F00015F
:102AD000C9DE01012F6B100E306F0001C3DE2CC167
:102AE00030F12BC12FF12EC132F12DC131F19BDF1D
:102AF00094948B84000C848401011B6B1B510F0880
:102B00004BE30D0E9EA8FED7AD6E0A0E9EA8FED713
:102B1000AD6E1BC11EF1370E1F6F000161DF200E6D
:102B20009EA8FED7AD6E3A0E9EA8FED7AD6E200EC3
:102B30009EA8FED7AD6E01011B51100DF3CF1DF104
:102B400009C129F108C128F11DC12AF1010E2C6F1C
:102B50000A0E2B6F2E6B100E2D6F000194DF0101FA
:102B60001C6B1C510F0816E3036A1C510A0FE96E17
:102B7000010E0320EA6EEFCF1DF11DC11EF1370ECD
:102B80001F6F00012DDF200E9EA8FED7AD6E010144
:102B90001C2BE7D71B2BB2D7010E0001C26F97EF9A
:102BA0001AF00101066B063D01D023D00001BDDD06
:102BB00094948B94500E01012F6F080E306F00011A
:102BC00051DE01012F6B040E306F00014BDE06C198
:102BD0002FF1080E0101306F000144DE01012F6B5F
:102BE0000C0E306F00013EDE94948B840101062BA5
:102BF000DAD700019ADDDBEF1CF001010E6B0C6BE4
:102C00000A0E0D6F0B6B0A6B096B086B06510711EF
:102C100005E1006A016A026A036A3DD10E510E2B7A
:102C2000036A0625E96E07510320EA6EEFCF0FF124
:102C30000F512D080DE1010E0C6F0E510E2B036A82
:102C40000625E96E07510320EA6EEFCF0FF10DD094
:102C50000F512B080AE10E510E2B036A0625E96E6F
:102C600007510320EA6EEFCF0FF10F512F08D8B0B4
:102C7000FAD00F513908D8A0F6D00F51300821E111
:102C8000036A0E510625E96E07510320EA6EEF50E4
:102C900078080AE0036A0E510625E96E0751032001
:102CA000EA6EEF5058080DE1100E0D6F0E2B0E510D
:102CB0000E2B036A0625E96E07510320EA6EEFCF5B
:102CC0000FF10D510A0844E10F512F0840E20F5156
:102CD00039083DE3D8900835116F0935126F0A3570
:102CE000136F0B35146F0835006E0935016E0A3508
:102CF000026E0B35036E003601360236033600369F
:102D0000013602360336F80E001611510026125114
:102D10000122135102221451032203C00BF102C0FD
:102D20000AF101C009F100C008F1300E0F5D08275B
:102D3000000E09230A230B230E510E2B036A0625CE
:102D4000E96E07510320EA6EEFCF0FF1BDD78BD0AC
:102D50000D511008D8A487D00F51600806E20F511A
:102D60007A0803E30F51DF0B01D00F510F6F0F51A2
:102D70002F0803E20F51390807E20F514008D8B07D
:102D800072D00F5146086FE30F512F082DE20F51FB
:102D900039082AE30835116F0935126F0A35136FA8
:102DA0000B35146F113712371337143711371237A9
:102DB000133714371137123713371437F00E111732
:102DC000300E0F5D1125006E000E1221016E000EF7
:102DD0001321026E000E14210B6F02C00AF101C014
:102DE00009F100C008F12AD00835116F0935126FBA
:102DF0000A35136F0B35146F113712371337143729
:102E00001137123713371437113712371337143776
:102E1000F00E1117410E0F5D0A0F1125006E000E06
:102E20001221016E000E1321026E000E14210B6F91
:102E300002C00AF101C009F100C008F10E510E2BC9
:102E4000036A0625E96E07510320EA6EEF500F6F03
:102E5000600806E20F517A0803E30F51DF0B01D03F
:102E60000F510F6F84D70D510A080DE10C2D0BD0B7
:102E7000081F091F0A1F0B1F082BD8B4092BD8B431
:102E80000A2BD8B40B2B08C100F009C101F00AC10C
:102E900002F00BC103F00001E4EF1AF0700E010123
:102EA00016251A6F620E17211B6F000E18211C6F5A
:102EB000000E19211D6F186AF2BE188EF29E246F43
:102EC0001CC123F11BC122F11AC121F1286B010E93
:102ED000276F510E266F800E256F0001A0EC01F0C8
:102EE00018BEF28E03C01EF102C01DF101C01CF11C
:102EF00000C01BF1186AF2BE188EF29E03C024F1C6
:102F000002C023F101C022F100C021F10101286BB0
:102F1000276B050E266FB50E256F0001A0EC01F0A2
:102F200018BEF28EEFCF00F0ECCF01F0ECCF02F044
:102F3000ECCF03F001C002F000C001F0000CD8900B
:102F400001011731236F1631226F0A0E2225246FDB
:102F5000000E2321256F1651010B006E036A026ECD
:102F60000034266F0334276F263727372637273755
:102F70002637273726372737263727372637273765
:102F8000800E261725C129F124C128F126C12AF176
:102F9000010E2C6F180E2B6F2E6B040E2D6F00017F
:102FA00072DD010EEA6E1E0EE96E010EE26E180E63
:102FB000E16E040E016EE6CFEEFF012EFCD71EC1BE
:102FC00000F01FC101F020C102F021C103F0000C8C
:102FD000EACF12F1E9CF11F101010B39F0090D6FC0
:102FE0000D27E20F0E6F320F106F0B510F0B0E27D4
:102FF0000E271027E90F0F6F0F270F270A390F0B26
:103000000F2710270F371037101F10370A510F0BDB
:1030100010270D37070E0C6F0A0E0F071027FDE360
:103020000E070F27FDE30D070E27FDE30C070D2705
:10303000FDE3010EEA6E0C0EE96E070E1115119DEF
:10304000E926100EE95CD8B4118DEF50006E08E14E
:1030500011BD06D011B90CD011B702D0200E03D08B
:1030600011871199300E002600509EA8FED7AD6E34
:10307000EE5011ADE6D70001000C95EC13F09494DE
:103080008B94D10E01012F6F080E306F000132ECCE
:1030900014F00101306B2F6B100E316F00014CECFE
:1030A00014F001012F6B080E306F000132EC14F0A8
:1030B000FF0E0101076F010E306F060E2F6F326B8E
:1030C000010E316F0001AFDC0101072B07510F0B1F
:1030D00017E10D0E9EA8FED7AD6E0A0E9EA8FED774
:1030E000AD6E200E9EA8FED7AD6E07C11EF1370E45
:1030F0001F6F000175DC3A0E9EA8FED7AD6E010170
:1031000006C11EF1370E1F6F00016ADC200E9EA85B
:10311000FED7AD6E0101073DCED794948B8400019C
:10312000E6EF1BF0016A026A006A036A01010B51B3
:1031300002E10A5118E0100E0C6FD89008370937D9
:10314000003603360B51035C02E10A51005C07E3D1
:103150000A51005ED8A003060B51035ED8800136E9
:1031600002360C2FEAD70001000CE95001010B6F69
:103170003B0E126F9A0E116FCA0E106F0F6B0A0E74
:103180000D6F186AF2BE188EF29E0AC124F109C1B1
:1031900023F108C122F107C121F112C128F111C1A7
:1031A00027F110C126F10FC125F10001A0EC01F0BB
:1031B00018BEF28E0150EFCF07F1ECCF08F1ECCF43
:1031C00009F1ECCF0AF1005213E101010D51010A9E
:1031D000D8A402D000010CD00B510CE00F0B0D5DF8
:1031E00001E00EE20BBF0CD00BBD04D0200E03D0CB
:1031F00001010B6B300E002600509EA8FED7AD6E6D
:10320000186AF2BE188EF29E12C124F111C123F188
:1032100010C122F10FC121F1286B276B266B0A0E1A
:10322000256F0001A0EC01F018BEF28E03C012F170
:1032300002C011F101C010F100C00FF101010D2F0A
:10324000A0D7000180EF1CF095EC13F094948B94C0
:10325000840E01012F6F080E306F000132EC14F064
:103260000101306B2F6B100E316F00014CEC14F02C
:1032700012C12FF1080E0101306F000132EC14F081
:103280000101135101080FE2FF0E146F11C12FF15C
:10329000080E306F000132EC14F00101142B1351B1
:1032A000145DF4E308D011C12FF1080E306F000156
:1032B00032EC14F0010194948B840001000C1F96F1
:1032C000630E545CE90FD8B076D3170FDCEF1CF017
:1032D000EA6A540EE96EE26A550EE16E120E016E54
:1032E000E6CFEEFF012EFCD70101076B540E066FEF
:1032F0000001A7EC05F002C007F101C006F10101D1
:10330000065305E1075303E1000155D30101076BA3
:10331000540E066F0001A7EC05F002C007F101C0D2
:1033200006F102C009F101C008F1230E01010B6F83
:10333000280E0A6FC1C00DF1C0C00CF1010E0E6F56
:103340000F6B0001E7EC11F036D3EA6A540EE96E18
:10335000E26A550EE16E120E016EE6CFEEFF012E0F
:10336000FCD70101076B540E066F0001A7EC05F0B6
:1033700002C007F101C006F10101065305E1075340
:1033800003E1000118D30101076B540E066F000121
:10339000A7EC05F002C007F101C006F102C009F177
:1033A00001C008F1230E01010B6F280E0A6FC1C086
:1033B0000DF1C0C00CF10E6B0F6B0001E7EC11F0CA
:1033C000FAD2EA6A540EE96EE26A550EE16E120E06
:1033D000016EE6CFEEFF012EFCD70101076B540E04
:1033E000066F0001A7EC05F002C007F101C006F16D
:1033F0000101065305E1075303E10001DCD201019D
:103400008484076B540E066F0001A7EC05F002C020
:1034100007F101C006F10101086B08510001B8EC89
:1034200000F00101082B006E00509EA8FED7AD6E83
:10343000060E085DF2E1100EE96E07C10AF106C141
:1034400009F1000124EC13F0090E0101096F095183
:103450000001B8EC00F00101092B006E00509EA89D
:10346000FED7AD6E120E095DF2E1010E0001C26FD2
:103470000101076B540E066F0001A7EC05F002C0B6
:1034800007F101C006F102C009F101C008F16DEFBA
:1034900014F0F29CF29EF2BEFDD70400D190EA6ACD
:1034A000540EE96EE26A550EE16E120E016EE6CF21
:1034B000EEFF012EFCD784840101076B540E066FCA
:1034C0000001A7EC05F002C007F101C006F10101FF
:1034D000086B08510001CFEC00F00101082B006ED1
:1034E00000509EA8FED7AD6E080E085DF2E1100EEA
:1034F000E96E07C10AF106C109F1000124EC13F0DD
:103500003A0E9EA8FED7AD6E010EC26F0101076B89
:10351000540E066F0001A7EC05F002C007F101C0D0
:1035200006F102C009F101C008F17BEF15F0C00EF1
:10353000F2120400D1803FD2EA6A540EE96EE26AC8
:10354000550EE16E120E016EE6CFEEFF012EFCD796
:103550000101076B540E066F0001A7EC05F002C0D5
:1035600007F101C006F101010150160802E10753FD
:1035700003E0000120D201018484066B06510001A2
:10358000E3EC00F00101062B006E00509EA8FED770
:10359000AD6E1D0E065DF2E1010E0001C26FD1EFAE
:1035A00015F0EA6A540EE96EE26A550EE16E120EEB
:1035B000016EE6CFEEFF012EFCD70101076B540E22
:1035C000066F0001FDEF15F003C023F002C022F0EA
:1035D00001C021F000C020F00101236B020E246F16
:1035E00000010BEC05F0186AF2BE188EF29E23C0A3
:1035F00024F122C023F121C022F120C021F1070EC5
:103600000101286F860E276F1F0E266F800E256F13
:103610000001A0EC01F018BEF28EEFCF06F1ECCF66
:1036200007F1ECCF08F1ECCF09F109C119F108C19C
:1036300018F107C117F106C116F130DC02C008F11C
:1036400001C007F102C017F101C016F178DC03C018
:103650000BF102C00AF101C009F100C008F1EACF84
:103660000DF1E9CF0CF103C02DF102C02CF101C026
:103670002BF100C02AF10101316B306B010E2F6F6D
:10368000C20E2E6F0001EFEC09F00DC1EAFF0CC174
:10369000E9FF03C06DF002C06CF001C06BF000C028
:1036A0006AF09D80C00EF2121F800101066B0001BE
:1036B0002CEC04F01F987FD1070E0101096FD00E8A
:1036C000086F230E0B6F280E0A6FC1C00DF1C0C02A
:1036D0000CF1010E0E6F0F6B0001E7EC11F0070EFD
:1036E0000101096FD00E086F230E0B6F280E0A6FB1
:1036F000C1C00DF1C0C00CF10E6B0F6B0001E7EC07
:1037000011F0C9C0BBF0C8C0BAF06F6B6E6B010E90
:103710000101066F00012CEC04F04DD1EA6A540E51
:10372000E96EE26A550EE16E120E016EE6CFEEFF13
:10373000012EFCD70101076B540E066F0001A7ECA8
:1037400005F002C007F101C006F1010101501608A1
:1037500002E1075303E000012ED10101010E066FC3
:1037600000012CEC04F027D1000E016EC250C70BF3
:103770000110C26E100E006E002EFED70000C28433
:10378000C2B4FED7C3CFC3F0C4CFC4F00101066BEF
:1037900006510001FFEC00F00101062B006E005005
:1037A0009EA8FED7AD6E070E065DF2E1100EE96E23
:1037B000C4C00BF1C3C00AF100010ADCFCD0F29CCA
:1037C000F29EF2BEFDD70400D19057D4C00EF21283
:1037D0000400D180F0D00101066B0651000112EC0B
:1037E00001F00101062B006E00509EA8FED7AD6EC1
:1037F000060E065DF2E1100EE96E6FC00BF16EC0B1
:103800000AF10001E8EC17F02F0E9EA8FED7AD6E6E
:10381000100EE96EBBC00BF1BAC00AF1E8EC17F06C
:103820000101066B0651000126EC01F00101062B97
:10383000006E00509EA8FED7AD6E0A0E065DF2E146
:10384000100EE96EC7C00BF1C6C00AF10001E8EC2A
:1038500017F0C4C009F1C3C008F101010B6BC5C06A
:103860000AF100015FDC02C007F101C006F10101AD
:10387000086B085100013AEC01F00101082B006EC1
:1038800000509EA8FED7AD6E0A0E085DF2E1100E44
:10389000E96E07C10BF106C10AF10001E8EC17F06F
:1038A000200E9EA8FED7AD6E280E9EA8FED7AD6E48
:1038B000C5C009F11F0E01010A6F0001BEEC03F043
:1038C000290E9EA8FED7AD6E0101066B06510001C0
:1038D00051EC01F00101062B006E00509EA8FED7AE
:1038E000AD6E080E065DF2E1410EE96E23C00AF1ED
:1038F00022C009F121C008F120C007F1000135D430
:10390000186AF2BE188EF29E23C024F122C023F161
:1039100021C022F120C021F1070E0101286F860E7F
:10392000276F1F0E266F800E256F0001A0EC01F09F
:1039300018BEF28EEFCF06F1ECCF07F1ECCF08F115
:10394000ECCF09F109C119F108C118F107C117F14C
:1039500006C116F14EEC17F002C008F101C007F1E4
:103960000101096B0951000164EC01F00101092B0F
:10397000006E00509EA8FED7AD6E070E095DF2E105
:10398000100EE96E08C10BF107C10AF10001E8EC65
:1039900017F011D0AA0E0101116F126BFF0E136FF9
:1039A000000152DC08D01F880400D19004D01F9879
:1039B000D180040000D0000CF2CF0EF0F29EE8247B
:1039C000F76AF736DD0FF66E390EF7220A00F5506A
:1039D000FA6E0800F5500EBEF28EF96E9439C233BD
:1039E0003835B639B639B836D637B639B639B639C4
:1039F000D0324A33AE39B639B63992341C37A23593
:103A0000B639B639BE37A639683795EC13F09494B9
:103A10008B94530E01012F6F080E306F000132ECB2
:103A200014F00CC130F10BC12FF10F0E0101316FF9
:103A300000014CEC14F00101306B2F6B090E316F5B
:103A400000014CEC14F094948B841BEF33F09E989F
:103A50009E9A9D9AAB9EAB98AC98AC9A030E006E62
:103A6000002EFED7AB88AB8EAC8A9D8A3CEF33F03C
:103A70000EC119F10DC118F10CC117F10BC116F1EE
:103A80004EEC17F002C010F101C00FF110C117F198
:103A90000FC116F19FEC17F003C019F102C018F125
:103AA00001C017F100C016F1EACF1BF1E9CF1AF1FE
:103AB00003C02DF102C02CF101C02BF100C02AF18E
:103AC0000101316B306B010E2F6FC20E2E6F0001A2
:103AD000EFEC09F01BC1EAFF1AC1E9FF03C014F1C2
:103AE00002C013F101C012F100C011F1186AF2BE58
:103AF000188EF29E0EC124F10DC123F10CC122F1EA
:103B00000BC121F1070E0101286F860E276F1F0ED2
:103B1000266F800E256F0001A0EC01F018BEF28E1A
:103B2000EFCF00F0ECCF01F0ECCF02F0ECCF03F0E0
:103B300003500101145D0FE30BE10250135D0BE331
:103B400007E10150125D07E303E11151005C03E25C
:103B5000000E016EA6D0186AF2BE188EF29E0EC13B
:103B600024F10DC123F10CC122F10BC121F1070E8B
:103B7000286F860E276F1F0E266F800E256F00019F
:103B8000A0EC01F018BEF28EEFCF16F1ECCF17F1DA
:103B9000ECCF18F1ECCF19F101011151165D1A6F3C
:103BA000125117591B6F135118591C6F1451195981
:103BB0001D6FEACF1FF1E9CF1EF1186AF2BE188E11
:103BC000F29E246F1CC123F11BC122F11AC121F105
:103BD000286B276B010E266FC20E256F0001A0EC2B
:103BE00001F018BEF28E1FC1EAFF1EC1E9FF00C03E
:103BF000CAF0CA517B0805E2FF0E016E010151D0E7
:103C00000001D89001011031176F0F31166F0A0EA5
:103C10001625186F000E1721196F0F51010B006E3A
:103C2000036A026E00341A6F03341B6F1A371B3796
:103C30001A371B371A371B371A371B371A371B37F8
:103C40001A371B37800E1A17040E1A251C6F000E28
:103C50001B211D6F0001CA5101011C251E6F000EA2
:103C60001D211F6F19C129F118C128F11EC12AF1A8
:103C7000010E2C6F150E2B6F2E6B010E2D6F000198
:103C800043EC15F0CA51050809E201011553D8B4F7
:103C900002D0000103D0FF0E016E03D0010115C157
:103CA00001F0000161EF1FF095EC13F094948B94F8
:103CB000830E01012F6F080E306F000132EC14F0FB
:103CC0000DC130F10CC12FF10F0E0101316F000158
:103CD0004CEC14F00101306B2F6B090E316F0001B9
:103CE0004CEC14F094948B8468EF20F0186AF2BEC8
:103CF000188EF29E23C024F122C023F121C022F1AC
:103D000020C021F1070E0101286F860E276F1F0EBC
:103D1000266F800E256F0001A0EC01F018BEF28E18
:103D2000EFCF07F1ECCF08F1ECCF09F1ECCF0AF1BE
:103D30006D5101010A5DD8A086D012E100016C51DD
:103D40000101095DD8A07FD00BE100016B51010199
:103D5000085D79E305E100016A510101075D73E344
:103D6000800E00016A250101076F510E00016B21D1
:103D70000101086F010E00016C210101096F000EA5
:103D800000016D2101010A6F186AF2BE188EF29EC1
:103D9000246F09C123F108C122F107C121F1070EE7
:103DA000286F860E276F1F0E266F800E256F00016D
:103DB000A0EC01F018BEF28EEFCF08F1ECCF09F1C4
:103DC000ECCF0AF1ECCF0BF10BC119F10AC118F1DC
:103DD00009C117F108C116F14EEC17F002C00AF143
:103DE00001C009F102C017F101C016F19FEC17F0F4
:103DF00003C00DF102C00CF101C00BF100C00AF1CB
:103E0000EACF0FF1E9CF0EF103C02DF102C02CF182
:103E100001C02BF100C02AF10101316B306B010EA2
:103E20002F6FC20E2E6F0001EFEC09F00FC1EAFFF9
:103E30000EC1E9FF03C06DF002C06CF001C06BF071
:103E400000C06AF00101205000016A5D006E21503F
:103E50006B59016E22506C59026E23506D59B96F27
:103E600002C0B8F001C0B7F000C0B6F0186AF2BEE8
:103E7000188EF29E23C024F122C023F121C022F12A
:103E800020C021F1070E0101286F860E276F1F0E3B
:103E9000266F800E256F0001A0EC01F018BEF28E97
:103EA000EFCF07F1ECCF08F1ECCF09F1ECCF0AF13D
:103EB0000AC10EF109C10DF108C10CF107C10BF1E6
:103EC000D7D501C006F1010106534CE1186AF2BED4
:103ED000188EF29E23C024F122C023F121C022F1CA
:103EE00020C021F1070E286F860E276F1F0E266F48
:103EF000800E256F0001A0EC01F018BEF28EEFCF0E
:103F000007F1ECCF08F1ECCF09F1ECCF0AF10AC1CF
:103F100019F109C118F108C117F107C116F14EECEA
:103F200017F002C009F101C008F101010150010BB5
:103F30000A6F0B6B0A530CE10B530AE1AA0E116FC7
:103F4000126BFF0E136F000124EC19F00AD001016F
:103F5000AA0E116F800E126F7F0E136F000124ECFA
:103F600019F00101063D01D002D0065302E1B40E62
:103F7000066F0651B408D8B4ACD0C4C009F1C3C0B0
:103F800008F10B6BC5C00AF1000192EC18F001C0FA
:103F900007F1186AF2BE188EF29E23C024F122C0E7
:103FA00023F121C022F120C021F1070E0101286F69
:103FB000860E276F1F0E266F800E256F0001A0EC66
:103FC00001F018BEF28EEFCF08F1ECCF09F1ECCF83
:103FD0000AF1ECCF0BF10BC119F10AC118F109C1BB
:103FE00017F108C116F14EEC17F002C00AF101C03A
:103FF00009F101010150010B006E036A026E0034E9
:104000000B6F03340C6F0B370C370B370C370B3738
:104010000C370B370C370B370C370B370C37800E40
:104020000B17040E0B250D6F000E0C210E6F0001F7
:10403000CA5101010D250F6F000E0E21106F07C12F
:1040400011F10FC112F1010E136F000124EC19F0F0
:10405000186AF2BE188EF29E23C024F122C023F10A
:1040600021C022F120C021F1070E0101286F860E28
:10407000276F1F0E266F800E256F0001A0EC01F048
:1040800018BEF28EEFCF07F1ECCF08F1ECCF09F1BB
:10409000ECCF0AF10AC119F109C118F108C117F1F1
:1040A00007C116F14EEC17F002C009F101C008F18A
:1040B000D89001010230036E0130026EF20F0A6FD8
:1040C000030E03200B6F0D6F0AC10CF10001ECD53C
:1040D0000101EA6A2C0EE96EF2CF07F1F29E000EA2
:1040E0000001A7EC00F00A000900F550EE6E00098F
:1040F000FBE1010107BFF28E186AF2BE188EF29E34
:1041000023C024F122C023F121C022F120C021F1DB
:10411000070E286F860E276F1F0E266F800E256FE5
:104120000001A0EC01F018BEF28EEFCF07F1ECCF4A
:1041300008F1ECCF09F1ECCF0AF10AC119F109C17C
:1041400018F108C117F107C116F14EEC17F002C0C3
:1041500009F101C008F101011E6B1D6B02C01CF1C9
:1041600001C01BF10A0E1F6F216B400E206F000172
:1041700087EC0AF00101186B400E176F000179EC13
:104180000BF0300ED88001540101076F000ED8A04B
:10419000E806086F186B400E176F000179EC0BF002
:1041A00001C009F108C1EAFF07C1E9FFE26A400E58
:1041B000E16E01010150016E04E0E6CFEEFF012E39
:1041C000FCD70A0E1F6F206B00019FEC06F00A0E51
:1041D00001011F6F206B00019FEC06F00A0E010128
:1041E0001F6F206B00019FEC06F00101186B2C0E75
:1041F000176F000179EC0BF001C007F10101176B9B
:104200002C0E166F01C018F1000196EC0BF0EA6A53
:104210002C0EE96EF2CF07F1F29E000E88EC00F052
:104220000A000900F550EE6E0009FBE1010107BF2D
:10423000F28EDF0E2F6E1E6B1D6B1C6B06C11BF109
:104240000A0E1F6F216B400E206F000187EC0AF0F1
:104250000101186B400E176F000179EC0BF0015053
:10426000030827E30101186B400E176F000179EC7A
:104270000BF02F0ED88001540101076F000ED8A05B
:10428000E806086F186B400E176F000179EC0BF011
:1042900001C009F108C1EAFF07C1E9FFE26A400E67
:1042A000E16E01010150016E04E0E6CFEEFF012E48
:1042B000FCD70A0E01011F6F010E206F00019FEC59
:1042C00006F00101186B2C0E176F000179EC0BF052
:1042D00001C007F10101176B2C0E166F01C018F118
:1042E000000196EC0BF0010106C101F000014EEF58
:1042F00033F05FC166F101016351661B66AF05D003
:10430000D894D8905FBFD8802FD05FC166F162C1CA
:1043100067F15E51675F06E066AF26D0D850010AAC
:10432000D86E22D063C167F15F51675F06E066AF68
:104330001BD0D850010AD86E17D064C167F1605104
:10434000675F06E066AF10D0D850010AD86E0CD077
:1043500065C167F16151675F06E066AF05D0D8506F
:10436000010AD86E01D0D8900001000C01013691ED
:10437000369329C12DF128C12CF127C12BF126C17B
:104380002AF129C161F128C160F127C15FF126C17D
:104390005EF1656B646B636B626B0001AADF05E322
:1043A000010136812B51800A2B6F0101616B606B1B
:1043B0005F6B7F0E5E6F2DC165F12CC164F12BC167
:1043C00063F12AC162F1000194DF1BE30101616B1B
:1043D000606B5F6B7F0E5E6F2DC165F12CC164F168
:1043E0002BC163F12AC162F10001E2EC07F003C0C6
:1043F0002DF102C02CF101C02BF100C02AF1010106
:1044000036830A0E0101656F890E646F340E636F87
:104410007C0E626F2DC169F12CC168F12BC167F16F
:104420002AC166F1000167EC07F000C037F101C056
:1044300038F102C039F103C03AF103C065F102C09E
:1044400064F101C063F100C062F12DC169F12CC1BA
:1044500068F12BC167F12AC166F167EC07F000C073
:104460003BF101C03CF102C03DF103C03EF1D892E6
:1044700003C067F102C066F101C065F100C064F1DC
:104480007C0E01016B6F790E6A6F350E696F810EBC
:10449000686F000191EC08F003C031F102C030F107
:1044A00001C02FF100C02EF131C165F130C164F1BE
:1044B0002FC163F12EC162F12DC169F12CC168F1E8
:1044C0002BC167F12AC166F167EC07F000C037F134
:1044D00001C038F102C039F103C03AF103C065F1FF
:1044E00002C064F101C063F100C062F12DC169F145
:1044F0002CC168F12BC167F12AC166F167EC07F0A6
:1045000000C03BF101C03CF102C03DF103C03EF1EF
:10451000D89203C067F102C066F101C065F100C026
:1045200064F13F0E01016B6F020E6A6F330E696F0B
:10453000830E686F000191EC08F003C031F102C0F6
:1045400030F101C02FF100C02EF131C165F130C151
:1045500064F12FC163F12EC162F12DC169F12CC14B
:1045600068F12BC167F12AC166F167EC07F000C062
:1045700037F101C038F102C039F103C03AF103C08C
:1045800065F102C064F101C063F100C062F12DC1A8
:1045900069F12CC168F12BC167F12AC166F167ECA2
:1045A00007F000C03BF101C03CF102C03DF103C087
:1045B0003EF1D89203C067F102C066F101C065F117
:1045C00000C064F1330E01016B6F8C0E6A6F1E0E1A
:1045D000696F830E686F000191EC08F003C031F140
:1045E00002C030F101C02FF100C02EF10101656B56
:1045F000646B636B7F0E626F2DC169F12CC168F132
:104600002BC167F12AC166F1000167EC07F000C019
:1046100037F101C038F102C039F103C03AF103C0EB
:1046200065F102C064F101C063F100C062F12DC107
:1046300069F12CC168F12BC167F12AC166F167EC01
:1046400007F000C03BF101C03CF102C03DF103C0E6
:104650003EF1D89203C067F102C066F101C065F176
:1046600000C064F11B0E01016B6FE40E6A6F350E22
:10467000696F820E686F000191EC08F003C035F19C
:1046800002C034F101C033F100C032F135C165F12F
:1046900034C164F133C163F132C162F12DC169F1FA
:1046A0002CC168F12BC167F12AC166F167EC07F0F4
:1046B00000C037F101C038F102C039F103C03AF14E
:1046C00003C065F102C064F101C063F100C062F192
:1046D0002DC169F12CC168F12BC167F12AC166F1C6
:1046E00067EC07F000C03BF101C03CF102C03DF1B6
:1046F00003C03EF1D89203C067F102C066F101C069
:1047000065F100C064F1A40E01016B6FDB0E6A6FEE
:10471000670E696F830E686F000191EC08F003C0AB
:1047200035F102C034F101C033F100C032F135C1BE
:1047300065F134C164F133C163F132C162F12DC15D
:1047400069F12CC168F12BC167F12AC166F167ECF0
:1047500007F000C037F101C038F102C039F103C0E1
:104760003AF103C065F102C064F101C063F100C019
:1047700062F12DC169F12CC168F12BC167F12AC129
:1047800066F167EC07F000C03BF101C03CF102C0EC
:104790003DF103C03EF1D89203C067F102C066F15B
:1047A00001C065F100C064F1330E01016B6F8C0E26
:1047B0006A6F1E0E696F830E686F000191EC08F03E
:1047C00003C035F102C034F101C033F100C032F151
:1047D0002DC165F12CC164F12BC163F12AC162F1D5
:1047E00031C169F130C168F12FC167F12EC166F1A5
:1047F00067EC07F000C037F101C038F102C039F1B1
:1048000003C03AF103C061F102C060F101C05FF181
:1048100000C05EF135C165F134C164F133C163F1AB
:1048200032C162F1E2EC07F003C031F102C030F1B5
:1048300001C02FF100C02EF1010136A31DD0D88296
:10484000DB0E676F0F0E666F490E656F7F0E646F2C
:1048500031C16BF130C16AF12FC169F12EC168F12C
:10486000000191EC08F003C031F102C030F101C049
:104870002FF100C02EF1010136A103D02F51800A83
:104880002F6F2EC100F02FC101F030C102F031C1F5
:1048900003F00001000C8E0E006E63C101F062C1D6
:1048A00002F0036A015209E102C001F0026A080E37
:1048B000005E015202E1006A08D0D89001BE04D027
:1048C000023601360006F9D7019E000C8E0E006EEE
:1048D00001015E51005E5FC102F060C101F0028E15
:1048E000005209E0D890025202E1015204E0023283
:1048F0000132002EF7D75FAF05D0011E021E012A3C
:10490000D8B4022A0001000C7F0E0101446F456BF0
:10491000466B476B7E0E4E6F800E4F6F506B516B28
:104920007A0E526F2A0E536FAA0E546FA30E556F54
:10493000750E566FB60E576F090E586F9C0E596F55
:104940006F0E5A6F4F0E5B6FB40E5C6F0B0E5D6F88
:104950003BC161F13AC160F139C15FF138C15EF12B
:10496000656B646B636B626B0001C3DC04E3010184
:104970003951800A396F3BC161F13AC160F139C1E7
:104980005FF138C15EF1DB0E0101656F0F0E646FE0
:10499000490E636F7F0E626F0001E2EC07F003C007
:1049A00061F102C060F101C05FF100C05EF18EDF15
:1049B00001C048F13BC161F13AC160F139C15FF119
:1049C00038C15EF1DB0E0101656F0F0E646F490E99
:1049D000636F7F0E626F0001E2EC07F000C05EF1D2
:1049E00001C05FF102C060F103C061F10101636BBE
:1049F00048C162F100014FDFD88261C167F160C137
:104A000066F15FC165F15EC164F103C06BF102C084
:104A10006AF101C069F100C068F191EC08F003C0CF
:104A20004DF102C04CF101C04BF100C04AF1030E40
:104A300001014817485303E0485102081DE14DC1E8
:104A400065F14CC164F14BC163F14AC162F1DB0E07
:104A5000696F0F0E686F490E676F7F0E666F0001FA
:104A600067EC07F003C043F102C042F101C041F11D
:104A700000C040F16FD00101482D37D0D882676B5C
:104A8000666B656B7F0E646F4DC16BF14CC16AF153
:104A90004BC169F14AC168F1000191EC08F000C016
:104AA0005EF101C05FF102C060F103C061F103C0BB
:104AB00065F102C064F101C063F100C062F1DB0E78
:104AC0000101696F0F0E686F490E676F7F0E666F89
:104AD000000167EC07F003C043F102C042F101C0DE
:104AE00041F100C040F136D00101D8824DC167F1DB
:104AF0004CC166F14BC165F14AC164F16B6B6A6BE5
:104B0000696B7F0E686F000191EC08F000C05EF1E8
:104B100001C05FF102C060F103C061F103C065F143
:104B200002C064F101C063F100C062F1DB0E01015B
:104B3000696F0F0E686F490E676F7F0E666F000119
:104B400067EC07F003C043F102C042F101C041F13C
:104B500000C040F101013F6B3E6B3D6B7F0E3C6F2F
:104B600043C165F142C164F141C163F140C162F1E9
:104B700043C169F142C168F141C167F140C166F1C9
:104B8000000167EC07F003C043F102C042F101C02D
:104B900041F100C040F10101496B4951030866E34E
:104BA00047C165F146C164F145C163F144C162F199
:104BB00043C169F142C168F141C167F140C166F189
:104BC000000167EC07F003C047F102C046F101C0E5
:104BD00045F100C044F101014951040DF350036A4D
:104BE0004E0FE96E010E0320EA6EEFCF5EF1ECCFBF
:104BF0005FF1ECCF60F1ECCF61F161C165F160C1B3
:104C000064F15FC163F15EC162F147C169F146C100
:104C100068F145C167F144C166F1000167EC07F036
:104C2000EACF63F1E9CF62F1D8923FC167F13EC1AB
:104C300066F13DC165F13CC164F103C06BF102C096
:104C40006AF101C069F100C068F191EC08F063C13C
:104C5000EAFF62C1E9FF03C03FF102C03EF101C0BB
:104C60003DF100C03CF10101492B97D748510208A2
:104C700002E0482D03D03D51800A3D6F3CC100F059
:104C80003DC101F03EC102F03FC103F00001000C44
:104C9000D88233C167F132C166F131C165F130C1EB
:104CA00064F1DB0E01016B6F0F0E6A6F490E696FC5
:104CB0007F0E686F000191EC08F000C034F101C074
:104CC00035F102C036F103C037F103C03BF102C039
:104CD0003AF101C039F100C038F116DE000C27C1ED
:104CE0003BF126C13AF125C139F124C138F10CDE7E
:104CF00003C02BF102C02AF101C029F100C028F144
:104D00002BC161F12AC160F129C15FF128C15EF1B7
:104D10000101656B646B636B626B000179EC21F0E0
:104D200009E1F60E006E400E016E970E026ECE0E79
:104D3000036E23D027C133F126C132F125C131F1F1
:104D400024C130F1A5DF03C02FF102C02EF101C054
:104D50002DF100C02CF12FC161F12EC160F12DC1E8
:104D60005FF12CC15EF12BC165F12AC164F129C14B
:104D700063F128C162F1E2EC07F0000C4AC161F175
:104D800049C160F148C15FF147C15EF10101656B46
:104D9000646B636B626B000179EC21F001E205E169
:104DA000006A016A026A036A7DD04AC14EF149C1B4
:104DB0004DF148C14CF147C14BF1010E0101546F57
:104DC0004B0E536F53C1E9FF54C1EAFFEF50586BCC
:104DD000576F7F0E5725596F000E58215A6FD89084
:104DE0005A31593154C1EAFF53C1E9FFEF6E4EC148
:104DF00052F14DC151F14CC150F14BC14FF14AC17B
:104E000061F149C160F148C15FF147C15EF14EC136
:104E100065F14DC164F14CC163F14BC162F1000118
:104E2000E2EC07F0D8924EC167F14DC166F14CC17A
:104E300065F14BC164F103C06BF102C06AF101C0BE
:104E400069F100C068F191EC08F003C04EF102C0B6
:104E50004DF101C04CF100C04BF1010153C1E9FF1C
:104E600054C1EAFFEF0652C161F151C160F150C176
:104E70005FF14FC15EF14EC165F14DC164F14CC1AE
:104E800063F14BC162F1000179EC21F0D8B402D09A
:104E90000101ADD74FC100F050C101F051C102F086
:104EA00052C103F0000CCE6BCD6B570ECC6F850E4C
:104EB000CB6FCD0ED26FCC0ED16F7C0ED06F820E29
:104EC000CF6FCD0EDA6FCC0ED96F140ED86F820E65
:104ED000D76FE26BE16B100EE06F840EDF6FDE6B5D
:104EE000DD6B300EDC6F810EDB6FCD0EDA6FCC0E1A
:104EF000D96F140ED86F820ED76FD2C061F1D1C0B6
:104F000060F1D0C05FF1CFC05EF1E2C065F1E1C0F9
:104F100064F1E0C063F1DFC062F1E2EC07F000C0D1
:104F200009F101C00AF102C00BF103C00CF103C08A
:104F300029F102C028F101C027F100C026F1B6EC2A
:104F400021F003C0FAF002C0F9F001C0F8F000C08F
:104F5000F7F00101636B08C162F100019CDC03C042
:104F600065F102C064F101C063F100C062F1DB0EC3
:104F70000101696F0F0E686F490E676F800E666FD3
:104F8000000167EC07F000C009F101C00AF102C09E
:104F90000BF103C00CF103C061F102C060F101C06C
:104FA0005FF100C05EF10101656B646B340E636FED
:104FB000860E626F0001E2EC07F000C00DF101C047
:104FC0000EF102C00FF103C010F1D88203C067F1E7
:104FD00002C066F101C065F100C064F1FAC06BF176
:104FE000F9C06AF1F8C069F1F7C068F191EC08F016
:104FF00000C011F101C012F102C013F103C014F19D
:1050000003C033F102C032F101C031F100C030F110
:105010003FDE03C0EAF002C0E9F001C0E8F000C0E2
:10502000E7F00101636B08C162F1000134DC03C0E9
:1050300065F102C064F101C063F100C062F1DB0EF2
:105040000101696F0F0E686F490E676F800E666F02
:10505000000167EC07F000C009F101C00AF102C0CD
:105060000BF103C00CF103C061F102C060F101C09B
:105070005FF100C05EF10101656B646B340E636F1C
:10508000860E626F0001E2EC07F000C00DF101C076
:105090000EF102C00FF103C010F1D88203C067F116
:1050A00002C066F101C065F100C064F1FAC06BF1A5
:1050B000F9C06AF1F8C069F1F7C068F191EC08F045
:1050C00000C011F101C012F102C013F103C014F1CC
:1050D00003C03BF102C03AF101C039F100C038F120
:1050E00013DC03C0EEF002C0EDF001C0ECF000C034
:1050F000EBF00101636B08C162F100014BEC24F09D
:1051000003C065F102C064F101C063F100C062F147
:10511000DB0E0101696F0F0E686F490E676F800E1D
:10512000666F000167EC07F000C009F101C00AF1E9
:1051300002C00BF103C00CF103C061F102C060F1C9
:1051400001C05FF100C05EF10101656B646B340E5C
:10515000636F860E626F0001E2EC07F000C00DF194
:1051600001C00EF102C00FF103C010F1D88203C0DC
:1051700067F102C066F101C065F100C064F1FAC0D8
:105180006BF1F9C06AF1F8C069F1F7C068F191EC10
:1051900008F000C011F101C012F102C013F103C008
:1051A00014F103C027F102C026F101C025F100C0AF
:1051B00024F195DD03C0F2F002C0F1F001C0F0F07F
:1051C00000C0EFF0E2C065F1E1C064F1E0C063F15E
:1051D000DFC062F1E2C069F1E1C068F1E0C067F1EF
:1051E000DFC066F167EC07F000C009F101C00AF109
:1051F00002C00BF103C00CF1D2C065F1D1C064F163
:10520000D0C063F1CFC062F1D2C069F1D1C068F102
:10521000D0C067F1CFC066F167EC07F0D8920CC13F
:1052200067F10BC166F10AC165F109C164F103C000
:105230006BF102C06AF101C069F100C068F191EC44
:1052400008F000C00DF101C00EF102C00FF103C063
:1052500010F103C04AF102C049F101C048F100C099
:1052600047F18CDD00C00EF101C00FF102C010F15A
:1052700003C011F1DAC061F1D9C060F1D8C05FF1AB
:10528000D7C05EF1EAC065F1E9C064F1E8C063F13E
:10529000E7C062F1E2EC07F0EACF13F1E9CF12F1D7
:1052A000D88211C167F110C166F10FC165F10EC15D
:1052B00064F103C06BF102C06AF101C069F100C082
:1052C00068F191EC08F013C1EAFF12C1E9FF03C0D5
:1052D000D6F002C0D5F001C0D4F000C0D3F0DAC0DF
:1052E00061F1D9C060F1D8C05FF1D7C05EF1F2C002
:1052F00065F1F1C064F1F0C063F1EFC062F1E2EC7E
:1053000007F0D882CEC067F1CDC066F1CCC065F1A0
:10531000CBC064F103C06BF102C06AF101C069F156
:1053200000C068F191EC08F000C009F101C00AF179
:1053300002C00BF103C00CF1D6C065F1D5C064F119
:10534000D4C063F1D3C062F1EEC069F1EDC068F181
:10535000ECC067F1EBC066F167EC07F0D8820CC1D6
:1053600067F10BC166F10AC165F109C164F103C0BF
:105370006BF102C06AF101C069F100C068F191EC03
:1053800008F003C0F6F002C0F5F001C0F4F000C070
:10539000F3F0D6C065F1D5C064F1D4C063F1D3C0D9
:1053A00062F1EAC069F1E9C068F1E8C067F1E7C0FD
:1053B00066F167EC07F000C009F101C00AF102C014
:1053C0000BF103C00CF103C065F102C064F101C030
:1053D00063F100C062F1D6C069F1D5C068F1D4C0F4
:1053E00067F1D3C066F167EC07F000C00DF101C0B2
:1053F0000EF102C00FF103C010F103C065F102C04D
:1054000064F101C063F100C062F1EAC069F1E9C072
:1054100068F1E8C067F1E7C066F167EC07F000C02B
:1054200011F101C012F102C013F103C014F1F6C072
:1054300065F1F5C064F1F4C063F1F3C062F1F6C048
:1054400069F1F5C068F1F4C067F1F3C066F167EC8B
:1054500007F0D89214C167F113C166F112C165F16A
:1054600011C164F103C06BF102C06AF101C069F1BE
:1054700000C068F191EC08F000C015F101C016F110
:1054800002C017F103C018F1DEC065F1DDC064F1A0
:10549000DCC063F1DBC062F1DEC069F1DDC068F140
:1054A000DCC067F1DBC066F167EC07F0D88218C199
:1054B00067F117C166F116C165F115C164F103C04A
:1054C0006BF102C06AF101C069F100C068F191ECB2
:1054D00008F003C0E6F002C0E5F001C0E4F000C04F
:1054E000E3F0E6C04AF1E5C049F1E4C048F1E3C0A9
:1054F00047F144DC03C0E6F002C0E5F001C0E4F08F
:1055000000C0E3F0E6C061F1E5C060F1E4C05FF126
:10551000E3C05EF10101656B646B480E636F840E3E
:10552000626F000179EC21F005E3FE6BFD6BFC6B13
:10553000FB6B08D0E6C0FEF0E5C0FDF0E4C0FCF077
:10554000E3C0FBF0000C01013E912CC131F12BC1F5
:1055500030F12AC12FF129C12EF12CC161F12BC1EB
:1055600060F12AC15FF129C15EF1656B646B636B09
:10557000626B000179EC21F005E301013E812F51BE
:10558000800A2F6F0101616B606B5F6B7E0E5E6F37
:1055900031C165F130C164F12FC163F12EC162F1F7
:1055A000000179EC21F049E3D8820101676B666B59
:1055B000656B7F0E646F31C16BF130C16AF12FC131
:1055C00069F12EC168F1000191EC08F000C03FF1D3
:1055D00001C040F102C041F103C042F103C061F1DA
:1055E00002C060F101C05FF100C05EF10101656BB6
:1055F000646B636B800E626F0001E2EC07F000C029
:1056000043F101C044F102C045F103C046F103C0BB
:105610004AF102C049F101C048F100C047F1BEECB7
:1056200026F003C031F102C030F101C02FF100C0FB
:105630002EF1020E01012D27000131C165F130C1AB
:1056400064F12FC163F12EC162F131C169F130C142
:1056500068F12FC167F12EC166F167EC07F003C056
:105660003DF102C03CF101C03BF100C03AF1370E00
:105670000101656FBF0E646F7D0E636F626F3DC188
:1056800069F13CC168F13BC167F13AC166F10001C3
:1056900067EC07F000C03FF101C040F102C041F1EA
:1056A00003C042F1D89203C067F102C066F101C0A5
:1056B00065F100C064F13D0E01016B6FAA0E6A6FC7
:1056C000930E696F810E686F000191EC08F003C0C2
:1056D00035F102C034F101C033F100C032F135C1FF
:1056E00065F134C164F133C163F132C162F13DC18E
:1056F00069F13CC168F13BC167F13AC166F167EC01
:1057000007F000C03FF101C040F102C041F103C009
:1057100042F1D89203C067F102C066F101C065F1A1
:1057200000C064F1EE0E01016B6F500E6A6F330E14
:10573000696F810E686F000191EC08F003C035F1CC
:1057400002C034F101C033F100C032F10101656BD8
:10575000646B636B7F0E626F3DC169F13CC168F1A0
:105760003BC167F13AC166F1000167EC07F000C088
:105770003FF101C040F102C041F103C042F1D892B3
:1057800003C067F102C066F101C065F100C064F1B9
:105790000A0E01016B6F8D0E6A6FB10E696F810E7B
:1057A000686F000191EC08F003C039F102C038F1D4
:1057B00001C037F100C036F139C165F138C164F17B
:1057C00037C163F136C162F13DC169F13CC168F195
:1057D0003BC167F13AC166F167EC07F000C03FF1E9
:1057E00001C040F102C041F103C042F1D89203C0B0
:1057F00067F102C066F101C065F100C064F1EE0E10
:1058000001016B6F500E6A6F330E696F810E686F06
:10581000000191EC08F003C039F102C038F101C079
:1058200037F100C036F131C165F130C164F12FC1EB
:1058300063F12EC162F135C169F134C168F133C140
:1058400067F132C166F167EC07F000C03FF101C0BB
:1058500040F102C041F103C042F103C061F102C056
:1058600060F101C05FF100C05EF139C165F138C17E
:1058700064F137C163F136C162F1E2EC07F003C0B5
:1058800035F102C034F101C033F100C032F1010141
:105890002DA32ED0656B646B636B800E626F35C178
:1058A00069F134C168F133C167F132C166F10001B9
:1058B00067EC07F0D882DB0E0101676F0F0E666F91
:1058C000490E656F7F0E646F03C06BF102C06AF111
:1058D00001C069F100C068F1000191EC08F003C05B
:1058E00035F102C034F101C033F100C032F10101E1
:1058F0003EA103D03351800A336F2DA11DD0D88231
:10590000DB0E676F0F0E666F490E656F7F0E646F5B
:1059100035C16BF134C16AF133C169F132C168F14B
:10592000000191EC08F003C035F102C034F101C070
:1059300033F100C032F1010132C100F033C101F096
:1059400034C102F035C103F00001B4EF2CF024C1E2
:105950002CF123C12BF122C12AF121C129F1010E21
:1059600001012D6F0001EFD503C028F102C027F11E
:1059700001C026F100C025F125C100F026C101F0CB
:1059800027C102F028C103F03BEF30F00101409144
:1059900034C139F133C138F132C137F131C136F197
:1059A00034C161F133C160F132C15FF131C15EF1E7
:1059B000656B646B636B626B000179EC21F005E34E
:1059C000010140813751800A376F39C161F138C117
:1059D00060F137C15FF136C15EF10101656B646B47
:1059E000636B8E0E626F000179EC21F001E219E128
:1059F00039C161F138C160F137C15FF136C15EF183
:105A000066EC24F002C063F101C062F14BEC24F0BB
:105A100003C03DF102C03CF101C03BF100C03AF1CE
:105A2000D3D039C161F138C160F137C15FF136C1FE
:105A30005EF1800E0101656F960E646F180E636F44
:105A4000960E626F000179EC21F0D8A0B5D039C173
:105A500061F138C160F137C15FF136C15EF101011A
:105A6000656B646B636B8E0E626F0001E2EC07F096
:105A700003C061F102C060F101C05FF100C05EF1DE
:105A800066EC24F002C03FF101C03EF139C161F182
:105A900038C160F137C15FF136C15EF10101656B5C
:105AA000646B636B8E0E626F0001E2EC07F000C066
:105AB00041F101C042F102C043F103C044F13FC1D2
:105AC00063F13EC162F14BEC24F0D88244C167F12E
:105AD00043C166F142C165F141C164F103C06BF19C
