:020000040000FA
:04000000F9EF2DF0F7
:08000800056ED8CF06F0E0CF31
:1000100007F00001E9CF0DF0EACF08F0E1CF09F0D9
:10002000E2CF0AF0D9CF0BF0DACF0CF0F3CF14F017
:10003000F4CF15F0FACF16F000C00FF001C010F0A9
:1000400002C011F003C012F004C013F0F2AA2CEFAA
:1000500000F0F2B4F2EF01F09DAA32EF00F09EBA88
:1000600079EF02F00FC000F010C001F011C002F0F3
:1000700012C003F013C004F00E8E0DC0E9FF08C0DB
:10008000EAFF09C0E1FF0AC0E2FF0BC0D9FF0CC0C4
:10009000DAFF14C0F3FF15C0F4FF16C0FAFF0550D5
:1000A00007C0E0FF06C0D8FF1000F2CF0EF0F29EAE
:1000B000F76AC40FF66E000EF7220900F5500EBE67
:1000C000F28E120030302F30302F30300000F2CF5F
:1000D0000EF0F29EF76AE80FF66E000EF7220900A6
:1000E000F5500EBEF28E120030303A30303A3030D9
:1000F0000000F2CF0EF0F29EF76A0C0FF66E010EC2
:10010000F7220900F5500EBEF28E12004F4B0D0A79
:100110000000F2CF0EF0F29EF76A2C0FF66E010E81
:10012000F7220900F5500EBEF28E120053756E4094
:100130002020206465670000F2CF0EF0F29EF76A7F
:10014000520FF66E010EF7220900F5500EBEF28E28
:1001500012000D0A202020737461727420646F777E
:100160006E6C6F6164696E6720256C6420706167D6
:100170006573206F6620646174612E2E2E2E000040
:10018000F2CF0EF0F29EF76A9A0FF66E010EF7228A
:100190000900F5500EBEF28E12000D0A20504147A4
:1001A0004520256C643A0000F2CF0EF0F29EF76A0B
:1001B000C20FF66E010EF7220900F5500EBEF28E48
:1001C00012000D0A20202064656C6574696E67203A
:1001D000656E7469726520666C6173682064617411
:1001E00061200000F2CF0EF0F29EF76AFE0FF66E6D
:1001F000010EF7220900F5500EBEF28E12000D0A14
:100200004144433D20256C750000F2CF0EF0F29E74
:10021000F76A240FF66E020EF7220900F5500EBEA3
:10022000F28E12000D0A4163743A256C752F256C0D
:100230007500F2CF0EF0F29EF76A4C0FF66E020ECA
:10024000F7220900F5500EBEF28E12000D0A52651B
:1002500073746172743A256C7500F2CF0EF0F29EE1
:10026000F76A740FF66E020EF7220900F5500EBE03
:10027000F28E12000D0A43757272656E743A256C27
:100280007520282564290000F2CF0EF0F29EF76A4F
:10029000A20FF66E020EF7220900F5500EBEF28E86
:1002A00012000D0A54696D65723A256C7500F2CF23
:1002B0000EF0F29EF76AC80FF66E020EF7220900E2
:1002C000F5500EBEF28E12000D0A234461793A25D4
:1002D0006C750000F2CF0EF0F29EF76AEE0FF66E2C
:1002E000020EF7220900F5500EBEF28E12002573A1
:1002F000636D20200000F2CF0EF0F29EF76A100F1F
:10030000F66E030EF7220900F5500EBEF28E1200B3
:100310005469636B3D2530336C750000F2CF0EF0ED
:10032000F29EF76A360FF66E030EF7220900F550BB
:100330000EBEF28E12000D0A526573746172742043
:1003400043617573653A25336420256C7500F2CFDF
:100350000EF0F29EF76A680FF66E030EF7220900A0
:10036000F5500EBEF28E12000000006A016A026AA9
:10037000036AFA6BFB6BFC6BFD6BF951F811F7111B
:10038000F6112CE0200EFE6FD890F237F337F437D9
:10039000F537FA37FB37FC37FD37F951FD5D08E1DA
:1003A000F851FC5D05E1F751FB5D02E1F651FA5DA4
:1003B0000FE3F651FA5FF751D8A0F73DFB5FF85114
:1003C000D8A0F83DFC5FF951D8A0F93DFD5FD88079
:1003D0000036013602360336FE2FD6D7EA6AFA0E09
:1003E000E96E000CD650D7CF03F00101666FD7CF6E
:1003F00067F1DC0E6625686F0B0ED720D76E68C1DB
:10040000D6FF00016D2B04006D510408D8B06ED0EA
:10041000010E2426000E2522262227226D6B1F8224
:1004200027C0F5F026C0F4F025C0F3F024C0F2F0A8
:10043000F96BF86BF76B0F0EF66F97DFEFCF66F186
:10044000ECCF67F1ECCF68F1ECCF69F101016653B5
:1004500007E1675305E1685303E1695301E11F8C2C
:1004600027C0F5F026C0F4F025C0F3F024C0F2F068
:100470000001F96BF86B010EF76FC20EF66F75DFB6
:10048000EFCF66F1ECCF67F1ECCF68F1ECCF69F11B
:100490000101665307E1675305E1685303E16953BE
:1004A00001E11F8027C0F5F026C0F4F025C0F3F06D
:1004B00024C0F2F00001F96BF86B010EF76F2C0EFF
:1004C000F66F53DFEFCF66F1ECCF67F1ECCF68F159
:1004D000ECCF69F1010166511E0807E1675305E1A0
:1004E000685303E16953D8B41F8A0001F29432EFD4
:1004F00000F09EAAFED7AECF66F101016651080852
:1005000014E100016C530FE06C07010166519EA8D5
:10051000FED7AD6E200E9EA8FED7AD6E66519EA88A
:10052000FED7AD6E00011AD0010166511F0816E218
:1005300066517E0813E300016C5112080FE36C5101
:100540006C2B036A580FE96E000E0320EA6E66C139
:10055000EFFF010166519EA8FED7AD6E0101665105
:100560000D081BE10D0E9EA8FED7AD6E0A0E9EA8CB
:10057000FED7AD6E3E0E9EA8FED7AD6E036A00019B
:100580006C51580FE96E000E0320EA6EEF6A6C5151
:100590000108D8A01F866C6B01019E9A000132EF02
:1005A00000F0EA6AEF0EE96EEF500EE00C0E016EFD
:1005B000006A002EFED7012EFBD7F70E006E002E2C
:1005C000FED700D0EF2EF2D7000CDA6703D0DB673E
:1005D00002D007D0DB2BD9C0EEFFDA2FFCD7DB2F00
:1005E000FAD7000CD46B240ED36FD26BD251030810
:1005F00021E3D251D325D56F000ED421D66F040E3E
:10060000D225D76FF2CFD8F0F29ED7C0A9FFA69C13
:10061000A69EA680A850D8BFF28ED86FD6C0EAFF9B
:10062000D5C0E9FFD8C0D9F0DB6B010EDA6FCDDFA2
:10063000D22BDCD7D46BBE0ED36FD26BD251010854
:100640001EE3D251D325D56F000ED421D66FF2CF41
:10065000D7F0F29ED2C0A9FFA69CA69EA680A85065
:10066000D7BFF28ED86FD6C0EAFFD5C0E9FFD8C099
:10067000D9F0DB6B010EDA6FA8DFD22BDFD7D46B9A
:10068000720ED36FD26BD251010821E3D251D32520
:10069000D56F000ED421D66F020ED225D76FF2CFC0
:1006A000D8F0F29ED7C0A9FFA69CA69EA680A8500F
:1006B000D8BFF28ED86FD6C0EAFFD5C0E9FFD8C048
:1006C000D9F0DB6B010EDA6F80DFD22BDCD7D46B75
:1006D000C90ED36FD26BD251010821E3D251D32579
:1006E000D56F000ED421D66F080ED225D76FF2CF6A
:1006F000D8F0F29ED7C0A9FFA69CA69EA680A850BF
:10070000D8BFF28ED86FD6C0EAFFD5C0E9FFD8C0F7
:10071000D9F0DB6B010EDA6F58DFD22BDCD74AEF52
:100720002EF0DC51016ADB5D03E2DBC000F00CD08F
:10073000006A080EDD6FDB370036DC51005CD8B094
:10074000006E0136DD2FF7D7000C200ED6A9300E33
:10075000D76FD5C000F0D5AF07D0001E002A00C06B
:10076000D5F02D0ED76FD68F0150D5C0DBF0640EBB
:10077000DC6FD7DF00C0D5F0300E0124D86FD5C0B4
:10078000DBF00A0EDC6FCDDF300E0024DA6F300EA6
:100790000124D96FD7C000F0D6A702D0D6AFD69526
:1007A000D6B90BD0D6AF22D0D6B520D000C0D8F065
:1007B000D6B31CD000C0D9F019D0300ED85D16E1E8
:1007C00000C0D8F0200ED76FD6A704D0D695D68318
:1007D000D6AFD693300ED95D09E100C0D9F0200E16
:1007E000D86FD6A7F7D7D693D6AFD691D6A504D0D3
:1007F000D7519EA8FED7AD6ED6A304D0D8519EA8DF
:10080000FED7AD6ED6A104D0D9519EA8FED7AD6E4D
:10081000DA519EA8FED7AD6E000CEACFDEF0E9CF2C
:10082000DDF0D739F009D96FD927E20FDA6F320F2F
:10083000DC6FD7510F0BDA27DA27DC27E90FDB6FE4
:10084000DB27DB27D6390F0BDB27DC27DB37DC3751
:10085000DC1FDC37D6510F0BDC27D937070ED86FDA
:100860000A0EDB07DC27FDE3DA07DB27FDE3D90708
:10087000DA27FDE3D807D927FDE3EA6AD80EE96E47
:10088000070EDD15DD9DE926DC0EE95CD8B4DD8DB3
:10089000EF50006E08E1DDBD06D0DDB90CD0DDB74C
:1008A00002D0200E03D0DD87DD99300E00260050E7
:1008B0009EA8FED7AD6EEE50DDADE6D7000CD36B33
:1008C000D351030830E3040ED325D46FD351080D60
:1008D000F3CFD5F027C0D9F026C0D8F025C0D7F087
:1008E00024C0D6F0D55307E0D890D933D833D733C6
:1008F000D633D52FF9D7D4C0A9FFD6C0A8FFA69C60
:10090000A69EA684F2CF00F0F29E0F01550EA76EB0
:10091000AA0EA76EA682A6B2FED7A6940050F21227
:100920000001D32BCDD7D36BD35101082AE3020E9C
:10093000D325D46FD351080DF3CF00F073C0D6F098
:1009400072C0D5F0005205E0D890D633D533002ED2
:10095000FBD7D4C0A9FFD5C0A8FFA69CA69EA6849D
:10096000F2CF00F0F29E0F01550EA76EAA0EA76EF1
:10097000A682A6B2FED7A6940050F2120001D32B95
:10098000D3D7D36BD35101082AE3080ED325D46FF4
:10099000D351080DF3CF00F0CAC0D6F0C9C0D5F0CE
:1009A000005205E0D890D633D533002EFBD7D4C003
:1009B000A9FFD5C0A8FFA69CA69EA684F2CF00F0F2
:1009C000F29E0F01550EA76EAA0EA76EA682A6B2C2
:1009D000FED7A6940050F2120001D32BD3D7D22D0C
:1009E0002BD0D36BD351010827E3D351080DF3CF9C
:1009F00000F0BFC0D5F0BEC0D4F0005205E0D890E2
:100A0000D533D433002EFBD7D3C0A9FFD4C0A8FF61
:100A1000A69CA69EA684F2CF00F0F29E0F01550E72
:100A2000A76EAA0EA76EA682A6B2FED7A694005005
:100A3000F2120001D32BD6D7000CF7C083FFA60E0D
:100A4000006E002EFED7000094908B80A60E006EE4
:100A5000002EFED7000094908B90A60E006E002E04
:100A6000FED70000000CF3A18490F3B1848084923F
:100A7000F451F00BF56FF76FE0DFF439006EF00E14
:100A800000160050F00BF66FF76FD7DF8480000C74
:100A90008490849294908B900F0EEF6F82DD010E04
:100AA000D36FD351030808E3300EF76FC6DF0F0E84
:100AB000EF6F77DDD32BF5D7200EF76FBEDF0F0E6C
:100AC000EF6F6FDDF36B060EF46FCDDFA60E006ED9
:100AD000002EFED70000F36B0C0EF46FC4DFA60EE1
:100AE000006E002EFED70000F36B100EF46FBBDF1C
:100AF000A60E006E002EFED70000F36B2C0EF46FD6
:100B0000B2DFA60E006E002EFED70000F36B010EC2
:100B1000F46FA9DFA60E006E002EFED70000000CB9
:100B200094968B96929289829FEF2EF0DA51DC0395
:100B3000F3CF01F0F4CF00F0DD03F3500026DB51DA
:100B4000DC03F3500020026E17EF06F0D86BD66B73
:100B50000A0ED76FD56BD46BD251D31104E1000EBE
:100B6000016E026EE6D0D851D82B036AD225E96E09
:100B7000D3510320EA6EEFCFD9F0D9512D080DE102
:100B8000010ED66FD851D82B036AD225E96ED35106
:100B90000320EA6EEFCFD9F00DD0D9512B080AE12E
:100BA000D851D82B036AD225E96ED3510320EA6EBF
:100BB000EFCFD9F0D9512F08D8B0ADD0D9513908DD
:100BC000D8A0A9D0D951300821E1036AD851D22543
:100BD000E96ED3510320EA6EEF5078080AE0036A09
:100BE000D851D225E96ED3510320EA6EEF50580850
:100BF0000DE1100ED76FD82BD851D82B036AD22510
:100C0000E96ED3510320EA6EEFCFD9F0D7510A082D
:100C100021E1D9512F081DE2D95139081AE3DB6BC4
:100C20000A0EDA6FD5C0DDF0D4C0DCF07FD7300E0D
:100C3000D95D0124D46F000E0220D56FD851D82B76
:100C4000036AD225E96ED3510320EA6EEFCFD9F0C3
:100C5000E0D761D0D75110085EE1D951600806E2B3
:100C6000D9517A0803E3D951DF0B01D0D951D96F9B
:100C7000D9512F0803E2D951390806E2D951400869
:100C80004AE2D951460847E3D9512F0819E2D95110
:100C9000390816E3D435DA6FD535DB6FDA37DB3751
:100CA000DA37DB37DA37DB37F00EDA17300ED95D9B
:100CB000DA25016E000EDB2101C0D4F0D56F16D00D
:100CC000D435DA6FD535DB6FDA37DB37DA37DB3738
:100CD000DA37DB37F00EDA17410ED95D0A0FDA2565
:100CE000016E000EDB2101C0D4F0D56FD851D82B96
:100CF000036AD225E96ED3510320EA6EEF50D96F13
:100D0000600806E2D9517A0803E3D951DF0B01D01C
:100D1000D951D96FADD7D7510A0807E1D62D05D0E3
:100D2000D41FD51FD42BD8B4D52BD4C001F0D5C037
:100D300002F0000CF051030B036A200FE96E000E65
:100D40000320EA6EEFCFF1F0EF51F127F151800966
:100D5000F26FF36BF46F87DE000CEE510C0A05E0C6
:100D6000060A0BE0020A0FE013D0F36B010EF46FDA
:100D70007ADE020EEF6F15DC11D0010EEF6F020E5E
:100D8000F06FD8DF0BD0F36B100EF46F6CDE06D073
:100D9000010EF36FEEC0F4F066DE00D0000CEACF77
:100DA000EDF0E9CFECF0E639F009E86FE827E20F63
:100DB000E96F320FEB6FE6510F0BE927E927EB27BD
:100DC000E90FEA6FEA27EA27E5390F0BEA27EB2755
:100DD000EA37EB37EB1FEB37E5510F0BEB27E83723
:100DE000070EE76F0A0EEA07EB27FDE3E907EA279C
:100DF000FDE3E807E927FDE3E707E827FDE3EA6A03
:100E0000E70EE96E070EEC15EC9DE926EB0EE95CAA
:100E1000D8B4EC8DEF50006E08E1ECBD06D0ECB913
:100E200013D0ECB702D0200E03D0EC87EC99300E33
:100E30000026EACFE6F0E9CFE5F000C0EEF08DDF66
:100E4000E6C0EAFFE5C0E9FFEE50ECADDFD7000CED
:100E5000B60E006E036A026A016AE551E611E711F7
:100E6000E81102E1006A0DD0D89001BE09D0E53743
:100E7000E637E737E837033602360136002EF4D777
:100E8000019E95EF0BF001014F51D8B471D0006E67
:100E90005351D8B46DD0002604E3810E002668E2D9
:100EA00004D07F0E005E64E363E050C157F15451FB
:100EB000571B508F548F52515603F4CF59F1515153
:100EC0005503F4CF03F0F3CF58F15603F3505927ED
:100ED000F4505823000E032252515503F350592762
:100EE000F4505823000E026A032202225051560386
:100EF000F3505827F4500322000E0222505155039C
:100F0000F3500326F4500222000E016A01225251CE
:100F10005403F3505827F4500322000E02220122FA
:100F200051515403F3500326F4500222000E0122C3
:100F300050515403F3500226F4500122002A01BEFE
:100F400005D058370336023601360006000E58AF7A
:100F50000AD0032A02220122015005E1025003E1D6
:100F6000035001E1002A57BF018E57AF019E04D004
:100F7000006A016A026A036A0001000C01014B5118
:100F8000D8B4A5D0576F4F51D8B4A1D0575F05E35F
:100F90007F0E5727D8B09BD006D0810E575FD8A0C0
:100FA00096D0D8B494D057C100F0016A026A036A9F
:100FB000566B4CC155F1558F4DC154F14EC153F193
:100FC000190E576F5251535F0DE2010E545F0AE242
:100FD000555F08E2565F06E2562B552B542B5251B3
:100FE000532728D05151545F12E2010E555F0FE292
:100FF000565F0DE2562B552B515154275251532712
:1010000019E3542B17E1552B15E1562B13D05051F2
:101010008009555F0EE2010E565F0BE2562B5051D0
:101020008009552751515427E9E3552BE7E1562B09
:10103000E5D70380572F01D00BD0D89053375437C2
:1010400055375637D8900336023601365837BAD757
:1010500058A106D0D890013202320332583302D060
:10106000000635E058BF1ED0D89053375437553757
:1010700056375251535F07E2010E545F04E2555F49
:1010800002E2565F1AE35151545F05E2010E555FCB
:1010900002E2565F12E350518009555F03E2010EF0
:1010A000565F0BE3032A09E1022A07E1012A05E161
:1010B000002A0DE00132023203324CC157F1505187
:1010C000571B57AF02D0018E06D0019E04D0006A94
:1010D000016A026A036A0001000C800ED8A202D0E5
:1010E0000101561B01015B6B5C6B52C15AF15651F9
:1010F0005A1B5151D8B4DFD0596F006E5551D8B436
:10110000E3D0595FD8B483D03EE356C15FF15F8F1F
:1011100057C15EF158C15DF15C6BD8905F335E33AF
:101120005D335C33592FF8D75AAF03D05B81E0D0E1
:101130005B9159915B89010EEA6E540EE96EEBD01A
:101140005B995ABF0AD059A113D05F335E335D3328
:101150005C33002AD8B4C7D00BD05FBF0CD0D89076
:101160005C375D375E375F370006D8B4BCD0F5D743
:101170005B8D6DD05B9D52C15AF152AF02D05F8F33
:10118000ABD05F9FA9D055C159F155C100F0515165
:10119000595F52C15FF15F8F53C15EF154C15DF180
:1011A0005C6BD8905F335E335D335C33592FF8D777
:1011B0005AAF03D05B839CD05B9359915B8B010E3C
:1011C000EA6E580EE96EA7D05B9B5ABF0AD059A1B0
:1011D00013D05F335E335D335C33002AD8B483D0E1
:1011E0000BD05FBF0CD0D8905C375D375E375F3770
:1011F0000006D8B478D0F5D75B8F29D05B9F56C155
:101200005AF156AF02D05F8F67D05F9F65D056C14D
:101210005FF15F8F57C15EF158C15DF15AAF04D0E5
:101220005F9F5B8565D05B955C6B5991010EEA6EA3
:10123000540EE96E70D05ABF1CD052C15AF159A158
:1012400006D05F335E335D335C33002A4CE05CAF25
:101250000BD05D2B09E15E2B07E15F2B05E15F33CE
:101260005E335D33002A3FE05BBD84D75BBFC6D7EA
:101270001CD0800E5F1B5FAF04D03AD056C15AF12C
:101280000AD052C15AF15F5306E15E5304E15D5347
:1012900002E1006A21D05FBF08D0D8905C375D378B
:1012A0005E375F37002EF7D71ED05AAF02D05F8F60
:1012B00013D05F9F11D055C100F056C15FF157C1E7
:1012C0005EF158C15DF108D051C100F052C15FF12B
:1012D00053C15EF154C15DF15FC101F05EC102F026
:1012E0005DC103F034D0006A016A026A036A2FD03C
:1012F0005C6B5D1F5E1F5F1F5C1F5C2B05E15D2B40
:1013000003E15E2B01E15F2B5BB112D75BB354D7D6
:101310005BB589D7B3D7EF505D2705E35E2B03E1BB
:101320005F2BD8B45981ED52EF505E2703E35F2B5A
:10133000D8B45981ED52EF50EFBE01D0800A5F273B
:10134000D8B059815BB9FCD65BBB3ED774D70001DE
:10135000000CE951B608E96F036AEAC0EDF0EA8FC4
:10136000D890EA33EB33EC330332023201320032ED
:10137000E92FF6D7EDAF0BD0001E011E021E031E93
:10138000002AD8B4012AD8B4022AD8B4032ADEEF3E
:101390000BF00101026B036B010E046FDA6AD96A6C
:1013A000076BFA0E066FEA6AFE0EE96E07C1E2FFEE
:1013B00006C1E1FF04C105F1D890E550EE02F350FB
:1013C0000223F4500323052FF7D702C1DEFF03C128
:1013D00002F1036BD8B0032B062BD8B4072B042BD8
:1013E00004510508E0E10001000C0101015105195B
:1013F000800B0B6F01AF14D00001FE1FFF1F010116
:10140000001F011F0001FE2BD8B4FF2BD8A403D06E
:101410000101002B0001D8A402D00101012B010120
:1014200005AF0BD0021F031F041F051F022BD8B4EA
:10143000032BD8B4042BD8B4052B006A016A026AC6
:10144000036A066B076B086B096B055104110311E6
:1014500002112EE0200E0A6FD8900001FE37FF37F0
:1014600001010037013706370737083709370551BB
:10147000095D08E10451085D05E10351075D02E1E2
:101480000251065D0FE30251065F0351D8A0033DF0
:10149000075F0451D8A0043D085F0551D8A0053D61
:1014A000095FD88000360136023603360A2FD4D7BA
:1014B0000BAF0BD0001E011E021E031E002AD8B463
:1014C000012AD8B4022AD8B4032A010EEA6E060E05
:1014D000E96E0001000C010EF26FF36BF46BF56B1B
:1014E000F76BF86BEEBF01D01AD0010EF76FEEC0AC
:1014F000FDF0EDC0FCF0ECC0FBF0EBC0FAF0FF0E2D
:101500000101016F006F0001FF6FFE6F42DF03C03A
:10151000EEF002C0EDF001C0ECF000C0EBF0F253D1
:1015200007E1F35305E1F45303E1F553D8B479D05F
:10153000EEC001F1EDC000F1ECC0FFF0EBC0FEF039
:101540000101056B046B036BEFC002F100014DDF7D
:1015500003C0F5F002C0F4F001C0F3F000C0F2F0F7
:10156000036AF851F025016EF151032201C0FAF02F
:1015700003C0FBF0EACFFDF0E9CFFCF0EEC001F1D3
:10158000EDC000F1ECC0FFF0EBC0FEF00101056B17
:10159000046B036BEFC002F1000127DFEFCF00F017
:1015A000ECCF01F0ECCF02F0ECCF03F0FDC0EAFF8E
:1015B000FCC0E9FF03C001F102C000F101C0FFF06F
:1015C00000C0FEF0300E0024006E000E0120000E60
:1015D00001010220000E0320FBC0EAFFFAC0E9FF70
:1015E00000C0EFFF036A0001F851F025E96EF151E8
:1015F0000320EA6EEF5039080AE2036AF851F02539
:10160000E96EF1510320EA6E070EEF24EF6EF82B1E
:10161000F5C0EEF0F4C0EDF0F3C0ECF0F2C0EBF08A
:101620007ED7F72D0AD0036AF851F025E96EF15103
:101630000320EA6E2D0EEF6EF82BF66BD890F83182
:10164000F65D2FE2036AF651F025E96EF1510320B1
:10165000EA6EEFCFF9F0036AF651F025016EF15111
:10166000032203C0FBF0F651F85DFF0F036AF0257B
:10167000E96EF1510320EA6EEFCFFEF0FBC0EAFF06
:1016800001C0E9FFFEC0EFFFF651F85DFF0F036AEE
:10169000F025E96EF1510320EA6EF9C0EFFFF62B59
:1016A000CDD7036AF851F025E96EF1510320EA6EB7
:1016B000EF6AF0C001F0F1C002F0000CE8C0EAF0FF
:1016C000E7C0E9F0EAC003F0E9C0E9FFEAC0EAFFD9
:1016D000EF5204E0E92BD8B4EA2BF4D7E751E95DE7
:1016E000006EE851EA59036E00C001F0000CE96B8E
:1016F000E851E95D0FE2036AE951E625E96EE75139
:101700000320EA6EEFCFEAF0EAC0EEF0ADEC06F0AF
:10171000E92BEED7000C27C0E8F026C0E7F025C083
:10172000E6F024C0E5F028EF07F003C052F102C054
:1017300051F101C050F100C04FF10101566B556BE2
:10174000546B7F0E536F000143EC07F000C0E5F0CF
:1017500001C0E6F002C0E7F003C0E8F003C04EF1BC
:1017600002C04DF101C04CF100C04BF10101526BC0
:10177000C00E516F280E506F8F0E4F6F0001BEECE0
:1017800007F0D892790E0101546FDA0E536F150EDF
:10179000526F940E516F03C058F102C057F101C04F
:1017A00056F100C055F1000198DC03C0ECF002C016
:1017B000EBF001C0EAF000C0E9F0CBD503C079F04E
:1017C00002C078F001C077F000C076F02C0E7625CC
:1017D0007A6F7D0E77217B6F000E78217C6F000E73
:1017E00079217D6F186AF2BE188EF29E7DC0F5F0E9
:1017F0007CC0F4F07BC0F3F07AC0F2F0F96B020E1B
:10180000F86F3A0EF76FB10EF66FB5EC01F018BE37
:10181000F28E03C081F002C080F001C07FF000C0F2
:101820007EF0186AF2BE188EF29E7DC0F5F07CC084
:10183000F4F07BC0F3F07AC0F2F0F96B020EF86FAF
:101840003A0EF76FB10EF66FB5EC01F018BEF28EDE
:10185000EFCF82F0ECCF83F0ECCF84F0ECCF85F0CB
:10186000186AF2BE188EF29E85C0F5F084C0F4F0BE
:1018700083C0F3F082C0F2F0F96BF86B8E0EF76F55
:10188000AC0EF66FB5EC01F018BEF28E03C0E8F0B6
:1018900002C0E7F001C0E6F000C0E5F0010E002450
:1018A000E96F000E0120EA6F000E0220EB6F000EC0
:1018B0000320EC6FFD6FEBC0FCF0EAC0FBF0E9C069
:1018C000FAF00101016B006B0001FF6B030EFE6F6C
:1018D00060DD0330896F0230886F0130876F003020
:1018E000866F89338833873386333F0E891789C0E3
:1018F000FDF088C0FCF087C0FBF086C0FAF0010163
:10190000016B006B8E0E0001FF6FAC0EFE6F41DDB0
:101910000050825D8A6F015083598B6F0250845949
:101920008C6F035085598D6F186AF2BE188EF29E27
:101930008DC0F5F08CC0F4F08BC0F3F08AC0F2F0EB
:10194000F96BF86B050EF76FB50EF66FB5EC01F09D
:1019500018BEF28E03C091F002C090F001C08FF06B
:1019600000C08EF0186AF2BE188EF29E8DC0F5F09F
:101970008CC0F4F08BC0F3F08AC0F2F0F96BF86B16
:10198000050EF76FB50EF66FB5EC01F018BEF28ECE
:10199000EFCF92F0ECCF93F0ECCF94F0ECCF95F04A
:1019A000186AF2BE188EF29E95C0F5F094C0F4F05D
:1019B00093C0F3F092C0F2F0F96BF86B010EF76F81
:1019C0006D0EF66FB5EC01F018BEF28E03C0E8F0B4
:1019D00002C0E7F001C0E6F000C0E5F0010E00240F
:1019E000E96F000E0120EA6F000E0220EB6F000E7F
:1019F0000320EC6FFD6FEBC0FCF0EAC0FBF0E9C028
:101A0000FAF00101016B006B0001FF6B030EFE6F2A
:101A1000C0DC0330996F0230986F0130976F00304F
:101A2000966F99339833973396333F0E991799C031
:101A3000FDF098C0FCF097C0FBF096C0FAF00101F1
:101A4000016B006B010E0001FF6F6D0EFE6FA1DCDC
:101A50000050925D9A6F015093599B6F02509459B8
:101A60009C6F035095599D6F81C0FDF080C0FCF0C4
:101A70007FC0FBF07EC0FAF00101016B006B010E2C
:101A80000001FF6F900EFE6F84DC03C0E8F002C01F
:101A9000E7F001C0E6F000C0E5F089C0FDF088C0C5
:101AA000FCF087C0FBF086C0FAF00101016B006B0F
:101AB0000001FF6B640EFE6F6CDC0050E525E96FE2
:101AC0000150E621EA6F0250E721EB6F0350E82155
:101AD000EC6F8E35006E8F35016E9035026E91354C
:101AE000036E0036013602360336FC0E0016005037
:101AF000E925ED6F0150EA21EE6F0250EB21EF6F07
:101B00000350EC21F06F9651ED259E6F9751EE2119
:101B10009F6F9851EF21A06F9951F021A16F9DC047
:101B2000FDF09CC0FCF09BC0FBF09AC0FAF00101F4
:101B3000016B006B0001FF6B050EFE6F2ADC03C01A
:101B4000E8F002C0E7F001C0E6F000C0E5F0340EB6
:101B50000024E96F010E0120EA6F000E0220EB6FF6
:101B6000000E0320EC6F186AF2BE188EF29EF56F1D
:101B7000EBC0F4F0EAC0F3F0E9C0F2F0F96BF86BF7
:101B8000F76B990EF66FB5EC01F018BEF28E020EEF
:101B9000005CA26F000E0158A36F000E0258A46FE4
:101BA000000E0358A56F040EA225E56F000EA321B9
:101BB000E66F000EA421E76F000EA521E86FFD6F10
:101BC000E7C0FCF0E6C0FBF0E5C0FAF00101016BF4
:101BD000006B0001FF6B990EFE6FC9EC09F003C0AA
:101BE000E9F002C0E8F001C0E7F000C0E6F0186AD2
:101BF000F2BE188EF29E03C0F5F002C0F4F001C0F0
:101C0000F3F000C0F2F0F96BF86BF76B050EF66FAE
:101C1000B5EC01F018BEF28E00509A5DE76F0150EE
:101C20009B59E86F02509C59E96F03509D59EA6F28
:101C30007A0EE725A66F000EE821A76F000EE921B6
:101C4000A86F000EEA21A96FC00E9E5DE56F120E0F
:101C50009F59E66F000EA059E76F000EA159E86F7B
:101C6000020EA225E96F000EA321EA6F000EA42147
:101C7000EB6F000EA521EC6F186AF2BE188EF29E73
:101C8000F56FEBC0F4F0EAC0F3F0E9C0F2F0F96BE5
:101C9000F86BF76B0C0EF66FB5EC01F018BEF28E18
:101CA0000050E525AA6F0150E621AB6F0250E721F5
:101CB000AC6F0350E821AD6F020EA225E56F000E58
:101CC000A321E66F000EA421E76F000EA521E86FA7
:101CD000186AF2BE188EF29EF56FE7C0F4F0E6C007
:101CE000F3F0E5C0F2F0F96BF86BF76B0C0EF66FE2
:101CF000B5EC01F018BEF28EEFCFE6F0ECCFE7F0D6
:101D0000ECCFE8F0ECCFE9F0010EE625AE6F000E67
:101D1000E721AF6F000EE821B06F000EE921B16F2F
:101D2000010EA625B26F000EA721B36F000EA821E9
:101D3000B46F000EA921B56F700E2424E56F620EFA
:101D40002520E66F000E2620E76F000E2720E86FA3
:101D5000186AF2BE188EF29EF56FE7C0F4F0E6C086
:101D6000F3F0E5C0F2F0F96B010EF86F510EF76F6A
:101D7000800EF66FB5EC01F018BEF28EEFCFB6F024
:101D8000ECCFB7F0ECCFB8F0ECCFB9F0EA6A300E98
:101D9000E96EF2CFE5F0F29E000E55EC00F00A007D
:101DA0000900F550EE6E0009FBE1E5BFF28EEE6B27
:101DB000ED6BEC6BB2C0EBF00A0EEF6FF16B440E03
:101DC000F06F6BEC0AF0E86B440EE76F77DC012CE8
:101DD00003D044C031F00CD0EA6A300EE96EE26AFA
:101DE000440EE16E020E016EE6CFEEFF012EFCD72F
:101DF000EE6BED6BEC6BAEC0EBF00A0EEF6FF16BC0
:101E0000440EF06F6BEC0AF0E86B440EE76F56DCA3
:101E1000012C03D044C034F00CD0EA6A330EE96ED2
:101E2000E26A440EE16E020E016EE6CFEEFF012E75
:101E3000FCD7186AF2BE188EF29EADC0F5F0ACC0A9
:101E4000F4F0ABC0F3F0AAC0F2F0F96BF86B070E38
:101E5000F76FD00EF66FB5EC01F018BEF28EEFCF33
:101E600000F0ECCF01F0ECCF02F0ECCF03F000C0BB
:101E7000E5F0EE6BED6BEC6B00C0EBF00A0EEF6F74
:101E8000F16B440EF06F6BEC0AF0E86B440EE76FF9
:101E900015DC012C03D044C037F00CD0EA6A360EB2
:101EA000E96EE26A440EE16E020E016EE6CFEEFFCD
:101EB000012EFCD7EF6BF06B9AEC06F0E86B300E5E
:101EC000E76F5EEC0BF001C0E5F0E76B300EE66FFC
:101ED00001C0E8F00CDCEA6A300EE96EF2CFE5F002
:101EE000F29E000E67EC00F00A000900F550EE6E5D
:101EF0000009FBE1E5BFF28E186AF2BE188EF29E71
:101F0000B9C0F5F0B8C0F4F0B7C0F3F0B6C0F2F065
:101F1000F96BF86B0E0EF76F100EF66FB5EC01F063
:101F200018BEF28E00C0E5F0EE6BED6BEC6B00C0FE
:101F3000EBF00A0EEF6FF16B440EF06F6BEC0AF0F2
:101F4000E86B440EE76F5EEC0BF00150020822E3F1
:101F5000E86B440EE76F5EEC0BF0320ED880015454
:101F6000E56F000ED8A0E806E66FE86B440EE76F59
:101F70005EEC0BF001C0E7F0E6C0EAFFE5C0E9FF68
:101F8000E26A440EE16E0150016E04E0E6CFEEFF1E
:101F9000012EFCD7186AF2BE188EF29EB9C0F5F079
:101FA000B8C0F4F0B7C0F3F0B6C0F2F0F96BF86B5C
:101FB0000E0EF76F100EF66FB5EC01F018BEF28E34
:101FC000EFCFE5F0ECCFE6F0ECCFE7F0ECCFE8F0C8
:101FD000EACFEAF0E9CFE9F0186AF2BE188EF29E75
:101FE000E8C0F5F0E7C0F4F0E6C0F3F0E5C0F2F0C9
:101FF000F96BF86BF76B3C0EF66FB5EC01F018BEA1
:10200000F28EEAC0EAFFE9C0E9FF00C0E6F0EE6B3D
:10201000ED6BEC6B00C0EBF00A0EEF6FF16B440E52
:10202000F06F6BEC0AF0E86B440EE76F5EEC0BF0C0
:102030000150020822E3E86B440EE76F5EEC0BF000
:10204000350ED8800154E56F000ED8A0E806E66F83
:10205000E86B440EE76F5EEC0BF001C0E7F0E6C002
:10206000EAFFE5C0E9FFE26A440EE16E0150016E4D
:1020700004E0E6CFEEFF012EFCD7186AF2BE188E00
:10208000F29EB9C0F5F0B8C0F4F0B7C0F3F0B6C036
:10209000F2F0F96BF86BF76B3C0EF66FB5EC01F0F4
:1020A00018BEF28EEFCF00F0ECCF01F0ECCF02F0D3
:1020B000ECCF03F000C0E5F0EE6BED6BEC6B00C015
:1020C000EBF00A0EEF6FF16B440EF06F6BEC0AF061
:1020D000E86B440EE76F5EEC0BF00150020822E360
:1020E000E86B440EE76F5EEC0BF0380ED8800154BD
:1020F000E56F000ED8A0E806E66FE86B440EE76FC8
:102100005EEC0BF001C0E7F0E6C0EAFFE5C0E9FFD6
:10211000E26A440EE16E0150016E04E0E6CFEEFF8C
:10212000012EFCD70A0EEF6FF06B9AEC06F0E86B0D
:10213000300EE76F5EEC0BF001C0E5F0E76B300EA0
:10214000E66F01C0E8F077EC0BF0000CDE6BDF6BA4
:10215000E06BE16BE26BE36B050EE46F93988A989A
:1021600093908A9093928A9293948A9493968A9663
:1021700094928B92DC5302E193988A8894928B829A
:1021800093908A800A0EEF6FD1EC02F092841F9434
:1021900080B41F8427C02BF026C02AF025C029F068
:1021A00024C028F027C02FF026C02EF025C02DF027
:1021B00024C02CF0E36BE26B2850245C006E2950A5
:1021C0002558016E2A5026582B50275801C0DFF0A1
:1021D00000C0DEF02C50245C006E2D502558016E9E
:1021E0002E5026582F50275801C0E1F000C0E0F0D3
:1021F000D951DF5D05E303E1D851DE5D01E373D022
:10220000D751E35D06E303E1D651E25D02E393902B
:102210008A90DB51E15D05E303E1DA51E05D01E322
:1022200062D0DD5305E01FB002D01FA601D05BD005
:10223000000E1FB4010EE56F9284000E80B4010EF3
:10224000E55D4BE027C02FF026C02EF025C02DF015
:1022500024C02CF092841F9480B41F84DC5308E1C6
:10226000725302E1735304E07251D8B473077207DA
:10227000DC530AE07351BF5D07E303E1BE51725DB9
:1022800003E2722BD8B4732B010EE227000EE32376
:10229000100EEF6F020EF06F9AEC06F0E251010B98
:1022A000E56FE66BE55307E1E65305E12F0EEE6FB0
:1022B000ADEC06F004D05C0EEE6FADEC06F0110E46
:1022C000EF6F020EF06F9AEC06F00A0EE96E73C023
:1022D000E6F072C0E5F0CFEC06F01FA203D01F922B
:1022E0008BEC0BF069D70A0EE96E73C0E6F072C092
:1022F000E5F0CFEC06F093908A9093928A929394B3
:102300008A9493968A9694928B9293988A98E2C034
:1023100001F0E3C002F0000CEACFDDF0E9CFDCF021
:10232000D6AF08D0DC8FDCA9DC2BD51FD61FD52B70
:10233000D8B4D62BD639F009D86FD827E20FD96F89
:10234000320FDB6FD6510F0BD927D927DB27E90FC7
:10235000DA6FDA27DA27D5390F0BDA27DB27DA37F6
:10236000DB37DB1FDB37D5510F0BDB27D837070EE9
:10237000D76F0A0EDA07DB27FDE3D907DA27FDE37B
:10238000D807D927FDE3D707D827FDE3EA6AD70E98
:10239000E96E070EDC15DC9DE906DC1507E1DCB90A
:1023A000E92ADCB903D0200E006E1CD0E926DB0E32
:1023B000E95CD8B4DC8DEF50006E08E1DCBD06D0DE
:1023C000DCB914D0DCB702D0200E0BD0DCAF06D0C5
:1023D0002D0E006EED50DC9DDC9F04D0DC87DC9977
:1023E000300E002600509EA8FED7AD6EEE50DCAD3C
:1023F000DED7000C929289928B8A949A94968B865F
:1024000094968B968B8A949A94968B8694968B96B8
:102410008B9A949A94968B8694968B968B8A949AA0
:1024200094968B8694968B968B9A949A94968B8698
:1024300094968B968B8A949A94968B8694968B9688
:102440008B8A949A94968B8694968B968B8A949A80
:1024500094968B8694968B96FC6BFC3D01D062D053
:10246000FB6B94968B869488000E82B8010EFB2736
:1024700094968B9694968B86D890FB379488000E12
:1024800082B8010EFB2794968B9694968B86D890F3
:10249000FB379488000E82B8010EFB2794968B962A
:1024A00094968B86D890FB379488000E82B8010EE4
:1024B000FB2794968B9694968B86D890FB379488BE
:1024C000000E82B8010EFB2794968B9694968B860D
:1024D000D890FB379488000E82B8010EFB279496A3
:1024E0008B9694968B86D890FB379488000E82B892
:1024F000010EFB2794968B9694968B86D890FB378B
:102500009488000E82B8010EFB2794968B96FBAF41
:1025100001D008D0A60E006E002EFED700000400E9
:10252000FC2B9BD792928982000CFC07FBC000F029
:10253000FC51016E04E0D8900032012EFCD700500F
:10254000010B02E18B9A01D08B8A949A94968B8628
:1025500094968B96FC53E9E1000CFD07FCC0FFF05C
:10256000FBC0FEF0FD51006E05E0D890FF33FE3356
:10257000002EFBD7FE51010B006E036A00500310C2
:1025800002E18B9A01D08B8A949A94968B869496CA
:102590008B96FD53E2E1000CF29CF29EF2BEFDD759
:1025A0000400D190929289829EAA04D09EAAFED75E
:1025B000AE50FAD7D96BD86B010ED425016E000E40
:1025C000D521036ED951035C4FE303E10150D85D7F
:1025D0004BE210DFDA6BDA5179EC00F0DA2B006EA7
:1025E00000509EA8FED7AD6E040EDA5DF4E1929223
:1025F0008992D851010B006E036A0050031006E067
:10260000820EFB6F080EFC6F90DF05D0850EFB6F0E
:10261000080EFC6F8ADF0A0ED825DA6F000ED9216A
:10262000DB6FFC6FDAC0FBF00F0EFD6F96DFFC6B0B
:10263000FB6B090EFD6F91DFD76BD66BD75100088E
:102640000DE39EAAFED7AECFDAF0DAC0FBF0080E9B
:10265000FC6F6BDFD62BD8B4D72BF0D79292898240
:10266000D82BD8B4D92BA8D7C00EF2120400D18031
:1026700057EF1AF0EBBF10D00F0E006EEA390016BC
:102680000A0E005C03E2300E002602D0EB51002659
:1026900000509EA8FED7AD6E0F0EEA170A0EEA5D37
:1026A00002E2300E02D0EB9FEB51EA27EA519EA8DE
:1026B000FED7AD6E000C0101006B0001FF6B010144
:1026C00000510001FE5D31E303E1FD51FF5D2DE2AC
:1026D0000101026B016B025320E1015107081DE368
:1026E00094968B860001FF51FB250101036F005179
:1026F0000001FC210101046F948882B802D0D890B7
:1027000001D0D88004C1EAFF03C1E9FFEF369496F7
:102710008B96012BD8B4022BDED70001FF2BD8A457
:1027200003D00101002B0001CAD7000C63DE929296
:102730008992D20EFB6F080EFC6FF7DEF5C0FCF03D
:10274000F4C0FBF00F0EFD6F08DFFB6B010EFC6F9A
:10275000ECDEF6C0FBF0080EFC6FE7DEFB6B100E44
:10276000FC6FE3DEFB6B100EFC6FDFDEF8C0FCF0ED
:10277000F7C0FBF0FAC0FEF0F9C0FDF09CDF9292CA
:102780008982000CE76BE7510F0844E30D0E9EA809
:10279000FED7AD6E0A0E9EA8FED7AD6EE7C0EAF07A
:1027A000370EEB6F67DF200E9EA8FED7AD6E3A0E98
:1027B0009EA8FED7AD6E200E9EA8FED7AD6EE75147
:1027C000100DF3CFE9F0D5C0F5F0D4C0F4F0E9C0B6
:1027D000F6F0F86BD60EF76FFA6B100EF96FA6DFF6
:1027E000E86BE8510F0814E3036AE851D60FE96E6D
:1027F000000E0320EA6EEFCFE9F0E9C0EAF0370EF1
:10280000EB6F38DF200E9EA8FED7AD6EE82BE9D720
:10281000E72BB9D74BEF18F0D26BD23D01D019D0CE
:10282000E9DD92928992500EFB6F080EFC6F7DDEFF
:10283000FB6B040EFC6F79DED2C0FBF0080EFC6F60
:1028400074DEFB6B0C0EFC6F70DE92928982D22BD1
:10285000E4D7D0DD57EF1AF0DA6BD86B0A0ED96FD8
:10286000D76BD66BD56BD46BD251D31105E1006A0F
:10287000016A026A036A3DD1DA51DA2B036AD22572
:10288000E96ED3510320EA6EEFCFDBF0DB512D0868
:102890000DE1010ED86FDA51DA2B036AD225E96E09
:1028A000D3510320EA6EEFCFDBF00DD0DB512B08C4
:1028B0000AE1DA51DA2B036AD225E96ED3510320FB
:1028C000EA6EEFCFDBF0DB512F08D8B0FAD0DB5146
:1028D0003908D8A0F6D0DB51300821E1036ADA517B
:1028E000D225E96ED3510320EA6EEF5078080AE052
:1028F000036ADA51D225E96ED3510320EA6EEF5014
:1029000058080DE1100ED96FDA2BDA51DA2B036A71
:10291000D225E96ED3510320EA6EEFCFDBF0D95117
:102920000A0844E1DB512F0840E2DB5139083DE35E
:10293000D890D435DD6FD535DE6FD635DF6FD7351E
:10294000E06FD435006ED535016ED635026ED735C1
:10295000036E003601360236033600360136023683
:102960000336F80E0016DD510026DE510122DF513C
:102970000222E051032203C0D7F002C0D6F001C00A
:10298000D5F000C0D4F0300EDB5DD427000ED52387
:10299000D623D723DA51DA2B036AD225E96ED35135
:1029A0000320EA6EEFCFDBF0BDD78BD0D9511008F2
:1029B000D8A487D0DB51600806E2DB517A0803E334
:1029C000DB51DF0B01D0DB51DB6FDB512F0803E262
:1029D000DB51390807E2DB514008D8B072D0DB5137
:1029E00046086FE3DB512F082DE2DB5139082AE35B
:1029F000D435DD6FD535DE6FD635DF6FD735E06F77
:102A0000DD37DE37DF37E037DD37DE37DF37E0371A
:102A1000DD37DE37DF37E037F00EDD17300EDB5DF8
:102A2000DD25006E000EDE21016E000EDF21026E3C
:102A3000000EE021D76F02C0D6F001C0D5F000C073
:102A4000D4F02AD0D435DD6FD535DE6FD635DF6FC3
:102A5000D735E06FDD37DE37DF37E037DD37DE379C
:102A6000DF37E037DD37DE37DF37E037F00EDD17F1
:102A7000410EDB5D0A0FDD25006E000EDE21016ECA
:102A8000000EDF21026E000EE021D76F02C0D6F0EB
:102A900001C0D5F000C0D4F0DA51DA2B036AD22598
:102AA000E96ED3510320EA6EEF50DB6F600806E257
:102AB000DB517A0803E3DB51DF0B01D0DB51DB6F25
:102AC00084D7D9510A080DE1D82D0BD0D41FD51FBA
:102AD000D61FD71FD42BD8B4D52BD8B4D62BD8B467
:102AE000D72BD4C000F0D5C001F0D6C002F0D7C0BB
:102AF00003F08AEF18F0700EE225E66F620EE32114
:102B0000E76F000EE421E86F000EE521E96F186A17
:102B1000F2BE188EF29EF56FE8C0F4F0E7C0F3F055
:102B2000E6C0F2F0F96B010EF86F510EF76F800EF0
:102B3000F66FB5EC01F018BEF28E03C0EAF002C0E9
:102B4000E9F001C0E8F000C0E7F0186AF2BE188EA4
:102B5000F29E03C0F5F002C0F4F001C0F3F000C033
:102B6000F2F0F96BF86B050EF76FB50EF66FB5EC7A
:102B700001F018BEF28EEFCF00F0ECCF01F0ECCFF9
:102B800002F0ECCF03F001C002F000C001F0000C35
:102B9000D890E331EF6FE231EE6F0A0EEE25F06F61
:102BA000000EEF21F16FE251010B006E036A026E1D
:102BB0000034F26F0334F36FF237F337F237F33741
:102BC000F237F337F237F337F237F337F237F337B9
:102BD000800EF217F1C0F5F0F0C0F4F0F2C0F6F09C
:102BE000F86BE40EF76FFA6B040EF96F9FDDEA6A7B
:102BF000EA0EE96EE26AE40EE16E040E016EE6CFC3
:102C0000EEFF012EFCD7EAC000F0EBC001F0ECC0F3
:102C100002F0EDC003F0000CFAEC11F092928992F0
:102C2000D10EFB6F080EFC6F80DCFC6BFB6B100E93
:102C3000FD6F93DCFB6B080EFC6F77DCFF0ED36F30
:102C4000FC6BD20EFB6FFE6B010EFD6F34DDD32BE0
:102C5000D3510F0B15E10D0E9EA8FED7AD6E0A0ED7
:102C60009EA8FED7AD6E200E9EA8FED7AD6ED3C037
:102C7000EAF0370EEB6FFEDC3A0E9EA8FED7AD6E83
:102C8000D2C0EAF0370EEB6FF5DC200E9EA8FED71F
:102C9000AD6ED33DD5D7929289827EEF19F0016A4D
:102CA000026A006A036AD75102E1D65118E0100E99
:102CB000D86FD890D437D53700360336D751035C58
:102CC00002E1D651005C07E3D651005ED8A00306AE
:102CD000D751035ED88001360236D82FEAD7000CD0
:102CE000E950D76F3B0EDE6F9A0EDD6FCA0EDC6FB8
:102CF000DB6B0A0ED96F186AF2BE188EF29ED6C030
:102D0000F5F0D5C0F4F0D4C0F3F0D3C0F2F0DEC0DB
:102D1000F9F0DDC0F8F0DCC0F7F0DBC0F6F0B5ECA0
:102D200001F018BEF28E0150EFCFD3F0ECCFD4F00B
:102D3000ECCFD5F0ECCFD6F000520FE1D951010A1B
:102D40000CE0D7510BE00F0BD95D01E00DE2D7BFCE
:102D50000BD0D7BD03D0200E02D0D76B300E00268B
:102D600000509EA8FED7AD6E186AF2BE188EF29E75
:102D7000DEC0F5F0DDC0F4F0DCC0F3F0DBC0F2F053
:102D8000F96BF86BF76B0A0EF66FB5EC01F018BE35
:102D9000F28E03C0DEF002C0DDF001C0DCF000C046
:102DA000DBF0D92FA8D704EF1AF0FAEC11F09292C9
:102DB0008992840EFB6F080EFC6F95EC12F0FC6B91
:102DC000FB6B100EFD6FADEC12F0DEC0FBF0080ED9
:102DD000FC6F95EC12F0DF5101080DE2FF0EE06F81
:102DE000DDC0FBF0080EFC6F95EC12F0E02BDF511C
:102DF000E05DF6E106D0DDC0FBF0080EFC6F95EC5F
:102E000012F092928982000C1F96630E585CE90FB3
:102E1000D8B04DD3170F58EF1AF0EA6A580EE96E82
:102E2000E26A590EE16E120E016EE6CFEEFF012E40
:102E3000FCD7D36B580ED26FA6EC05F002C0D3F0CE
:102E400001C0D2F0D25303E1D35301E130D3D36BAD
:102E5000580ED26FA6EC05F002C0D3F001C0D2F03C
:102E6000D890C435D46FC535D56F02C0D7F001C036
:102E7000D6F0230ED96F280ED86FD5C0DBF0D4C0A2
:102E8000DAF0010EDC6FDD6BA6EC10F010D3EA6A0D
:102E9000580EE96EE26A590EE16E120E016EE6CF2F
:102EA000EEFF012EFCD7D36B580ED26FA6EC05F0C7
:102EB00002C0D3F001C0D2F0D25303E1D35301E1F9
:102EC000F6D2D36B580ED26FA6EC05F002C0D3F049
:102ED00001C0D2F0D890C435D46FC535D56F02C0CB
:102EE000D7F001C0D6F0230ED96F280ED86FD5C009
:102EF000DBF0D4C0DAF0DC6BDD6BA6EC10F0D7D2DF
:102F0000EA6A580EE96EE26A590EE16E120E016E1F
:102F1000E6CFEEFF012EFCD7D36B580ED26FA6EC96
:102F200005F002C0D3F001C0D2F0012C08D0D35379
:102F300006E1840ED56EC56B040EC46F12D0D36B40
:102F4000580ED26FA6EC05F002C0D3F00150D26F3C
:102F5000020807E1D35305E1800ED56EC56B200E44
:102F6000C46FA5D2EA6A580EE96EE26A590EE16EA4
:102F7000120E016EE6CFEEFF012EFCD7D36B580E7A
:102F8000D26FA6EC05F002C0D3F001C0D2F0D2534C
:102F900003E1D35301E18BD2D36B580ED26FA6EC71
:102FA00005F002C0D3F001C0D2F0D46BD4519CEC38
:102FB00000F0D42B006E00509EA8FED7AD6E170E09
:102FC000D45DF4E1100EE96ED3C0D6F0D2C0D5F0D6
:102FD0008CEC11F01A0ED56FD5519CEC00F0D52B6E
:102FE000006E00509EA8FED7AD6E2C0ED55DF4E1AC
:102FF000D36B580ED26FA6EC05F002C0D3F001C01F
:10300000D2F002C0D5F001C0D4F0CCEF12F0F29CA7
:10301000F29EF2BEFDD70400D190EA6A580EE96E26
:10302000E26A590EE16E120E016EE6CFEEFF012E3E
:10303000FCD78484D36B580ED26FA6EC05F002C087
:10304000D3F001C0D2F0D46BD451C0EC00F0D42B3B
:10305000006E00509EA8FED7AD6E080ED45DF4E160
:10306000100EE96ED3C0D6F0D2C0D5F08CEC11F0C2
:103070003A0E9EA8FED7AD6ED36B580ED26FA6EC5B
:1030800005F002C0D3F001C0D2F002C0D5F001C0FB
:10309000D4F0C2EF13F0C00EF2120400D18007D2B8
:1030A000EA6A580EE96EE26A590EE16E120E016E7E
:1030B000E6CFEEFF012EFCD7D36B580ED26FA6ECF5
:1030C00005F002C0D3F00150D26F160802E1D353CD
:1030D00001E0EDD1D26BD251D4EC00F0D22B006ED6
:1030E00000509EA8FED7AD6E200ED25DF4E10CEF2D
:1030F00014F0EA6A580EE96EE26A590EE16E120E99
:10310000016EE6CFEEFF012EFCD7D36B580ED26FC7
:103110002CEF14F003C027F002C026F001C025F008
:1031200000C024F0F36B020EF46F33EC05F0186A64
:10313000F2BE188EF29E27C0F5F026C0F4F025C02E
:10314000F3F024C0F2F0070EF96F860EF86F1F0E31
:10315000F76F800EF66FB5EC01F018BEF28EEFCF70
:10316000D2F0ECCFD3F0ECCFD4F0ECCFD5F0D5C08B
:10317000E5F0D4C0E4F0D3C0E3F0D2C0E2F0BBDCB1
:1031800002C0D4F001C0D3F002C0E3F001C0E2F00D
:10319000FFDC03C0D7F002C0D6F001C0D5F000C0FC
:1031A000D4F0EACFD9F0E9CFD8F003C0FDF002C0E7
:1031B000FCF001C0FBF000C0FAF00101016B006BF4
:1031C000010E0001FF6FC20EFE6FC9EC09F0D9C0FD
:1031D000EAFFD8C0E9FF03C071F002C070F001C07F
:1031E0006FF000C06EF0F28AC00EF2121F80D26B38
:1031F0005FEC04F01F985BD1D890C435D26FC53511
:10320000D36F030ED76FE80ED66F230ED96F280E3B
:10321000D86FD3C0DBF0D2C0DAF0010EDC6FDD6B0B
:10322000A6EC10F0D890C435D26FC535D36F030E1D
:10323000D76FE80ED66F230ED96F280ED86FD3C084
:10324000DBF0D2C0DAF0DC6BDD6BA6EC10F002C074
:10325000BFF001C0BEF0010ED26F5FEC04F027D1C9
:10326000EA6A580EE96EE26A590EE16E120E016EBC
:10327000E6CFEEFF012EFCD7D36B580ED26FA6EC33
:1032800005F002C0D3F00150D26F160802E1D3530B
:1032900001E00DD1010ED26F5FEC04F008D1000EF9
:1032A000016EC250C70B0110C26E420E006E002E9E
:1032B000FED70000C284C2B4FED7C3CFC6F0C4CFCD
:1032C000C7F0D26BD251F2EC00F0D22B006E00505E
:1032D0009EA8FED7AD6E070ED25DF4E1100EE96E2A
:1032E000C7C0D7F0C6C0D6F00DEC04F0E0D0F29C19
:1032F000F29EF2BEFDD70400D1908ED4C00EF21221
:103300000400D180D4D0D26BD25105EC01F0D22B85
:10331000006E00509EA8FED7AD6E060ED25DF4E1A1
:10332000100EE96E73C0D7F072C0D6F00DEC04F049
:103330002F0E9EA8FED7AD6E100EE96EBFC0D7F05F
:10334000BEC0D6F00DEC04F0D26BD25119EC01F0F6
:10335000D22B006E00509EA8FED7AD6E0A0ED25D35
:10336000F4E1100EE96ECAC0D7F0C9C0D6F00DEC7A
:1033700004F0C7C0D5F0C6C0D4F0D76BC8C0D6F033
:103380008EDC02C0D3F001C0D2F0D46BD4512DEC4E
:1033900001F0D42B006E00509EA8FED7AD6E0A0E31
:1033A000D45DF4E1100EE96ED3C0D7F0D2C0D6F0F0
:1033B0000DEC04F0200E9EA8FED7AD6E280E9EA840
:1033C000FED7AD6EC8C0D5F01F0ED66FA5EC03F0CA
:1033D000290E9EA8FED7AD6ED26BD25144EC01F0FF
:1033E000D22B006E00509EA8FED7AD6E080ED25DA7
:1033F000F4E1410EE96E27C0D6F026C0D5F025C015
:10340000D4F024C0D3F06CD4186AF2BE188EF29EA9
:1034100027C0F5F026C0F4F025C0F3F024C0F2F088
:10342000070EF96F860EF86F1F0EF76F800EF66F9E
:10343000B5EC01F018BEF28EEFCFD2F0ECCFD3F0A6
:10344000ECCFD4F0ECCFD5F0D5C0E5F0D4C0E4F0AB
:10345000D3C0E3F0D2C0E2F07BEC15F002C0D4F0B0
:1034600001C0D3F0D56BD55157EC01F0D52B006ED0
:1034700000509EA8FED7AD6E070ED55DF4E1100E8C
:10348000E96ED4C0D7F0D3C0D6F00DEC04F00FD065
:10349000AA0EDD6FDE6BFF0EDF6F87DC08D09D901C
:1034A0000400D19004D09D80D180040000D0000C95
:1034B000F2CF0EF0F29EE824F76AF736D50FF66EDB
:1034C000340EF7220A00F550FA6E0800F5500EBED1
:1034D000F28EF96E9034642FA030AE34AE34F831F1
:1034E0000633AE34002FAE341A2E8E2EA634AE34F0
:1034F000AE340E306032F230AE34AE34EE329E3442
:103500009E329E989E9A9D9AAB9EAB98AC98AC9A30
:10351000030E006E002EFED7AB88AB8EAC8A9D8A60
:103520004CEF2FF0DAC0E5F0D9C0E4F0D8C0E3F0FA
:10353000D7C0E2F07BEC15F002C0DCF001C0DBF09C
:10354000DCC0E3F0DBC0E2F0C8EC15F003C0E5F04E
:1035500002C0E4F001C0E3F000C0E2F0EACFE7F01F
:10356000E9CFE6F003C0FDF002C0FCF001C0FBF0C3
:1035700000C0FAF00101016B006B010E0001FF6F4A
:10358000C20EFE6FC9EC09F0E7C0EAFFE6C0E9FF32
:1035900003C0E0F002C0DFF001C0DEF000C0DDF0EB
:1035A000186AF2BE188EF29EDAC0F5F0D9C0F4F0B7
:1035B000D8C0F3F0D7C0F2F0070EF96F860EF86F9F
:1035C0001F0EF76F800EF66FB5EC01F018BEF28E8D
:1035D000EFCF00F0ECCF01F0ECCF02F0ECCF03F036
:1035E0000350E05D0FE30BE10250DF5D0BE307E109
:1035F0000150DE5D07E303E1DD51005C03E2000EF4
:10360000016E97D0186AF2BE188EF29EDAC0F5F0FD
:10361000D9C0F4F0D8C0F3F0D7C0F2F0070EF96FBC
:10362000860EF86F1F0EF76F800EF66FB5EC01F087
:1036300018BEF28EEFCFE2F0ECCFE3F0ECCFE4F087
:10364000ECCFE5F0DD51E25DE66FDE51E359E76F67
:10365000DF51E459E86FE051E559E96FEACFEBF04B
:10366000E9CFEAF0186AF2BE188EF29EF56FE8C054
:10367000F4F0E7C0F3F0E6C0F2F0F96BF86B010E7E
:10368000F76FC20EF66FB5EC01F018BEF28EEBC00C
:10369000EAFFEAC0E9FF00C0CBF0CB517B0803E2B0
:1036A000FF0E016E46D0D890DC31E36FDB31E26F64
:1036B0000A0EE225E46F000EE321E56FDB51010BFA
:1036C000006E036A026E0034E66F0334E76FE6377C
:1036D000E737E637E737E637E737E637E737E637FE
:1036E000E737E637E737800EE617040EE625E86F82
:1036F000000EE721E96FCB51E825EA6F000EE921C2
:10370000EB6FE5C0F5F0E4C0F4F0EAC0F6F0F86B5A
:10371000E10EF76FFA6B010EF96F96EC13F0CB51D7
:10372000050805E2E15303E1FF0E016E02D0E1C09E
:1037300001F08DEF1CF0FAEC11F092928992830E59
:10374000FB6F080EFC6F95EC12F0D9C0FCF0D8C0EE
:10375000FBF00F0EFD6FADEC12F0FC6BFB6B090E76
:10376000FD6FADEC12F09292898280EF1DF048EC73
:1037700005F0186AF2BE188EF29E27C0F5F026C03A
:10378000F4F025C0F3F024C0F2F0070EF96F860EB6
:10379000F86F1F0EF76F800EF66FB5EC01F018BED4
:1037A000F28EEFCFD3F0ECCFD4F0ECCFD5F0ECCF5E
:1037B000D6F07151D65DD8A075D00BE17051D55DB2
:1037C00071E307E16F51D45D6DE303E16E51D35DA9
:1037D00069E3800E6E25D36F510E6F21D46F010EF9
:1037E0007021D56F000E7121D66F186AF2BE188E47
:1037F000F29EF56FD5C0F4F0D4C0F3F0D3C0F2F070
:10380000070EF96F860EF86F1F0EF76F800EF66FBA
:10381000B5EC01F018BEF28EEFCFD4F0ECCFD5F0BE
:10382000ECCFD6F0ECCFD7F0D7C0E5F0D6C0E4F0BF
:10383000D5C0E3F0D4C0E2F07BEC15F002C0D6F0C6
:1038400001C0D5F002C0E3F001C0E2F0C8EC15F011
:1038500003C0D9F002C0D8F001C0D7F000C0D6F044
:10386000EACFDBF0E9CFDAF003C0FDF002C0FCF0F4
:1038700001C0FBF000C0FAF00101016B006B010E0A
:103880000001FF6FC20EFE6FC9EC09F0DBC0EAFF5A
:10389000DAC0E9FF03C071F002C070F001C06FF040
:1038A00000C06EF024506E5D006E25506F59016EA1
:1038B00026507059026E27507159BD6F02C0BCF07E
:1038C00001C0BBF000C0BAF0186AF2BE188EF29EBA
:1038D00027C0F5F026C0F4F025C0F3F024C0F2F0C4
:1038E000070EF96F860EF86F1F0EF76F800EF66FDA
:1038F000B5EC01F018BEF28EEFCFD3F0ECCFD4F0E0
:10390000ECCFD5F0ECCFD6F0D6C0DAF0D5C0D9F0F8
:10391000D4C0D8F0D3C0D7F005D601C0D2F0D2536E
:1039200045E1186AF2BE188EF29E27C0F5F026C057
:10393000F4F025C0F3F024C0F2F0070EF96F860E04
:10394000F86F1F0EF76F800EF66FB5EC01F018BE22
:10395000F28EEFCFD3F0ECCFD4F0ECCFD5F0ECCFAC
:10396000D6F0D6C0E5F0D5C0E4F0D4C0E3F0D3C0C3
:10397000E2F07BEC15F002C0D5F00150D46F010BE2
:10398000D66FD76BD6530AE1D75308E1AA0EDD6F85
:10399000DE6B7F0EDF6FD5EC16F008D0AA0EDD6F60
:1039A000800EDE6F7F0EDF6FD5EC16F0D23D01D0BA
:1039B00002D0D25302E1B40ED26FD251B408D8B4BF
:1039C0009FD0C7C0D5F0C6C0D4F0D76BC8C0D6F062
:1039D0004FEC16F001C0D3F0186AF2BE188EF29EBA
:1039E00027C0F5F026C0F4F025C0F3F024C0F2F0B3
:1039F000070EF96F860EF86F1F0EF76F800EF66FC9
:103A0000B5EC01F018BEF28EEFCFD4F0ECCFD5F0CC
:103A1000ECCFD6F0ECCFD7F0D7C0E5F0D6C0E4F0CD
:103A2000D5C0E3F0D4C0E2F07BEC15F002C0D6F0D4
:103A30000150D56F010B006E036A026E0034D76F20
:103A40000334D86FD737D837D737D837D737D837A1
:103A5000D737D837D737D837D737D837800ED71793
:103A6000040ED725D96F000ED821DA6FCB51D92596
:103A7000DB6F000EDA21DC6FD3C0DDF0DBC0DEF0DF
:103A8000010EDF6FD5EC16F0186AF2BE188EF29EAA
:103A900027C0F5F026C0F4F025C0F3F024C0F2F002
:103AA000070EF96F860EF86F1F0EF76F800EF66F18
:103AB000B5EC01F018BEF28EEFCFD3F0ECCFD4F01E
:103AC000ECCFD5F0ECCFD6F0D6C0E5F0D5C0E4F021
:103AD000D4C0E3F0D3C0E2F07BEC15F002C0D5F027
:103AE00001C0D4F0D8900230036E0130026EF20FA4
:103AF000D66F030E0320D76FD96FD6C0D8F01BD670
:103B0000EA6A300EE96EF2CFD3F0F29E000E89EC35
:103B100000F00A000900F550EE6E0009FBE1D3BF8A
:103B2000F28EEE6BED6BEC6BD2C0EBF00A0EEF6F2A
:103B3000F16B440EF06F6BEC0AF0E86B440EE76F2C
:103B40005EEC0BF00150030822E3E86B440EE76FD4
:103B50005EEC0BF0370ED8800154D36F000ED8A066
:103B6000E806D46FE86B440EE76F5EEC0BF001C023
:103B7000D5F0D4C0EAFFD3C0E9FFE26A440EE16E9B
:103B80000150016E04E0E6CFEEFF012EFCD7EF6B93
:103B9000010EF06F9AEC06F0E86B300EE76F5EEC0A
:103BA0000BF001C0D3F0E76B300EE66F01C0E8F018
:103BB00077EC0BF0D2C001F0000C4CC153F10101C5
:103BC0005051531B53AF05D0D894D8904CBFD880D8
:103BD0002FD04CC153F14FC154F14B51545F06E00B
:103BE00053AF26D0D850010AD86E22D050C154F11C
:103BF0004C51545F06E053AF1BD0D850010AD86E29
:103C000017D051C154F14D51545F06E053AF10D05D
:103C1000D850010AD86E0CD052C154F14E51545FA5
:103C200006E053AF05D0D850010AD86E01D0D89025
:103C30000001000C0101199119930CC110F10BC185
:103C40000FF10AC10EF109C10DF10CC14EF10BC10A
:103C50004DF10AC14CF109C14BF1526B516B506BE4
:103C60004F6B0001AADF05E3010119810E51800AA3
:103C70000E6F01014E6B4D6B4C6B7F0E4B6F10C185
:103C800052F10FC151F10EC150F10DC14FF10001C0
:103C900094DF1BE301014E6B4D6B4C6B7F0E4B6F42
:103CA00010C152F10FC151F10EC150F10DC14FF1D0
:103CB0000001BEEC07F003C010F102C00FF101C01B
:103CC0000EF100C00DF1010119830A0E0101526FBE
:103CD000890E516F340E506F7C0E4F6F10C156F12C
:103CE0000FC155F10EC154F10DC153F1000143EC68
:103CF00007F000C01AF101C01BF102C01CF103C0A3
:103D00001DF103C052F102C051F101C050F100C0D9
:103D10004FF110C156F10FC155F10EC154F10DC153
:103D200053F143EC07F000C01EF101C01FF102C0C7
:103D300020F103C021F1D89203C054F102C053F125
:103D400001C052F100C051F17C0E0101586F790E93
:103D5000576F350E566F810E556F00016DEC08F0F0
:103D600003C014F102C013F101C012F100C011F13F
:103D700014C152F113C151F112C150F111C14FF1EF
:103D800010C156F10FC155F10EC154F10DC153F1DF
:103D900043EC07F000C01AF101C01BF102C01CF196
:103DA00003C01DF103C052F102C051F101C050F136
:103DB00000C04FF110C156F10FC155F10EC154F1C1
:103DC0000DC153F143EC07F000C01EF101C01FF11B
:103DD00002C020F103C021F1D89203C054F102C007
:103DE00053F101C052F100C051F13F0E0101586F73
:103DF000020E576F330E566F830E556F00016DEC38
:103E000008F003C014F102C013F101C012F100C0A8
:103E100011F114C152F113C151F112C150F111C18C
:103E20004FF110C156F10FC155F10EC154F10DC142
:103E300053F143EC07F000C01AF101C01BF102C0BE
:103E40001CF103C01DF103C052F102C051F101C0C9
:103E500050F100C04FF110C156F10FC155F10EC124
:103E600054F10DC153F143EC07F000C01EF101C045
:103E70001FF102C020F103C021F1D89203C054F118
:103E800002C053F101C052F100C051F1330E0101E3
:103E9000586F8C0E576F1E0E566F830E556F0001B4
:103EA0006DEC08F003C014F102C013F101C012F16F
:103EB00000C011F10101526B516B506B7F0E4F6FBF
:103EC00010C156F10FC155F10EC154F10DC153F19E
:103ED000000143EC07F000C01AF101C01BF102C061
:103EE0001CF103C01DF103C052F102C051F101C029
:103EF00050F100C04FF110C156F10FC155F10EC184
:103F000054F10DC153F143EC07F000C01EF101C0A4
:103F10001FF102C020F103C021F1D89203C054F177
:103F200002C053F101C052F100C051F11B0E01015A
:103F3000586FE40E576F350E566F820E556F0001A5
:103F40006DEC08F003C018F102C017F101C016F1C2
:103F500000C015F118C152F117C151F116C150F14D
:103F600015C14FF110C156F10FC155F10EC154F1F9
:103F70000DC153F143EC07F000C01AF101C01BF171
:103F800002C01CF103C01DF103C052F102C051F187
:103F900001C050F100C04FF110C156F10FC155F1F1
:103FA0000EC154F10DC153F143EC07F000C01EF1F6
:103FB00001C01FF102C020F103C021F1D89203C05B
:103FC00054F102C053F101C052F100C051F1A40EEE
:103FD0000101586FDB0E576F670E566F830E556FDA
:103FE00000016DEC08F003C018F102C017F101C028
:103FF00016F100C015F118C152F117C151F116C1E7
:1040000050F115C14FF110C156F10FC155F10EC15C
:1040100054F10DC153F143EC07F000C01AF101C097
:104020001BF102C01CF103C01DF103C052F102C01C
:1040300051F101C050F100C04FF110C156F10FC154
:1040400055F10EC154F10DC153F143EC07F000C01E
:104050001EF101C01FF102C020F103C021F1D8926E
:1040600003C054F102C053F101C052F100C051F13C
:10407000330E0101586F8C0E576F1E0E566F830E54
:10408000556F00016DEC08F003C018F102C017F184
:1040900001C016F100C015F110C152F10FC151F16C
:1040A0000EC150F10DC14FF114C156F113C155F1BC
:1040B00012C154F111C153F143EC07F000C01AF1E1
:1040C00001C01BF102C01CF103C01DF103C04EF181
:1040D00002C04DF101C04CF100C04BF118C152F1CA
:1040E00017C151F116C150F115C14FF1BEEC07F0E7
:1040F00003C014F102C013F101C012F100C011F1AC
:10410000010119A31DD0D882DB0E546F0F0E536F1F
:10411000490E526F7F0E516F14C158F113C157F100
:1041200012C156F111C155F100016DEC08F003C048
:1041300014F102C013F101C012F100C011F101012C
:1041400019A103D01251800A126F11C100F012C1DF
:1041500001F013C102F014C103F00001000C8E0E37
:10416000006E50C101F04FC102F0036A015209E133
:1041700002C001F0026A080E005E015202E1006A0C
:1041800008D0D89001BE04D0023601360006F9D717
:10419000019E000C8E0E006E01014B51005E4CC161
:1041A00002F04DC101F0028E005209E0D890025297
:1041B00002E1015204E002320132002EF7D74CAF87
:1041C00005D0011E021E012AD8B4022A0001000CEB
:1041D0007F0E0101316F326B336B346B7E0E3B6FA0
:1041E000800E3C6F3D6B3E6B7A0E3F6F2A0E406F28
:1041F000AA0E416FA30E426F750E436FB60E446F49
:10420000090E456F9C0E466F6F0E476F4F0E486F3D
:10421000B40E496F0B0E4A6F28C14EF127C14DF104
:1042200026C14CF125C14BF1526B516B506B4F6B5A
:104230000001C3DC04E301012651800A266F28C176
:104240004EF127C14DF126C14CF125C14BF1DB0EDA
:104250000101526F0F0E516F490E506F7F0E4F6F5D
:104260000001BEEC07F003C04EF102C04DF101C0E9
:104270004CF100C04BF18EDF01C035F128C14EF189
:1042800027C14DF126C14CF125C14BF1DB0E0101D7
:10429000526F0F0E516F490E506F7F0E4F6F00011E
:1042A000BEEC07F000C04BF101C04CF102C04DF173
:1042B00003C04EF10101506B35C14FF100014FDFDA
:1042C000D8824EC154F14DC153F14CC152F14BC192
:1042D00051F103C058F102C057F101C056F100C0BE
:1042E00055F16DEC08F003C03AF102C039F101C09C
:1042F00038F100C037F1030E01013517355303E0E3
:10430000355102081DE13AC152F139C151F138C1AC
:1043100050F137C14FF1DB0E566F0F0E556F490E3E
:10432000546F7F0E536F000143EC07F003C030F170
:1043300002C02FF101C02EF100C02DF16FD001019C
:10434000352D37D0D882546B536B526B7F0E516F23
:104350003AC158F139C157F138C156F137C155F159
:1043600000016DEC08F000C04BF101C04CF102C03F
:104370004DF103C04EF103C052F102C051F101C032
:1043800050F100C04FF1DB0E0101566F0F0E556F5B
:10439000490E546F7F0E536F000143EC07F003C0CA
:1043A00030F102C02FF101C02EF100C02DF136D046
:1043B0000101D8823AC154F139C153F138C152F1E7
:1043C00037C151F1586B576B566B7F0E556F00011B
:1043D0006DEC08F000C04BF101C04CF102C04DF192
:1043E00003C04EF103C052F102C051F101C050F1BF
:1043F00000C04FF1DB0E0101566F0F0E556F490ED5
:10440000546F7F0E536F000143EC07F003C030F18F
:1044100002C02FF101C02EF100C02DF101012C6B63
:104420002B6B2A6B7F0E296F30C152F12FC151F1D6
:104430002EC150F12DC14FF130C156F12FC155F1B0
:104440002EC154F12DC153F1000143EC07F003C01C
:1044500030F102C02FF101C02EF100C02DF1010199
:10446000366B3651030866E334C152F133C151F162
:1044700032C150F131C14FF130C156F12FC155F168
:104480002EC154F12DC153F1000143EC07F003C0DC
:1044900034F102C033F101C032F100C031F1010149
:1044A0003651040DF350036A3B0FE96E010E0320F1
:1044B000EA6EEFCF4BF1ECCF4CF1ECCF4DF1ECCFFE
:1044C0004EF14EC152F14DC151F14CC150F14BC1B1
:1044D0004FF134C156F133C155F132C154F131C1FC
:1044E00053F1000143EC07F0EACF50F1E9CF4FF16F
:1044F000D8922CC154F12BC153F12AC152F129C1D8
:1045000051F103C058F102C057F101C056F100C08B
:1045100055F16DEC08F050C1EAFF4FC1E9FF03C04F
:104520002CF102C02BF101C02AF100C029F10101D8
:10453000362B97D73551020802E0352D03D02A518A
:10454000800A2A6F29C100F02AC101F02BC102F0B4
:104550002CC103F00001000CD88220C154F11FC10E
:1045600053F11EC152F11DC151F1DB0E0101586F13
:104570000F0E576F490E566F7F0E556F00016DEC91
:1045800008F000C021F101C022F102C023F103C0F4
:1045900024F103C028F102C027F101C026F100C0B8
:1045A00025F116DE000C14C128F113C127F112C148
:1045B00026F111C125F10CDE03C018F102C017F17C
:1045C00001C016F100C015F118C14EF117C14DF12F
:1045D00016C14CF115C14BF10101526B516B506B7F
:1045E0004F6B0001DDEC1DF009E1F60E006E400E90
:1045F000016E970E026ECE0E036E23D014C120F111
:1046000013C11FF112C11EF111C11DF1A5DF03C0BD
:104610001CF102C01BF101C01AF100C019F11CC14C
:104620004EF11BC14DF11AC14CF119C14BF118C12A
:1046300052F117C151F116C150F115C14FF1BEEC45
:1046400007F0000C16C14EF115C14DF114C14CF12B
:1046500013C14BF10101526B516B506B4F6B000159
:10466000DDEC1DF001E205E1006A016A026A036AFD
:104670007DD016C11AF115C119F114C118F113C179
:1046800017F1010E0101206F170E1F6F1FC1E9FF07
:1046900020C1EAFFEF50246B236F7F0E2325256F87
:1046A000000E2421266FD8902631253120C1EAFF43
:1046B0001FC1E9FFEF6E1AC11EF119C11DF118C12A
:1046C0001CF117C11BF116C14EF115C14DF114C1FA
:1046D0004CF113C14BF11AC152F119C151F118C17A
:1046E00050F117C14FF10001BEEC07F0D8921AC18A
:1046F00054F119C153F118C152F117C151F103C05E
:1047000058F102C057F101C056F100C055F16DECEF
:1047100008F003C01AF102C019F101C018F100C07D
:1047200017F101011FC1E9FF20C1EAFFEF061EC119
:104730004EF11DC14DF11CC14CF11BC14BF11AC111
:1047400052F119C151F118C150F117C14FF10001D7
:10475000DDEC1DF0D8B402D00101ADD71BC100F0D3
:104760001CC101F01DC102F01EC103F0000CD86B8A
:10477000D76B570ED66F850ED56FCD0EDC6FCC0E76
:10478000DB6F7C0EDA6F820ED96FCD0EE46FCC0E2C
:10479000E36F140EE26F820EE16FEC6BEB6B100EA9
:1047A000EA6F840EE96FE86BE76B300EE66F810EFF
:1047B000E56FCD0EE46FCC0EE36F140EE26F820E48
:1047C000E16FDCC04EF1DBC04DF1DAC04CF1D9C075
:1047D0004BF1ECC052F1EBC051F1EAC050F1E9C02D
:1047E0004FF1BEEC07F000C005F101C006F102C0B8
:1047F00007F103C008F103C00CF102C00BF101C0C6
:104800000AF100C009F11AEC1EF003C004F102C065
:1048100003F101C002F100C001F10101506BD4C0ED
:104820004FF100019CDC03C052F102C051F101C004
:1048300050F100C04FF1DB0E0101566F0F0E556FA6
:10484000490E546F800E536F000143EC07F000C017
:1048500005F101C006F102C007F103C008F103C071
:104860004EF102C04DF101C04CF100C04BF101010D
:10487000526B516B340E506F860E4F6F0001BEECC1
:1048800007F000C009F101C00AF102C00BF103C03A
:104890000CF1D88203C054F102C053F101C052F1AF
:1048A00000C051F104C158F103C157F102C156F1E2
:1048B00001C155F16DEC08F000C00DF101C00EF121
:1048C00002C00FF103C010F103C020F102C01FF1BC
:1048D00001C01EF100C01DF13FDE03C0F4F002C0B4
:1048E000F3F001C0F2F000C0F1F00101506BD4C050
:1048F0004FF1000134DC03C052F102C051F101C09C
:1049000050F100C04FF1DB0E0101566F0F0E556FD5
:10491000490E546F800E536F000143EC07F000C046
:1049200005F101C006F102C007F103C008F103C0A0
:104930004EF102C04DF101C04CF100C04BF101013C
:10494000526B516B340E506F860E4F6F0001BEECF0
:1049500007F000C009F101C00AF102C00BF103C069
:104960000CF1D88203C054F102C053F101C052F1DE
:1049700000C051F104C158F103C157F102C156F111
:1049800001C155F16DEC08F000C00DF101C00EF150
:1049900002C00FF103C010F103C028F102C027F1DB
:1049A00001C026F100C025F113DC03C0F8F002C0FD
:1049B000F7F001C0F6F000C0F5F00101506BD4C073
:1049C0004FF10001AFEC20F003C052F102C051F1F1
:1049D00001C050F100C04FF1DB0E0101566F0F0E08
:1049E000556F490E546F800E536F000143EC07F072
:1049F00000C005F101C006F102C007F103C008F1D3
:104A000003C04EF102C04DF101C04CF100C04BF1AA
:104A10000101526B516B340E506F860E4F6F0001C7
:104A2000BEEC07F000C009F101C00AF102C00BF1B1
:104A300003C00CF1D88203C054F102C053F101C08D
:104A400052F100C051F104C158F103C157F102C144
:104A500056F101C155F16DEC08F000C00DF101C037
:104A60000EF102C00FF103C010F103C014F102C037
:104A700013F101C012F100C011F195DD03C0FCF08B
:104A800002C0FBF001C0FAF000C0F9F0ECC052F136
:104A9000EBC051F1EAC050F1E9C04FF1ECC056F162
:104AA000EBC055F1EAC054F1E9C053F143EC07F013
:104AB00000C005F101C006F102C007F103C008F112
:104AC000DCC052F1DBC051F1DAC050F1D9C04FF176
:104AD000DCC056F1DBC055F1DAC054F1D9C053F156
:104AE00043EC07F0D89208C154F107C153F106C155
:104AF00052F105C151F103C058F102C057F101C094
:104B000056F100C055F16DEC08F000C009F101C08C
:104B10000AF102C00BF103C00CF103C016F102C090
:104B200015F101C014F100C013F18CDD00C00AF1D1
:104B300001C00BF102C00CF103C00DF1E4C04EF155
:104B4000E3C04DF1E2C04CF1E1C04BF1F4C052F1D1
:104B5000F3C051F1F2C050F1F1C04FF1BEEC07F0DB
:104B6000EACF0FF1E9CF0EF1D8820DC154F10CC19B
:104B700053F10BC152F10AC151F103C058F102C007
:104B800057F101C056F100C055F16DEC08F00FC1AE
:104B9000EAFF0EC1E9FF03C0E0F002C0DFF001C090
:104BA000DEF000C0DDF0E4C04EF1E3C04DF1E2C044
:104BB0004CF1E1C04BF1FCC052F1FBC051F1FAC025
:104BC00050F1F9C04FF1BEEC07F0D882D8C054F1D3
:104BD000D7C053F1D6C052F1D5C051F103C058F13E
:104BE00002C057F101C056F100C055F16DEC08F05C
:104BF00000C005F101C006F102C007F103C008F1D1
:104C0000E0C052F1DFC051F1DEC050F1DDC04FF124
:104C1000F8C056F1F7C055F1F6C054F1F5C053F1A4
:104C200043EC07F0D88208C154F107C153F106C123
:104C300052F105C151F103C058F102C057F101C052
:104C400056F100C055F16DEC08F003C000F102C050
:104C5000FFF001C0FEF000C0FDF0E0C052F1DFC087
:104C600051F1DEC050F1DDC04FF1F4C056F1F3C098
:104C700055F1F2C054F1F1C053F143EC07F000C01C
:104C800005F101C006F102C007F103C008F103C03D
:104C900052F102C051F101C050F100C04FF1E0C02B
:104CA00056F1DFC055F1DEC054F1DDC053F143ECE5
:104CB00007F000C009F101C00AF102C00BF103C006
:104CC0000CF103C052F102C051F101C050F100C01B
:104CD0004FF1F4C056F1F3C055F1F2C054F1F1C0F8
:104CE00053F143EC07F000C00DF101C00EF102C01A
:104CF0000FF103C010F100C152F1FFC051F1FEC02D
:104D000050F1FDC04FF100C156F1FFC055F1FEC09A
:104D100054F1FDC053F143EC07F0D89210C154F1A7
:104D20000FC153F10EC152F10DC151F103C058F141
:104D300002C057F101C056F100C055F16DEC08F00A
:104D400000C011F101C012F102C013F103C014F14F
:104D5000E8C052F1E7C051F1E6C050F1E5C04FF1B3
:104D6000E8C056F1E7C055F1E6C054F1E5C053F193
:104D700043EC07F0D88214C154F113C153F112C1AE
:104D800052F111C151F103C058F102C057F101C0F5
:104D900056F100C055F16DEC08F003C0F0F002C010
:104DA000EFF001C0EEF000C0EDF0F0C016F1EFC082
:104DB00015F1EEC014F1EDC013F144DC03C0F0F0C6
:104DC00002C0EFF001C0EEF000C0EDF0F0C04EF117
:104DD000EFC04DF1EEC04CF1EDC04BF10101526B53
:104DE000516B480E506F840E4F6F0001DDEC1DF0CB
:104DF00005E3006A016A026A036A08D0EDC000F0A8
:104E0000EEC001F0EFC002F0F0C003F0000C0101B1
:104E10000A91F8C0FDF0F7C0FCF0F6C0FBF0F5C059
:104E2000FAF0F8C04EF1F7C04DF1F6C04CF1F5C004
:104E30004BF1526B516B506B4F6B0001DDEC1DF071
:104E400006E301010A810001FB51800AFB6F0101A9
:104E50004E6B4D6B4C6B7E0E4B6FFDC052F1FCC028
:104E600051F1FBC050F1FAC04FF10001DDEC1DF033
:104E700047E3D8820101546B536B526B7F0E516F25
:104E8000FDC058F1FCC057F1FBC056F1FAC055F116
:104E900000016DEC08F000C00BF101C00CF102C084
:104EA0000DF103C00EF103C04EF102C04DF101C07F
:104EB0004CF100C04BF10101526B516B506B800EF5
:104EC0004F6F0001BEEC07F000C00FF101C010F100
:104ED00002C011F103C012F103C016F102C015F1B6
:104EE00001C014F100C013F122EC23F003C0FDF067
:104EF00002C0FCF001C0FBF000C0FAF0020EF9277E
:104F0000FDC052F1FCC051F1FBC050F1FAC04FF1AD
:104F1000FDC056F1FCC055F1FBC054F1FAC053F18D
:104F200043EC07F003C009F102C008F101C007F12A
:104F300000C006F1370E0101526FBF0E516F7D0E9A
:104F4000506F4F6F09C156F108C155F107C154F1B7
:104F500006C153F1000143EC07F000C00BF101C0A2
:104F60000CF102C00DF103C00EF1D89203C054F150
:104F700002C053F101C052F100C051F13D0E0101D8
:104F8000586FAA0E576F930E566F810E556F000122
:104F90006DEC08F003C001F102C000F101C0FFF0A8
:104FA00000C0FEF001C152F100C151F1FFC050F14B
:104FB000FEC04FF109C156F108C155F107C154F1C6
:104FC00006C153F143EC07F000C00BF101C00CF136
:104FD00002C00DF103C00EF1D89203C054F102C01B
:104FE00053F101C052F100C051F1EE0E0101586FB2
:104FF000500E576F330E566F810E556F00016DECDA
:1050000008F003C001F102C000F101C0FFF000C0D0
:10501000FEF00101526B516B506B7F0E4F6F09C157
:1050200056F108C155F107C154F106C153F1000111
:1050300043EC07F000C00BF101C00CF102C00DF110
:1050400003C00EF1D89203C054F102C053F101C065
:1050500052F100C051F10A0E0101586F8D0E576FC9
:10506000B10E566F810E556F00016DEC08F003C054
:1050700005F102C004F101C003F100C002F105C155
:1050800052F104C151F103C150F102C14FF109C104
:1050900056F108C155F107C154F106C153F143EC73
:1050A00007F000C00BF101C00CF102C00DF103C00C
:1050B0000EF1D89203C054F102C053F101C052F175
:1050C00000C051F1EE0E0101586F500E576F330EB4
:1050D000566F810E556F00016DEC08F003C005F1AD
:1050E00002C004F101C003F100C002F1FDC052F1A1
:1050F000FCC051F1FBC050F1FAC04FF101C156F1B3
:1051000000C155F1FFC054F1FEC053F143EC07F06C
:1051100000C00BF101C00CF102C00DF103C00EF193
:1051200003C04EF102C04DF101C04CF100C04BF183
:1051300005C152F104C151F103C150F102C14FF157
:10514000BEEC07F003C001F102C000F101C0FFF0A6
:1051500000C0FEF0F9A32ED00101526B516B506BD1
:10516000800E4F6F01C156F100C155F1FFC054F1DF
:10517000FEC053F1000143EC07F0D882DB0E0101C1
:10518000546F0F0E536F490E526F7F0E516F03C055
:1051900058F102C057F101C056F100C055F10001AD
:1051A0006DEC08F003C001F102C000F101C0FFF096
:1051B00000C0FEF001010AA104D00001FF51800AE5
:1051C000FF6F0001F9A11DD0D882DB0E0101546FE1
:1051D0000F0E536F490E526F7F0E516F01C158F180
:1051E00000C157F1FFC056F1FEC055F100016DEC52
:1051F00008F003C001F102C000F101C0FFF000C0DF
:10520000FEF0FEC000F0FFC001F000C102F001C1DD
:1052100003F016EF29F0F0C0F8F0EFC0F7F0EEC0A1
:10522000F6F0EDC0F5F0010EF96FF1D503C0F4F022
:1052300002C0F3F001C0F2F000C0F1F0F1C000F0E4
:10524000F2C001F0F3C002F0F4C003F09DEF2CF0C7
:1052500001010C9100C105F1FFC004F1FEC003F192
:10526000FDC002F100C14EF1FFC04DF1FEC04CF196
:10527000FDC04BF1526B516B506B4F6B0001DDEC7D
:105280001DF005E301010C810351800A036F05C184
:105290004EF104C14DF103C14CF102C14BF10101CA
:1052A000526B516B506B8E0E4F6F0001DDEC1DF099
:1052B00001E219E105C14EF104C14DF103C14CF108
:1052C00002C14BF1CAEC20F002C050F101C04FF115
:1052D000AFEC20F003C009F102C008F101C007F1F2
:1052E00000C006F1D3D005C14EF104C14DF103C198
:1052F0004CF102C14BF1800E0101526F960E516FBD
:10530000180E506F960E4F6F0001DDEC1DF0D8A007
:10531000B5D005C14EF104C14DF103C14CF102C13C
:105320004BF10101526B516B506B8E0E4F6F0001B0
:10533000BEEC07F003C04EF102C04DF101C04CF1CC
:1053400000C04BF1CAEC20F002C00BF101C00AF121
:1053500005C14EF104C14DF103C14CF102C14BF145
:105360000101526B516B506B8E0E4F6F0001BEEC02
:1053700007F000C00DF101C00EF102C00FF103C033
:1053800010F10BC150F10AC14FF1AFEC20F0D882FF
:1053900010C154F10FC153F10EC152F10DC151F1C1
:1053A00003C058F102C057F101C056F100C055F1D9
:1053B0006DEC08F00101526B516B506B8E0E4F6F0C
:1053C00003C056F102C055F101C054F100C053F1C1
:1053D000000143EC07F003C005F102C004F101C075
:1053E00003F100C002F10BC150F10AC14FF1AFEC63
:1053F00020F00101526B516B506B8E0E4F6F03C04A
:1054000056F102C055F101C054F100C053F1000142
:1054100043EC07F003C009F102C008F101C007F135
:1054200000C006F105C14EF104C14DF103C14CF1BC
:1054300002C14BF1CAEC20F002C050F101C04FF1A3
:10544000AFEC20F0D89209C154F108C153F107C163
:1054500052F106C151F103C058F102C057F101C029
:1054600056F100C055F16DEC08F003C009F102C01F
:1054700008F101C007F100C006F108D005C109F12B
:1054800004C108F103C107F102C106F105C14EF1E3
:1054900004C14DF103C14CF102C14BF1CAEC20F043
:1054A00002C050F101C04FF1AFEC20F0D88205C12D
:1054B00054F104C153F103C152F102C151F103C0CF
:1054C00058F102C057F101C056F100C055F16DEC22
:1054D00008F003C005F102C004F101C003F100C0EF
:1054E00002F101010CA103D00751800A076F05C129
:1054F0004EF104C14DF103C14CF102C14BF1526BAD
:10550000516B506B4F6B0001DDEC1DF03CE0010175
:105510000CA11CD001531AE1D88209C154F108C171
:1055200053F107C152F106C151F1586B576B566BDD
:105530007F0E556F00016DEC08F003C009F102C049
:1055400008F101C007F100C006F101010CB11CD047
:10555000012D1AD0D89209C154F108C153F107C1E5
:1055600052F106C151F1586B576B566B7F0E556F58
:1055700000016DEC08F003C009F102C008F101C0A0
:1055800007F100C006F1010100C14EF1FFC04DF16D
:10559000FEC04CF1FDC04BF1526B516B506B4F6B29
:1055A0000001DDEC1DF006E10101096B086B076BE2
:1055B000066B000106C100F007C101F008C102F04E
:1055C00009C103F0000CFBC000F1FAC0FFF0F9C004
:1055D000FEF0F8C0FDF0010E0101016F000138DEA0
:1055E00060EF2BF0FCC000F1FBC0FFF0FAC0FEF052
:1055F000F9C0FDF00101016B00012ADE84EF2BF000
:10560000EBC04EF1EAC04DF1E9C04CF1E8C04BF1FE
:105610000101526B516B506B4F6B0001DDEC1DF0C3
:10562000D8B4A1D0E7C04EF1E6C04DF1E5C04CF1D1
:10563000E4C04BF1EBC052F1EAC051F1E9C050F1C6
:10564000E8C04FF1BEEC07F000C0F0F001C0F1F08F
:1056500002C0F2F003C0F3F003C04EF102C04DF1FE
:1056600001C04CF100C04BF10101526B516B506B0A
:105670004F6B0001DDEC1DF024E3E7C04EF1E6C006
:105680004DF1E5C04CF1E4C04BF1EBC052F1EAC082
:1056900051F1E9C050F1E8C04FF1BEEC07F000C095
:1056A000F4F001C0F5F002C0F6F003C0F7F003C05B
:1056B000FBF002C0FAF001C0F9F000C0F8F083D7A7
:1056C00023D0E7C04EF1E6C04DF1E5C04CF1E4C097
:1056D0004BF1EBC052F1EAC051F1E9C050F1E8C022
:1056E0004FF1BEEC07F000C0F5F001C0F6F002C0CB
:1056F000F7F003C0F8F003C0FCF002C0FBF001C0FB
:10570000FAF000C0F9F06ED703C0EFF002C0EEF07F
:1057100001C0EDF000C0ECF0EFC052F1EEC051F16D
:10572000EDC050F1ECC04FF1EBC056F1EAC055F1BD
:10573000E9C054F1E8C053F143EC07F0D882E7C068
:1057400054F1E6C053F1E5C052F1E4C051F103C099
:1057500058F102C057F101C056F100C055F16DEC8F
:1057600008F001D000D0FDEF2CF0DB6BDA6B200EDF
:10577000D96F860ED86FDF6BDE6B200EDD6F870E64
:10578000DC6F0101506BD3C04FF10001AFEC20F092
:1057900000C0E4F001C0E5F002C0E6F003C0E7F0AD
:1057A00003C052F102C051F101C050F100C04FF1ED
:1057B000DB0E0101566F0F0E556F490E546F800EB0
:1057C000536F000143EC07F000C0E8F001C0E9F0BE
:1057D00002C0EAF003C0EBF003C04EF102C04DF18D
:1057E00001C04CF100C04BF10101526B516B340E02
:1057F000506F860E4F6F0001BEEC07F000C0ECF05A
:1058000001C0EDF002C0EEF003C0EFF003C014F1F0
:1058100002C013F101C012F100C011F1D3EC22F06B
:1058200003C0D7F002C0D6F001C0D5F000C0D4F05C
:105830000101526B516B800E506F7F0E4F6FDFC0B6
:1058400056F1DEC055F1DDC054F1DCC053F100016A
:1058500043EC07F000C0E4F001C0E5F002C0E6F060
:1058600003C0E7F0D7C052F1D6C051F1D5C050F116
:10587000D4C04FF1D7C056F1D6C055F1D5C054F1C0
:10588000D4C053F143EC07F0D8920101546B536B31
:10589000526B7F0E516F03C058F102C057F101C027
:1058A00056F100C055F100016DEC08F000C0E8F0C1
:1058B00001C0E9F002C0EAF003C0EBF003C016F14A
:1058C00002C015F101C014F100C013F122EC23F065
:1058D000DBC052F1DAC051F1D9C050F1D8C04FF15C
:1058E00003C056F102C055F101C054F100C053F19C
:1058F00043EC07F0E7C04EF1E6C04DF1E5C04CF1D6
:10590000E4C04BF103C052F102C051F101C050F1AB
:1059100000C04FF1BEEC07F000C0E9F001C0EAF0B2
:1059200002C0EBF003C0ECF003C0F0F002C0EFF0F7
:1059300001C0EEF000C0EDF06ED400C0EAF001C08E
:10594000EBF002C0ECF003C0EDF00101526B516BC3
:10595000800E506F7F0E4F6FD7C056F1D6C055F1F5
:10596000D5C054F1D4C053F1000143EC07F000C09E
:10597000EEF001C0EFF002C0F0F003C0F1F003C0A0
:105980000CF102C00BF101C00AF100C009F11AECE0
:105990001EF0EACFF0F0E9CFEFF0D882EDC054F17D
:1059A000ECC053F1EBC052F1EAC051F103C058F121
:1059B00002C057F101C056F100C055F16DEC08F07E
:1059C000F0C0EAFFEFC0E9FF03C0E3F002C0E2F07D
:1059D00001C0E1F000C0E0F0E3C0E7F0E2C0E6F0B3
:1059E000E1C0E5F0E0C0E4F0DB0EEB6F0F0EEA6F14
:1059F000490EE96F800EE86F03D600C0E4F001C0E5
:105A0000E5F002C0E6F003C0E7F003C052F102C0C7
:105A100051F101C050F100C04FF10101566B556BBF
:105A2000340E546F860E536F000143EC07F000C034
:105A3000E8F001C0E9F002C0EAF003C0EBF003C0F7
:105A40004EF102C04DF101C04CF100C04BF1DB0E34
:105A50000101526F0F0E516F490E506F800E4F6F44
:105A60000001BEEC07F003C04EF102C04DF101C0D1
:105A70004CF100C04BF1CAEC20F00150000CEF6B70
:105A8000030EF06F9AEC06F0C3C04EF1C2C04DF1A8
:105A9000C1C04CF1C0C04BF1CAEC20F002C0D3F041
:105AA00001C0D2F0EE6BED6B02C0ECF001C0EBF088
:105AB0000A0EEF6FF16B300EF06F6BEC0AF04C0ECC
:105AC000EE6FADEC06F03D0EEE6FADEC06F0EA6A5F
:105AD000300EE96E000EEF1010E0EACFD3F0E9CF00
