:020000040000FA
:0400000008EF1FF0F6
:08000800056ED8CF06F0E0CF31
:1000100007F00001E9CF0DF0EACF08F0E1CF09F0D9
:10002000E2CF0AF0D9CF0BF0DACF0CF0F3CF14F017
:10003000F4CF15F0FACF16F000C00FF001C010F0A9
:1000400002C011F003C012F004C013F09DA02CEF09
:1000500000F09EB079EF03F09DAA32EF00F09EBA57
:100060003BEF04F00FC000F010C001F011C002F02F
:1000700012C003F013C004F00E8E0DC0E9FF08C0DB
:10008000EAFF09C0E1FF0AC0E2FF0BC0D9FF0CC0C4
:10009000DAFF14C0F3FF15C0F4FF16C0FAFF0550D5
:1000A00007C0E0FF06C0D8FF1000F2CF0EF0F29EAE
:1000B000F76AC40FF66E000EF7220900F5500EBE67
:1000C000F28E120000401050F2CF0EF0F29EF76A4E
:1000D000E20FF66E000EF7220900F5500EBEF28E0A
:1000E00012000D0A2044617923256C752C20000034
:1000F000F2CF0EF0F29EF76A0A0FF66E010EF722AB
:100100000900F5500EBEF28E1200446179232534A9
:100110006C752C200000F2CF0EF0F29EF76A300FC3
:10012000F66E010EF7220900F5500EBEF28E120097
:1001300030303A30303A30300000F2CF0EF0F29EDC
:10014000F76A540FF66E010EF7220900F5500EBE45
:10015000F28E12005273743A25346C750000F2CF9F
:100160000EF0F29EF76A780FF66E010EF722090084
:10017000F5500EBEF28E12000D0A204D696E20530E
:1001800074726F6B653D256C752F32353620636D4B
:100190000000F2CF0EF0F29EF76AAC0FF66E010E81
:1001A000F7220900F5500EBEF28E12000D0A204D06
:1001B0006178205374726F6B653D256C752F3235F5
:1001C0003620636D0000F2CF0EF0F29EF76AE00F6A
:1001D000F66E010EF7220900F5500EBEF28E1200E7
:1001E0000D0A205361667479205374726F6B653DFC
:1001F000256C752F32353620636D0000F2CF0EF07E
:10020000F29EF76A160FF66E020EF7220900F550FD
:100210000EBEF28E12000D0A204C61746974756472
:10022000653D256C752F31303000F2CF0EF0F29E17
:10023000F76A440FF66E020EF7220900F5500EBE63
:10024000F28E12000D0A204C6F6E6769747564653A
:100250003D256C752F3130300000F2CF0EF0F29E4C
:10026000F76A740FF66E020EF7220900F5500EBE03
:10027000F28E12000D0A20416C7469747564652059
:100280003D256C752F3130300000F2CF0EF0F29E1C
:10029000F76AA40FF66E020EF7220900F5500EBEA3
:1002A000F28E12004572726F723A466C617368206A
:1002B0006461746120636F72727570740000F2CFB4
:1002C0000EF0F29EF76AD80FF66E020EF7220900C2
:1002D000F5500EBEF28E12000D0A20426C6F636B59
:1002E0002065726173650D0A0000F2CF0EF0F29E78
:1002F000F76A040FF66E030EF7220900F5500EBEE2
:10030000F28E12000D0A205041474520256C643AB8
:100310000000F2CF0EF0F29EF76A2C0FF66E030E7D
:10032000F7220900F5500EBEF28E12000D0A20577A
:10033000726974652062756666657231202D3E2093
:100340005041474520256C643A00F2CF0EF0F29EF2
:10035000F76A640FF66E030EF7220900F5500EBE21
:10036000F28E12000D0A205265616420504147450B
:1003700020256C64202D3E20627566666572310012
:10038000F2CF0EF0F29EF76A9A0FF66E030EF72286
:100390000900F5500EBEF28E12000D0A2057524988
:1003A0005445205041474520256C643A0000F2CF67
:1003B0000EF0F29EF76AC80FF66E030EF7220900E0
:1003C000F5500EBEF28E12000D0A2042756666656B
:1003D00072313A00F2CF0EF0F29EF76AEE0FF66E2F
:1003E000030EF7220900F5500EBEF28E12000D0A20
:1003F000205365742032353620706167652073693B
:100400007A650D0A0000F2CF0EF0F29EF76A200F17
:10041000F66E040EF7220900F5500EBEF28E1200A1
:100420000D0A2073746172747570203D20256C6410
:100430000000F2CF0EF0F29EF76A4C0FF66E040E3B
:10044000F7220900F5500EBEF28E12000D0A20416F
:100450006374232564204C656E3D256C75204E6FBA
:10046000773D256C750D0A00F2CF0EF0F29EF76A0B
:10047000820FF66E040EF7220900F5500EBEF28EC2
:1004800012000D0A204E6F726D616C206F706572E4
:100490006174696F6E00F2CF0EF0F29EF76AB00FD2
:1004A000F66E040EF7220900F5500EBEF28E120011
:1004B0000D0A2048616C74206F7065726174696FF9
:1004C0006E00F2CF0EF0F29EF76ADC0FF66E040EAD
:1004D000F7220900F5500EBEF28E12000D0A4144BB
:1004E000433D20256C750000F2CF0EF0F29EF76AB6
:1004F000020FF66E050EF7220900F5500EBEF28EC1
:1005000012000D0A20746F6F206561726C79200DE6
:100510000A00F2CF0EF0F29EF76A2C0FF66E050E6F
:10052000F7220900F5500EBEF28E12000D0A20735C
:10053000746172206E6577206C6F67200D0A000071
:10054000F2CF0EF0F29EF76A5A0FF66E050EF72202
:100550000900F5500EBEF28E12000D0A206C6F6776
:10056000200D0A00F2CF0EF0F29EF76A7E0FF66EB3
:10057000050EF7220900F5500EBEF28E12000D0A8C
:1005800020746F6F206C617465200D0A0000F2CF3B
:100590000EF0F29EF76AA80FF66E050EF72209001C
:1005A000F5500EBEF28E12000D0A20696E697400BD
:1005B000F2CF0EF0F29EF76ACA0FF66E050EF72222
:1005C0000900F5500EBEF28E12000D0A2072656110
:1005D0006420666C61736800F2CF0EF0F29EF76AD9
:1005E000F20FF66E050EF7220900F5500EBEF28EE0
:1005F00012000D0A204D66673A253032582025300A
:100600003258202530325820253032580000F2CFA1
:100610000EF0F29EF76A280FF66E060EF72209001A
:10062000F5500EBEF28E12000D0A20537461743A1A
:10063000202530325800F2CF0EF0F29EF76A500FAC
:10064000F66E060EF7220900F5500EBEF28E12006D
:10065000646F6E65200D0A00006A016A026A036A0F
:10066000C66BC76BC86BC96BC551C411C311C2112E
:100670002CE0200ECA6FD890BE37BF37C037C137C5
:10068000C637C737C837C937C551C95D08E1C45136
:10069000C85D05E1C351C75D02E1C251C65D0FE30C
:1006A000C251C65FC351D8A0C33DC75FC451D8A0D3
:1006B000C43DC85FC551D8A0C53DC95FD8800036CC
:1006C000013602360336CA2FD6D7EA6AC60EE96E5D
:1006D000000C9E989E9A9D9AAB9EAB98AC98AC9A53
:1006E000030E006E002EFED7AB88AB8EAC8A9D8ABF
:1006F000000C800ECF6E010E2126000E2222232236
:100700002422010E2526000E2622272228222452EA
:100710000DE1235000082DE2FF0A08E122505008A5
:1007200028E2FF0A03E121507F0823E234C0C1F030
:1007300033C0C0F032C0BFF031C0BEF0C56BC46B77
:10074000050EC36FB50EC26F87DFEFCFD6F0ECCFCB
:10075000D7F0ECCFD8F0ECCFD9F0010ED625316E22
:10076000000ED721326E000ED821336E000ED92133
:10077000346E24C0C1F023C0C0F022C0BFF021C03D
:10078000BEF0C56B010EC46F510EC36F800EC26FF9
:1007900063DFEFCF21F0ECCF22F0ECCF23F0ECCFF2
:1007A00024F0285207E1275205E1265203E12550A3
:1007B000B40806E28EDF286A276A266A256A4B6A31
:1007C00020A056D01F8224C0C1F023C0C0F022C098
:1007D000BFF021C0BEF0C56BC46BC36B0F0EC26F00
:1007E0003BDFEFCFD6F0ECCFD7F0ECCFD8F0ECCFAB
:1007F000D9F0D65307E1D75305E1D85303E1D953D4
:10080000D8B41F8E24C0C1F023C0C0F022C0BFF0F6
:1008100021C0BEF0C56BC46B010EC36FC20EC26FA8
:100820001BDFEFCF00F0ECCF01F0ECCF02F0ECCF0C
:1008300003F00150036E02E1005211E0035003E1A6
:100840006E0E005C0FE0035003E1DC0E005C0CE078
:10085000010E035C03E14A0E005C08E009D0A781A9
:100860001F8E06D0A78304D0A78502D0A78700D00B
:100870009E9032EF00F09EAAFED7AECFD6F0D651B2
:10088000080A05E0050A05E0070A11E011D04B0649
:1008900027D0036A4B50370FE96E000E0320EA6E33
:1008A000EF6A4B500008D8A01F864B6A19D018D0A9
:1008B000D6511F0814E2D6517E0811E34B5012089E
:1008C0000EE34B504B2A036A370FE96E000E0320EC
:1008D000EA6ED6C0EFFF286A276A266A256A00D02A
:1008E0009E9A32EF00F0C69A949A94889496310EAC
:1008F000C66E400EC76EC00EC76E65EF1FF0EA6A87
:10090000C10EE96EEF500EE0030E016E006A002E7C
:10091000FED7012EFBD73C0E006E002EFED700D076
:10092000EF2EF2D7000CC539006E0F0E00160050E6
:100930000F0B006EF00E83140010836E290E006EF4
:10094000002EFED70000838E290E006E002EFED7EB
:100950000000839E290E006E002EFED70000000CC2
:10096000C1A18490C1B18480C251F00BC36FC56F27
:10097000DADFC239006EF00E00160050F00BC46FC3
:10098000C56FD1DF8480000C8490839E0F0EC16FF1
:10099000B6DF010EAC6FAC51030808E3300EC56F33
:1009A000C2DF0F0EC16FABDFAC2BF5D7200EC56FCA
:1009B000BADF0F0EC16FA3DFC16B060EC26FD0DFAF
:1009C000290E006E002EFED70000C16B0C0EC26F08
:1009D000C7DF290E006E002EFED70000C16B100E7F
:1009E000C26FBEDF290E006E002EFED70000C16B65
:1009F0002C0EC26FB5DF290E006E002EFED7000050
:100A0000C16B010EC26FACDF290E006E002EFED747
:100A10000000000C94948B94060E006E002EFED7FE
:100A20000000C950D70EC96EC730FEE3C950C96A6D
:100A3000C730FEE3C9CF7EF0060E006E002EFED753
:100A4000000094948B84000CC26BC26BC23D01D039
:100A50000CD0E0DF7E51BF0B9C0801E106D0210ED7
:100A6000006E002EFED7C22BF1D7000C94948B940D
:100A7000060E006E002EFED70000C9509F0EC96EF4
:100A8000C730FEE3C950C96AC730FEE3C9CF7AF068
:100A9000C950C96AC730FEE3C9CF7BF0C950C96AE3
:100AA000C730FEE3C9CF7CF0C950C96AC730FEE346
:100AB000C9CF7DF0060E006E002EFED70000949484
:100AC0008B84B0EF1FF0B5BF10D00F0E006EB4399D
:100AD00000160A0E005C03E2300E002602D0B5516B
:100AE000002600509EA8FED7AD6E0F0EB4170A0E5A
:100AF000B45D02E2300E02D0B59FB551B427B451B7
:100B00009EA8FED7AD6E000CB66703D0B76702D0C3
:100B100007D0B72BB5C0EEFFB62FFCD7B72FFAD74B
:100B2000000CAF6B210EAE6FAC6BAC51030821E330
:100B3000AC51AE25B06F000EAF21B16F200EAC25C9
:100B4000B26FF2CFB3F0F29EB2C0A9FFA69CA69EF0
:100B5000A680A850B3BFF28EB36FB1C0EAFFB0C099
:100B6000E9FFB3C0B5F0B76B010EB66FCDDFAC2BAC
:100B7000DCD7AF6B310EAE6FAC6BAC51030822E328
:100B8000AC51AE25B06F000EAF21B16F200EAC2579
:100B9000040FB36FF2CFB4F0F29EB3C0A9FFA69CCE
:100BA000A69EA680A850B4BFF28EB46FB1C0EAFF73
:100BB000B0C0E9FFB4C0B5F0B76B010EB66FA4DFEB
:100BC000AC2BDBD7AF6B350EAE6FAC6BAC51010805
:100BD00021E3AC51AE25B06F000EAF21B16F300EE6
:100BE000AC25B26FF2CFB3F0F29EB2C0A9FFA69CC3
:100BF000A69EA680A850B3BFF28EB36FB1C0EAFF25
:100C0000B0C0E9FFB3C0B5F0B76B010EB66F7CDFC3
:100C1000AC2BDCD7AD6BAD510308D8A0C9D0D890B0
:100C2000AD35036A930F016E000E032201C0AEF0D2
:100C300003C0AFF0AC6BAC51010822E3AC51AE2560
:100C4000B06F000EAF21B16FD890AD35AC25B26F4B
:100C5000F2CFB3F0F29EB2C0A9FFA69CA69EA680DA
:100C6000A850B3BFF28EB36FB1C0EAFFB0C0E9FFC6
:100C7000B3C0B5F0B76B010EB66F46DFAC2BDBD758
:100C8000D890AD35036A930FE96E000E0320EA6E2B
:100C9000ECCFB1F0ED52EFCFB0F0B151060812E257
:100CA000FF0A03E1B051D0080DE2D890AD35036AD8
:100CB000930FE96E000E0320EA6E070EEC6EED5204
:100CC000D00EEF6ED890AD35036A890F016E000E1D
:100CD000032201C0AEF003C0AFF0AC6BAC51010811
:100CE00025E3AC51AE25B06F000EAF21B16F100EF1
:100CF000AC25B26FD890AD35B225B36FF2CFB4F05A
:100D0000F29EB3C0A9FFA69CA69EA680A850B4BF21
:100D1000F28EB46FB1C0EAFFB0C0E9FFB4C0B5F065
:100D2000B76B010EB66FF0DEAC2BD8D7D890AD35CF
:100D3000036A890FE96E000E0320EA6EECCFB1F072
:100D4000ED52EFCFB0F0D890AD35036A930FE96E56
:100D5000000E0320EA6EECCF03F0ED52EFCF01F06E
:100D60000350B15D23E303E1B051015C1FE2D89071
:100D7000AD35036A890F016E000E032203C0B1F086
:100D8000D890AD35036A930FE96E000E0320EA6E2A
:100D9000ECCF03F0ED52EFCFB2F0B1C0EAFF01C0EB
:100DA000E9FF03C0ECFFED52B2C0EFFFAD2B33D72C
:100DB000F8EF1FF049DE94948B94060E006E002E1F
:100DC000FED70000C950D20EC96EC730FEE3C0C0C6
:100DD000C2F0C950C0C0C9FFC730FEE3BFC0C2F0F7
:100DE000C950BFC0C9FFC730FEE3C950C1C0C9FF69
:100DF000C730FEE3C950C96AC730FEE3C950C96AAB
:100E0000C730FEE3C950C96AC730FEE3C950C96A9A
:100E1000C730FEE3C950C96AC730FEE3C9CF7FF0CF
:100E2000C950C96AC730FEE3C9CF80F094948B845F
:100E3000000CC06BBF6B4E0EC16FBCDF80C09EF05C
:100E40007FC09DF0C06BBF6B500EC16FB3DF80C021
:100E50009CF07FC09BF0C06BBF6B560EC16FAADFCA
:100E600080C0A2F07FC0A1F0C06BBF6B580EC16FF5
:100E7000A1DF80C0A4F07FC0A3F0C06BBF6B5A0E8F
:100E8000C16F98DF80C0A6F07FC0A5F0C06BBF6BBC
:100E90005C0EC16F8FDF80C0A0F07FC09FF0EAEFD3
:100EA00007F0EACFBDF0E9CFBCF0B639F009B86F72
:100EB000B827E20FB96F320FBB6FB6510F0BB927CE
:100EC000B927BB27E90FBA6FBA27BA27B5390F0B75
:100ED000BA27BB27BA37BB37BB1FBB37B5510F0B80
:100EE000BB27B837070EB76F0A0EBA07BB27FDE35B
:100EF000B907BA27FDE3B807B927FDE3B707B82755
:100F0000FDE3EA6AB70EE96E070EBC15BC9DE92643
:100F1000BB0EE95CD8B4BC8DEF50006E08E1BCBDDF
:100F200006D0BCB90CD0BCB702D0200E03D0BC8711
:100F3000BC99300E002600509EA8FED7AD6EEE5034
:100F4000BCADE6D7000CF29CF29EF2BEFDD7AE6BB4
:100F5000AE51030824E30D0E9EA8FED7AD6E0A0E17
:100F60009EA8FED7AD6EAF6BAF51070816E3AE512A
:100F7000100DF3CFB0F0D890AF35B025B16FC06B86
:100F8000BF6BC16F17DF7F519EA8FED7AD6E80513A
:100F90009EA8FED7AD6EAF2BE7D7AE2BD9D7C06BCF
:100FA000BF6B400EC16F06DF7F519EA8FED7AD6EAE
:100FB00080519EA8FED7AD6EC06BBF6B420EC16F55
:100FC000F9DE7F519EA8FED7AD6E80519EA8FED758
:100FD000AD6E2FD7B06BB051AFEC00F0B02B006E00
:100FE00000509EA8FED7AD6E0E0EB05DF4E1100E5F
:100FF000E96E9EC0B6F09DC0B5F053DF110EB16F23
:10100000B151AFEC00F0B12B006E00509EA8FED79E
:10101000AD6E180EB15DF4E1B06BB051C9EC00F0EB
:10102000B02B006E00509EA8FED7AD6E0E0EB05DC8
:10103000F4E1100EE96E9CC0B6F09BC0B5F031DF54
:10104000110EB16FB151C9EC00F0B12B006E005020
:101050009EA8FED7AD6E180EB15DF4E1B06BB05135
:10106000E3EC00F0B02B006E00509EA8FED7AD6EF2
:10107000100EB05DF4E1100EE96EA0C0B6F09FC096
:10108000B5F00FDF130EB16FB151E3EC00F0B12BEF
:10109000006E00509EA8FED7AD6E1A0EB15DF4E151
:1010A000B06BB051FEEC00F0B02B006E00509EA86B
:1010B000FED7AD6E0C0EB05DF4E1100EE96EA2C06D
:1010C000B6F0A1C0B5F0EDDE0F0EB16FB151FEEC80
:1010D00000F0B12B006E00509EA8FED7AD6E130E2F
:1010E000B15DF4E1B06BB05115EC01F0B02B006EC6
:1010F00000509EA8FED7AD6E0D0EB05DF4E1100E4F
:10110000E96EA4C0B6F0A3C0B5F0CBDE100EB16F8F
:10111000B15115EC01F0B12B006E00509EA8FED726
:10112000AD6E140EB15DF4E1B06BB0512DEC01F079
:10113000B02B006E00509EA8FED7AD6E0D0EB05DB8
:10114000F4E1100EE96EA6C0B6F0A5C0B5F0A9DEB8
:10115000100EB16FB1512DEC01F0B12B006E0050AB
:101160009EA8FED7AD6E140EB15DF4E1C00EF21272
:10117000000CAF6BAF51030830E3200EAF25B16F09
:10118000AF51080DF3CFB2F024C0B6F023C0B5F0D4
:1011900022C0B4F021C0B3F0B25307E0D890B63308
:1011A000B533B433B333B22FF9D7B1C0A9FFB3C04D
:1011B000A8FFA69CA69EA684F2CF00F0F29E0F0187
:1011C000550EA76EAA0EA76EA682A6B2FED7A6944B
:1011D0000050F2120001AF2BCDD7AF6BAF51030817
:1011E00031E3200EAF25040FB26FAF51080DF3CFDE
:1011F000B3F034C0B7F033C0B6F032C0B5F031C090
:10120000B4F0B35307E0D890B733B633B533B43343
:10121000B32FF9D7B2C0A9FFB4C0A8FFA69CA69E61
:10122000A684F2CF00F0F29E0F01550EA76EAA0E13
:10123000A76EA682A6B2FED7A6940050F2120001B5
:10124000AF2BCCD7B06BB051030841E3AF6BAF51BC
:1012500001083BE3100EAF25B16FD890B035B12532
:10126000B26FD890B035036A890FE96E000E032083
:10127000EA6EECCFB4F0ED52EFCFB3F0AF51080D02
:10128000F3CF00F0B4C0B6F0B3C0B5F0005205E043
:10129000D890B633B533002EFBD7B2C0A9FFB5C086
:1012A000A8FFA69CA69EA684F2CF00F0F29E0F0196
:1012B000550EA76EAA0EA76EA682A6B2FED7A6945A
:1012C0000050F2120001AF2BC2D7B02BBCD7AF6BCE
:1012D000AF5101082AE3300EAF25B16FAF51080DB1
:1012E000F3CF00F036C0B3F035C0B2F0005205E0E5
:1012F000D890B333B233002EFBD7B1C0A9FFB2C030
:10130000A8FFA69CA69EA684F2CF00F0F29E0F0135
:10131000550EA76EAA0EA76EA682A6B2FED7A694F9
:101320000050F2120001AF2BD3D7AE2D42D0B06BDC
:10133000B05103083EE3AF6BAF51010838E3D890DA
:10134000B035AF25B16FD890B035036A930FE96E11
:10135000000E0320EA6EECCFB3F0ED52EFCFB2F007
:10136000AF51080DF3CF00F0B3C0B5F0B2C0B4F088
:10137000005205E0D890B533B433002EFBD7B1C08E
:10138000A9FFB4C0A8FFA69CA69EA684F2CF00F039
:10139000F29E0F01550EA76EAA0EA76EA682A6B2E8
:1013A000FED7A6940050F2120001AF2BC5D7B02B88
:1013B000BFD7000CB651B803F3CF01F0F4CF00F063
:1013C000B903F3500026B751B803F3500020026E62
:1013D0005BEF0AF0B46BB26B0A0EB36FB16BB06B1C
:1013E000AE51AF1104E1000E016E026EE6D0B451B1
:1013F000B42B036AAE25E96EAF510320EA6EEFCF3E
:10140000B5F0B5512D080DE1010EB26FB451B42BFA
:10141000036AAE25E96EAF510320EA6EEFCFB5F057
:101420000DD0B5512B080AE1B451B42B036AAE2597
:10143000E96EAF510320EA6EEFCFB5F0B5512F083A
:10144000D8B0ADD0B5513908D8A0A9D0B551300821
:1014500021E1036AB451AE25E96EAF510320EA6E73
:10146000EF5078080AE0036AB451AE25E96EAF5137
:101470000320EA6EEF5058080DE1100EB36FB42B45
:10148000B451B42B036AAE25E96EAF510320EA6E66
:10149000EFCFB5F0B3510A0821E1B5512F081DE295
:1014A000B55139081AE3B76B0A0EB66FB1C0B9F07F
:1014B000B0C0B8F07FD7300EB55D0124B06F000E1C
:1014C0000220B16FB451B42B036AAE25E96EAF515F
:1014D0000320EA6EEFCFB5F0E0D761D0B35110082A
:1014E0005EE1B551600806E2B5517A0803E3B551F3
:1014F000DF0B01D0B551B56FB5512F0803E2B551DF
:10150000390806E2B55140084AE2B551460847E3BA
:10151000B5512F0819E2B551390816E3B035B66F49
:10152000B135B76FB637B737B637B737B637B7371E
:10153000F00EB617300EB55DB625016E000EB72160
:1015400001C0B0F0B16F16D0B035B66FB135B76F1E
:10155000B637B737B637B737B637B737F00EB6172F
:10156000410EB55D0A0FB625016E000EB72101C010
:10157000B0F0B16FB451B42B036AAE25E96EAF5130
:101580000320EA6EEF50B56F600806E2B5517A08A5
:1015900003E3B551DF0B01D0B551B56FADD7B351F2
:1015A0000A0807E1B22D05D0B01FB11FB02BD8B487
:1015B000B12BB0C001F0B1C002F0000CFF0EAE6F55
:1015C000AE2B24EC05F094948B94C950500EC96E48
:1015D000C730FEE3AE39AF6FAF33070EAF17C95058
:1015E000AFC0C9FFC730FEE3AE35AF6FAF37AF371F
:1015F000F80EAF17C950AFC0C9FFC730FEE3C950DE
:10160000C96AC730FEE394948B84AE3DD9D724ECED
:1016100005F02DEF1DF0EACFC8F0E9CFC7F0C1AF5C
:1016200008D0C78FC7A9C72BC01FC11FC02BD8B4F4
:10163000C12BC139F009C36FC327E20FC46F320F4A
:10164000C66FC1510F0BC427C427C627E90FC56F4A
:10165000C527C527C0390F0BC527C627C537C637CD
:10166000C61FC637C0510F0BC627C337070EC26F40
:101670000A0EC507C627FDE3C407C527FDE3C30758
:10168000C427FDE3C207C327FDE3EA6AC20EE96E81
:10169000070EC715C79DE906C71507E1C7B9E92AAF
:1016A000C7B903D0200E006E1CD0E926C60EE95C37
:1016B000D8B4C78DEF50006E08E1C7BD06D0C7B9DA
:1016C00014D0C7B702D0200E0BD0C7AF06D02D0E56
:1016D000006EED50C79DC79F04D0C787C799300ED5
:1016E000002600509EA8FED7AD6EEE50C7ADDED7E7
:1016F000000CB26BB2510F0845E30D0E9EA8FED749
:10170000AD6E0A0E9EA8FED7AD6EB2C0B4F0370E15
:10171000B56F63EC05F0200E9EA8FED7AD6E3A0EB5
:101720009EA8FED7AD6E200E9EA8FED7AD6EB36B01
:10173000B351070825E3B251100DF3CFB4F0D890A0
:10174000B335B425B56FB1C0C0F0B0C0BFF0C16F44
:10175000DAEC06F07FC0B4F0370EB56F63EC05F03D
:10176000200E9EA8FED7AD6E80C0B4F0370EB56FC8
:1017700063EC05F0200E9EA8FED7AD6EB32BD8D734
:10178000B22BB8D795EF19F024EC05F094948B9414
:10179000060E006E002EFED70000C950830EC96EE3
:1017A000C730FEE3BBC0BCF0C950BBC0C9FFC730E7
:1017B000FEE3BAC0BCF0C950BAC0C9FFC730FEE3EF
:1017C000C950C96AC730FEE394948B84000C24ECA2
:1017D00005F094948B94C950530EC96EC730FEE344
:1017E000BBC0BCF0C950BBC0C9FFC730FEE3BAC024
:1017F000BCF0C950BAC0C9FFC730FEE3C950C96ABE
:10180000C730FEE394948B84000CF29CF29EF2BEEF
:10181000FDD794948B8424EC05F094948B94B05170
:10182000010B006E036A0050031006E0C950820EDF
:10183000C96EC730FEE305D0C950850EC96EC730EA
:10184000FEE3B1C0B5F0C950B1C0C9FFC730FEE377
:10185000B0C0B5F0C950B0C0C9FFC730FEE3C95031
:10186000C96AC730FEE3B36BFF0EB26FCC0EB36F25
:101870009EAAFED7AECFB4F0B451B31BC950B4C0CA
:10188000C9FFC730FEE3B22BB23DF2D794948B84EC
:10189000C00EF2126EEF1AF0E950B46F3B0EBB6F40
:1018A0009A0EBA6FCA0EB96FB86B0A0EB66F186A85
:1018B000F2BE188EF29EB3C0C1F0B2C0C0F0B1C08B
:1018C000BFF0B0C0BEF0BBC0C5F0BAC0C4F0B9C074
:1018D000C3F0B8C0C2F02CEC03F018BEF28E015079
:1018E000EFCFB0F0ECCFB1F0ECCFB2F0ECCFB3F083
:1018F00000520FE1B651010A0CE0B4510BE00F0B9E
:10190000B65D01E00DE2B4BF0BD0B4BD03D0200E34
:1019100002D0B46B300E002600509EA8FED7AD6EEC
:10192000186AF2BE188EF29EBBC0C1F0BAC0C0F0F9
:10193000B9C0BFF0B8C0BEF0C56BC46BC36B0A0EB4
:10194000C26F2CEC03F018BEF28E03C0BBF002C0D5
:10195000BAF001C0B9F000C0B8F0B62FA8D759EF5F
:101960000FF0BE51030B036AF2CFC1F0F29E55ECAB
:1019700000F0C1BFF28EBF6FBD51BF27BF518009BC
:10198000C06FC16BC26FB0EC04F0000CBC510C0A0C
:1019900005E0060A0DE0020A11E016D0C16B010E47
:1019A000C26FB0EC04F0020EC16F7FEC04F013D0F4
:1019B000010EBD6F020EBE6FD4DF0DD0C16B100ED5
:1019C000C26FB0EC04F007D0010EC16FBCC0C2F012
:1019D000B0EC04F000D0000CE950B46F3B0EBB6FCC
:1019E0009A0EBA6FCA0EB96FB86B0A0EB66F186A44
:1019F000F2BE188EF29EB3C0C1F0B2C0C0F0B1C04A
:101A0000BFF0B0C0BEF0BBC0C5F0BAC0C4F0B9C032
:101A1000C3F0B8C0C2F02CEC03F018BEF28E015037
:101A2000EFCFB0F0ECCFB1F0ECCFB2F0ECCFB3F041
:101A300000520FE1B651010A0CE0B4510BE00F0B5C
:101A4000B65D01E00CE2B4BF0AD0B4BD03D0200EF5
:101A500002D0B46B300E002600C0BCF097DF186ACD
:101A6000F2BE188EF29EBBC0C1F0BAC0C0F0B9C0C1
:101A7000BFF0B8C0BEF0C56BC46BC36B0A0EC26FBB
:101A80002CEC03F018BEF28E03C0BBF002C0BAF01B
:101A900001C0B9F000C0B8F0B62FA9D782EF0FF09F
:101AA000CC6BCD6B010ECE6FDA6AD96AD16BC40EE6
:101AB000D06FEA6AC80EE96ED1C0E2FFD0C0E1FF84
:101AC000CEC0CFF0D890E550EE02F350CC23F450C6
:101AD000CD23CF2FF7D7CCC0DEFFCDC0CCF0CD6B60
:101AE000D8B0CD2BD02BD8B4D12BCE2BCE510508CE
:101AF000E0E1000CCB51CF19800BD56FCBAF0BD0F1
:101B0000C81FC91FCA1FCB1FC82BD8B4C92BD8B434
:101B1000CA2BD8B4CB2BCFAF0BD0CC1FCD1FCE1F31
:101B2000CF1FCC2BD8B4CD2BD8B4CE2BD8B4CF2B41
:101B3000006A016A026A036AD06BD16BD26BD36B05
:101B4000CF51CE11CD11CC112CE0200ED46FD890F6
:101B5000C837C937CA37CB37D037D137D237D33761
:101B6000CF51D35D08E1CE51D25D05E1CD51D15DBC
:101B700002E1CC51D05D0FE3CC51D05FCD51D8A064
:101B8000CD3DD15FCE51D8A0CE3DD25FCF51D8A0B0
:101B9000CF3DD35FD8800036013602360336D42FCE
:101BA000D6D7D5AF0BD0001E011E021E031E002A81
:101BB000D8B4012AD8B4022AD8B4032AEA6AD00ECB
:101BC000E96E000C010EBC6FBD6BBE6BBF6BC16BD1
:101BD000C26BB8BF01D018D0010EC16FB8C0C7F03A
:101BE000B7C0C6F0B6C0C5F0B5C0C4F0FF0ECB6F2D
:101BF000CA6FC96FC86F54DF03C0B8F002C0B7F036
:101C000001C0B6F000C0B5F0BC5306E1BD5304E11D
:101C1000BE5302E1BF5373E0B8C0CBF0B7C0CAF007
:101C2000B6C0C9F0B5C0C8F0CF6BCE6BCD6BB9C034
:101C3000CCF060DF03C0BFF002C0BEF001C0BDF059
:101C400000C0BCF0036AC251BA25016EBB51032229
:101C500001C0C4F003C0C5F0EACFC7F0E9CFC6F0B9
:101C6000B8C0CBF0B7C0CAF0B6C0C9F0B5C0C8F0B4
:101C7000CF6BCE6BCD6BB9C0CCF03CDFEFCF00F0BB
:101C8000ECCF01F0ECCF02F0ECCF03F0C7C0EAFFDD
:101C9000C6C0E9FF03C0CBF002C0CAF001C0C9F062
:101CA00000C0C8F0300E0024006E000E0120000EAF
:101CB0000220000E0320C5C0EAFFC4C0E9FF00C037
:101CC000EFFF036AC251BA25E96EBB510320EA6EE9
:101CD000EF5039080AE2036AC251BA25E96EBB51D6
:101CE0000320EA6E070EEF24EF6EC22BBFC0B8F0E0
:101CF000BEC0B7F0BDC0B6F0BCC0B5F085D7C12D31
:101D00000AD0036AC251BA25E96EBB510320EA6EBC
:101D10002D0EEF6EC22BC06BD890C231C05D2FE28A
:101D2000036AC051BA25E96EBB510320EA6EEFCFBA
:101D3000C3F0036AC051BA25016EBB51032203C030
:101D4000C5F0C051C25DFF0F036ABA25E96EBB51F1
:101D50000320EA6EEFCFC8F0C5C0EAFF01C0E9FF7B
:101D6000C8C0EFFFC051C25DFF0F036ABA25E96E1C
:101D7000BB510320EA6EC3C0EFFFC02BCDD7036A6F
:101D8000C251BA25E96EBB510320EA6EEF6ABAC0B0
:101D900001F0BBC002F0000CB2C0B4F0B1C0B3F0AF
:101DA000B4C003F0B3C0E9FFB4C0EAFFEF5204E0EF
:101DB000B32BD8B4B42BF4D7B151B35D006EB2518C
:101DC000B459036E00C001F0000CEACFB8F0E9CFBF
:101DD000B7F0B139F009B36FB327E20FB46F320F28
:101DE000B66FB1510F0BB427B427B627E90FB56F03
:101DF000B527B527B0390F0BB527B627B537B63796
:101E0000B61FB637B0510F0BB627B337070EB26FF8
:101E10000A0EB507B627FDE3B407B527FDE3B30700
:101E2000B427FDE3B207B327FDE3EA6AB20EE96E19
:101E3000070EB715B79DE926B60EE95CD8B4B78D85
:101E4000EF50006E08E1B7BD06D0B7B913D0B7B7F1
:101E500002D0200E03D0B787B799300E0026EACF04
:101E6000B1F0E9CFB0F000C0BCF090DDB1C0EAFF46
:101E7000B0C0E9FFEE50B7ADDFD7EBEF10F0AEA189
:101E800020D0AF6BAF5164EC00F0AF2B006E005070
:101E90009EA8FED7AD6E070EAF5DF4E1410EE96E70
:101EA00034C0B3F033C0B2F032C0B1F031C0B0F0E2
:101EB000F3D42C0E9EA8FED7AD6E200E9EA8FED7A2
:101EC000AD6EAEA325D0BD6BBE6B4BDDBC6B5EDDD6
:101ED000040EBD6FBE6B45DDAF6BAF5178EC00F00B
:101EE000AF2B006EBC6F52DD040EAF5DF6E1040E49
:101EF000E96E34C0B3F033C0B2F032C0B1F031C0DB
:101F0000B0F06AD52C0EBC6F41DD200EBC6F3EDDFB
:101F1000EA6A4D0EE96EF2CFAFF0F29E000E8BEC46
:101F200000F00A000900F550EE6E0009FBE1AFBFBA
:101F3000F28E186AF2BE188EF29E24C0C1F023C041
:101F4000C0F022C0BFF021C0BEF0C56BC46B0E0E46
:101F5000C36F100EC26F2CEC03F018BEF28E00C0DF
:101F6000AFF0B86BB76BB66B00C0B5F00A0EB96FC7
:101F7000BB6B610EBA6F26DEB26B610EB16F0CDF08
:101F80000150020820E3B26B610EB16F05DF4F0E06
:101F9000D8800154AF6F000ED8A0E806B06FB26BC6
:101FA000610EB16FF9DE01C0B1F0B0C0EAFFAFC0A1
:101FB000E9FFE26A610EE16E0150016E04E0E6CFD6
:101FC000EEFF012EFCD7186AF2BE188EF29E24C0D6
:101FD000C1F023C0C0F022C0BFF021C0BEF0C56B6D
:101FE000C46B0E0EC36F100EC26F2CEC03F018BE44
:101FF000F28EEFCFAFF0ECCFB0F0ECCFB1F0ECCF92
:10200000B2F0EACFB4F0E9CFB3F0186AF2BE188E9E
:10201000F29EB2C0C1F0B1C0C0F0B0C0BFF0AFC05E
:10202000BEF0C56BC46BC36B3C0EC26F2CEC03F0EF
:1020300018BEF28EB4C0EAFFB3C0E9FF00C0B0F032
:10204000B86BB76BB66B00C0B5F00A0EB96FBB6B5F
:10205000610EBA6FB7DDB26B610EB16F9DDE0150DC
:10206000020820E3B26B610EB16F96DE520ED8808B
:102070000154AF6F000ED8A0E806B06FB26B610ECE
:10208000B16F8ADE01C0B1F0B0C0EAFFAFC0E9FFB6
:10209000E26A610EE16E0150016E04E0E6CFEEFFF0
:1020A000012EFCD7186AF2BE188EF29E24C0C1F031
:1020B00023C0C0F022C0BFF021C0BEF0C56BC46B0E
:1020C000C36B3C0EC26F2CEC03F018BEF28EEFCF48
:1020D00000F0ECCF01F0ECCF02F0ECCF03F000C049
:1020E000AFF0B86BB76BB66B00C0B5F00A0EB96F46
:1020F000BB6B610EBA6F66DDB26B610EB16F4CDE09
:102100000150020820E3B26B610EB16F45DE550E3F
:10211000D8800154AF6F000ED8A0E806B06FB26B44
:10212000610EB16F39DE01C0B1F0B0C0EAFFAFC0DF
:10213000E9FFE26A610EE16E0150016E04E0E6CF54
:10214000EEFF012EFCD7040EBD6F010EBE6F09DC41
:10215000AEA10ED0EA6A4D0EE96E000EEF1008E057
:10216000EF509EA8FED7AD6EE92AD8B4EA2AF5D77B
:10217000AEA316D0EA6A4D0EE96E000EEF1010E025
:10218000EACFB0F0E9CFAFF0EFCFBCF0C6EC0CF087
:10219000B0C0EAFFAFC0E9FFE92AD8B4EA2AEDD718
:1021A000040EBD6F020EBE6FB1EC0CF0AEA313D0E7
:1021B000AF6BAF519DEC00F0AF2B006EBC6FC6EC67
:1021C0000CF0040EAF5DF5E1010EE96E36C0B1F022
:1021D00035C0B0F0FAD5000C24EC05F094948B9443
:1021E000060E006E002EFED70000C950D10EC96E3B
:1021F000C730FEE3C950C96AC730FEE3C950C96A97
:10220000C730FEE3C950B0C0C9FFC730FEE3C950B4
:10221000C96AC730FEE3C9CF7FF0C950C96AC73069
:10222000FEE3C9CF80F094948B84C5EF1AF0BC6BA9
:10223000BD6BBE6BBF6B93988A9893908A90939274
:102240008A9293948A9493968A96140EC16F7FEC27
:1022500004F0BB51030801E24CD1208CBB51FC0FB0
:1022600017E2040F7AEF12F092821F9480B21F845B
:102270000FD092841F9480B41F840AD092861F943A
:1022800080B61F8405D092881F9480B81F8400D028
:10229000BA5302E193988A88C80EC16F7FEC04F0AC
:1022A000BB51FC0F0FE2040F90EF12F093908A8065
:1022B00009D093928A8206D093948A8403D093960D
:1022C0008A8600D00A0EC16F7FEC04F024C02CF087
:1022D00023C02BF022C02AF021C029F024C030F006
:1022E00023C02FF022C02EF021C02DF0846B836B11
:1022F00004002950215C006E2A502258016E2B5098
:1023000023582C50245801C0BDF000C0BCF02D5003
:10231000215C006E2E502258016E2F5023583050F1
:10232000245801C0BFF000C0BEF0BB51FC0F17E243
:10233000040FA6EF12F09282209880B220880FD06E
:102340009284209880B420880AD09286209880B603
:10235000208805D09288209880B8208800D020A6B8
:102360000FD0BA5303E14C50030805E0BA5307E01D
:102370004C50050804E120A202D0208601D020960E
:1023800020B62DD020A402D020949BD0B751BD5DA3
:1023900005E303E1B651BC5D01E393D0B551845D23
:1023A00016E303E1B451835D12E3BB51FC0F0FE26E
:1023B000040FBCEF12F093908A9009D093928A9206
:1023C00006D093948A9403D093968A9600D0B951FC
:1023D000BF5D05E303E1B851BE5D01E372D0006A61
:1023E00020B800841F500018040B6AE024C030F0AD
:1023F00023C02FF022C02EF021C02DF01F9420B852
:102400001F84BA531EE1D890BB35036A890FE96E69
:10241000000E0320EA6EECCFC1F0ED52EFCFC0F01A
:10242000C05302E1C1530DE0D890BB35036A890F58
:10243000E96E000E0320EA6EFF0EEF2602E2EE5276
:10244000ED06BA532DE0D890BB35036A890FE96ECB
:10245000000E0320EA6EECCFC1F0ED52EFCFC0F0DA
:10246000D890BB35036A930FE96E000E0320EA6E25
:10247000ECCF03F0ED52EFCF01F0C151035C10E35C
:1024800003E10150C05D0CE2D890BB35036A890FAF
:10249000E96E000E0320EA6E010EEE2601E3EF2A3C
:1024A000010E8327000E84230D0E9EA8FED7AD6E6D
:1024B000100EE96E84C0C1F083C0C0F00BEC0BF0CD
:1024C00017D7209493908A9093928A9293948A94A7
:1024D00093968A96020EC06FFA0EC16F7FEC04F0DD
:1024E000C02FFAD793988A98140EC16F7FEC04F02E
:1024F000209C000CF2CF0EF0F29EE824F76AF7362B
:10250000190FF66E250EF7220A00F550FA6E080034
:10251000F5500EBEF28EF96E682272227C2286225F
:10252000F2CF0EF0F29EE824F76AF736450FF66E0A
:10253000250EF7220A00F550FA6E0800F5500EBE7F
:10254000F28EF96EAC22B222B822BE22F2CF0EF089
:10255000F29EE824F76AF736710FF66E250EF72221
:102560000A00F550FA6E0800F5500EBEF28EF96EB4
:10257000362340234A235423F2CF0EF0F29EE82460
:10258000F76AF7369D0FF66E250EF7220A00F55012
:10259000FA6E0800F5500EBEF28EF96EB623BC231B
:1025A000C223C82324EC05F094948B94060E006E8D
:1025B000002EFED70000C9503D0EC96EC730FEE3A5
:1025C000C9502A0EC96EC730FEE3C950800EC96ECD
:1025D000C730FEE3C950A60EC96EC730FEE394941F
:1025E0008B842DEF1DF0B66BB46B0A0EB56FB36B19
:1025F000B26BB16BB06BAE51AF1105E1006A016A0D
:10260000026A036A3DD1B651B62B036AAE25E96E64
:10261000AF510320EA6EEFCFB7F0B7512D080DE1AF
:10262000010EB46FB651B62B036AAE25E96EAF51F9
:102630000320EA6EEFCFB7F00DD0B7512B080AE1B7
:10264000B651B62B036AAE25E96EAF510320EA6E90
:10265000EFCFB7F0B7512F08D8B0FAD0B75139083B
:10266000D8A0F6D0B751300821E1036AB651AE25A3
:10267000E96EAF510320EA6EEF5078080AE0036A72
:10268000B651AE25E96EAF510320EA6EEF505808FF
:102690000DE1100EB56FB62BB651B62B036AAE2501
:1026A000E96EAF510320EA6EEFCFB7F0B5510A08DB
:1026B00044E1B7512F0840E2B75139083DE3D890C3
:1026C000B035B96FB135BA6FB235BB6FB335BC6FCA
:1026D000B035006EB135016EB235026EB335036EA2
:1026E000003601360236033600360136023603362E
:1026F000F80E0016B9510026BA510122BB51022230
:10270000BC51032203C0B3F002C0B2F001C0B1F06B
:1027100000C0B0F0300EB75DB027000EB123B22379
:10272000B323B651B62B036AAE25E96EAF51032031
:10273000EA6EEFCFB7F0BDD78BD0B5511008D8A453
:1027400087D0B751600806E2B7517A0803E3B75162
:10275000DF0B01D0B751B76FB7512F0803E2B75164
:10276000390807E2B7514008D8B072D0B7514608CF
:102770006FE3B7512F082DE2B75139082AE3B0357E
:10278000B96FB135BA6FB235BB6FB335BC6FB937FE
:10279000BA37BB37BC37B937BA37BB37BC37B937AD
:1027A000BA37BB37BC37F00EB917300EB75DB92555
:1027B000006E000EBA21016E000EBB21026E000EEB
:1027C000BC21B36F02C0B2F001C0B1F000C0B0F0E4
:1027D0002AD0B035B96FB135BA6FB235BB6FB335EA
:1027E000BC6FB937BA37BB37BC37B937BA37BB3725
:1027F000BC37B937BA37BB37BC37F00EB917410E03
:10280000B75D0A0FB925006E000EBA21016E000EE9
:10281000BB21026E000EBC21B36F02C0B2F001C03A
:10282000B1F000C0B0F0B651B62B036AAE25E96E28
:10283000AF510320EA6EEF50B76F600806E2B75160
:102840007A0803E3B751DF0B01D0B751B76F84D7D4
:10285000B5510A080DE1B42D0BD0B01FB11FB21F46
:10286000B31FB02BD8B4B12BD8B4B22BD8B4B32B80
:10287000B0C000F0B1C001F0B2C002F0B3C003F0CC
:10288000CAEF1BF0006A016AB651D890B7B10026B2
:1028900000320132B7B3002600320132B7B500264C
:1028A00000320132B7B7002600320132B7B9002634
:1028B00000320132B7BB002600320132B7BD00261C
:1028C00000320132B7BF002600320132000CB46B77
:1028D000B26B0A0EB36FB16BAF51B01103E1000ED2
:1028E000016EC1D0B451B42B036AAF25E96EB0516B
:1028F0000320EA6EEFCFB5F0B5512D080DE1010EC2
:10290000B26FB451B42B036AAF25E96EB051032006
:10291000EA6EEFCFB5F00DD0B5512B080AE1B451F6
:10292000B42B036AAF25E96EB0510320EA6EEFCFF6
:10293000B5F0B5512F08D8B08ED0B5513908D8A010
:102940008AD0B551300821E1036AB451AF25E96E50
:10295000B0510320EA6EEF5078080AE0036AB451E0
:10296000AF25E96EB0510320EA6EEF5058080DE133
:10297000100EB36FB42BB451B42B036AAF25E96EBC
:10298000B0510320EA6EEFCFB5F0B3510A081BE156
:10299000B5512F0817E2B551390814E30A0EB66F86
:1029A000B1C0B7F06FDF300EB55D0124B16FB45127
:1029B000B42B036AAF25E96EB0510320EA6EEFCF66
:1029C000B5F0E6D748D0B351100845E1B5516008DD
:1029D00006E2B5517A0803E3B551DF0B01D0B551DA
:1029E000B56FB5512F0803E2B551390806E2B5516C
:1029F000400831E2B55146082EE3B5512F080CE2EC
:102A0000B551390809E3B139B66FF00EB617300E7B
:102A1000B55DB625B16F09D0B139B66FF00EB617F6
:102A2000410EB55D0A0FB625B16FB451B42B036AE0
:102A3000AF25E96EB0510320EA6EEFCFB5F0B55186
:102A4000600806E2B5517A0803E3B551DF0B01D007
:102A5000B551B56FC6D7B22D04D0B3510A0801E104
:102A6000B16DB1C001F0000C926B916B32C0BBF044
:102A700031C0BAF032C0C0F031C0BFF0C16BDAEC87
:102A800006F080C003F07F51315C07E10350325CF7
:102A900004E1335202E134520EE0BA6BBA5145EC14
:102AA00001F0BA2B006E00509EA8FED7AD6E180E36
:102AB000BA5DF4E153D2E10E2124BA6F000E222058
:102AC000BB6F000E2320BC6F000E2420BD6F186A60
:102AD000F2BE188EF29EC16FBCC0C0F0BBC0BFF08A
:102AE000BAC0BEF0C56BC46B010EC36FC20EC26F1D
:102AF0002CEC03F018BEF28E01C0B3F000C0B2F0AF
:102B0000E10E2124BA6F000E2220BB6F000E23209D
:102B1000BC6F000E2420BD6F186AF2BE188EF29EA4
:102B2000C16FBCC0C0F0BBC0BFF0BAC0BEF0C56BC7
:102B3000C46B010EC36FC20EC26F2CEC03F018BE43
:102B4000F28EEFCFB4F0ECCFB5F032C0BBF031C0B5
:102B5000BAF032C0C0F031C0BFF0020EC16FDAEC83
:102B600006F080C0B1F07FC0B0F0B351B15D04E3B6
:102B700010E1B051B25D0DE37C0EB025016E000E88
:102B8000B121036E0350B35D75E303E1B251015C03
:102B900071E2D890AF35036A930FE96E000E0320FF
:102BA000EA6EECCF03F0ED52EFCFBAF003C0BBF00A
:102BB000BC6BBD6B9D519F5D006E9E51A059036E15
:102BC000005003C001F0026A036A03C0C1F002C0F2
:102BD000C0F001C0BFF000C0BEF0EACFC3F0E9CF43
:102BE000C2F0BDC0C7F0BCC0C6F0BBC0C5F0BAC023
:102BF000C4F003C0CBF002C0CAF001C0C9F000C0ED
:102C0000C8F050EC0DF0C3C0EAFFC2C0E9FF03C03A
:102C10002CF002C02BF001C02AF000C029F09D5119
:102C20009B5D006E9E519C59036E00C0BAF0BB6F55
:102C3000186AF2BE188EF29E2CC0C1F02BC0C0F0F4
:102C40002AC0BFF029C0BEF0C56BC46BC36F00C003
:102C5000C2F02CEC03F018BEF28E03C02CF002C0C0
:102C60002BF001C02AF000C029F02AC092F029C040
:102C700091F074D132C0BBF031C0BAF0B051B25D46
:102C8000006EB151B359036E0050D8900036005019
:102C9000040FBE6F32C0C0F031C0BFF0C16FDAECBC
:102CA00006F080C0B7F07FC0B6F032C0BBF031C0D4
:102CB000BAF0B051B25D006EB151B359036E00501D
:102CC000D89000360050060FBE6F32C0C0F031C041
:102CD000BFF0C16FDAEC06F080C0B9F07FC0B8F089
:102CE000B751B95D5DE303E1B851B65D59E2B65144
:102CF000B85D006EB751B959036E00C0BAF0BB6F32
:102D0000BC6BBD6BB4C000F0B5C001F0026A036AD1
:102D100003C0C1F002C0C0F0B5C0BFF0B4C0BEF087
:102D2000BDC0C7F0BCC0C6F0C56FBAC0C4F003C018
:102D3000CBF002C0CAF0B5C0C9F0B4C0C8F050ECC6
:102D40000DF003C02CF002C02BF001C02AF000C02F
:102D500029F0186AF2BE188EF29E2CC0C1F02BC06A
:102D6000C0F02AC0BFF029C0BEF0C56BC46B010E15
:102D7000C36FC20EC26F2CEC03F018BEF28E03C0FC
:102D80002CF002C02BF001C02AF000C029F02AC0AC
:102D9000B9F029C0B8F0B851B627B951B72358D007
:102DA000B851B65D006EB951B759036E00C0BAF0A4
:102DB000BB6FBC6BBD6BB4C000F0B5C001F0026A64
:102DC000036A03C0C1F002C0C0F0B5C0BFF0B4C018
:102DD000BEF0BDC0C7F0BCC0C6F0C56FBAC0C4F07D
:102DE00003C0CBF002C0CAF0B5C0C9F0B4C0C8F08F
:102DF00050EC0DF003C02CF002C02BF001C02AF003
:102E000000C029F0186AF2BE188EF29E2CC0C1F0E4
:102E10002BC0C0F02AC0BFF029C0BEF0C56BC46B88
:102E2000010EC36FC20EC26F2CEC03F018BEF28EFF
:102E300003C02CF002C02BF001C02AF000C029F022
:102E40002AC0B9F029C0B8F0B851B65FB951B75B24
:102E50009C51B75D08E303E19B51B65D04E39CC060
:102E6000B7F09BC0B6F0B7519E5D08E303E1B651E1
:102E70009D5D04E39EC0B7F09DC0B6F0D890AF351D
:102E8000036A930FE96E000E0320EA6EECCF03F0A5
:102E9000ED52EFCFBAF003C0BBF0BC6BBD6B9D51E0
:102EA000B65D006E9E51B759036E005003C001F02D
:102EB000026A036A03C0C1F002C0C0F001C0BFF0E3
:102EC00000C0BEF0EACFC3F0E9CFC2F0BDC0C7F08A
:102ED000BCC0C6F0BBC0C5F0BAC0C4F003C0CBF0E4
:102EE00002C0CAF001C0C9F000C0C8F050EC0DF03B
:102EF000C3C0EAFFC2C0E9FF03C02CF002C02BF040
:102F000001C02AF000C029F09D519B5D006E9E51CA
:102F10009C59036E00C0BAF0BB6F186AF2BE188EDF
:102F2000F29E2CC0C1F02BC0C0F02AC0BFF029C057
:102F3000BEF0C56BC46BC36F00C0C2F02CEC03F0D5
:102F400018BEF28E03C02CF002C02BF001C02AF094
:102F500000C029F02AC092F029C091F0000CBA51AB
:102F6000016AB95D03E2B9C000F00CD0006A080E36
:102F7000BB6FB9370036BA51005CD8B0006E01366D
:102F8000BB2FF7D7000C200EB4A9300EB56FB3C01D
:102F900000F0B3AF07D0001E002A00C0B3F02D0E22
:102FA000B56FB48F0150B3C0B9F0640EBA6FD7DFFC
:102FB00000C0B3F0300E0124B66FB3C0B9F00A0EF2
:102FC000BA6FCDDF300E0024B86F300E0124B76F1A
:102FD000B5C000F0B4A702D0B4AFB495B4B90BD06B
:102FE000B4AF22D0B4B520D000C0B6F0B4B31CD07A
:102FF00000C0B7F019D0300EB65D16E100C0B6F0D3
:10300000200EB56FB4A704D0B495B483B4AFB49315
:10301000300EB75D09E100C0B7F0200EB66FB4A75F
:10302000F7D7B493B4AFB491B4A504D0B5519EA86A
:10303000FED7AD6EB4A304D0B6519EA8FED7AD6E38
:10304000B4A104D0B7519EA8FED7AD6EB8519EA8CA
:10305000FED7AD6E000CD890AF35036A890FE96ECC
:10306000000E0320EA6EECCFB1F0ED52EFCFB0F0DE
:10307000050E9125016E000E9221036E0350B15D85
:1030800028E303E1B051015C24E2D890AF35036A34
:10309000890FE96E000E0320EA6EECCFB1F0ED521D
:1030A000EFCFB0F09151B05DB26F9251B159B36FA3
:1030B000B56FB2C0B4F0110EB76F940EB66F82C088
:1030C000B9F081C0B8F0BA6BAFC0BBF017EC11F02B
:1030D0008FD0D890AF35036A890FE96E000E0320B8
:1030E000EA6EECCFB1F0ED52EFCFB0F0050EB025A7
:1030F000B26F000EB121B36F925D27E303E19151EE
:10310000B25D23E2D890AF35036A890FE96E000EF5
:103110000320EA6EECCF03F0ED52EF50915DB06FFB
:1031200003509259B16FB56FB0C0B4F0110EB76FC4
:10313000940EB66F82C0B9F081C0B8F0010EBA6FBC
:10314000AFC0BBF017EC11F053D0915321E1925373
:103150001FE1D890AF35036A930FE96E000E03208C
:10316000EA6EECCFB1F0ED52EFCFB0F0B1C0B5F0F8
:10317000B0C0B4F0110EB76F940EB66F82C0B9F044
:1031800081C0B8F0BA6BAFC0BBF017EC11F030D013
:10319000D890AF35036A930FE96E000E0320EA6EF4
:1031A000ECCF03F0ED52EF50915D22E10350925DC0
:1031B0001FE1D890AF35036A930FE96E000E03202C
:1031C000EA6EECCFB1F0ED52EFCFB0F0B1C0B5F098
:1031D000B0C0B4F0110EB76F940EB66F82C0B9F0E4
:1031E00081C0B8F0010EBA6FAFC0BBF017EC11F0A0
:1031F000000C1F96286A276A266A256A0D0E9EA86B
:10320000FED7AD6E0A0E9EA8FED7AD6E3E0E9EA8EE
:10321000FED7AD6EEA6A370EE96E000EEF1008E0D9
:10322000EF509EA8FED7AD6EE92AD8B4EA2AF5D7AA
:103230000D0E9EA8FED7AD6E0A0E9EA8FED7AD6EEF
:10324000620E375CE70FD8B02DEF1DF0190F2FEF8E
:103250001DF0EA6A370EE96EE26A380EE16E120E70
:10326000016EE6CFEEFF012EFCD7AF6B370EAE6FCF
:10327000EAEC09F002C0AFF00150AE6F160802E1AF
:10328000AF5302E02DEF1DF0AE6BAE515FEC01F0DD
:10329000AE2B006E00509EA8FED7AD6E100EAE5D38
:1032A000F4E1DEEF0AF0F29CF29EF2BEFDD7EA6A8C
:1032B000370EE96EE26A380EE16E120E016EE6CF4D
:1032C000EEFF012EFCD7D190AF6B370EAE6FEAEC5C
:1032D00009F002C0AFF001C0AEF0B06BB05175ECB8
:1032E00001F0B02B006E00509EA8FED7AD6E080E08
:1032F000B05DF4E1100EE96EAFC0C1F0AEC0C0F039
:103300000BEC0BF03A0E9EA8FED7AD6EAF6B370EEE
:10331000AE6FEAEC09F002C0AFF001C0AEF002C03F
:10332000B1F001C0B0F079EF0BF0D180C00EF21215
:103330002DEF1DF0F29CF29EF2BEFDD7EA6A370E29
:10334000E96EE26A380EE16E120E016EE6CFEEFF14
:10335000012EFCD7AF6B370EAE6FEAEC09F002C05E
:10336000AFF001C0AEF0B06BB05189EC01F0B02B02
:10337000006E00509EA8FED7AD6E190EB05DF4E150
:10338000100EE96EAFC0C1F0AEC0C0F00BEC0BF098
:103390003A0E9EA8FED7AD6EAF6B370EAE6FEAEC5D
:1033A00009F002C0AFF001C0AEF002C0BBF001C036
:1033B000BAF0C4EC0BF0C00EF2124FD3F29CF29EA6
:1033C000F2BEFDD7EA6A370EE96EE26A380EE16EA8
:1033D000120E016EE6CFEEFF012EFCD7AF6B370E5B
:1033E000AE6FEAEC09F002C0AFF001C0AEF0B06B16
:1033F000B051A5EC01F0B02B006E00509EA8FED796
:10340000AD6E0D0EB05DF4E1100EE96EAFC0C1F00F
:10341000AEC0C0F00BEC0BF0100EB16FB151A5ECCB
:1034200001F0B12B006E00509EA8FED7AD6E1B0EB2
:10343000B15DF4E1AF6B370EAE6FEAEC09F002C09C
:10344000AFF001C0AEF002C0BBF001C0BAF0E7ECD3
:103450000BF0C00EF21201D3F29CF29EF2BEFDD729
:10346000D190EA6A370EE96EE26A380EE16E120E0A
:10347000016EE6CFEEFF012EFCD7AF6B370EAE6FBD
:10348000EAEC09F002C0AFF001C0AEF0B06BB05191
:10349000C0EC01F0B02B006E00509EA8FED7AD6EC0
:1034A0000E0EB05DF4E1100EE96EAFC0C1F0AEC01B
:1034B000C0F00BEC0BF03A0E9EA8FED7AD6EAF6BD2
:1034C000370EAE6FEAEC09F002C0AFF001C0AEF00B
:1034D00002C0B1F001C0B0F005EF0CF00D0E9EA8D7
:1034E000FED7AD6E0A0E9EA8FED7AD6E2E0E9EA81C
:1034F000FED7AD6ED180C00EF212AFD2010EAE6F0C
:103500003FEC0FF0AAD2F29CF29EF2BEFDD7AE6B5A
:10351000AE51D7EC01F0AE2B006E00509EA8FED746
:10352000AD6E0B0EAE5DF4E1AC6BAC510F0846E333
:10353000AC51100DF3CFAEF00D0E9EA8FED7AD6EC0
:103540000A0E9EA8FED7AD6EAEC0B4F0370EB56FB2
:1035500063EC05F0200E9EA8FED7AD6E3A0E9EA835
:10356000FED7AD6E200E9EA8FED7AD6EAD6BAD51F1
:10357000070822E3AC51100DF3CFAEF0D890AD3573
:10358000AE25AF6FB06FECEF10F07FC0B4F0370E28
:10359000B56F63EC05F0200E9EA8FED7AD6E80C01F
:1035A000B4F0370EB56F63EC05F0200E9EA8FED781
:1035B000AD6E0400AD2BDBD7AC2BB7D7C00EF2122B
:1035C0004CD2EA6A370EE96EE26A380EE16E120EEC
:1035D000016EE6CFEEFF012EFCD7AF6B370EAE6F5C
:1035E000EAEC09F002C0AFF001C0AEF0AE5303E167
:1035F000AF5301E132D2AF6B370EAE6FEAEC09F098
:1036000002C0AFF001C0AEF002C0B5F001C0B4F02E
:10361000230EB76F280EB66F82C0B9F081C0B8F024
:10362000010EBA6FBB6B17EC11F017D2EA6A370EB6
:10363000E96EE26A380EE16E120E016EE6CFEEFF21
:10364000012EFCD7AF6B370EAE6FEAEC09F002C06B
:10365000AFF001C0AEF0AE5303E1AF5301E1FDD1D5
:10366000AF6B370EAE6FEAEC09F002C0AFF001C0ED
:10367000AEF002C0B5F001C0B4F0230EB76F280E53
:10368000B66F82C0B9F081C0B8F0BA6BBB6B17ECF3
:1036900011F0E3D1EA6A370EE96EE26A380EE16EA4
:1036A000120E016EE6CFEEFF012EFCD7AF6B370E88
:1036B000AE6FEAEC09F002C0AFF00150AE6F160831
:1036C00002E1AF5301E0C9D1AE6BAE51EAEC01F0BB
:1036D000AE2B006E00509EA8FED7AD6E160EAE5DEE
:1036E000F4E1D2EF12F0A3EC07F0AE6BAE5103ECB5
:1036F00002F0AE2B006E00509EA8FED7AD6E0D0EF0
:10370000AE5DF4E1100EE96E36C0C1F035C0C0F018
:103710000BEC0BF0A2D1EA6A370EE96EE26A380EC2
:10372000E16E120E016EE6CFEEFF012EFCD7AF6BFD
:10373000370EAE6FEAEC09F002C0AFF001C0AEF098
:10374000AE5303E1AF5301E188D1AF6B370EAE6FDB
:10375000EAEC09F001C000F002C001F0026A036A5D
:1037600003C034F002C033F001C032F000C031F0C9
:1037700074D1EA6A370EE96EE26A380EE16E120E13
:10378000016EE6CFEEFF012EFCD7AF6B370EAE6FAA
:10379000F3EF12F003C024F002C023F001C022F0C6
:1037A00000C021F0796B786B776B57D1EA6A370EDE
:1037B000E96EE26A380EE16E120E016EE6CFEEFFA0
:1037C000012EFCD7B06B370EAF6F67EC14F001C061
:1037D000AEF001C0AFF034EC15F0F29CF29EF2BEF8
:1037E000FDD7B06B370EAF6F67EC14F001C0AEF0D1
:1037F000B06B370EAF6F67EC14F001C0B6F0020E7D
:10380000B76F42EC14F00150036A890FE96E000EA5
:103810000320EA6EECCFB1F0ED52EFCFB0F0B26B17
:10382000B25119EC02F0B22B006E00509EA8FED7E8
:10383000AD6E070EB25DF4E1AEC0B3F01F0EB46F13
:10384000C3EC17F0090EB36FB35119EC02F0B32BB0
:10385000006E00509EA8FED7AD6E0E0EB35DF4E173
:10386000100EE96E92C0B6F091C0B5F051EC07F0C1
:10387000110EB46FB45119EC02F0B42B006E00506D
:103880009EA8FED7AD6E160EB45DF4E1100EE96E83
:10389000B1C0B6F0B0C0B5F051EC07F00D0E9EA867
:1038A000FED7AD6E0A0E9EA8FED7AD6EC00EF21208
:1038B000B06B370EAF6F67EC14F001C0AEF001C013
:1038C000AFF02BEC18F0C9D0EA6A370EE96EE26A65
:1038D000380EE16E120E016EE6CFEEFF012EFCD720
:1038E000B26B370EB16FCCEC0EF0015261E020905C
:1038F000B06B370EAF6F67EC14F001C0AEF0070E7F
:10390000B56FD00EB46FFF0EB76FB66F82C0B9F04F
:1039100081C0B8F0010EBA6F01C0BBF017EC11F016
:10392000B06B370EAF6F67EC14F001C0AEF0070E4E
:10393000B56FD00EB46FFF0EB76FB66F82C0B9F01F
:1039400081C0B8F0BA6B01C0BBF017EC11F0B06BDE
:10395000370EAF6F67EC14F001C0B6F0020EB76F10
:1039600042EC14F00150036A930FE96E000E03203D
:10397000EA6E84C0ECFFED5283C0EFFFB06B370EF0
:10398000AF6F67EC14F001C0B6F0020EB76F42ECF7
:1039900014F00150036A890FE96E000E0320EA6EED
:1039A000EC6AED52EF6A010EAE6FB9EC08F02080C0
:1039B00054D0010EAE6FB9EC08F04FD0207020A0AB
:1039C0000ED0AE6BAE5134EC02F0AE2B006E005058
:1039D0009EA8FED7AD6E130EAE5DF4E10DD0AE6BBA
:1039E000AE514BEC02F0AE2B006E00509EA8FED7FD
:1039F000AD6E110EAE5DF4E130D0000E016EC2501E
:103A0000C70B0110C26E100E006E002EFED7000014
:103A1000C284C2B4FED7C4CF03F0C3CFAEF0C4CFCC
:103A2000AFF0B06BB05161EC02F0B02B006E005003
:103A30009EA8FED7AD6E070EB05DF4E1100EE96EE4
:103A4000AFC0B6F0AEC0B5F051EC07F006D0F29CB6
:103A5000F29EF2BEFDD7FFD700D031EF20F0F2CFBB
:103A60000EF0F29EE824F76AF736830FF66E3A0EF0
:103A7000F7220A00F550FA6E0800F5500EBEF28EDD
:103A8000F96E3433BC33163752325834FC34C838EC
:103A90005A3AB2394E3AAC37C2352C36BC39943624
:103AA0005A3AA6325A3A72375A3A5A3A06355A3A76
:103AB000FA39E63624EC05F094948B94060E006EE9
:103AC000002EFED70000C950840EC96EC730FEE339
:103AD000C950C96AC730FEE3C950C96AC730FEE39E
:103AE000C950B6C0C9FFC730FEE3B75101080CE2A8
:103AF000FF0EB86FC950B5C0C9FFC730FEE3B82B81
:103B0000B751B85DF7E305D0C950B5C0C9FFC7309C
:103B1000FEE394948B84000C016A026A006A036AD3
:103B2000B65102E1B55118E0100EB76FD890B33717
:103B3000B43700360336B651035C02E1B551005C80
:103B400007E3B551005ED8A00306B651035ED880E6
:103B500001360236B72FEAD765EF1EF0E10E2124B9
:103B6000B36F000E2220B46F000E2320B56F000E3D
:103B70002420B66F186AF2BE188EF29EC16FB5C0CF
:103B8000C0F0B4C0BFF0B3C0BEF0C56BC46B010ED3
:103B9000C36FC20EC26F2CEC03F018BEF28E01C0D0
:103BA000ADF000C0ACF032C0B4F031C0B3F032C000
:103BB000C0F031C0BFF0020EC16FDAEC06F080C079
:103BC000AFF07FC0AEF0010E315CB36F000E325823
:103BD000B46F000E3358B56F000E3458B66F186AC4
:103BE000F2BE188EF29EC16FB5C0C0F0B4C0BFF077
:103BF000B3C0BEF0C56BC46B010EC36F6D0EC26F58
:103C00002CEC03F018BEF28EEFCF00F0ECCF01F0F9
:103C1000ECCF02F0ECCF03F0DC0E0024B46F050E05
:103C20000120B56F000E0220B66F000E0320B76FA3
:103C3000010EB425B86F000EB521B96FBB6FB8C0C7
:103C4000BAF0E7EC0BF0AD51AF5D12E303E1AE511A
:103C5000AC5D0EE2B36BB35174EC02F0B32B006EAB
:103C600000509EA8FED7AD6E0F0EB35DF4E1CED02E
:103C7000AE51AC5D15E1AF51AD5D12E1B36BB35127
:103C800089EC02F0B32B006E00509EA8FED7AD6EFB
:103C9000120EB35DF4E1B56BB66BFF0EB76F0ADFC2
:103CA000AE51AC5DB36FAF51AD59B46FB453D8A43E
:103CB000A0D0B3517B08D8A09CD078C0B4F077C016
:103CC000B3F0B66B79C0B5F027D702C0B1F001C030
:103CD000B0F0786B776B796BB36BB351A0EC02F0FB
:103CE000B32B006E00509EA8FED7AD6E090EB35DDB
:103CF000F4E17FC0B5F0020EB66F010EB76FDADEE9
:103D000080C0B5F0030EB66F010EB76FD3DE31C0C1
:103D1000B3F031C0B5F0B66B010EB76FCBDE32C079
:103D2000B3F032C0B5F0010EB66FB76FC3DEAE515F
:103D3000AC5DB36FAF51AD59B46FD890B335026E6F
:103D4000B4350250040FB26FB0C0B3F0B0C0B5F0DC
:103D5000B2C0B6F0010EB76FADDEB1C0B3F0010E68
:103D6000B225B46FB1C0B5F0B66F010EB76FA2DE69
:103D7000010E315CB36F000E3258B46F000E335831
:103D8000B56F000E3458B66F186AF2BE188EF29EE8
:103D9000C16FB5C0C0F0B4C0BFF0B3C0BEF0C56B5A
:103DA000C46B010EC36F6D0EC26F2CEC03F018BE16
:103DB000F28EEFCF00F0ECCF01F0ECCF02F0ECCFC1
:103DC00003F0DC0E0024B46F050E0120B56F000E69
:103DD0000220B66F000E0320B76F010EB425B86F36
:103DE000000EB521B96FBB6FB8C0BAF0C4EC0BF0D0
:103DF0000DD0B36BB351B2EC02F0B32B006E005098
:103E00009EA8FED7AD6E0E0EB35DF4E153EF20F029
:103E1000F86AD09E0D8EEA6AE96A030EAF6EA20EB2
:103E2000AC6E900EAB6E9488949A94968B96C180EB
:103E3000C182C184C196070EB46E196A1A6A216ADA
:103E4000226A236A246A256A266A276A286A296AF6
:103E50002A6A2B6A2C6A2D6A2E6A2F6A306A010E32
:103E6000316E326A336A346A356A366A4B6AFF0EDB
:103E70004C6E776B786B796B7E6B7F6B806B030E10
:103E8000816F826B836B846B896B8A6B8B6B8C6BA2
:103E90008D6B8E6B8F6B906B916B926B936B946B46
:103EA000956B966B976B986B996B9A6B9B6B9C6BF6
:103EB0009D6B9E6B9F6BA06BA16BA26BA36BA46BA6
:103EC000A56BA66BA76B73EF04F0C190C182C18490
:103ED000C186C19CC28CC28EC18EC280000E016E92
:103EE000C250C70B0110C26E000E956E969096825E
:103EF0009694FF0E926EA00E936E900E946E040E2A
:103F0000AC6FFA0EC16F7FEC04F0AC2FFAD7C80E7D
:103F1000C16F7FEC04F0208A000E956E8C8C848437
:103F2000C4EC04F0AC6BAC51C7EC02F0AC2B006EEF
:103F300000509EA8FED7AD6E070EAC5DF4E124ECF8
:103F400005F0AC6BAC51D8EC02F0AC2B006E00501D
:103F50009EA8FED7AD6E0D0EAC5DF4E136EF05F018
:103F6000AC6BAC51ECEC02F0AC2B006E00509EA898
:103F7000FED7AD6E070EAC5DF4E17AC0B4F0370E3B
:103F8000B56F63EC05F0200E9EA8FED7AD6E7BC02A
:103F9000B4F0370EB56F63EC05F0200E9EA8FED787
:103FA000AD6E7CC0B4F0370EB56F63EC05F0200E3B
:103FB0009EA8FED7AD6E7DC0B4F0370EB56F63EC32
:103FC00005F00AEC05F0AC6BAC5107EC03F0AC2B40
:103FD000006E00509EA8FED7AD6E090EAC5DF4E1F8
:103FE0007EC0B4F0370EB56F63EC05F091EF05F0CD
:103FF000A3EC07F00F0ECD6E9D8A9D80C00EF212CD
:1040000069EC03F0A96BA86B208020922096C80E63
:10401000C16F7FEC04F0F2CFACF0F29E400EA96EBF
:10402000A69CA69EA680A850ACBFF28E3408F3E1F1
:10403000F2CFACF0F29E410EA96EA69CA69EA68081
:10404000A850ACBFF28E1208F3E1352AD8B4362A54
:10405000AE6BB9EC08F0D18004001FA602D0F9EFD6
:1040600018F01FA205D01F92020EAE6F3FEC0FF0AA
:104070001FAE09D01F9EC284C2B4FED7C35077279B
:10408000C4507823792BAA6BAA53D8A4A5D0A7C073
:1040900000F0AA51016E04E0D8900032012EFCD746
:1040A00000A098D05BD5D890AA35036A930FE96E2B
:1040B000000E0320EA6EECCFADF0ED52EFCFACF086
:1040C000AD5304E1AC511008D8B084D0AAC0AFF011
:1040D00034EC15F0F29CF29EF2BEFDD7D890AA35D2
:1040E000036A890FE96E000E0320EA6EECCFADF093
:1040F000ED52EFCFACF0AE6BAE5119EC02F0AE2B3F
:10410000006E00509EA8FED7AD6E070EAE5DF4E1C6
:10411000AAC0B3F01F0EB46FC3EC17F0090EAF6F57
:10412000AF5119EC02F0AF2B006E00509EA8FED7E5
:10413000AD6E0E0EAF5DF4E1100EE96E92C0B6F0FA
:1041400091C0B5F051EC07F0110EB06FB05119EC01
:1041500002F0B02B006E00509EA8FED7AD6E160E7A
:10416000B05DF4E1100EE96EADC0B6F0ACC0B5F0D4
:1041700051EC07F00D0E9EA8FED7AD6E0A0E9EA85C
:10418000FED7AD6EC00EF212AAC0AFF02BEC18F045
:10419000AC6BAC511BEC03F0AC2B006E00509EA836
:1041A000FED7AD6E070EAC5DF4E1010E006EAA51B4
:1041B000016E04E0D8900036012EFCD70050FF0AB3
:1041C000A717AE6BB9EC08F0030EAE6F3FEC0FF023
:1041D000C4EC04F0AA2B58D704003ED7FFD7030045
:0200000400F00A
:080000007E047F0380028101F0
:080010000000010002000300E2
:080020000000000001000000D7
:020030000000CE
:02004000341278
:020000040030CA
:0E00000000220C0E000081000FC00FE00F4028
:00000001FF
;PIC18F458
