:020000040000FA
:0400000037EF1FF0C7
:08000800056ED8CF06F0E0CF31
:1000100007F00001E9CF0DF0EACF08F0E1CF09F0D9
:10002000E2CF0AF0D9CF0BF0DACF0CF0F3CF14F017
:10003000F4CF15F0FACF16F000C00FF001C010F0A9
:1000400002C011F003C012F004C013F09DA02CEF09
:1000500000F09EB0F4EF02F09DAA32EF00F09EBADD
:1000600014EF04F00FC000F010C001F011C002F056
:1000700012C003F013C004F00E8E0DC0E9FF08C0DB
:10008000EAFF09C0E1FF0AC0E2FF0BC0D9FF0CC0C4
:10009000DAFF14C0F3FF15C0F4FF16C0FAFF0550D5
:1000A00007C0E0FF06C0D8FF1000F2CF0EF0F29EAE
:1000B000F76AC40FF66E000EF7220900F5500EBE67
:1000C000F28E12000D0A2044617923256C752C20D4
:1000D0000000F2CF0EF0F29EF76AEC0FF66E000E03
:1000E000F7220900F5500EBEF28E120030303A3081
:1000F000303A30300000F2CF0EF0F29EF76A100F67
:10010000F66E010EF7220900F5500EBEF28E1200B7
:100110000D0A204D696E205374726F6B653D256C1E
:10012000752F32353620636D0000F2CF0EF0F29E4F
:10013000F76A440FF66E010EF7220900F5500EBE65
:10014000F28E12000D0A204D6178205374726F6B8D
:10015000653D256C752F32353620636D0000F2CF7A
:100160000EF0F29EF76A780FF66E010EF722090084
:10017000F5500EBEF28E12000D0A2053616674799E
:10018000205374726F6B653D256C752F32353620A8
:10019000636D0000F2CF0EF0F29EF76AAE0FF66EBE
:1001A000010EF7220900F5500EBEF28E12000D0A64
:1001B000204C617469747564653D256C752F313010
:1001C0003000F2CF0EF0F29EF76ADC0FF66E010EF1
:1001D000F7220900F5500EBEF28E12000D0A204CD7
:1001E0006F6E6769747564653D256C752F313030AD
:1001F0000000F2CF0EF0F29EF76A0C0FF66E020EC0
:10020000F7220900F5500EBEF28E12000D0A2041B1
:100210006C746974756465203D256C752F313030C0
:100220000000F2CF0EF0F29EF76A3C0FF66E020E5F
:10023000F7220900F5500EBEF28E12004572726F61
:10024000723A466C617368206461746120636F72F6
:10025000727570740000F2CF0EF0F29EF76A700FA4
:10026000F66E020EF7220900F5500EBEF28E120055
:100270000D0A20426C6F636B2065726173650D0A15
:100280000000F2CF0EF0F29EF76A9C0FF66E020E9F
:10029000F7220900F5500EBEF28E12000D0A205012
:1002A00041474520256C643A0000F2CF0EF0F29EE3
:1002B000F76AC40FF66E020EF7220900F5500EBE63
:1002C000F28E12000D0A20577269746520627566FD
:1002D00066657231202D3E205041474520256C64D3
:1002E0003A00F2CF0EF0F29EF76AFC0FF66E020EA5
:1002F000F7220900F5500EBEF28E12000D0A2052B0
:10030000656164205041474520256C64202D3E20C6
:100310006275666665723100F2CF0EF0F29EF76A82
:10032000320FF66E030EF7220900F5500EBEF28E64
:1003300012000D0A2057524954452050414745208C
:10034000256C643A0000F2CF0EF0F29EF76A600F5F
:10035000F66E030EF7220900F5500EBEF28E120063
:100360000D0A20427566666572313A00F2CF0EF0D2
:10037000F29EF76A860FF66E030EF7220900F5501B
:100380000EBEF28E12000D0A2053657420323536EF
:1003900020706167652073697A650D0A0000F2CFED
:1003A0000EF0F29EF76AB80FF66E030EF722090000
:1003B000F5500EBEF28E12000D0A20737461727435
:1003C0007570203D20256C640000F2CF0EF0F29E87
:1003D000F76AE40FF66E030EF7220900F5500EBE21
:1003E000F28E12000D0A20416374232564204C65AF
:1003F0006E3D256C75204E6F773D256C750D0A009E
:10040000F2CF0EF0F29EF76A1A0FF66E040EF72284
:100410000900F5500EBEF28E12000D0A204E6F72CA
:100420006D616C206F7065726174696F6E00F2CFE0
:100430000EF0F29EF76A480FF66E040EF7220900DE
:10044000F5500EBEF28E12000D0A2048616C742029
:100450006F7065726174696F6E00F2CF0EF0F29E7C
:10046000F76A740FF66E040EF7220900F5500EBEFF
:10047000F28E12000D0A4144433D20256C750000A8
:10048000F2CF0EF0F29EF76A9A0FF66E040EF72284
:100490000900F5500EBEF28E1200646F6E65200DDD
:1004A0000A00006A016A026A036A0101CC6BCD6B23
:1004B000CE6BCF6BCB51CA11C911C8112CE0200EE5
:1004C000D06FD890C437C537C637C737CC37CD378C
:1004D000CE37CF37CB51CF5D08E1CA51CE5D05E1B4
:1004E000C951CD5D02E1C851CC5D0FE3C851CC5F6D
:1004F000C951D8A0C93DCD5FCA51D8A0CA3DCE5F71
:10050000CB51D8A0CB3DCF5FD88000360136023624
:100510000336D02FD6D7010EEA6ECC0EE96E00015D
:10052000000C9E989E9A9D9AAB9EAB98AC98AC9A04
:10053000030E006E002EFED7AB88AB8EAC8A9D8A70
:10054000000C21500F0B006EF00E83140010836E10
:10055000060E006E002EFED70000838A060E006E87
:10056000002EFED70000839A060E006E002EFED7E6
:100570000000838A000C010EEA6EC70EE96EEF5090
:100580000EE0030E016E006A002EFED7012EFBD78F
:100590003C0E006E002EFED700D0EF2EF2D7000CDE
:1005A00020920101B46BB45105081BE3B4510F0B49
:1005B000006EF00E83140010836E839C060E006E96
:1005C000002EFED70000968084B003D02082B4C1F4
:1005D0004BF0060E006E002EFED70000838CB42B6D
:1005E000E2D704000001000C800ECF6E010E22261F
:1005F000000E232224222522010E4C26000E4D221D
:100600004E224F2225520DE12450000830E2FF0A0D
:1006100008E1235050082BE2FF0A03E122507F0833
:1006200026E231C0C7F130C0C6F12FC0C5F12EC0DF
:10063000C4F10101CB6BCA6B050EC96FB50EC86F53
:1006400000012FDFEFCFDBF1ECCFDCF1ECCFDDF100
:10065000ECCFDEF1010E0101DB252E6E000EDC2158
:100660002F6E000EDD21306E000EDE21316E25C0B2
:10067000C7F124C0C6F123C0C5F122C0C4F10101F5
:10068000CB6B010ECA6F510EC96F800EC86F00018F
:1006900008DFEFCF22F0ECCF23F0ECCF24F0ECCF4B
:1006A00025F04F5207E14E5205E14D5203E14C5007
:1006B000B40806E236DF4F6A4E6A4D6A4C6A4A6AEF
:1006C000C284C2B4FED7C4CFDCF10101C3CFDBF1D9
:1006D000C450020817E303E1DB51890813E320BC8F
:1006E0002084209A9D9AFE0E216E00012ADF0A0EB8
:1006F0000101C76F00013FDFFF0E216E22DF91D0A5
:1007000009D0010120BA04D09D8A00010ADF01014D
:10071000208A00011F8220A080D02170255215E17F
:10072000245213E12350FC0805E2FF0A0EE1225097
:1007300020080BE325520EE124520CE1235054080B
:1007400009E303E122505F0805E3F30E21140C09CD
:10075000216E23D025520EE124520CE123508C0847
:1007600009E303E122509F0805E3F30E2114080971
:10077000216E13D025520DE124520BE12350C40801
:1007800008E303E12250DF0804E3F30E2114216E95
:1007900004D0F30E21140409216ED3DE25C0C7F165
:1007A00024C0C6F123C0C5F122C0C4F10101CB6B46
:1007B000CA6B010EC96FC20EC86F000172DEEFCFA7
:1007C00000F0ECCF01F0ECCF02F0ECCF03F00150E1
:1007D000036E02E1005211E0035003E16E0E005C73
:1007E00010E0035003E1DC0E005C0FE0010E035C3F
:1007F00003E14A0E005C0DE010D00101AD81000163
:100800000CD00101AD83000108D00101AD850001CC
:1008100004D00101AD87000100D0C2DE4B52D8B434
:1008200020849E9032EF00F09EAAFED7AECFDBF17F
:100830000101DB51080A000105E0050A05E0070A8D
:1008400011E011D04A0629D0036A4A50360FE96EEA
:10085000000E0320EA6EEF6A4A500008D8A01F86F7
:100860004A6A1BD01AD00101DB511F0814E2DB5188
:100870007E0811E34A5012080EE34A504A2A036ADE
:10088000360FE96E000E0320EA6EDBC1EFFF4F6A00
:100890004E6A4D6A4C6A000100D09E9A32EF00F019
:1008A000C69A949A94889496310EC66E400EC76E7E
:1008B000C00EC76E99EF1FF094948B94060E006ED5
:1008C000002EFED70000C950D70EC96EC730FEE318
:1008D000C950C96AC730FEE3C9CF84F1060E006E65
:1008E000002EFED7000094948B84000C0101C86B8D
:1008F000C86BC83D01D00ED00001DEDF010184517C
:10090000BF0B9C0801E106D0210E006E002EFED721
:10091000C82BEFD70001000C94948B94060E006E48
:10092000002EFED70000C9509F0EC96EC730FEE3EF
:10093000C950C96AC730FEE3C9CF80F1C950C96A3E
:10094000C730FEE3C9CF81F1C950C96AC730FEE3A1
:10095000C9CF82F1C950C96AC730FEE3C9CF83F15C
:10096000060E006E002EFED7000094948B8406EFD6
:1009700020F00101BC6703D0BD6702D007D0BD2BBA
:10098000BBC1EEFFBC2FFCD7BD2FFAD70001000C76
:100990000101B56B220EB46FB26BB251030823E3B1
:1009A000B251B425B66F000EB521B76F200EB22537
:1009B000B86FF2CFB9F1F29EB8C1A9FFA69CA69E6E
:1009C000A680A850B9BFF28EB96FB7C1EAFFB6C111
:1009D000E9FFB9C1BBF1BD6B010EBC6F0001C9DFFE
:1009E0000101B22BDAD7B56B2E0EB46FB26BB251D8
:1009F000030824E3B251B425B66F000EB521B76FDA
:100A0000200EB225040FB96FF2CFBAF1F29EB9C130
:100A1000A9FFA69CA69EA680A850BABFF28EBA6F68
:100A2000B7C1EAFFB6C1E9FFBAC1BBF1BD6B010EA8
:100A3000BC6F00019EDF0101B22BD9D7B56B320E1E
:100A4000B46FB26BB251010823E3B251B425B66F53
:100A5000000EB521B76F300EB225B86FF2CFB9F1E5
:100A6000F29EB8C1A9FFA69CA69EA680A850B9BFB9
:100A7000F28EB96FB7C1EAFFB6C1E9FFB9C1BBF1E8
:100A8000BD6B010EBC6F000174DF0101B22BDAD720
:100A9000B36BB3510308D8A0CDD0D890B335036A57
:100AA000990F016E010E032201C0B4F103C0B5F12C
:100AB000B26BB251010824E3B251B425B66F000EF7
:100AC000B521B76FD890B335B225B86FF2CFB9F171
:100AD000F29EB8C1A9FFA69CA69EA680A850B9BF49
:100AE000F28EB96FB7C1EAFFB6C1E9FFB9C1BBF178
:100AF000BD6B010EBC6F00013CDF0101B22BD9D7E9
:100B0000D890B335036A990FE96E010E0320EA6E9F
:100B1000ECCFB7F1ED52EFCFB6F1B751060812E2C4
:100B2000FF0A03E1B651D0080DE2D890B335036A4D
:100B3000990FE96E010E0320EA6E070EEC6EED527E
:100B4000D00EEF6ED890B335036A8F0F016E010E91
:100B5000032201C0B4F103C0B5F1B26BB251010878
:100B600027E3B251B425B66F000EB521B76F100E52
:100B7000B225B86FD890B335B825B96FF2CFBAF1B6
:100B8000F29EB9C1A9FFA69CA69EA680A850BABF96
:100B9000F28EBA6FB7C1EAFFB6C1E9FFBAC1BBF1C5
:100BA000BD6B010EBC6F0001E4DE0101B22BD6D794
:100BB000D890B335036A8F0FE96E010E0320EA6EF9
:100BC000ECCFB7F1ED52EFCFB6F1D890B335036A61
:100BD000990FE96E010E0320EA6EECCF03F0ED529F
:100BE000EFCF01F00350B75D23E303E1B651015CA1
:100BF0001FE2D890B335036A8F0F016E010E0322F6
:100C000003C0B7F1D890B335036A990FE96E010EAE
:100C10000320EA6EECCF03F0ED52EFCFB8F1B7C18D
:100C2000EAFF01C0E9FF03C0ECFFED52B8C1EFFFDE
:100C3000B32B2FD700010AEF20F058DE94948B9449
:100C4000060E006E002EFED70000C950D20EC96EEF
:100C5000C730FEE3C6C1C8F1C950C6C1C9FFC7301D
:100C6000FEE3C5C1C8F1C950C5C1C9FFC730FEE325
:100C7000C950C7C1C9FFC730FEE3C950C96AC730F0
:100C8000FEE3C950C96AC730FEE3C950C96AC7301C
:100C9000FEE3C950C96AC730FEE3C950C96AC7300C
:100CA000FEE3C9CF85F1C950C96AC730FEE3C9CF99
:100CB00086F194948B84000C0101C66BC56B4E0EBB
:100CC000C76F0001BADF86C1A4F185C1A3F101019C
:100CD000C66BC56B500EC76F0001AFDF86C1A2F1B6
:100CE00085C1A1F10101C66BC56B560EC76F00012E
:100CF000A4DF86C1A8F185C1A7F10101C66BC56B50
:100D0000580EC76F000199DF86C1AAF185C1A9F10C
:100D10000101C66BC56B5A0EC76F00018EDF86C11D
:100D2000ACF185C1ABF10101C66BC56B5C0EC76F41
:100D3000000183DF86C1A6F185C1A5F144EF07F06C
:100D4000EACFC3F1E9CFC2F10101BC39F009BE6FAE
:100D5000BE27E20FBF6F320FC16FBC510F0BBF2711
:100D6000BF27C127E90FC06FC027C027BB390F0BB2
:100D7000C027C127C037C137C11FC137BB510F0BB7
:100D8000C127BE37070EBD6F0A0EC007C127FDE39E
:100D9000BF07C027FDE3BE07BF27FDE3BD07BE2792
:100DA000FDE3010EEA6EBD0EE96E070EC215C29D8F
:100DB000E926C10EE95CD8B4C28DEF50006E08E19F
:100DC000C2BD06D0C2B90CD0C2B702D0200E03D02B
:100DD000C287C299300E002600509EA8FED7AD6E85
:100DE000EE50C2ADE6D70001000CF29CF29EF2BEBE
:100DF000FDD70101B46BB451030826E30D0E9EA884
:100E0000FED7AD6E0A0E9EA8FED7AD6EB56BB5517E
:100E1000070818E3B451100DF3CFB6F1D890B535EB
:100E2000B625B76FC66BC56BC76F000106DF010142
:100E300085519EA8FED7AD6E86519EA8FED7AD6E99
:100E4000B52BE5D7B42BD7D7C66BC56B400EC76F94
:100E50000001F3DE010185519EA8FED7AD6E8651DB
:100E60009EA8FED7AD6EC66BC56B420EC76F000164
:100E7000E4DE010185519EA8FED7AD6E86519EA885
:100E8000FED7AD6E000118D70101B66BB651000157
:100E90007BEC00F00101B62B006E00509EA8FED73F
:100EA000AD6E0E0EB65DF2E1100EE96EA4C1BCF19E
:100EB000A3C1BBF1000144DF110E0101B76FB751AF
:100EC00000017BEC00F00101B72B006E00509EA8E2
:100ED000FED7AD6E180EB75DF2E1B66BB6510001EC
:100EE00095EC00F00101B62B006E00509EA8FED7D5
:100EF000AD6E0E0EB65DF2E1100EE96EA2C1BCF150
:100F0000A1C1BBF100011CDF110E0101B76FB75188
:100F1000000195EC00F00101B72B006E00509EA877
:100F2000FED7AD6E180EB75DF2E1B66BB65100019B
:100F3000AFEC00F00101B62B006E00509EA8FED76A
:100F4000AD6E100EB65DF2E1100EE96EA6C1BCF1F9
:100F5000A5C1BBF10001F4DE130E0101B76FB7515B
:100F60000001AFEC00F00101B72B006E00509EA80D
:100F7000FED7AD6E1A0EB75DF2E1B66BB651000149
:100F8000CAEC00F00101B62B006E00509EA8FED7FF
:100F9000AD6E0C0EB65DF2E1100EE96EA8C1BCF1AB
:100FA000A7C1BBF10001CCDE0F0E0101B76FB75135
:100FB0000001CAEC00F00101B72B006E00509EA8A2
:100FC000FED7AD6E130EB75DF2E1B66BB651000100
:100FD000E1EC00F00101B62B006E00509EA8FED798
:100FE000AD6E0D0EB65DF2E1100EE96EAAC1BCF158
:100FF000A9C1BBF10001A4DE100E0101B76FB7510A
:101000000001E1EC00F00101B72B006E00509EA83A
:10101000FED7AD6E140EB75DF2E1B66BB6510001AE
:10102000F9EC00F00101B62B006E00509EA8FED72F
:10103000AD6E0D0EB65DF2E1100EE96EACC1BCF105
:10104000ABC1BBF100017CDE100E0101B76FB751DF
:101050000001F9EC00F00101B72B006E00509EA8D2
:10106000FED7AD6E140EB75DF2E1C00EF2120001B4
:10107000000C0101B56BB551030830E3200EB52516
:10108000B76FB551080DF3CFB8F125C0BCF124C03E
:10109000BBF123C0BAF122C0B9F1B85307E0D89030
:1010A000BC33BB33BA33B933B82FF9D7B7C1A9FFB3
:1010B000B9C1A8FFA69CA69EA684F2CF00F0F29E1E
:1010C0000F01550EA76EAA0EA76EA682A6B2FED776
:1010D000A6940050F2120101B52BCDD7B56BB551D6
:1010E000030831E3200EB525040FB86FB551080D84
:1010F000F3CFB9F131C0BDF130C0BCF12FC0BBF1AD
:101100002EC0BAF1B95307E0D890BD33BC33BB331E
:10111000BA33B92FF9D7B8C1A9FFBAC1A8FFA69CA5
:10112000A69EA684F2CF00F0F29E0F01550EA76E88
:10113000AA0EA76EA682A6B2FED7A6940050F212FF
:101140000101B52BCCD7B66BB651030841E3B56BA3
:10115000B55101083BE3100EB525B76FD890B635F1
:10116000B725B86FD890B635036A8F0FE96E010EB8
:101170000320EA6EECCFBAF1ED52EFCFB9F1B551E1
:10118000080DF3CF00F0BAC1BCF1B9C1BBF10052F8
:1011900005E0D890BC33BB33002EFBD7B8C1A9FF04
:1011A000BBC1A8FFA69CA69EA684F2CF00F0F29E2B
:1011B0000F01550EA76EAA0EA76EA682A6B2FED785
:1011C000A6940050F2120101B52BC2D7B62BBCD7A2
:1011D000B56BB55101082AE3300EB525B76FB5518F
:1011E000080DF3CF00F033C0B9F132C0B8F10052AE
:1011F00005E0D890B933B833002EFBD7B7C1A9FFAB
:10120000B8C1A8FFA69CA69EA684F2CF00F0F29ECD
:101210000F01550EA76EAA0EA76EA682A6B2FED724
:10122000A6940050F2120101B52BD3D7B42D42D0B1
:10123000B66BB65103083EE3B56BB551010838E310
:10124000D890B635B525B76FD890B635036A990FE3
:10125000E96E010E0320EA6EECCFB9F1ED52EFCF4B
:10126000B8F1B551080DF3CF00F0B9C1BBF1B8C169
:10127000BAF1005205E0D890BB33BA33002EFBD749
:10128000B7C1A9FFBAC1A8FFA69CA69EA684F2CFAB
:1012900000F0F29E0F01550EA76EAA0EA76EA68251
:1012A000A6B2FED7A6940050F2120101B52BC5D705
:1012B000B62BBFD70001000C0101BC51BE03F3CF18
:1012C00001F0F4CF00F0BF03F3500026BD51BE0380
:1012D000F3500020026E0001E1EF09F00101BA6B4A
:1012E000B86B0A0EB96FB76BB66BB451B51104E1A8
:1012F000000E016E026EE8D0BA51BA2B036AB42513
:10130000E96EB5510320EA6EEFCFBBF1BB512D085A
:101310000DE1010EB86FBA51BA2B036AB425E96E1C
:10132000B5510320EA6EEFCFBBF10DD0BB512B08B6
:101330000AE1BA51BA2B036AB425E96EB55103200C
:10134000EA6EEFCFBBF1BB512F08D8B0AFD0BB5185
:101350003908D8A0ABD0BB51300821E1036ABA519B
:10136000B425E96EB5510320EA6EEF5078080AE023
:10137000036ABA51B425E96EB5510320EA6EEF5005
:1013800058080DE1100EB96FBA2BBA51BA2B036A87
:10139000B425E96EB5510320EA6EEFCFBBF1B95128
:1013A0000A0823E1BB512F081FE2BB5139081CE397
:1013B000BD6B0A0EBC6FB7C1BFF1B6C1BEF1000173
:1013C0007BD7300E0101BB5D0124B66F000E0220F9
:1013D000B76FBA51BA2B036AB425E96EB551032031
:1013E000EA6EEFCFBBF1DED761D0B95110085EE1F4
:1013F000BB51600806E2BB517A0803E3BB51DF0B27
:1014000001D0BB51BB6FBB512F0803E2BB51390860
:1014100006E2BB5140084AE2BB51460847E3BB51D4
:101420002F0819E2BB51390816E3B635BC6FB73542
:10143000BD6FBC37BD37BC37BD37BC37BD37F00ECD
:10144000BC17300EBB5DBC25016E000EBD2101C076
:10145000B6F1B76F16D0B635BC6FB735BD6FBC37B8
:10146000BD37BC37BD37BC37BD37F00EBC17410E9A
:10147000BB5D0A0FBC25016E000EBD2101C0B6F197
:10148000B76FBA51BA2B036AB425E96EB551032080
:10149000EA6EEF50BB6F600806E2BB517A0803E3C7
:1014A000BB51DF0B01D0BB51BB6FADD7B9510A089F
:1014B00007E1B82D05D0B61FB71FB62BD8B4B72B90
:1014C000B6C101F0B7C102F00001000CFF0E01012E
:1014D000B46FB42B000176EC04F094948B94C95053
:1014E000500EC96EC730FEE30101B439B56FB53394
:1014F000070EB517C950B5C1C9FFC730FEE3B435F3
:10150000B56FB537B537F80EB517C950B5C1C9FFB6
:10151000C730FEE3C950C96AC730FEE394948B8498
:10152000B43DD7D7000176EC04F006EF1DF0EACF0A
:10153000CEF1E9CFCDF10101C7AF08D0CD8FCDA954
:10154000CD2BC61FC71FC62BD8B4C72BC739F00970
:10155000C96FC927E20FCA6F320FCC6FC7510F0B8B
:10156000CA27CA27CC27E90FCB6FCB27CB27C63991
:101570000F0BCB27CC27CB37CC37CC1FCC37C65162
:101580000F0BCC27C937070EC86F0A0ECB07CC2725
:10159000FDE3CA07CB27FDE3C907CA27FDE3C80758
:1015A000C927FDE3010EEA6EC80EE96E070ECD15E0
:1015B000CD9DE906CD1507E1CDB9E92ACDB903D016
:1015C000200E006E1CD0E926CC0EE95CD8B4CD8D7F
:1015D000EF50006E08E1CDBD06D0CDB914D0CDB727
:1015E00002D0200E0BD0CDAF06D02D0E006EED50E8
:1015F000CD9DCD9F04D0CD87CD99300E00260050D3
:101600009EA8FED7AD6EEE50CDADDED70001000C2A
:101610000101BBBF10D00F0E006EBA3900160A0EC2
:10162000005C03E2300E002602D0BB5100260050C1
:101630009EA8FED7AD6E0F0EBA170A0EBA5D02E273
:10164000300E02D0BB9FBB51BA27BA519EA8FED71D
:10165000AD6E0001000C0101B86BB8510F084AE3F0
:101660000D0E9EA8FED7AD6E0A0E9EA8FED7AD6EDB
:10167000B8C1BAF1370EBB6F0001CADF200E9EA8B9
:10168000FED7AD6E3A0E9EA8FED7AD6E200E9EA878
:10169000FED7AD6E0101B96BB951070829E3B85106
:1016A000100DF3CFBAF1D890B935BA25BB6FB7C1D9
:1016B000C6F1B6C1C5F1C76F00011DEC06F085C1CA
:1016C000BAF1370E0101BB6F0001A2DF200E9EA808
:1016D000FED7AD6E86C1BAF1370E0101BB6F0001B6
:1016E00097DF200E9EA8FED7AD6E0101B92BD4D78F
:1016F000B82BB3D70001F0EF18F076EC04F0949417
:101700008B94060E006E002EFED70000C950830E8B
:10171000C96EC730FEE3B7C1B8F1C950B7C1C9FF40
:10172000C730FEE3B6C1B8F1C950B6C1C9FFC73072
:10173000FEE3C950C96AC730FEE394948B843EEF40
:1017400019F076EC04F094948B94C950530EC96E42
:10175000C730FEE3B7C1B8F1C950B7C1C9FFC73040
:10176000FEE3B6C1B8F1C950B6C1C9FFC730FEE348
:10177000C950C96AC730FEE394948B8497EF19F07F
:10178000F29CF29EF2BEFDD794948B8476EC04F02A
:1017900094948B940101B651010B006E036A0050C2
:1017A000031006E0C950820EC96EC730FEE305D0B3
:1017B000C950850EC96EC730FEE3B7C1BBF1C95031
:1017C000B7C1C9FFC730FEE3B6C1BBF1C950B6C14E
:1017D000C9FFC730FEE3C950C96AC730FEE3B96B21
:1017E000FF0EB86FCC0EB96F9EAAFED7AECFBAF17E
:1017F000BA51B91BC950BAC1C9FFC730FEE3B82BF3
:10180000B83DF2D794948B84C00EF2120001E4EF3D
:1018100019F0E9500101B96F3B0EC06F9A0EBF6F0E
:10182000CA0EBE6FBD6B0A0EBB6F186AF2BE188E71
:10183000F29EB8C1C7F1B7C1C6F1B6C1C5F1B5C115
:10184000C4F1C0C1CBF1BFC1CAF1BEC1C9F1BDC1B4
:10185000C8F1000151EC02F018BEF28E0150EFCF3A
:10186000B5F1ECCFB6F1ECCFB7F1ECCFB8F1005257
:1018700013E10101BB51010AD8A402D000010CD030
:10188000B9510CE00F0BBB5D01E00EE2B9BF0CD00B
:10189000B9BD04D0200E03D00101B96B300E002673
:1018A00000509EA8FED7AD6E186AF2BE188EF29E4A
:1018B000C0C1C7F1BFC1C6F1BEC1C5F1BDC1C4F150
:1018C000CB6BCA6BC96B0A0EC86F000151EC02F0FA
:1018D00018BEF28E03C0C0F102C0BFF101C0BEF15C
:1018E00000C0BDF10101BB2FA0D700013BEF0EF0FE
:1018F0000101D26BD36B010ED46FDA6AD96AD76F4C
:10190000CA0ED66F010EEA6ECE0EE96ED7C1E2FFA7
:10191000D6C1E1FFD4C1D5F1D890E550EE02F35025
:10192000D223F450D323D52FF7D7D2C1DEFFD3C1B2
:10193000D2F1D36BD8B0D32BD62BD8B4D72BD42B92
:10194000D4510508DFE10001000C0101D051D41988
:10195000800BDA6FD0AF0BD0CD1FCE1FCF1FD01FA3
:10196000CD2BD8B4CE2BD8B4CF2BD8B4D02BD4AF6A
:101970000BD0D11FD21FD31FD41FD12BD8B4D22B41
:10198000D8B4D32BD8B4D42B006A016A026A036A94
:10199000D56BD66BD76BD86BD451D311D211D11173
:1019A0002CE0200ED96FD890CD37CE37CF37D03737
:1019B000D537D637D737D837D451D85D08E1D3518A
:1019C000D75D05E1D251D65D02E1D151D55D0FE37E
:1019D000D151D55FD251D8A0D23DD65FD351D8A036
:1019E000D33DD75FD451D8A0D43DD85FD88000363E
:1019F000013602360336D92FD6D7DAAF0BD0001E08
:101A0000011E021E031E002AD8B4012AD8B4022ADD
:101A1000D8B4032A010EEA6ED50EE96E0001000C5F
:101A2000010E0101C16FC26BC36BC46BC66BC76B88
:101A3000BDBF01D01AD0010EC66FBDC1CDF1BCC172
:101A4000CCF1BBC1CBF1BAC1CAF1FF0ED16FD06FDF
:101A5000CF6FCE6F00014CDF03C0BDF102C0BCF1FF
:101A600001C0BBF100C0BAF10101C15306E1C2538C
:101A700004E1C35302E1C45377E0BDC1D0F1BCC15E
:101A8000CFF1BBC1CEF1BAC1CDF1D46BD36BD26B68
:101A9000BEC1D1F1000159DF03C0C4F102C0C3F1DE
:101AA00001C0C2F100C0C1F1036A0101C751BF25E5
:101AB000016EC051032201C0C9F103C0CAF1EACFCF
:101AC000CCF1E9CFCBF1BDC1D0F1BCC1CFF1BBC1ED
:101AD000CEF1BAC1CDF1D46BD36BD26BBEC1D1F113
:101AE000000133DFEFCF00F0ECCF01F0ECCF02F0DC
:101AF000ECCF03F0CCC1EAFFCBC1E9FF03C0D0F1CA
:101B000002C0CFF101C0CEF100C0CDF1300E010115
:101B10000024006E000E0120000E0220000E0320A3
:101B2000CAC1EAFFC9C1E9FF00C0EFFF036AC7519C
:101B3000BF25E96EC0510320EA6EEF5039080AE272
:101B4000036AC751BF25E96EC0510320EA6E070E34
:101B5000EF24EF6EC72BC4C1BDF1C3C1BCF1C2C13C
:101B6000BBF1C1C1BAF181D7C62D0AD0036AC751F2
:101B7000BF25E96EC0510320EA6E2D0EEF6EC72B14
:101B8000C56BD890C731C55D2FE2036AC551BF252B
:101B9000E96EC0510320EA6EEFCFC8F1036AC55168
:101BA000BF25016EC051032203C0CAF1C551C75DF4
:101BB000FF0F036ABF25E96EC0510320EA6EEFCF25
:101BC000CDF1CAC1EAFF01C0E9FFCDC1EFFFC551A8
:101BD000C75DFF0F036ABF25E96EC0510320EA6E9F
:101BE000C8C1EFFFC52BCDD7036AC751BF25E96E2A
:101BF000C0510320EA6EEF6ABFC101F0C0C102F01C
:101C00000001000CB7C1B9F1B6C1B8F1B9C103F018
:101C10000101B8C1E9FFB9C1EAFFEF5206E0B82BF4
:101C2000D8B4B92B0001F2D70101B651B85D006EEE
:101C3000B751B959036E00C001F00001000C010159
:101C4000B46BB451000155EC00F00101B42B006EEF
:101C500000509EA8FED7AD6E070EB45DF2E1410EB6
:101C6000E96E31C0B8F130C0B7F12FC0B6F12EC067
:101C7000B5F10001CED52C0E9EA8FED7AD6E200E7C
:101C80009EA8FED7AD6E010EEA6E560EE96EF2CF3B
:101C9000B4F1F29E000E69EC00F00A000900F55064
:101CA000EE6E0009FBE10101B4BFF28E186AF2BECC
:101CB000188EF29E25C0C7F124C0C6F123C0C5F11D
:101CC00022C0C4F1CB6BCA6B0E0EC96F100EC86F69
:101CD000000151EC02F018BEF28E00C0B4F1010117
:101CE000BD6BBC6BBB6B00C0BAF10A0EBE6F010EC0
:101CF000C06F6A0EBF6F000193DE010E0101B76F66
:101D00006A0EB66F00017EDF0150020829E3010E62
:101D10000101B76F6A0EB66F000174DF580ED880EC
:101D200001540101B46F010ED8A0E806B56F010E91
:101D3000B76F6A0EB66F000165DF01C0B6F1B5C1BD
:101D4000EAFFB4C1E9FF010EE26E6A0EE16E010125
:101D50000150016E04E0E6CFEEFF012EFCD700013A
:101D6000186AF2BE188EF29E25C0C7F124C0C6F1D3
:101D700023C0C5F122C0C4F10101CB6BCA6B0E0EAA
:101D8000C96F100EC86F000151EC02F018BEF28E40
:101D9000EFCFB4F1ECCFB5F1ECCFB6F1ECCFB7F1BA
:101DA000EACFB9F1E9CFB8F1186AF2BE188EF29E07
:101DB000B7C1C7F1B6C1C6F1B5C1C5F1B4C1C4F16F
:101DC0000101CB6BCA6BC96B3C0EC86F000151ECB3
:101DD00002F018BEF28EB9C1EAFFB8C1E9FF00C037
:101DE000B5F10101BD6BBC6BBB6B00C0BAF10A0E53
:101DF000BE6F010EC06F6A0EBF6F000111DE010ED3
:101E00000101B76F6A0EB66F0001FCDE01500208D7
:101E100029E3010E0101B76F6A0EB66F0001F2DE11
:101E20005B0ED88001540101B46F010ED8A0E80602
:101E3000B56F010EB76F6A0EB66F0001E3DE01C029
:101E4000B6F1B5C1EAFFB4C1E9FF010EE26E6A0E58
:101E5000E16E01010150016E04E0E6CFEEFF012EBC
:101E6000FCD70001186AF2BE188EF29E25C0C7F199
:101E700024C0C6F123C0C5F122C0C4F10101CB6B5F
:101E8000CA6BC96B3C0EC86F000151EC02F018BE62
:101E9000F28EEFCF00F0ECCF01F0ECCF02F0ECCF00
:101EA00003F000C0B4F10101BD6BBC6BBB6B00C0A3
:101EB000BAF10A0EBE6F010EC06F6A0EBF6F00014D
:101EC000AFDD010E0101B76F6A0EB66F00019ADE39
:101ED0000150020829E3010E0101B76F6A0EB66FC7
:101EE000000190DE5E0ED88001540101B46F010E36
:101EF000D8A0E806B56F010EB76F6A0EB66F000185
:101F000081DE01C0B6F1B5C1EAFFB4C1E9FF010E3F
:101F1000E26E6A0EE16E01010150016E04E0E6CF4F
:101F2000EEFF012EFCD70001010EEA6E560EE96E9F
:101F3000000EEF1008E0EF509EA8FED7AD6EE92A24
:101F4000D8B4EA2AF5D7000C76EC04F094948B947C
:101F5000060E006E002EFED70000C950D10EC96ECD
:101F6000C730FEE3C950C96AC730FEE3C950C96A29
:101F7000C730FEE3C950B6C1C9FFC730FEE3C95040
:101F8000C96AC730FEE3C9CF85F1C950C96AC730F5
:101F9000FEE3C9CF86F194948B843FEF1AF00101E0
:101FA000C26BC36BC46BC56B93988A9893908A90ED
:101FB00093928A9293948A9493968A96186AF2BE20
:101FC000188EF29E140EC76F0001BBEC02F018BE13
:101FD000F28E0101C151030801E299D1208CC15157
:101FE000FC0F20E2040F000189EF11F092841F948E
:101FF00080B41F84010116D0000192861F9480B620
:102000001F8401010FD0000192881F9480B81F84A3
:10201000010108D00001928A1F9480BA1F84010137
:1020200001D00101C05302E193988A88186AF2BE78
:10203000188EF29EC80EC76F0001BBEC02F018BEEE
:10204000F28E0101C151FC0F18E2040F00019FEF55
:1020500011F093908A80010110D0000193928A823E
:1020600001010BD0000193948A84010106D0000184
:1020700093968A86010101D00101186AF2BE188E7A
:10208000F29E0A0EC76F0001BBEC02F018BEF28E82
:1020900025C029F024C028F023C027F022C026F054
:1020A00025C02DF024C02CF023C02BF022C02AF034
:1020B00001018A6B896B04002650225C006E275058
:1020C0002358016E285024582950255801C0C3F1C7
:1020D00000C0C2F12A50225C006E2B502358016EC2
:1020E0002C5024582D50255801C0C5F100C0C4F112
:1020F000C151FC0F20E2040F0001B5EF11F09284F2
:10210000209880B42088010116D000019286209882
:1021100080B6208801010FD000019288209880B8F5
:102120002088010108D00001928A209880BA208876
:10213000010101D0010120A60FD0C05303E14B5093
:10214000030805E0C05307E04B50050804E120A256
:1021500002D0208601D0209620B636D020A402D00E
:102160002094AAD0BD51C35D05E303E1BC51C25D1B
:1021700001E3A2D0BB518A5D1FE303E1BA51895D3F
:102180001BE3C151FC0F18E2040F0001CBEF11F06B
:1021900093908A90010110D0000193928A920101DC
:1021A0000BD0000193948A94010106D0000193960C
:1021B0008A96010101D00101BF51C55D05E303E12C
:1021C000BE51C45D01E378D0006A20B800841F507E
:1021D0000018040BD8B46FD025C02DF024C02CF00B
:1021E00023C02BF022C02AF01F9420B81F84C053B4
:1021F0001EE1D890C135036A8F0FE96E010E0320EE
:10220000EA6EECCFC7F1ED52EFCFC6F1C65302E153
:10221000C7530DE0D890C135036A8F0FE96E010EE8
:102220000320EA6EFF0EEF2602E2EE52ED06C053E7
:102230002DE0D890C135036A8F0FE96E010E03209F
:10224000EA6EECCFC7F1ED52EFCFC6F1D890C135B1
:10225000036A990FE96E010E0320EA6EECCF03F0DA
:10226000ED52EFCF01F0C751035C10E303E10150E1
:10227000C65D0CE2D890C135036A8F0FE96E010E7E
:102280000320EA6E010EEE2601E3EF2A010E8927F4
:10229000000E8A230D0E9EA8FED7AD6E100EE96EBD
:1022A0008AC1C7F189C1C6F1000197EC0AF0217219
:1022B000A1EC02F00101FFD6209493908A909392B2
:1022C0008A9293948A9493968A96020EC66F186A9D
:1022D000F2BE188EF29EFA0EC76F0001BBEC02F040
:1022E00018BEF28E0101C62FF2D793988A98186A09
:1022F000F2BE188EF29E140EC76F0001BBEC02F006
:1023000018BEF28E2182A1EC02F0209C0101000196
:10231000000CF2CF0EF0F29EE824F76AF736370F82
:10232000F66E230EF7220A00F550FA6E0800F550FB
:102330000EBEF28EF96EEC1FFA1F08201620F2CFA7
:102340000EF0F29EE824F76AF736630FF66E230E5E
:10235000F7220A00F550FA6E0800F5500EBEF28E14
:10236000F96E52205C2066207020F2CF0EF0F29EB3
:10237000E824F76AF7368F0FF66E230EF7220A006D
:10238000F550FA6E0800F5500EBEF28EF96EFE2082
:102390000C211A212821F2CF0EF0F29EE824F76AD0
:1023A000F736BB0FF66E230EF7220A00F550FA6ED1
:1023B0000800F5500EBEF28EF96E90219A21A421EC
:1023C000AE2176EC04F094948B94060E006E002EF1
:1023D000FED70000C9503D0EC96EC730FEE3C9509C
:1023E0002A0EC96EC730FEE3C950800EC96EC730D1
:1023F000FEE3C950A60EC96EC730FEE394948B84E9
:1024000006EF1DF00101BC6BBA6B0A0EBB6FB96B16
:10241000B86BB76BB66BB451B51105E1006A016AD0
:10242000026A036A3DD1BC51BC2B036AB425E96E34
:10243000B5510320EA6EEFCFBDF1BD512D080DE17E
:10244000010EBA6FBC51BC2B036AB425E96EB551BD
:102450000320EA6EEFCFBDF10DD0BD512B080AE18C
:10246000BC51BC2B036AB425E96EB5510320EA6E5A
:10247000EFCFBDF1BD512F08D8B0FAD0BD5139080A
:10248000D8A0F6D0BD51300821E1036ABC51B42573
:10249000E96EB5510320EA6EEF5078080AE0036A4E
:1024A000BC51B425E96EB5510320EA6EEF505808CF
:1024B0000DE1100EBB6FBC2BBC51BC2B036AB425C5
:1024C000E96EB5510320EA6EEFCFBDF1BB510A08AA
:1024D00044E1BD512F0840E2BD5139083DE3D89099
:1024E000B635BF6FB735C06FB835C16FB935C26F7C
:1024F000B635006EB735016EB835026EB935036E6C
:10250000003601360236033600360136023603360F
:10251000F80E0016BF510026C0510122C1510222FF
:10252000C251032203C0B9F102C0B8F101C0B7F132
:1025300000C0B6F1300EBD5DB627000EB723B8233C
:10254000B923BC51BC2B036AB425E96EB5510320F5
:10255000EA6EEFCFBDF1BDD78BD0BB511008D8A428
:1025600087D0BD51600806E2BD517A0803E3BD5132
:10257000DF0B01D0BD51BD6FBD512F0803E2BD512E
:10258000390807E2BD514008D8B072D0BD514608A5
:102590006FE3BD512F082DE2BD5139082AE3B6354E
:1025A000BF6FB735C06FB835C16FB935C26FBF37B0
:1025B000C037C137C237BF37C037C137C237BF375F
:1025C000C037C137C237F00EBF17300EBD5DBF2513
:1025D000006E000EC021016E000EC121026E000EC1
:1025E000C221B96F02C0B8F101C0B7F100C0B6F1A5
:1025F0002AD0B635BF6FB735C06FB835C16FB935A2
:10260000C26FBF37C037C137C237BF37C037C137D6
:10261000C237BF37C037C137C237F00EBF17410EC0
:10262000BD5D0A0FBF25006E000EC021016E000EB9
:10263000C121026E000EC221B96F02C0B8F101C003
:10264000B7F100C0B6F1BC51BC2B036AB425E96EEA
:10265000B5510320EA6EEF50BD6F600806E2BD5130
:102660007A0803E3BD51DF0B01D0BD51BD6F84D7A4
:10267000BB510A080DE1BA2D0BD0B61FB71FB81F0A
:10268000B91FB62BD8B4B72BD8B4B82BD8B4B92B44
:10269000B6C100F0B7C101F0B8C102F0B9C103F092
:1026A00000016FEF1BF0006A016A0101BC51D89074
:1026B000BDB1002600320132BDB300260032013226
:1026C000BDB5002600320132BDB70026003201320E
:1026D000BDB9002600320132BDBB002600320132F6
:1026E000BDBD002600320132BDBF002600320132DE
:1026F0000001000C0101BA6BB86B0A0EB96FB76B21
:10270000B551B61103E1000E016EC3D0BA51BA2B18
:10271000036AB525E96EB6510320EA6EEFCFBBF12F
:10272000BB512D080DE1010EB86FBA51BA2B036AE7
:10273000B525E96EB6510320EA6EEFCFBBF10DD09F
:10274000BB512B080AE1BA51BA2B036AB525E96ED1
:10275000B6510320EA6EEFCFBBF1BB512F08D8B0C2
:1027600090D0BB513908D8A08CD0BB51300821E1A2
:10277000036ABA51B525E96EB6510320EA6EEF50EF
:1027800078080AE0036ABA51B525E96EB65103200C
:10279000EA6EEF5058080DE1100EB96FBA2BBA511E
:1027A000BA2B036AB525E96EB6510320EA6EEFCF66
:1027B000BBF1B9510A081DE1BB512F0819E2BB5109
:1027C000390816E30A0EBC6FB7C1BDF100016BDF1B
:1027D000300E0101BB5D0124B76FBA51BA2B036AF9
:1027E000B525E96EB6510320EA6EEFCFBBF1E4D711
:1027F00048D0B951100845E1BB51600806E2BB5111
:102800007A0803E3BB51DF0B01D0BB51BB6FBB5157
:102810002F0803E2BB51390806E2BB51400831E200
:10282000BB5146082EE3BB512F080CE2BB513908BF
:1028300009E3B739BC6FF00EBC17300EBB5DBC2589
:10284000B76F09D0B739BC6FF00EBC17410EBB5D36
:102850000A0FBC25B76FBA51BA2B036AB525E96ECA
:10286000B6510320EA6EEFCFBBF1BB51600806E220
:10287000BB517A0803E3BB51DF0B01D0BB51BB6FE7
:10288000C6D7B82D04D0B9510A0801E1B76DB7C158
:1028900001F00001000C0101986B976B2FC0C1F192
:1028A0002EC0C0F12FC0C6F12EC0C5F1C76B00010C
:1028B0001DEC06F086C103F0010185512E5C07E195
:1028C00003502F5C04E1305202E1315210E0C06B42
:1028D000C051000111EC01F00101C02B006E00504D
:1028E0009EA8FED7AD6E180EC05DF2E16ED2E10E6D
:1028F0002224C06F000E2320C16F000E2420C26F5F
:10290000000E2520C36F186AF2BE188EF29EC76FA4
:10291000C2C1C6F1C1C1C5F1C0C1C4F1CB6BCA6BA4
:10292000010EC96FC20EC86F000151EC02F018BE53
:10293000F28E01C0B9F100C0B8F1E10E222401010C
:10294000C06F000E2320C16F000E2420C26F000E46
:102950002520C36F186AF2BE188EF29EC76FC2C1DF
:10296000C6F1C1C1C5F1C0C1C4F1CB6BCA6B010EC8
:10297000C96FC20EC86F000151EC02F018BEF28E92
:10298000EFCFBAF1ECCFBBF12FC0C1F12EC0C0F137
:102990002FC0C6F12EC0C5F1020E0101C76F0001A4
:1029A0001DEC06F086C1B7F185C1B6F10101B95140
:1029B000B75D04E311E1B651B85D0EE37C0EB625B8
:1029C000016E000EB721036E0350B95DD8A079D017
:1029D00003E1B851015C75E2D890B535036A990FEF
:1029E000E96E010E0320EA6EECCF03F0ED52EFCF5B
:1029F000C0F103C0C1F1C26BC36BA351A55D006EF2
:102A0000A451A659036E005003C001F0026A036A84
:102A100003C0C7F102C0C6F101C0C5F100C0C4F1D6
:102A2000EACFC9F1E9CFC8F1C3C1CDF1C2C1CCF140
:102A3000C1C1CBF1C0C1CAF103C0D1F102C0D0F114
:102A400001C0CFF100C0CEF1000178EC0CF0C9C19B
:102A5000EAFFC8C1E9FF03C029F002C028F001C0A5
:102A600027F000C026F00101A351A15D006EA45122
:102A7000A259036E00C0C0F1C16F186AF2BE188E71
:102A8000F29E29C0C7F128C0C6F127C0C5F126C0F3
:102A9000C4F1CB6BCA6BC96F00C0C8F1000151EC27
:102AA00002F018BEF28E03C029F002C028F001C067
:102AB00027F000C026F027C098F126C097F184D1F6
:102AC00001012FC0C1F12EC0C0F1B651B85D006E3A
:102AD000B751B959036E0050D89000360050040F1A
:102AE000C46F2FC0C6F12EC0C5F1C76F00011DEC29
:102AF00006F086C1BDF185C1BCF12FC0C1F12EC069
:102B0000C0F10101B651B85D006EB751B959036EFD
:102B10000050D89000360050060FC46F2FC0C6F189
:102B20002EC0C5F1C76F00011DEC06F086C1BFF1D4
:102B300085C1BEF10101BD51BF5D61E303E1BE513D
:102B4000BC5D5DE2BC51BE5D006EBD51BF59036E00
:102B500000C0C0F1C16FC26BC36BBAC100F0BBC192
:102B600001F0026A036A03C0C7F102C0C6F1BBC12B
:102B7000C5F1BAC1C4F1C3C1CDF1C2C1CCF1CB6FB3
:102B8000C0C1CAF103C0D1F102C0D0F1BBC1CFF1C5
:102B9000BAC1CEF1000178EC0CF003C029F002C0FC
:102BA00028F001C027F000C026F0186AF2BE188E87
:102BB000F29E29C0C7F128C0C6F127C0C5F126C0C2
:102BC000C4F10101CB6BCA6B010EC96FC20EC86F95
:102BD000000151EC02F018BEF28E03C029F002C0D1
:102BE00028F001C027F000C026F027C0BFF126C0A2
:102BF000BEF10101BE51BC27BF51BD235CD0BE5107
:102C0000BC5D006EBF51BD59036E00C0C0F1C16F05
:102C1000C26BC36BBAC100F0BBC101F0026A036AA8
:102C200003C0C7F102C0C6F1BBC1C5F1BAC1C4F14E
:102C3000C3C1CDF1C2C1CCF1CB6FC0C1CAF103C0D9
:102C4000D1F102C0D0F1BBC1CFF1BAC1CEF10001C8
:102C500078EC0CF003C029F002C028F001C027F086
:102C600000C026F0186AF2BE188EF29E29C0C7F185
:102C700028C0C6F127C0C5F126C0C4F10101CB6B45
:102C8000CA6B010EC96FC20EC86F000151EC02F091
:102C900018BEF28E03C029F002C028F001C027F050
:102CA00000C026F027C0BFF126C0BEF10101BE5111
:102CB000BC5FBF51BD5BA251BD5D08E303E1A15103
:102CC000BC5D04E3A2C1BDF1A1C1BCF1BD51A45DD5
:102CD00008E303E1BC51A35D04E3A4C1BDF1A3C1BA
:102CE000BCF1D890B535036A990FE96E010E032047
:102CF000EA6EECCF03F0ED52EFCFC0F103C0C1F1AB
:102D0000C26BC36BA351BC5D006EA451BD59036E71
:102D1000005003C001F0026A036A03C0C7F102C099
:102D2000C6F101C0C5F100C0C4F1EACFC9F1E9CFD5
:102D3000C8F1C3C1CDF1C2C1CCF1C1C1CBF1C0C199
:102D4000CAF103C0D1F102C0D0F101C0CFF100C07F
:102D5000CEF1000178EC0CF0C9C1EAFFC8C1E9FF6F
:102D600003C029F002C028F001C027F000C026F0FF
:102D70000101A351A15D006EA451A259036E00C0D0
:102D8000C0F1C16F186AF2BE188EF29E29C0C7F159
:102D900028C0C6F127C0C5F126C0C4F1CB6BCA6BF1
:102DA000C96F00C0C8F1000151EC02F018BEF28EEC
:102DB00003C029F002C028F001C027F000C026F0AF
:102DC00027C098F126C097F101010001000C010114
:102DD000C051016ABF5D03E2BFC100F00CD0006AC0
:102DE000080EC16FBF370036C051005CD8B0006E0E
:102DF0000136C12FF7D70001000C200E0101BAA93E
:102E0000300EBB6FB9C100F0B9AF07D0001E002A69
:102E100000C0B9F12D0EBB6FBA8F0150B9C1BFF11F
:102E2000640EC06F0001D3DF00C0B9F1300E012481
:102E30000101BC6FB9C1BFF10A0EC06F0001C7DF4D
:102E4000300E00240101BE6F300E0124BD6FBBC1E6
:102E500000F0BAA702D0BAAFBA95BAB90BD0BAAFE0
:102E600022D0BAB520D000C0BCF1BAB31CD000C08B
:102E7000BDF119D0300EBC5D16E100C0BCF1200ED2
:102E8000BB6FBAA704D0BA95BA83BAAFBA93300E63
:102E9000BD5D09E100C0BDF1200EBC6FBAA7F7D738
:102EA000BA93BAAFBA91BAA504D0BB519EA8FED7C7
:102EB000AD6EBAA304D0BC519EA8FED7AD6EBAA128
:102EC00004D0BD519EA8FED7AD6EBE519EA8FED7C0
:102ED000AD6E0001000CD8900101B535036A8F0F6B
:102EE000E96E010E0320EA6EECCFB7F1ED52EFCFA1
:102EF000B6F1050E9725016E000E9821036E035062
:102F0000B75D2AE303E1B651015C26E2D890B535FE
:102F1000036A8F0FE96E010E0320EA6EECCFB7F162
:102F2000ED52EFCFB6F19751B65DB86F9851B759E2
:102F3000B96FBB6FB8C1BAF1110EBD6F940EBC6F03
:102F400088C1BFF187C1BEF1C06BB5C1C1F100013D
:102F5000CFEC0FF095D00101D890B535036A8F0FF3
:102F6000E96E010E0320EA6EECCFB7F1ED52EFCF20
:102F7000B6F1050EB625B86F000EB721B96F985D92
:102F800029E303E19751B85D25E2D890B535036A8E
:102F90008F0FE96E010E0320EA6EECCF03F0ED52C5
:102FA000EF50975DB66F03509859B76FBB6FB6C1BE
:102FB000BAF1110EBD6F940EBC6F88C1BFF187C10D
:102FC000BEF1010EC06FB5C1C1F10001CFEC0FF031
:102FD00057D00101975323E1985321E1D890B5359B
:102FE000036A990FE96E010E0320EA6EECCFB7F188
:102FF000ED52EFCFB6F1B7C1BBF1B6C1BAF1110EC8
:10300000BD6F940EBC6F88C1BFF187C1BEF1C06BAC
:10301000B5C1C1F10001CFEC0FF032D00101D89061
:10302000B535036A990FE96E010E0320EA6EECCF05
:1030300003F0ED52EF50975D24E10350985D21E1DC
:10304000D890B535036A990FE96E010E0320EA6E38
:10305000ECCFB7F1ED52EFCFB6F1B7C1BBF1B6C1CE
:10306000BAF1110EBD6F940EBC6F88C1BFF187C15C
:10307000BEF1010EC06FB5C1C1F10001CFEC0FF080
:1030800001010001000C1F964F6A4E6A4D6A4C6A9E
:103090000D0E9EA8FED7AD6E0A0E9EA8FED7AD6E91
:1030A0003E0E9EA8FED7AD6EEA6A360EE96E000EA1
:1030B000EF1008E0EF509EA8FED7AD6EE92AD8B415
:1030C000EA2AF5D70D0E9EA8FED7AD6E0A0E9EA871
:1030D000FED7AD6E620E365CE70FD8B006EF1DF07E
:1030E000190F08EF1DF0EA6A360EE96EE26A370E34
:1030F000E16E120E016EE6CFEEFF012EFCD701014C
:10310000B56B360EB46F00016EEC09F002C0B5F17C
:1031100001C0B4F101010150160802E1B55304E009
:10312000000106EF1DF00101B46BB45100012BEC5E
:1031300001F00101B42B006E00509EA8FED7AD6EC9
:10314000100EB45DF2E1000166EF0AF0F29CF29E0F
:10315000F2BEFDD7D190EA6A360EE96EE26A370E0A
:10316000E16E120E016EE6CFEEFF012EFCD70101DB
:10317000B56B360EB46F00016EEC09F002C0B5F10C
:1031800001C0B4F10101B66BB651000141EC01F090
:103190000101B62B006E00509EA8FED7AD6E080E42
:1031A000B65DF2E1100EE96EB5C1C7F1B4C1C6F16A
:1031B000000197EC0AF03A0E9EA8FED7AD6E010111
:1031C000B56B360EB46F00016EEC09F002C0B5F1BC
:1031D00001C0B4F102C0B7F101C0B6F12BEF0BF0A2
:1031E000D180C00EF21206EF1DF0F29CF29EF2BEEC
:1031F000FDD7EA6A360EE96EE26A370EE16E120E0C
:10320000016EE6CFEEFF012EFCD70101B56B360E45
:10321000B46F00016EEC09F002C0B5F101C0B4F169
:103220000101B66BB651000155EC01F00101B62B5E
:10323000006E00509EA8FED7AD6E190EB65DF2E18D
:10324000100EE96EB5C1C7F1B4C1C6F1000197EC2B
:103250000AF03A0E9EA8FED7AD6E0101B56B360E90
:10326000B46F00016EEC09F002C0B5F101C0B4F119
:1032700002C0B7F101C0B6F17DEF0BF0C00EF21243
:1032800006EF1DF0F29CF29EF2BEFDD7EA6A360E02
:10329000E96EE26A370EE16E120E016EE6CFEEFFC6
:1032A000012EFCD70101B56B360EB46F00016EEC38
:1032B00009F002C0B5F101C0B4F10101B66BB6511D
:1032C000000171EC01F00101B62B006E00509EA8C8
:1032D000FED7AD6E0D0EB65DF2E1100EE96EB5C112
:1032E000C7F1B4C1C6F1000197EC0AF0100E01015C
:1032F000B76FB751000171EC01F00101B72B006EFF
:1033000000509EA8FED7AD6E1B0EB75DF2E1B56B07
:10331000360EB46F00016EEC09F002C0B5F101C0C9
:10332000B4F102C0B7F101C0B6F1A1EF0BF0C00ECD
:10333000F2126CD3F29CF29EF2BEFDD7D190EA6AF3
:10334000360EE96EE26A370EE16E120E016EE6CFBE
:10335000EEFF012EFCD70101B56B360EB46F0001F4
:103360006EEC09F002C0B5F101C0B4F10101B66B19
:10337000B65100018CEC01F00101B62B006E00503B
:103380009EA8FED7AD6E0E0EB65DF2E1100EE96E90
:10339000B5C1C7F1B4C1C6F1000197EC0AF03A0E0D
:1033A0009EA8FED7AD6E0101B56B360EB46F00015D
:1033B0006EEC09F002C0B5F101C0B4F102C0B7F182
:1033C00001C0B6F1C0EF0BF00D0E9EA8FED7AD6E9A
:1033D0000A0E9EA8FED7AD6E2E0E9EA8FED7AD6E2D
:1033E000D180C00EF21212D31FEC0EF00FD3F29C5C
:1033F000F29EF2BEFDD70101B46BB4510001A3EC03
:1034000001F00101B42B006E00509EA8FED7AD6EF6
:103410000B0EB45DF2E1B26BB2510F084EE3B25144
:10342000100DF3CFB4F10D0E9EA8FED7AD6E0A0EAF
:103430009EA8FED7AD6EB4C1BAF1370EBB6F0001C6
:1034400008EC0BF0200E9EA8FED7AD6E3A0E9EA89B
:10345000FED7AD6E200E9EA8FED7AD6E0101B36BF8
:10346000B351070828E3B251100DF3CFB4F1D8904F
:10347000B335B425B56FB66F0001A4EF0FF085C169
:10348000BAF1370E0101BB6F000108EC0BF0200E02
:103490009EA8FED7AD6E86C1BAF1370E0101BB6F93
:1034A000000108EC0BF0200E9EA8FED7AD6E0400C4
:1034B0000101B32BD5D7B22BAFD7C00EF21200014A
:1034C000A5D2EA6A360EE96EE26A370EE16E120E96
:1034D000016EE6CFEEFF012EFCD70101B56B360E73
:1034E000B46F00016EEC09F002C0B5F101C0B4F197
:1034F0000101B45305E1B55303E1000187D2010195
:10350000B56B360EB46F00016EEC09F002C0B5F178
:1035100001C0B4F102C0BBF101C0BAF1230E010138
:10352000BD6F280EBC6F88C1BFF187C1BEF1010E0F
:10353000C06FC16B0001CFEC0FF068D2EA6A360EA3
:10354000E96EE26A370EE16E120E016EE6CFEEFF13
:10355000012EFCD70101B56B360EB46F00016EEC85
:1035600009F002C0B5F101C0B4F10101B45305E1A5
:10357000B55303E100014AD20101B56B360EB46FB9
:1035800000016EEC09F002C0B5F101C0B4F102C057
:10359000BBF101C0BAF1230E0101BD6F280EBC6F53
:1035A00088C1BFF187C1BEF1C06BC16B0001CFEC18
:1035B0000FF02CD2EA6A360EE96EE26A370EE16E3F
:1035C000120E016EE6CFEEFF012EFCD70101B56BA6
:1035D000360EB46F00016EEC09F002C0B5F101C007
:1035E000B4F101010150160802E1B55303E00001F6
:1035F0000DD20101B46BB4510001B6EC01F0010130
:10360000B42B006E00509EA8FED7AD6E160EB45DB2
:10361000F2E10001E1EF11F0F5EC06F00101B46B0D
:10362000B4510001CFEC01F00101B42B006E005049
:103630009EA8FED7AD6E0D0EB45DF2E1100EE96EE0
:1036400033C0C7F132C0C6F1000197EC0AF0DED1F9
:10365000EA6A360EE96EE26A370EE16E120E016E0C
:10366000E6CFEEFF012EFCD70101B56B360EB46F2D
:1036700000016EEC09F002C0B5F101C0B4F1010126
:10368000B45305E1B55303E10001C0D10101B56BAD
:10369000360EB46F00016EEC09F001C000F002C0FC
:1036A00001F0026A036A03C031F002C030F001C0C9
:1036B0002FF000C02EF0AAD1EA6A360EE96EE26A57
:1036C000370EE16E120E016EE6CFEEFF012EFCD733
:1036D0000101B56B360EB46F000102EF12F003C0AA
:1036E00025F002C024F001C023F000C022F08ED1EA
:1036F000EA6A360EE96EE26A370EE16E120E016E6C
:10370000E6CFEEFF012EFCD70101B66B360EB56F8A
:1037100000017AEC13F001C0B4F101C0B5F14BEC3B
:1037200014F0F29CF29EF2BEFDD70101B66B360E8C
:10373000B56F00017AEC13F001C0B4F10101B66B72
:10374000360EB56F00017AEC13F001C0BCF1020E29
:103750000101BD6F000153EC13F00150036A8F0F9C
:10376000E96E010E0320EA6EECCFB7F1ED52EFCF18
:10377000B6F10101B86BB8510001E5EC01F00101AF
:10378000B82B006E00509EA8FED7AD6E070EB85D38
:10379000F2E1B4C1B9F11F0EBA6F0001FDEC16F0F1
:1037A000090E0101B96FB9510001E5EC01F0010109
:1037B000B92B006E00509EA8FED7AD6E0E0EB95DFF
:1037C000F2E1100EE96E98C1BCF197C1BBF10001A6
:1037D000A0EC06F0110E0101BA6FBA510001E5EC40
:1037E00001F00101BA2B006E00509EA8FED7AD6E0D
:1037F000160EBA5DF2E1100EE96EB7C1BCF1B6C1AA
:10380000BBF10001A0EC06F00D0E9EA8FED7AD6E38
:103810000A0E9EA8FED7AD6EC00EF2120101B66B65
:10382000360EB56F00017AEC13F001C0B4F101C09F
:10383000B5F16BEC17F0EAD0EA6A360EE96EE26A8F
:10384000370EE16E120E016EE6CFEEFF012EFCD7B1
:103850000101B76B360EB66F000102EC0EF001529B
:1038600075E020900101B66B360EB56F00017AEC61
:1038700013F001C0B4F1070E0101BB6FD00EBA6F97
:10388000230EBD6F280EBC6F88C1BFF187C1BEF18A
:10389000010EC06F01C0C1F10001CFEC0FF00101BA
:1038A000B66B360EB56F00017AEC13F001C0B4F1BF
:1038B000070E0101BB6FD00EBA6F230EBD6F280E2D
:1038C000BC6F88C1BFF187C1BEF1C06B01C0C1F13F
:1038D0000001CFEC0FF00101B66B360EB56F0001A1
:1038E0007AEC13F001C0BCF1020E0101BD6F0001C2
:1038F00053EC13F00150036A990FE96E010E032097
:10390000EA6E8AC1ECFFED5289C1EFFF0101B66B8F
:10391000360EB56F00017AEC13F001C0BCF1020E57
:103920000101BD6F000153EC13F00150036A8F0FCA
:10393000E96E010E0320EA6EEC6AED52EF6A010EA9
:103940000101B46F000139EC08F020805FD0010E56
:103950000101B46F000139EC08F058D0207020A0AC
:1039600011D00101B46BB451000100EC02F001016F
:10397000B42B006E00509EA8FED7AD6E130EB45D42
:10398000F2E110D00101B46BB451000117EC02F068
:103990000101B42B006E00509EA8FED7AD6E110E33
:1039A000B45DF2E1000132D0000E016EC250C70BCF
:1039B0000110C26E100E006E002EFED70000C284F1
:1039C000C2B4FED7C4CF7FF10101C3CF7EF1B46B87
:1039D000B45100012DEC02F00101B42B006E005037
:1039E0009EA8FED7AD6E070EB45DF2E1100EE96E33
:1039F0007FC1BCF17EC1BBF10001A0EC06F006D096
:103A0000F29CF29EF2BEFDD7FFD700D054EF20F01B
:103A1000F2CF0EF0F29EE824F76AF736350FF66E15
:103A20003A0EF7220A00F550FA6E0800F5500EBE65
:103A3000F28EF96EEA3184325036E6303433E833B0
:103A400038380C3A4E39003AF036C2343C355C39DD
:103A5000B4350C3A4C310C3AB8360C3A0C3AEE33D9
:103A60000C3AA83918360101B36B209021902192AD
:103A7000F30E21140C09216E0001A1EC02F0209438
:103A800020A209D0186AF2BE188EF29ED0EC02F085
:103A900018BEF28EF5D7186AF2BE188EF29E0A0E84
:103AA0000101C76F0001BBEC02F018BEF28EFF0EE1
:103AB0004B6E186AF2BE188EF29ED0EC02F018BE61
:103AC000F28E04004B50FF08D8B4B6D14B50FA0F19
:103AD000D8B0B2D1060F1FEF1FF020A209D0186A8C
:103AE000F2BE188EF29ED0EC02F018BEF28EF5D720
:103AF000186AF2BE188EF29E0A0E0101C76F00010D
:103B0000BBEC02F018BEF28EFF0E4B6E20802094AC
:103B100091EC02F092D120A209D0186AF2BE188E60
:103B2000F29ED0EC02F018BEF28EF5D7186AF2BE03
:103B3000188EF29E0A0E0101C76F0001BBEC02F065
:103B400018BEF28E0101B32B030EB317B351FF0A57
:103B5000030B006ED89000360036F30E21140010CF
:103B6000216E0001A1EC02F067D1070E0101BB6FCD
:103B7000D00EBA6F230EBD6F280EBC6F88C1BFF187
:103B800087C1BEF1010EC06FB3C1C1F10001CFEC1E
:103B90000FF0070E0101BB6FD00EBA6F230EBD6F81
:103BA000280EBC6F88C1BFF187C1BEF1C06BB3C125
:103BB000C1F10001CFEC0FF0D8900101B335036AD9
:103BC000990FE96E010E0320EA6E8AC1ECFFED52F7
:103BD00089C1EFFFD890B335036A8F0FE96E010EEC
:103BE0000320EA6EEC6AED52EF6A010EB46F000139
:103BF00039EC08F021D120860101BB6B0A0EBA6FA7
:103C0000110EBD6F940EBC6F88C1BFF187C1BEF1AC
:103C1000C06BB3C1C1F10001CFEC0FF020960CD105
:103C200020A209D0186AF2BE188EF29ED0EC02F0E3
:103C300018BEF28EF5D7186AF2BE188EF29E0A0EE2
:103C40000101C76F0001BBEC02F018BEF28ED890E4
:103C50000101B335036A990FE96E010E0320EA6E84
:103C6000ECCF03F0ED52EFCFB4F103C0B5F1B66B7A
:103C7000B76BA351A55D006EA451A659036E005009
:103C800003C001F0026A036A03C0BBF102C0BAF1CB
:103C900001C0B9F100C0B8F1EACFBDF1E9CFBCF184
:103CA000B7C1CDF1B6C1CCF1B5C1CBF1B4C1CAF148
:103CB00003C0D1F102C0D0F101C0CFF100C0CEF1FC
:103CC000000178EC0CF0BDC1EAFFBCC1E9FF03C004
:103CD00029F002C028F001C027F000C026F0010141
:103CE000A351A15D006EA451A259036E00C0B4F1AE
:103CF000B56F186AF2BE188EF29E29C0C7F128C0AF
:103D0000C6F127C0C5F126C0C4F1CB6BCA6BC96F21
:103D100000C0C8F1000151EC02F018BEF28E03C0E1
:103D200029F002C028F001C027F000C026F027C00B
:103D300098F126C097F1F29CF29EF2BEFDD7D89082
:103D40000101B335036A8F0FE96E010E0320EA6E9D
:103D5000ECCFB5F1ED52EFCFB4F1B66BB651000137
:103D6000E5EC01F00101B62B006E00509EA8FED7D5
:103D7000AD6E070EB65DF2E1B3C1B9F11F0EBA6FB9
:103D80000001FDEC16F0090E0101B76FB7510001FB
:103D9000E5EC01F00101B72B006E00509EA8FED7A4
:103DA000AD6E0E0EB75DF2E1100EE96E98C1BCF17A
:103DB00097C1BBF10001A0EC06F0110E0101B86F34
:103DC000B8510001E5EC01F00101B82B006E005084
:103DD0009EA8FED7AD6E160EB85DF2E1100EE96E2C
:103DE000B5C1BCF1B4C1BBF10001A0EC06F00D0EF1
:103DF0009EA8FED7AD6E0A0E9EA8FED7AD6EC00E71
:103E0000F212B3C1B5F16BEC17F016D020860101A8
:103E1000BB6B0A0EBA6F110EBD6F940EBC6F88C1DA
:103E2000BFF187C1BEF1010EC06FB3C1C1F1000186
:103E3000CFEC0FF0209600D03AD610EF21F0F2CF61
:103E40000EF0F29EE824F76AF736630FF66E3E0E28
:103E5000F7220A00F550FA6E0800F5500EBEF28EF9
:103E6000F96EDA3A163B6A3BF63B203C0C3EF86AA8
:103E7000D09E0D8EEA6AE96A030EAF6EA20EAC6E9A
:103E8000900EAB6E9488949A94968B96C180C18262
:103E9000C184C196070EB46E196A1A6A226A236A2F
:103EA000246A256A266A276A286A296A2A6A2B6A86
:103EB0002C6A2D6A010E2E6E2F6A306A316A326AC0
:103EC000336A750E346E356A4A6AFF0E4B6E4C6A61
:103ED0004D6A4E6A4F6A506A516A526A0101846B98
:103EE000856B866B030E876F886B896B8A6B8F6B14
:103EF000906B916B926B936B946B956B966B976BCE
:103F0000986B996B9A6B9B6B9C6B9D6B9E6B9F6B7D
:103F1000A06BA16BA26BA36BA46BA56BA66BA76B2D
:103F2000A86BA96BAA6BAB6BAC6BAD6B000150EFD0
:103F300004F0C190C182C184C186C19CC28CC28E72
:103F4000C18EC280000E016EC250C70B0110C26E3E
:103F5000FF0E926E936E000E956EF00E216EA1EC28
:103F600002F0140E0101B26F186AF2BE188EF29EB2
:103F7000FA0EC76F0001BBEC02F018BEF28E010111
:103F8000B22FF2D7C284C2B4FED7C4CF03F0C3CFDE
:103F9000B2F1C450B36F020827E303E1B251BB088A
:103FA00023E3FE0E216E0001A1EC02F0186AF2BEBE
:103FB000188EF29E020E0101C76F0001BBEC02F0E9
:103FC00018BEF28EFF0E216EA1EC02F0186AF2BE4E
:103FD000188EF29E320E0101C76F0001BBEC02F099
:103FE00018BEF28E0101CED7186AF2BE188EF29E6C
:103FF000C80EC76F0001BBEC02F018BEF28E208A1B
:1040000096928D8276EC04F08CEF04F05CEC04F078
:10401000C8EF04F0F5EC06F00F0ECD6E9D8A9D8082
:10402000C00EF21291EC02F00101AF6BAE6B20807A
:1040300020922096216A186AF2BE188EF29EC80E4F
:10404000C76F0001BBEC02F018BEF28EF2CFB2F1E6
:10405000F29E400EA96EA69CA69EA680A8500101C5
:10406000B2BFF28E3408D8B402D00001EFD7F2CF3D
:10407000B2F1F29E410EA96EA69CA69EA680A85003
:10408000B2BFF28E1208F3E10001A1EC02F0322A75
:10409000D8B4332A0101B46B000139EC08F0D180A7
:1040A0001FA602D043EF18F00101B06BB051030816
:1040B000D8A0B2D0ADC100F0B051016E04E0D890EC
:1040C0000032012EFCD700A0A5D0D890B035036AED
:1040D000990FE96E010E0320EA6EECCFB3F1ED52B9
:1040E000EFCFB2F1B35304E1B2511008D8B092D07F
:1040F000B0C1B5F100014BEC14F0F29CF29EF2BE9F
:10410000FDD7D8900101B035036A8F0FE96E010E1B
:104110000320EA6EECCFB3F1ED52EFCFB2F1B46B06
:10412000B4510001E5EC01F00101B42B006E005028
:104130009EA8FED7AD6E070EB45DF2E1B0C1B9F135
:104140001F0EBA6F0001FDEC16F0090E0101B56FEC
:10415000B5510001E5EC01F00101B52B006E0050F6
:104160009EA8FED7AD6E0E0EB55DF2E1100EE96EA3
:1041700098C1BCF197C1BBF10001A0EC06F0110E93
:104180000101B66FB6510001E5EC01F00101B62B5B
:10419000006E00509EA8FED7AD6E160EB65DF2E121
:1041A000100EE96EB3C1BCF1B2C1BBF10001A0ECCD
:1041B00006F00D0E9EA8FED7AD6E0A0E9EA8FED785
:1041C000AD6EC00EF212B0C1B5F16BEC17F001018B
:1041D000B26BB251000140EC02F00101B22B006E53
:1041E00000509EA8FED7AD6E070EB25DF2E1010E43
:1041F000006EB051016E04E0D8900036012EFCD75D
:104200000050FF0AAD17B46B000139EC08F01FEC49
:104210000EF00101B02B4AD74B5203E1000123D429
:0C4220000101040000013CD7FFD703009F
:0200000400F00A
:080000007E047F0380028101F0
:080010000000010002000300E2
:080020000000000001000000D7
:020030000000CE
:02004000341278
:020000040030CA
:0E00000000220E0E000081000FC000E00F4035
:00000001FF
;PIC18F458
