:020000040000FA
:04000000BAEF21F042
:08000800056ED8CF06F0E0CF31
:1000100007F00001E9CF0DF0EACF08F0E1CF09F0D9
:10002000E2CF0AF0D9CF0BF0DACF0CF0F3CF14F017
:10003000F4CF15F0FACF16F000C00FF001C010F0A9
:1000400002C011F003C012F004C013F09DA02CEF09
:1000500000F09EB0FFEF02F09DAA32EF00F09EBAD2
:1000600088EF04F00FC000F010C001F011C002F0E2
:1000700012C003F013C004F00E8E0DC0E9FF08C0DB
:10008000EAFF09C0E1FF0AC0E2FF0BC0D9FF0CC0C4
:10009000DAFF14C0F3FF15C0F4FF16C0FAFF0550D5
:1000A00007C0E0FF06C0D8FF1000F2CF0EF0F29EAE
:1000B000F76AC40FF66E000EF7220900F5500EBE67
:1000C000F28E12000D0A2044617923256C752C20D4
:1000D0000000F2CF0EF0F29EF76AEC0FF66E000E03
:1000E000F7220900F5500EBEF28E120030303A3081
:1000F000303A30300000F2CF0EF0F29EF76A100F67
:10010000F66E010EF7220900F5500EBEF28E1200B7
:100110000D0A204D696E205374726F6B653D256C1E
:10012000752F32353620636D0000F2CF0EF0F29E4F
:10013000F76A440FF66E010EF7220900F5500EBE65
:10014000F28E12000D0A204D6178205374726F6B8D
:10015000653D256C752F32353620636D0000F2CF7A
:100160000EF0F29EF76A780FF66E010EF722090084
:10017000F5500EBEF28E12000D0A2053616674799E
:10018000205374726F6B653D256C752F32353620A8
:10019000636D0000F2CF0EF0F29EF76AAE0FF66EBE
:1001A000010EF7220900F5500EBEF28E12000D0A64
:1001B000204C617469747564653D256C752F313010
:1001C0003000F2CF0EF0F29EF76ADC0FF66E010EF1
:1001D000F7220900F5500EBEF28E12000D0A204CD7
:1001E0006F6E6769747564653D256C752F313030AD
:1001F0000000F2CF0EF0F29EF76A0C0FF66E020EC0
:10020000F7220900F5500EBEF28E12000D0A2041B1
:100210006C746974756465203D256C752F313030C0
:100220000000F2CF0EF0F29EF76A3C0FF66E020E5F
:10023000F7220900F5500EBEF28E12004572726F61
:10024000723A466C617368206461746120636F72F6
:10025000727570740000F2CF0EF0F29EF76A700FA4
:10026000F66E020EF7220900F5500EBEF28E120055
:100270000D0A20426C6F636B2065726173650D0A15
:100280000000F2CF0EF0F29EF76A9C0FF66E020E9F
:10029000F7220900F5500EBEF28E12000D0A205012
:1002A00041474520256C643A0000F2CF0EF0F29EE3
:1002B000F76AC40FF66E020EF7220900F5500EBE63
:1002C000F28E12000D0A20577269746520627566FD
:1002D00066657231202D3E205041474520256C64D3
:1002E0003A00F2CF0EF0F29EF76AFC0FF66E020EA5
:1002F000F7220900F5500EBEF28E12000D0A2052B0
:10030000656164205041474520256C64202D3E20C6
:100310006275666665723100F2CF0EF0F29EF76A82
:10032000320FF66E030EF7220900F5500EBEF28E64
:1003300012000D0A2057524954452050414745208C
:10034000256C643A0000F2CF0EF0F29EF76A600F5F
:10035000F66E030EF7220900F5500EBEF28E120063
:100360000D0A20427566666572313A00F2CF0EF0D2
:10037000F29EF76A860FF66E030EF7220900F5501B
:100380000EBEF28E12000D0A2053657420323536EF
:1003900020706167652073697A650D0A0000F2CFED
:1003A0000EF0F29EF76AB80FF66E030EF722090000
:1003B000F5500EBEF28E12000D0A20737461727435
:1003C0007570203D20256C640000F2CF0EF0F29E87
:1003D000F76AE40FF66E030EF7220900F5500EBE21
:1003E000F28E12000D0A20416374232564204C65AF
:1003F0006E3D256C75204E6F773D256C750D0A009E
:10040000F2CF0EF0F29EF76A1A0FF66E040EF72284
:100410000900F5500EBEF28E12000D0A204E6F72CA
:100420006D616C206F7065726174696F6E00F2CFE0
:100430000EF0F29EF76A480FF66E040EF7220900DE
:10044000F5500EBEF28E12000D0A2048616C742029
:100450006F7065726174696F6E00F2CF0EF0F29E7C
:10046000F76A740FF66E040EF7220900F5500EBEFF
:10047000F28E12000D0A4144433D20256C750000A8
:10048000F2CF0EF0F29EF76A9A0FF66E040EF72284
:100490000900F5500EBEF28E1200646F6E65200DDD
:1004A0000A00006A016A026A036AC46BC56BC66B04
:1004B000C76BC351C211C111C011D8B495EF02F07E
:1004C000200EC86FD890BC37BD37BE37BF37C43792
:1004D000C537C637C737C351C75DD8A47CEF02F014
:1004E000C251C65DD8A47CEF02F0C151C55DD8A44D
:1004F0007CEF02F0C051C45DD8A08EEF02F0C05175
:10050000C45FC151D8A0C13DC55FC251D8A0C23D92
:10051000C65FC351D8A0C33DC75FD880003601363F
:1005200002360336C82F62EF02F0EA6AC40EE96EA3
:10053000000C9E989E9A9D9AAB9EAB98AC98AC9AF4
:10054000030E006E002EFED7AB88AB8EAC8A9D8A60
:10055000000C21500F0B006EF00E83140010836E00
:10056000060E006E002EFED70000838A060E006E77
:10057000002EFED70000839A060E006E002EFED7D6
:100580000000838A000CEA6ABF0EE96EEF50D8B40F
:10059000D8EF02F0030E016E006A002EFED7012E86
:1005A000FBD73C0E006E002EFED700D0EF2EF2D708
:1005B000000C2092AC6BAC510508D8A0FDEF02F006
:1005C000AC510F0B006EF00E83140010836E839CF1
:1005D000060E006E002EFED70000968084B0F4EF69
:1005E00002F02082ACC049F0060E006E002EFED74D
:1005F0000000838CAC2BDBEF02F00400000C800EBB
:10060000CF6E010E2226000E2322000E2422000EA1
:100610002522010E4A26000E4B22000E4C22000E0F
:100620004D222552D8A42CEF03F024500008D8B056
:1006300053EF03F0FF0AD8A42CEF03F02350500827
:10064000D8B053EF03F0FF0AD8A42CEF03F02250E8
:100650007F08D8B053EF03F031C0BFF030C0BEF018
:100660002FC0BDF02EC0BCF0C36BC26B050EC16FB6
:10067000B50EC06F51EC02F0EFCFD3F0ECCFD4F059
:10068000ECCFD5F0ECCFD6F0ED52ED52ED52010E9D
:10069000D3252E6E000ED4212F6E000ED521306E84
:1006A000000ED621316E25C0BFF024C0BEF023C09D
:1006B000BDF022C0BCF0C36B010EC26F510EC16F02
:1006C000800EC06F51EC02F0EFCF22F0ECCF23F0A0
:1006D000ECCF24F0ECCF25F0ED52ED52ED524D521F
:1006E000D8A480EF03F04C52D8A480EF03F04B5213
:1006F000D8A480EF03F04A50B408D8B087EF03F0D5
:1007000099EC02F04D6A4C6A4B6A4A6A486AC284A4
:10071000C2B488EF03F0C4CF03F0C350D36F03C05B
:10072000D4F0D4510208D8A0B4EF03F0D8A49EEFBF
:1007300003F0D3518908D8A0B4EF03F020ACA2EFA6
:1007400003F02084209A9D9AFE0E216EA9EC02F0FF
:100750000A0EBF6FC3EC02F0FF0E216EA9EC02F08F
:1007600085EF04F0BBEF03F020BABAEF03F09D8AE7
:1007700099EC02F0208A1F8220A07EEF04F0217005
:100780002552D8A4EBEF03F02452D8A4EBEF03F0EA
:100790002350FC08D8B0D6EF03F0FF0AD8A4EBEF43
:1007A00003F022502008D8A0EBEF03F02552D8A484
:1007B000F1EF03F02452D8A4F1EF03F023505408D2
:1007C000D8A0F1EF03F0D8A4EBEF03F022505F08BC
:1007D000D8A0F1EF03F0F30E21140C09216E2BEFDA
:1007E00004F02552D8A40CEF04F02452D8A40CEF46
:1007F00004F023508C08D8A00CEF04F0D8A406EF26
:1008000004F022509F08D8A00CEF04F0F30E21143E
:100810000809216E2BEF04F02552D8A427EF04F02D
:100820002452D8A427EF04F02350C408D8A027EFFF
:1008300004F0D8A421EF04F02250DF08D8A027EF5D
:1008400004F0F30E21140009216E2BEF04F0F30ED7
:1008500021140409216EA9EC02F025C0BFF024C0C8
:10086000BEF023C0BDF022C0BCF0C36BC26B010E52
:10087000C16FC20EC06F51EC02F0EFCF00F0ECCFB1
:1008800001F0ECCF02F0ECCF03F0ED52ED52ED525F
:100890000050006E0150036E0350D8A454EF04F0D2
:1008A0000052D8B472EF04F00350D8A45DEF04F006
:1008B0006E0E005CD8B475EF04F00350D8A466EF58
:1008C00004F0DC0E005CD8B478EF04F0010E035C99
:1008D000D8A470EF04F04A0E005CD8B47BEF04F0AB
:1008E0007EEF04F0A5817EEF04F0A5837EEF04F097
:1008F000A5857EEF04F0A5877EEF04F0D9EC02F029
:100900004952D8A485EF04F020849E9032EF00F085
:100910009EAA88EF04F0AE50D36FD351080AD8B422
:100920009CEF04F0050AD8B49FEF04F0070AD8B48E
:10093000B0EF04F0B2EF04F04806D1EF04F0036A20
:100940004850340FE96E000E0320EA6EEF6A4850FB
:100950000008D8B0ADEF04F01F86486AD1EF04F06C
:10096000D1EF04F0D3511F08D8B0CFEF04F0D3512A
:100970007E08D8A0CFEF04F048501208D8A0CFEFDF
:1009800004F04850482A036A340FE96E000E032031
:10099000EA6ED3C0EFFF4D6A4C6A4B6A4A6AD1EFE8
:1009A00004F09E9A32EF00F0C69A949A9488949636
:1009B000310EC66E400EC76EC00EC76E14EF22F029
:1009C00094948B94060E006E002EFED70000C95042
:1009D000D70EC96EC730D8A0EAEF04F0C950C96A73
:1009E000C730D8A0F0EF04F0C9CF7CF0060E006E3F
:1009F000002EFED7000094948B84000CC06BC06B5B
:100A0000C03D05EF05F016EF05F0E0EC04F07C5179
:100A1000BF0B9C08D8A40FEF05F016EF05F0210ED0
:100A2000006E002EFED7C02B00EF05F0000C949452
:100A30008B94060E006E002EFED70000C9509F0E4C
:100A4000C96EC730D8A021EF05F0C950C96AC730B8
:100A5000D8A027EF05F0C9CF78F0C950C96AC730D0
:100A6000D8A02FEF05F0C9CF79F0C950C96AC730B7
:100A7000D8A037EF05F0C9CF7AF0C950C96AC7309E
:100A8000D8A03FEF05F0C9CF7BF0060E006E002E18
:100A9000FED7000094948B8481EF22F0B46756EF68
:100AA00005F0B56757EF05F05FEF05F0B52BB3C064
:100AB000EEFFB42F57EF05F0B52F57EF05F0000C00
:100AC000AD6B220EAC6FAA6BAA510308D8A08CEFB5
:100AD00005F0AA51AC25AE6F000EAD21AF6F200E10
:100AE000AA25B06FF2CFB1F0F29EB0C0A9FFA69CCC
:100AF000A69EA680A850B1BFF28EB16FAFC0EAFF2C
:100B0000AEC0E9FFB1C0B3F0B56B010EB46F4EECEF
:100B100005F0AA2B64EF05F0AD6B2E0EAC6FAA6B3F
:100B2000AA510308D8A0B9EF05F0AA51AC25AE6FC1
:100B3000000EAD21AF6F200EAA25040FB16FF2CFCA
:100B4000B2F0F29EB1C0A9FFA69CA69EA680A850B6
:100B5000B2BFF28EB26FAFC0EAFFAEC0E9FFB2C063
:100B6000B3F0B56B010EB46F4EEC05F0AA2B90EF0D
:100B700005F0AD6B320EAC6FAA6BAA510108D8A07C
:100B8000E5EF05F0AA51AC25AE6F000EAD21AF6FB9
:100B9000300EAA25B06FF2CFB1F0F29EB0C0A9FF1F
:100BA000A69CA69EA680A850B1BFF28EB16FAFC022
:100BB000EAFFAEC0E9FFB1C0B3F0B56B010EB46F90
:100BC0004EEC05F0AA2BBDEF05F0AB6BAB51030863
:100BD000D8A0CDEF06F0D890AB35036A910F016E27
:100BE000000E03220150AC6F03C0ADF0AA6BAA51F6
:100BF0000108D8A020EF06F0AA51AC25AE6F000E78
:100C0000AD21AF6FD890AB35AA25B06FF2CFB1F060
:100C1000F29EB0C0A9FFA69CA69EA680A850B1BF18
:100C2000F28EB16FAFC0EAFFAEC0E9FFB1C0B3F062
:100C3000B56B010EB46F4EEC05F0AA2BF7EF05F083
:100C4000D890AB35036A910FE96E000E0320EA6E6F
:100C5000ECCFAFF0ED52EFCFAEF0AF510608D8B009
:100C600048EF06F0FF0AD8A43BEF06F0AE51D008DB
:100C7000D8B048EF06F0D890AB35036A910FE96E13
:100C8000000E0320EA6E070EEC6EED52D00EEF6EF2
:100C9000D890AB35036A870F016E000E0322015016
:100CA000AC6F03C0ADF0AA6BAA510108D8A080EFC9
:100CB00006F0AA51AC25AE6F000EAD21AF6F100E3D
:100CC000AA25B06FD890AB35B025B16FF2CFB2F096
:100CD000F29EB1C0A9FFA69CA69EA680A850B2BF56
:100CE000F28EB26FAFC0EAFFAEC0E9FFB2C0B3F0A0
:100CF000B56B010EB46F4EEC05F0AA2B54EF06F065
:100D0000D890AB35036A870FE96E000E0320EA6EB8
:100D1000ECCFAFF0ED52EFCFAEF0D890AB35036A29
:100D2000910FE96E000E0320EA6EECCF03F0ED5256
:100D3000EF50016E0350AF5DD8A0CAEF06F0D8A403
:100D4000A7EF06F0AE51015CD8B0CAEF06F0D8901C
:100D5000AB35036A870F016E000E03220150AE6FA0
:100D600003C0AFF0D890AB35036A910FE96E000E67
:100D70000320EA6EECCF03F0ED52EF50B06F03C0EA
:100D8000B1F0AFC0EAFFAEC0E9FFB1C0ECFFED5279
:100D9000B0C0EFFFAB2BE6EF05F085EF22F0FEECE5
:100DA00004F094948B94060E006E002EFED7000083
:100DB000C950D20EC96EC730D8A0DBEF06F0BEC056
:100DC000C0F0C950C0C0C9FFC730D8A0E4EF06F0DA
:100DD000BDC0C0F0C950C0C0C9FFC730D8A0EDEF3A
:100DE00006F0C950BFC0C9FFC730D8A0F4EF06F065
:100DF000C950C96AC730D8A0FAEF06F0C950C96A0D
:100E0000C730D8A000EF07F0C950C96AC730D8A0D2
:100E100006EF07F0C950C96AC730D8A00CEF07F039
:100E2000C950C96AC730D8A012EF07F0C9CF7DF00A
:100E3000C950C96AC730D8A01AEF07F0C9CF7EF0F1
:100E400094948B84000CBE6BBD6B4E0EBF6FCFECC9
:100E500006F07EC09CF07DC09BF0BE6BBD6B500E5B
:100E6000BF6FCFEC06F07EC09AF07DC099F0BE6BEC
:100E7000BD6B560EBF6FCFEC06F07EC0A0F07DC0FC
:100E80009FF0BE6BBD6B580EBF6FCFEC06F07EC0FF
:100E9000A2F07DC0A1F0BE6BBD6B5A0EBF6FCFEC50
:100EA00006F07EC0A4F07DC0A3F0BE6BBD6B5C0EEF
:100EB000BF6FCFEC06F07EC09EF07DC09DF01EEFB0
:100EC00008F0EACFBBF0E9CFBAF0B439F009B66F59
:100ED000B627E20FB76F320FB96FB4510F0BB727B8
:100EE000B727B927E90FB86FB827B827B3390F0B61
:100EF000B827B927B837B937B91FB937B3510F0B6E
:100F0000B927B637070EB56F0A0EB807B927D8A0AC
:100F100085EF07F0B707B827D8A08AEF07F0B60724
:100F2000B727D8A08FEF07F0B507B627D8A094EF62
:100F300007F0EA6AB50EE96E070EBA15BA9DE92602
:100F4000B90EE95CD8B4BA8DEF50006ED8A4B5EFF5
:100F500007F0BABDB5EF07F0BAB9BEEF07F0BAB700
:100F6000B5EF07F0200EB8EF07F0BA87BA99300E48
:100F7000002600509EA8BAEF07F0AD6EEE50BAAD55
:100F8000A0EF07F0000CF29CF29EF2BEC4EF07F057
:100F9000AC6BAC510308D8A0FCEF07F00D0E9EA877
:100FA000CFEF07F0AD6E0A0E9EA8D4EF07F0AD6E3E
:100FB000AD6BAD510708D8A0F9EF07F0AC51100D9B
:100FC000F350AE6FD890AD35AE25AF6FBE6BBD6B35
:100FD000AFC0BFF0CFEC06F07D519EA8EDEF07F05B
:100FE000AD6E7E519EA8F2EF07F0AD6EAD2BD9EF3E
:100FF00007F0AC2BC9EF07F0BE6BBD6B400EBF6FA7
:10100000CFEC06F07D519EA803EF08F0AD6E7E5147
:101010009EA808EF08F0AD6EBE6BBD6B420EBF6FB1
:10102000CFEC06F07D519EA813EF08F0AD6E7E5117
:101030009EA818EF08F0AD6E23EF07F0AE6BAE512F
:101040007BEC00F0AE2B006E00509EA825EF08F060
:10105000AD6E0E0EAE5DD8A41FEF08F0100EE96E57
:101060009CC0B4F09BC0B3F061EC07F0110EAF6F01
:10107000AF517BEC00F0AF2B006E00509EA83EEF0E
:1010800008F0AD6E180EAF5DD8A438EF08F0AE6B67
:10109000AE5195EC00F0AE2B006E00509EA84EEFC6
:1010A00008F0AD6E0E0EAE5DD8A448EF08F0100E3D
:1010B000E96E9AC0B4F099C0B3F061EC07F0110E7C
:1010C000AF6FAF5195EC00F0AF2B006E00509EA8B3
:1010D00067EF08F0AD6E180EAF5DD8A461EF08F0B1
:1010E000AE6BAE51AFEC00F0AE2B006E00509EA880
:1010F00077EF08F0AD6E100EAE5DD8A471EF08F07A
:10110000100EE96E9EC0B4F09DC0B3F061EC07F024
:10111000130EAF6FAF51AFEC00F0AF2B006E00506D
:101120009EA890EF08F0AD6E1A0EAF5DD8A48AEFBE
:1011300008F0AE6BAE51CAEC00F0AE2B006E005062
:101140009EA8A0EF08F0AD6E0C0EAE5DD8A49AEF8D
:1011500008F0100EE96EA0C0B4F09FC0B3F061ECCF
:1011600007F00F0EAF6FAF51CAEC00F0AF2B006E5F
:1011700000509EA8B9EF08F0AD6E130EAF5DD8A475
:10118000B3EF08F0AE6BAE51E1EC00F0AE2B006EA9
:1011900000509EA8C9EF08F0AD6E0D0EAE5DD8A44C
:1011A000C3EF08F0100EE96EA2C0B4F0A1C0B3F016
:1011B00061EC07F0100EAF6FAF51E1EC00F0AF2B18
:1011C000006E00509EA8E2EF08F0AD6E140EAF5D09
:1011D000D8A4DCEF08F0AE6BAE51F9EC00F0AE2B0A
:1011E000006E00509EA8F2EF08F0AD6E0D0EAE5DE1
:1011F000D8A4ECEF08F0100EE96EA4C0B4F0A3C0C0
:10120000B3F061EC07F0100EAF6FAF51F9EC00F0E6
:10121000AF2B006E00509EA80BEF09F0AD6E140EC0
:10122000AF5DD8A405EF09F0C00EF212000CAD6B53
:10123000AD510308D8A052EF09F0200EAD25AF6FD5
:10124000AD51080DF350B06F25C0B4F024C0B3F019
:1012500023C0B2F022C0B1F0B053D8B438EF09F0D7
:10126000D890B433B333B233B133B02F30EF09F089
:10127000AFC0A9FFB1C0A8FFA69CA69EA684F2504D
:10128000006EF29E0F01550EA76EAA0EA76EA682E3
:101290000001A6B249EF09F0A6940050F212AD2B5E
:1012A00018EF09F0AD6BAD510308D8A08EEF09F02F
:1012B000200EAD25040FB06FAD51080DF350B16F86
:1012C00031C0B5F030C0B4F02FC0B3F02EC0B2F0D2
:1012D000B153D8B474EF09F0D890B533B433B33305
:1012E000B233B12F6CEF09F0B0C0A9FFB2C0A8FFB4
:1012F000A69CA69EA684F250006EF29E0F01550E8B
:10130000A76EAA0EA76EA6820001A6B285EF09F00D
:10131000A6940050F212AD2B53EF09F0AE6BAE5114
:101320000308D8A0DDEF09F0AD6BAD510108D8A0DE
:10133000DAEF09F0100EAD25AF6FD890AE35AF25BE
:10134000B06FD890AE35036A870FE96E000E0320A8
:10135000EA6EECCFB2F0ED52EFCFB1F0AD51080D27
:10136000F350006EB2C0B4F0B1C0B3F00052D8B4C4
:10137000C0EF09F0D890B433B333002EBAEF09F0C0
:10138000B0C0A9FFB3C0A8FFA69CA69EA684F25039
:10139000006EF29E0F01550EA76EAA0EA76EA682D2
:1013A0000001A6B2D1EF09F0A6940050F212AD2BC5
:1013B00095EF09F0AE2B8FEF09F0AD6BAD51010841
:1013C000D8A012EF0AF0300EAD25AF6FAD51080D69
:1013D000F350006E33C0B1F032C0B0F00052D8B458
:1013E000F8EF09F0D890B133B033002EF2EF09F0E6
:1013F000AFC0A9FFB0C0A8FFA69CA69EA684F250CD
:10140000006EF29E0F01550EA76EAA0EA76EA68261
:101410000001A6B209EF0AF0A6940050F212AD2B1B
:10142000DEEF09F0AC2D61EF0AF0AE6BAE510308B0
:10143000D8A061EF0AF0AD6BAD510108D8A05EEF06
:101440000AF0D890AE35AD25AF6FD890AE35036AAF
:10145000910FE96E000E0320EA6EECCFB1F0ED5271
:10146000EFCFB0F0AD51080DF350006EB1C0B3F046
:10147000B0C0B2F00052D8B444EF0AF0D890B33301
:10148000B233002E3EEF0AF0AFC0A9FFB2C0A8FFF2
:10149000A69CA69EA684F250006EF29E0F01550EE9
:1014A000A76EAA0EA76EA6820001A6B255EF0AF09B
:1014B000A6940050F212AD2B1CEF0AF0AE2B16EFE3
:1014C0000AF0000CB451B603F3CF01F0F4CF00F0F2
:1014D000B703F3500026B551B603F3500020026E57
:1014E000FBEF0AF0B26BB06B0A0EB16FAF6BAE6B75
:1014F000AC51AD11D8A483EF0AF0000E016E000EBE
:10150000026EA5EF0BF0B251B22B036AAC25E96E67
:10151000AD510320EA6EEF50B36FB3512D08D8A43C
:10152000A0EF0AF0010EB06FB251B22B036AAC25E6
:10153000E96EAD510320EA6EEF50B36FAFEF0AF0E2
:10154000B3512B08D8A4AFEF0AF0B251B22B036A03
:10155000AC25E96EAD510320EA6EEF50B36FB35185
:101560002F08D8B094EF0BF0B3513908D8A094EFFE
:101570000BF0B3513008D8A4E3EF0AF0036AB2517C
:10158000AC25E96EAD510320EA6EEF507808D8B46F
:10159000D6EF0AF0036AB251AC25E96EAD510320D3
:1015A000EA6EEF505808D8A4E3EF0AF0100EB16FBE
:1015B000B22BB251B22B036AAC25E96EAD510320B8
:1015C000EA6EEF50B36FB1510A08D8A414EF0BF0D4
:1015D000B3512F08D8B012EF0BF0B3513908D8A08F
:1015E00012EF0BF0B56B0A0EB46FAFC0B7F0AEC020
:1015F000B6F062EF0AF002C0B5F001C0B4F0300EF0
:10160000B35DB425AE6F000EB521AF6FB251B22BF2
:10161000036AAC25E96EAD510320EA6EEF50B36F5B
:10162000E8EF0AF094EF0BF0B1511008D8A494EF52
:101630000BF0B3516008D8B027EF0BF0B3517A0824
:10164000D8A027EF0BF0B351DF0B28EF0BF0B3510D
:10165000B36FB3512F08D8B033EF0BF0B351390843
:10166000D8B03DEF0BF0B3514008D8B094EF0BF079
:10167000B3514608D8A094EF0BF0B3512F08D8B05F
:1016800060EF0BF0B3513908D8A060EF0BF0AE3526
:10169000B46FAF35B56FB437B537B437B537B43786
:1016A000B537F00EB417300EB35DB425016E000EE1
:1016B000B521036E0150AE6F03C0AFF078EF0BF0B1
:1016C000AE35B46FAF35B56FB437B537B437B5375E
:1016D000B437B537F00EB417410EB35D0A0FB42519
:1016E000016E000EB521036E0150AE6F03C0AFF066
:1016F000B251B22B036AAC25E96EAD510320EA6EFC
:10170000EF50B36FB3516008D8B090EF0BF0B35106
:101710007A08D8A090EF0BF0B351DF0B91EF0BF0EC
:10172000B351B36F29EF0BF0B1510A08D8A4A1EF60
:101730000BF0B02DA1EF0BF0AE1FAF1FAE2BD8B446
:10174000AF2BAE51016EAF51026E000CFF0EAC6FAD
:10175000AC2BFEEC04F094948B94C950500EC96EDF
:10176000C730D8A0B0EF0BF0AC39AD6FAD33070E7A
:10177000AD17C950ADC0C9FFC730D8A0BCEF0BF042
:10178000AC35AD6FAD37AD37F80EAD17C950ADC044
:10179000C9FFC730D8A0C9EF0BF0C950C96AC7301C
:1017A000D8A0CFEF0BF094948B84AC3DA8EF0BF056
:1017B000FEEC04F037EF1BF0EACFC6F0E9CFC5F03E
:1017C000BFAFEBEF0BF0C58FC5A9C52BBE1FBF1F69
:1017D000BE2BD8B4BF2BBF39F009C16FC127E20FB0
:1017E000C26F320FC46FBF510F0BC227C227C4276D
:1017F000E90FC36FC327C327BE390F0BC327C42705
:10180000C337C437C41FC437BE510F0BC427C137F9
:10181000070EC06F0A0EC307C427D8A00BEF0CF049
:10182000C207C327D8A010EF0CF0C107C227D8A069
:1018300015EF0CF0C007C127D8A01AEF0CF0EA6A28
:10184000C00EE96E070EC515C59DE906C515D8A4DD
:1018500033EF0CF0C5B9E92AC5B933EF0CF0200E0F
:10186000006E57EF0CF0E926C40EE95CD8B4C58DC4
:10187000EF50006ED8A449EF0CF0C5BD49EF0CF055
:10188000C5B95CEF0CF0C5B749EF0CF0200E56EF70
:101890000CF0C5AF53EF0CF02D0E006EED50C59D52
:1018A000C59F57EF0CF0C587C599300E0026005034
:1018B0009EA858EF0CF0AD6EEE50C5AD34EF0CF0B5
:1018C000000CB3BF78EF0CF00F0E006EB2390016AB
:1018D0000A0E005CD8B071EF0CF0300E002673EFEA
:1018E0000CF0B351002600509EA874EF0CF0AD6EC2
:1018F0000F0EB2170A0EB25DD8B082EF0CF0300EA8
:1019000084EF0CF0B39FB351B227B2519EA886EF7B
:101910000CF0AD6E000CB06BB0510F08D8A0E2EF28
:101920000CF00D0E9EA892EF0CF0AD6E0A0E9EA864
:1019300097EF0CF0AD6EB0C0B2F0370EB36F61EC44
:101940000CF0200E9EA8A2EF0CF0AD6E3A0E9EA8F1
:10195000A7EF0CF0AD6E200E9EA8ACEF0CF0AD6EB4
:10196000B16BB1510708D8A0DFEF0CF0B051100DEA
:10197000F350B26FD890B135B225B36FAFC0BEF09F
:10198000AEC0BDF0B3C0BFF0CFEC06F07DC0B2F08A
:10199000370EB36F61EC0CF0200E9EA8CDEF0CF06B
:1019A000AD6E7EC0B2F0370EB36F61EC0CF0200E5E
:1019B0009EA8D8EF0CF0AD6EB12BB1EF0CF0B02BB0
:1019C0008CEF0CF081EF1BF0FEEC04F094948B9400
:1019D000060E006E002EFED70000C950830EC96EA1
:1019E000C730D8A0F0EF0CF0AFC0B0F0C950B0C015
:1019F000C9FFC730D8A0F9EF0CF0AEC0B0F0C950A5
:101A0000B0C0C9FFC730D8A002EF0DF0C950C96AF5
:101A1000C730D8A008EF0DF094948B84CDEF1BF065
:101A2000FEEC04F094948B94C950530EC96EC730E9
:101A3000D8A017EF0DF0AFC0B0F0C950B0C0C9FFCB
:101A4000C730D8A020EF0DF0AEC0B0F0C950B0C084
:101A5000C9FFC730D8A029EF0DF0C950C96AC730F7
:101A6000D8A02FEF0DF094948B8424EF1CF0F29CFF
:101A7000F29EF2BE38EF0DF094948B84FEEC04F0ED
:101A800094948B94AE51010B006E036A00500310C6
:101A9000D8B454EF0DF0C950820EC96EC730D8A02B
:101AA0004EEF0DF05BEF0DF0C950850EC96EC730DB
:101AB000D8A057EF0DF0AFC0B3F0C950B3C0C9FF05
:101AC000C730D8A060EF0DF0AEC0B3F0C950B3C0BE
:101AD000C9FFC730D8A069EF0DF0C950C96AC73037
:101AE000D8A06FEF0DF0B16BFF0EB06FCC0EB16FE1
:101AF0009EAA78EF0DF0AE50B26FB251B11BC95033
:101B0000B2C0C9FFC730D8A082EF0DF0B02BB03DF6
:101B100078EF0DF094948B84C00EF21270EF1CF0ED
:101B2000E950B16F3B0EB86F9A0EB76FCA0EB66F21
:101B3000B56B0A0EB36F186AF2BE188EF29EB0C073
:101B4000BFF0AFC0BEF0AEC0BDF0ADC0BCF0B8C01D
:101B5000C3F0B7C0C2F0B6C0C1F0B5C0C0F051EC20
:101B600002F018BEF28E0150EFCFADF0ECCFAEF028
:101B7000ECCFAFF0ECCFB0F0ED52ED52ED520052A1
:101B8000D8A4DDEF0DF0B351010AD8B4DDEF0DF0AC
:101B9000B151D8B4DEEF0DF00F0BB35DD8B4D4EF74
:101BA0000DF0D8B0E5EF0DF0B1BFE5EF0DF0B1BD30
:101BB000DEEF0DF0200EDFEF0DF0B16B300E0026E2
:101BC00000509EA8E1EF0DF0AD6E186AF2BE188EBF
:101BD000F29EB8C0BFF0B7C0BEF0B6C0BDF0B5C091
:101BE000BCF0C36BC26BC16B0A0EC06F51EC02F04C
:101BF00018BEF28E03C0B8F002C0B7F001C0B6F054
:101C000000C0B5F0B32F9BEF0DF0EBEF0FF0CA6BF8
:101C1000CB6B010ECC6FDA6AD96ACF6BC20ECE6F76
:101C2000EA6AC60EE96ECFC0E2FFCEC0E1FFCCC0CB
:101C3000CDF0D890E550EE02F350CA23F450CB23F8
:101C4000CD2F19EF0EF0CAC0DEFFCBC0CAF0CB6BB0
:101C5000D8B0CB2BCE2BD8B4CF2BCC2BCC51050866
:101C6000D8A410EF0EF0000CC851CC19800BD26F25
:101C7000C8AF46EF0EF0C51FC61FC71FC81FC52B34
:101C8000D8B4C62BD8B4C72BD8B4C82BCCAF54EF1C
:101C90000EF0C91FCA1FCB1FCC1FC92BD8B4CA2B2B
:101CA000D8B4CB2BD8B4CC2B006A016A026A036A81
:101CB000CD6BCE6BCF6BD06BCC51CB11CA11C91190
:101CC000D8B498EF0EF0200ED16FD890C537C63734
:101CD000C737C837CD37CE37CF37D037CC51D05DA7
:101CE000D8A47FEF0EF0CB51CF5DD8A47FEF0EF0DC
:101CF000CA51CE5DD8A47FEF0EF0C951CD5DD8A0FA
:101D000091EF0EF0C951CD5FCA51D8A0CA3DCE5F48
:101D1000CB51D8A0CB3DCF5FCC51D8A0CC3DD05F2C
:101D2000D8800036013602360336D12F65EF0EF02B
:101D3000D2AFA6EF0EF0001E011E021E031E002AE7
:101D4000D8B4012AD8B4022AD8B4032AEA6ACD0E3C
:101D5000E96E000C010EB96FBA6BBB6BBC6BBE6B4E
:101D6000BF6BB5BFB6EF0EF0D2EF0EF0010EBE6F37
:101D7000B5C0C5F0B4C0C4F0B3C0C3F0B2C0C2F0C7
:101D8000FF0EC96FFF0EC86FFF0EC76FFF0EC66F45
:101D900007EC0EF003C0B5F002C0B4F001C0B3F020
:101DA00000C0B2F0B953D8A4E2EF0EF0BA53D8A4F1
:101DB000E2EF0EF0BB53D8A4E2EF0EF0BC53D8B460
:101DC00060EF0FF0B5C0C8F0B4C0C7F0B3C0C6F044
:101DD000B2C0C5F0CC6BCB6BCA6BB6C0C9F034ECEB
:101DE0000EF003C0BCF002C0BBF001C0BAF000C0EE
:101DF000B9F0036ABF51B725016EB85103220150F3
:101E0000C16F03C0C2F0EACFC4F0E9CFC3F0B5C0E0
:101E1000C8F0B4C0C7F0B3C0C6F0B2C0C5F0CC6B58
:101E2000CB6BCA6BB6C0C9F034EC0EF0EFCF00F04C
:101E3000ECCF01F0ECCF02F0ECCF03F0ED52ED521D
:101E4000ED52C4C0EAFFC3C0E9FF03C0C8F002C03E
:101E5000C7F001C0C6F000C0C5F0300EC525006E49
:101E6000000EC621016E000EC721026E000EC821B1
:101E7000036EC2C0EAFFC1C0E9FF00C0EFFF036A02
:101E8000BF51B725E96EB8510320EA6EEF5039080B
:101E9000D8B055EF0FF0036ABF51B725E96EB851BE
:101EA0000320EA6E070EEF24EF6EBF2BBCC0B5F027
:101EB000BBC0B4F0BAC0B3F0B9C0B2F0D2EF0EF00C
:101EC000BE2D6DEF0FF0036ABF51B725E96EB85113
:101ED0000320EA6E2D0EEF6EBF2BBD6BD890BF3185
:101EE000BD5DD8B0A6EF0FF0036ABD51B725E96E0E
:101EF000B8510320EA6EEF50C06F036ABD51B72599
:101F0000016EB85103220150C16F03C0C2F0BD5130
:101F1000BF5DFF0F036AB725E96EB8510320EA6E73
:101F2000EF50C56FC2C0EAFFC1C0E9FFC5C0EFFFF7
:101F3000BD51BF5DFF0F036AB725E96EB85103209D
:101F4000EA6EC0C0EFFFBD2B6EEF0FF0036ABF510A
:101F5000B725E96EB8510320EA6EEF6AB751016EFA
:101F6000B851026E000CAFC0B1F0AEC0B0F0B1C05D
:101F700003F0B051E96E03C0EAFFEF52D8B4C6EFE8
:101F80000FF0B02BD8B4B12BB7EF0FF0AE51B05D5E
:101F9000006EAF51B159036E0050016E000CAC6B76
:101FA000AC5155EC00F0AC2B006E00509EA8D6EF63
:101FB0000FF0AD6E070EAC5DD8A4D0EF0FF0410E60
:101FC000E96E31C0B0F030C0AFF02FC0AEF02EC01F
:101FD000ADF090EF0DF02C0E9EA8ECEF0FF0AD6E73
:101FE000200E9EA8F1EF0FF0AD6EEA6A4E0EE96E7C
:101FF000F2CFACF0F29E000E69EC00F00A0009008E
:10200000F550EE6E0009D8A4FFEF0FF0ACBFF28ED2
:10201000186AF2BE188EF29E25C0BFF024C0BEF032
:1020200023C0BDF022C0BCF0C36BC26B0E0EC16FEB
:10203000100EC06F51EC02F018BEF28E00C0ACF072
:10204000B56BB46BB36BACC0B2F00A0EB66FB86BC5
:10205000620EB76FAAEC0EF0AF6B620EAE6FB3EC10
:102060000FF001500208D8A05BEF10F0AF6B620ECA
:10207000AE6FB3EC0FF0500ED8800154AC6F000E71
:10208000D8A0E806AD6FAF6B620EAE6FB3EC0FF089
:1020900001C0AEF0ADC0EAFFACC0E9FFE26A620E7B
:1020A000E16EAE51016ED8B45BEF10F0E6CFEEFFFB
:1020B000012E56EF10F0186AF2BE188EF29E25C05F
:1020C000BFF024C0BEF023C0BDF022C0BCF0C36B83
:1020D000C26B0E0EC16F100EC06F51EC02F018BE35
:1020E000F28EEFCFACF0ECCFADF0ECCFAEF0ECCFAA
:1020F000AFF0ED52ED52ED52EACFB1F0E9CFB0F0D2
:10210000186AF2BE188EF29EAFC0BFF0AEC0BEF02D
:10211000ADC0BDF0ACC0BCF0C36BC26BC16B3C0EBC
:10212000C06F51EC02F018BEF28EB1C0EAFFB0C031
:10213000E9FF00C0ADF0B56BB46BB36BADC0B2F0EE
:102140000A0EB66FB86B620EB76FAAEC0EF0AF6BEB
:10215000620EAE6FB3EC0FF001500208D8A0D6EFBC
:1021600010F0AF6B620EAE6FB3EC0FF0530ED88071
:102170000154AC6F000ED8A0E806AD6FAF6B620ED5
:10218000AE6FB3EC0FF001C0AEF0ADC0EAFFACC073
:10219000E9FFE26A620EE16EAE51016ED8B4D6EF8D
:1021A00010F0E6CFEEFF012ED1EF10F0186AF2BE6C
:1021B000188EF29E25C0BFF024C0BEF023C0BDF033
:1021C00022C0BCF0C36BC26BC16B3C0EC06F51EC44
:1021D00002F018BEF28EEFCF00F0ECCF01F0ECCFA2
:1021E00002F0ECCF03F0ED52ED52ED5200C0ACF036
:1021F000B56BB46BB36BACC0B2F00A0EB66FB86B14
:10220000620EB76FAAEC0EF0AF6B620EAE6FB3EC5E
:102210000FF001500208D8A033EF11F0AF6B620E3F
:10222000AE6FB3EC0FF0560ED8800154AC6F000EB9
:10223000D8A0E806AD6FAF6B620EAE6FB3EC0FF0D7
:1022400001C0AEF0ADC0EAFFACC0E9FFE26A620EC9
:10225000E16EAE51016ED8B433EF11F0E6CFEEFF70
:10226000012E2EEF11F0EA6A4E0EE96E000EEF100D
:10227000D8B445EF11F0EF509EA83CEF11F0AD6ED1
:10228000E92AD8B4EA2A36EF11F0000CFEEC04F08B
:1022900094948B94060E006E002EFED70000C95059
:1022A000D10EC96EC730D8A052EF11F0C950C96A1B
:1022B000C730D8A058EF11F0C950C96AC730D8A0AC
:1022C0005EEF11F0C950AEC0C9FFC730D8A065EFAE
:1022D00011F0C950C96AC730D8A06BEF11F0C9CF4F
:1022E0007DF0C950C96AC730D8A073EF11F0C9CFCB
:1022F0007EF094948B84D8EF1CF0BA6BBB6BBC6BF4
:10230000BD6B93988A9893908A9093928A929394B3
:102310008A9493968A96186AF2BE188EF29E140ECC
:10232000BF6FC3EC02F018BEF28EB9510308D8B0EB
:102330009CEF11F05CEF13F0208CB951FC0FD8B07A
:10234000BDEF11F0040F5DEF13F092841F9480B481
:102350001F84BDEF11F092861F9480B61F84BDEFDD
:1023600011F092881F9480B81F84BDEF11F0928AFB
:102370001F9480BA1F84BDEF11F0B853D8A4C3EFE7
:1023800011F093988A88186AF2BE188EF29EC80ED1
:10239000BF6FC3EC02F018BEF28EB951FC0FD8B07B
:1023A000E5EF11F0040F73EF13F093908A80E5EFDF
:1023B00011F093928A82E5EF11F093948A84E5EF0D
:1023C00011F093968A86E5EF11F0186AF2BE188E26
:1023D000F29E0A0EBF6FC3EC02F018BEF28E25C04B
:1023E00029F024C028F023C027F022C026F025C001
:1023F0002DF024C02CF023C02BF022C02AF0826BD9
:10240000816B04002650225C006E27502358016E19
:1024100028502458026E29502558036E01C0BBF085
:1024200000C0BAF02A50225C006E2B502358016E77
:102430002C502458026E2D502558036E01C0BDF05B
:1024400000C0BCF0B951FC0FD8B042EF12F0040F3D
:1024500089EF13F09284209880B4208842EF12F024
:102460009286209880B6208842EF12F092882098B9
:1024700080B8208842EF12F0928A209880BA208893
:1024800042EF12F020A65EEF12F0B853D8A44EEF40
:1024900012F049500308D8B457EF12F0B853D8B42B
:1024A0005DEF12F049500508D8A45DEF12F020A2AC
:1024B0005DEF12F020865EEF12F0209620B6AAEFB4
:1024C00012F020A467EF12F0209435EF13F0B5510D
:1024D000BB5DD8A076EF12F0D8A474EF12F0B4511F
:1024E000BA5DD8A076EF12F035EF13F0B351825DEC
:1024F000D8A09BEF12F0D8A483EF12F0B251815D07
:10250000D8A09BEF12F0B951FC0FD8B09BEF12F09E
:10251000040F9FEF13F093908A909BEF12F0939229
:102520008A929BEF12F093948A949BEF12F0939609
:102530008A969BEF12F0B751BD5DD8A0AAEF12F0BA
:10254000D8A4A8EF12F0B651BC5DD8A0AAEF12F043
:1025500035EF13F0006A20B800841F500018040BF8
:10256000D8B433EF13F025C02DF024C02CF023C0D5
:102570002BF022C02AF01F9420B81F84B853D8A48F
:10258000E6EF12F0D890B935036A870FE96E000EB6
:102590000320EA6EECCFBFF0ED52EFCFBEF0BE539A
:1025A000D8A4D7EF12F0BF53D8B4E6EF12F0D8900A
:1025B000B935036A870FE96E000E0320EA6EFF0E3D
:1025C000EF26D8B0E6EF12F0EE52ED06B853D8B4CD
:1025D0001FEF13F0D890B935036A870FE96E000E2C
:1025E0000320EA6EECCFBFF0ED52EFCFBEF0D890F3
:1025F000B935036A910FE96E000E0320EA6EECCF45
:1026000003F0ED52EF50016EBF51035CD8A01FEFF5
:1026100013F0D8A411EF13F00150BE5DD8B01FEF36
:1026200013F0D890B935036A870FE96E000E0320C6
:10263000EA6E010EEE26D8A01FEF13F0EF2A010E6E
:102640008127000E82230D0E9EA824EF13F0AD6E9D
:10265000100EE96E82C0BFF081C0BEF0DCEC0BF062
:102660002172A9EC02F001EF12F0209493908A906D
:1026700093928A9293948A9493968A96020EBE6F4E
:10268000186AF2BE188EF29EFA0EBF6FC3EC02F00B
:1026900018BEF28EBE2FF4D793988A98186AF2BEAD
:1026A000188EF29E140EBF6FC3EC02F018BEF28EAD
:1026B0002182A9EC02F0209C000CF2CF0EF0F29ED9
:1026C000E824F76AF736DF0FF66E260EF7220A00C7
:1026D000F550FA6E0800F5500EBEF28EF96E4A23E0
:1026E000562362236E23F2CF0EF0F29EE824F76A9F
:1026F000F7360B0FF66E270EF7220A00F550FA6E2A
:102700000800F5500EBEF28EF96EAA23B223BA234A
:10271000C223F2CF0EF0F29EE824F76AF736370FA5
:10272000F66E270EF7220A00F550FA6E0800F550F3
:102730000EBEF28EF96E542460246C247824F2CFFD
:102740000EF0F29EE824F76AF736630FF66E270E56
:10275000F7220A00F550FA6E0800F5500EBEF28E10
:10276000F96E16251E2526252E25FEEC04F09494E0
:102770008B94060E006E002EFED70000C9503D0E51
:10278000C96EC730D8A0C1EF13F0C9502A0EC96E68
:10279000C730D8A0C8EF13F0C950800EC96EC7303B
:1027A000D8A0CFEF13F0C950A60EC96EC730D8A07D
:1027B000D6EF13F094948B84A3EF1DF0B46BB26B3F
:1027C0000A0EB36FB16BB06BAF6BAE6BAC51AD11AA
:1027D000D8A4F1EF13F0006A016A026A036A65EF98
:1027E00015F0B451B42B036AAC25E96EAD5103204A
:1027F000EA6EEF50B56FB5512D08D8A40EEF14F066
:10280000010EB26FB451B42B036AAC25E96EAD5121
:102810000320EA6EEF50B56F1DEF14F0B5512B0891
:10282000D8A41DEF14F0B451B42B036AAC25E96EA3
:10283000AD510320EA6EEF50B56FB5512F08D8B0F7
:102840004AEF15F0B5513908D8A04AEF15F0B55147
:102850003008D8A451EF14F0036AB451AC25E96EE6
:10286000AD510320EA6EEF507808D8B444EF14F06D
:10287000036AB451AC25E96EAD510320EA6EEF5006
:102880005808D8A451EF14F0100EB36FB42BB45104
:10289000B42B036AAC25E96EAD510320EA6EEF500C
:1028A000B56FB3510A08D8A4A2EF14F0B5512F08A0
:1028B000D8B0A0EF14F0B5513908D8A0A0EF14F0AB
:1028C000D890AE35B76FAF35B86FB035B96FB13599
:1028D000BA6FAE35006EAF35016EB035026EB135F0
:1028E000036E0036013602360336003601360236F4
:1028F0000336F80E0016B7510026B8510122B9511F
:102900000222BA51032203C0B1F002C0B0F001C0EC
:10291000AFF000C0AEF0300EB55DAE27000EAF23B5
:10292000000EB023000EB123B451B42B036AAC25C2
:10293000E96EAD510320EA6EEF50B56F56EF14F01B
:102940004AEF15F0B3511008D8A44AEF15F0B5516D
:102950006008D8B0B5EF14F0B5517A08D8A0B5EF3B
:1029600014F0B551DF0BB6EF14F0B551B56FB5519A
:102970002F08D8B0C1EF14F0B5513908D8B0CBEF5B
:1029800014F0B5514008D8B04AEF15F0B5514608DB
:10299000D8A04AEF15F0B5512F08D8B002EF15F0C6
:1029A000B5513908D8A002EF15F0AE35B76FAF3585
:1029B000B86FB035B96FB135BA6FB737B837B93707
:1029C000BA37B737B837B937BA37B737B837B9378B
:1029D000BA37F00EB717300EB55DB725006E000E92
:1029E000B821016E000EB921026E000EBA21036EED
:1029F00003C0B1F002C0B0F001C0AFF000C0AEF053
:102A00002EEF15F0AE35B76FAF35B86FB035B96F83
:102A1000B135BA6FB737B837B937BA37B737B8370C
:102A2000B937BA37B737B837B937BA37F00EB7173B
:102A3000410EB55D0A0FB725006E000EB821016E7C
:102A4000000EB921026E000EBA21036E03C0B1F070
:102A500002C0B0F001C0AFF000C0AEF0B451B42B72
:102A6000036AAC25E96EAD510320EA6EEF50B56FF5
:102A7000B5516008D8B046EF15F0B5517A08D8A026
:102A800046EF15F0B551DF0B47EF15F0B551B56FB7
:102A9000B7EF14F0B3510A08D8A45DEF15F0B22DCA
:102AA0005DEF15F0AE1FAF1FB01FB11FAE2BD8B436
:102AB000AF2BD8B4B02BD8B4B12BAEC000F0AFC0A0
:102AC00001F0B0C002F0B1C003F008EF1EF0006AE0
:102AD000016AB451D890B5B1002600320132B5B3C5
:102AE000002600320132B5B5002600320132B5B7FA
:102AF000002600320132B5B9002600320132B5BBE2
:102B0000002600320132B5BD002600320132B5BFC9
:102B1000002600320132000CB26BB06B0A0EB16FAE
:102B2000AF6BAD51AE11D8A49AEF15F0000E016E47
:102B300090EF16F0B251B22B036AAD25E96EAE519B
:102B40000320EA6EEF50B36FB3512D08D8A4B7EF4E
:102B500015F0010EB06FB251B22B036AAD25E96ECC
:102B6000AE510320EA6EEF50B36FC6EF15F0B351CC
:102B70002B08D8A4C6EF15F0B251B22B036AAD25CD
:102B8000E96EAE510320EA6EEF50B36FB3512F08D8
:102B9000D8B085EF16F0B3513908D8A085EF16F0FC
:102BA000B3513008D8A4FAEF15F0036AB251AD253D
:102BB000E96EAE510320EA6EEF507808D8B4EDEF1D
:102BC00015F0036AB251AD25E96EAE510320EA6EED
:102BD000EF505808D8A4FAEF15F0100EB16FB22BD1
:102BE000B251B22B036AAD25E96EAE510320EA6EF5
:102BF000EF50B36FB1510A08D8A423EF16F0B351C8
:102C00002F08D8B021EF16F0B3513908D8A021EF22
:102C100016F00A0EB46FAFC0B5F067EC15F001C046
:102C2000B4F0300EB35DB425AF6FB251B22B036A6E
:102C3000AD25E96EAE510320EA6EEF50B36FFFEFA2
:102C400015F085EF16F0B1511008D8A485EF16F0F5
:102C5000B3516008D8B036EF16F0B3517A08D8A057
:102C600036EF16F0B351DF0B37EF16F0B351B36FF9
:102C7000B3512F08D8B042EF16F0B3513908D8B08D
:102C80004CEF16F0B3514008D8B085EF16F0B351B1
:102C90004608D8A085EF16F0B3512F08D8B060EFE2
:102CA00016F0B3513908D8A060EF16F0AF39B46F01
:102CB000F00EB417300EB35DB425AF6F69EF16F0A8
:102CC000AF39B46FF00EB417410EB35D0A0FB425DF
:102CD000AF6FB251B22B036AAD25E96EAE5103203E
:102CE000EA6EEF50B36FB3516008D8B081EF16F0C1
:102CF000B3517A08D8A081EF16F0B351DF0B82EF01
:102D000016F0B351B36F38EF16F0B02D8EEF16F00A
:102D1000B1510A08D8A48EEF16F0AF6DAF51016E15
:102D2000000C906B8F6B2FC0B9F02EC0B8F0B9C0FB
:102D3000BEF0B8C0BDF0BF6BCFEC06F07EC003F0B4
:102D40007D512E5CD8A4B2EF16F003502F5CD8A4AE
:102D5000B2EF16F03052D8A4B2EF16F03152D8B418
:102D6000C4EF16F0B86BB85111EC01F0B82B006E3F
:102D700000509EA8B9EF16F0AD6E180EB85DD8A43D
:102D8000B3EF16F04AEF19F0E10E2224B86F000EEF
:102D90002320B96F000E2420BA6F000E2520BB6FD0
:102DA000186AF2BE188EF29EBBC0BFF0BAC0BEF069
:102DB000B9C0BDF0B8C0BCF0C36BC26B010EC16F2F
:102DC000C20EC06F51EC02F018BEF28E01C0B1F01D
:102DD00000C0B0F0E10E2224B86F000E2320B96FBE
:102DE000000E2420BA6F000E2520BB6F186AF2BEB9
:102DF000188EF29EBBC0BFF0BAC0BEF0B9C0BDF025
:102E0000B8C0BCF0C36BC26B010EC16FC20EC06F05
:102E100051EC02F018BEF28EEFCFB2F0ECCFB3F06F
:102E2000ED522FC0B9F02EC0B8F0B9C0BEF0B8C096
:102E3000BDF0020EBF6FCFEC06F07EC0AFF07DC0DC
:102E4000AEF0B151AF5DD8A02EEF17F0D8A443EF8C
:102E500017F0AE51B05DD8A043EF17F07C0EAE2551
:102E6000016E000EAF21036E0150016E0350B15D83
:102E7000D8A0B8EF17F0D8A443EF17F0B051015C19
:102E8000D8B0B8EF17F0D890AD35036A910FE96E5E
:102E9000000E0320EA6EECCF03F0ED52EF50B86F56
:102EA00003C0B9F0BA6BBB6B9B519D5D006E9C512A
:102EB0009E59036E0050006E03C001F0026A036A5F
:102EC00003C0BFF002C0BEF001C0BDF000C0BCF046
:102ED000EACFC1F0E9CFC0F0BBC0C5F0BAC0C4F0C2
:102EE000B9C0C3F0B8C0C2F0BFC0C9F0BEC0C8F01E
:102EF000BDC0C7F0BCC0C6F007EC0EF0C1C0EAFF11
:102F0000C0C0E9FF03C029F002C028F001C027F0CB
:102F100000C026F09B51995D006E9C519A59036E3A
:102F20000050B86F03C0B9F0186AF2BE188EF29E56
:102F300029C0BFF028C0BEF027C0BDF026C0BCF03D
:102F4000C36BC26BB9C0C1F0B8C0C0F051EC02F0A5
:102F500018BEF28E03C029F002C028F001C027F08D
:102F600000C026F027C090F026C08FF04AEF19F07D
:102F70002FC0B9F02EC0B8F0AE51B05D006EAF51A9
:102F8000B159036E0050006ED89000360050040F07
:102F9000BC6FB9C0BEF0B8C0BDF0BCC0BFF0CFECD4
:102FA00006F07EC0B5F07DC0B4F02FC0B9F02EC0E1
:102FB000B8F0AE51B05D006EAF51B159036E005024
:102FC000006ED89000360050060FBC6FB9C0BEF03E
:102FD000B8C0BDF0BCC0BFF0CFEC06F07EC0B7F00B
:102FE0007DC0B6F0B551B75DD8A05BEF18F0D8A49E
:102FF000FFEF17F0B651B45DD8B05BEF18F0B451E5
:10300000B65D006EB551B759036E0050B86F03C07E
:10301000B9F0BA6BBB6BB2C000F0B3C001F0026A8A
:10302000036A03C0BFF002C0BEF001C0BDF000C023
:10303000BCF0BBC0C5F0BAC0C4F0B9C0C3F0B8C0E2
:10304000C2F0BFC0C9F0BEC0C8F0BDC0C7F0BCC0B0
:10305000C6F007EC0EF003C029F002C028F001C052
:1030600027F000C026F0186AF2BE188EF29E29C022
:10307000BFF028C0BEF027C0BDF026C0BCF0C36BB7
:10308000C26B010EC16FC20EC06F51EC02F018BED0
:10309000F28E03C029F002C028F001C027F000C062
:1030A00026F027C0B7F026C0B6F0B651B427B75106
:1030B000B523B5EF18F0B651B45D006EB751B559F0
:1030C000036E0050B86F03C0B9F0BA6BBB6BB2C0EF
:1030D00000F0B3C001F0026A036A03C0BFF002C08F
:1030E000BEF001C0BDF000C0BCF0BBC0C5F0BAC0AE
:1030F000C4F0B9C0C3F0B8C0C2F0BFC0C9F0BEC010
:10310000C8F0BDC0C7F0BCC0C6F007EC0EF003C0ED
:1031100029F002C028F001C027F000C026F0186A8C
:10312000F2BE188EF29E29C0BFF028C0BEF027C0A4
:10313000BDF026C0BCF0C36BC26B010EC16FC20EE6
:10314000C06F51EC02F018BEF28E03C029F002C02D
:1031500028F001C027F000C026F027C0B7F026C035
:10316000B6F0B651B45FB751B55B9A51B55DD8A012
:10317000C6EF18F0D8A4C2EF18F09951B45DD8A0EA
:10318000C6EF18F09AC0B5F099C0B4F0B5519C5D87
:10319000D8A0D7EF18F0D8A4D3EF18F0B4519B5DA6
:1031A000D8A0D7EF18F09CC0B5F09BC0B4F0D89071
:1031B000AD35036A910FE96E000E0320EA6EECCF85
:1031C00003F0ED52EF50B86F03C0B9F0BA6BBB6BB0
:1031D0009B51B45D006E9C51B559036E0050006E5A
:1031E00003C001F0026A036A03C0BFF002C0BEF070
:1031F00001C0BDF000C0BCF0EACFC1F0E9CFC0F023
:10320000BBC0C5F0BAC0C4F0B9C0C3F0B8C0C2F00A
:10321000BFC0C9F0BEC0C8F0BDC0C7F0BCC0C6F0DA
:1032200007EC0EF0C1C0EAFFC0C0E9FF03C029F0FF
:1032300002C028F001C027F000C026F09B51995D24
:10324000006E9C519A59036E0050B86F03C0B9F0DC
:10325000186AF2BE188EF29E29C0BFF028C0BEF0D8
:1032600027C0BDF026C0BCF0C36BC26BB9C0C1F0B3
:10327000B8C0C0F051EC02F018BEF28E03C029F0C5
:1032800002C028F001C027F000C026F027C090F04F
:1032900026C08FF0000CB851016AB75DD8B055EF69
:1032A00019F0B751006E62EF19F0006A080EB96F9D
:1032B000B7370036B851005CD8B0006E0136B92F70
:1032C00058EF19F0000C200EB2A9300EB36FB1C048
:1032D00000F000AE73EF19F0001E002A00C0B1F03C
:1032E0002D0EB36FB28F0150B1C0B7F0640EB86F3E
:1032F0004BEC19F000C0B1F0300E0124B46FB1C036
:10330000B7F00A0EB86F4BEC19F0300E0024B66F10
:10331000300E0124B56FB3C000F0B2A792EF19F0E0
:10332000B2AFB295B2B9A4EF19F0B2AFC3EF19F0D2
:10333000B2B5C3EF19F000C0B4F0B2B3C3EF19F0E7
:1033400000C0B5F0C3EF19F0300EB45DD8A4C3EFE0
:1033500019F000C0B4F0200EB36FB2A7B4EF19F0AB
:10336000B295B283B2AFB293300EB55DD8A4C3EFBD
:1033700019F000C0B5F0200EB46FB2A7B4EF19F089
:10338000B293B2AFB291B2A5CBEF19F0B3519EA8F0
:10339000C7EF19F0AD6EB2A3D3EF19F0B4519EA8E8
:1033A000CFEF19F0AD6EB2A1DBEF19F0B5519EA8C9
:1033B000D7EF19F0AD6EB6519EA8DCEF19F0AD6EE7
:1033C000000CD890AD35036A870FE96E000E03201C
:1033D000EA6EECCFAFF0ED52EFCFAEF0050E8F25D9
:1033E000016E000E9021036E0150016E0350AF5D1F
:1033F000D8A029EF1AF0D8A403EF1AF0AE51015C5F
:10340000D8B029EF1AF0D890AD35036A870FE96E6E
:10341000000E0320EA6EECCFAFF0ED52EFCFAEF02E
:103420008F51AE5DB06F9051AF59B16FB1C0B3F075
:10343000B0C0B2F0110EB56F940EB46F80C0B7F08B
:103440007FC0B6F0B86BADC0B9F07DEC11F0CAEF3B
:103450001AF0D890AD35036A870FE96E000E03208D
:10346000EA6EECCFAFF0ED52EFCFAEF0050EAE2529
:10347000B06F000EAF21B16FB151905DD8A06EEF6B
:103480001AF0D8A449EF1AF08F51B05DD8B06EEFA2
:103490001AF0D890AD35036A870FE96E000E03204D
:1034A000EA6EECCF03F0ED52EF508F5DAE6F03503C
:1034B0009059AF6FAFC0B3F0AEC0B2F0110EB56FA0
:1034C000940EB46F80C0B7F07FC0B6F0010EB86F35
:1034D000ADC0B9F07DEC11F0CAEF1AF08F53D8A44B
:1034E00096EF1AF09053D8A496EF1AF0D890AD3515
:1034F000036A910FE96E000E0320EA6EECCFAFF085
:10350000ED52EFCFAEF0AFC0B3F0AEC0B2F0110EDF
:10351000B56F940EB46F80C0B7F07FC0B6F0B86BD3
:10352000ADC0B9F07DEC11F0CAEF1AF0D890AD350E
:10353000036A910FE96E000E0320EA6EECCF03F0F0
:10354000ED52EF508F5DD8A4CAEF1AF00350905D92
:10355000D8A4CAEF1AF0D890AD35036A910FE96E7E
:10356000000E0320EA6EECCFAFF0ED52EFCFAEF0DD
:10357000AFC0B3F0AEC0B2F0110EB56F940EB46F21
:1035800080C0B7F07FC0B6F0010EB86FADC0B9F023
:103590007DEC11F0000C1F964D6A4C6A4B6A4A6A2A
:1035A0000D0E9EA8D1EF1AF0AD6E0A0E9EA8D6EFB2
:1035B0001AF0AD6E3E0E9EA8DBEF1AF0AD6EEA6A11
:1035C000340EE96E000EEF10D8B4F1EF1AF0EF50A0
:1035D0009EA8E8EF1AF0AD6EE92AD8B4EA2AE2EF25
:1035E0001AF00D0E9EA8F2EF1AF0AD6E0A0E9EA80C
:1035F000F7EF1AF0AD6E620E345CE70FD8B08FEFC4
:103600001FF0190F91EF1FF0EA6A340EE96EE26ABB
:10361000350EE16E120E016EE6CFEEFF012E0CEFBD
:103620001BF0AD6B340EAC6F72EC0AF002C0ADF063
:1036300001C0ACF0AC511608D8A423EF1BF0AD5379
:10364000D8B425EF1BF08FEF1FF0AC6BAC512BEC17
:1036500001F0AC2B006E00509EA82CEF1BF0AD6E5D
:10366000100EAC5DD8A426EF1BF0A6EF0BF08FEF89
:103670001FF0F29CF29EF2BE3AEF1BF0D190EA6A84
:10368000340EE96EE26A350EE16E120E016EE6CF7F
:10369000EEFF012E47EF1BF0AD6B340EAC6F72ECFA
:1036A0000AF002C0ADF001C0ACF0AE6BAE5141EC1F
:1036B00001F0AE2B006E00509EA85CEF1BF0AD6ECB
:1036C000080EAE5DD8A456EF1BF0100EE96EADC02B
:1036D000BFF0ACC0BEF0DCEC0BF03A0E9EA86EEF73
:1036E0001BF0AD6EAD6B340EAC6F72EC0AF002C025
:1036F000ADF001C0ACF0ADC0AFF0ACC0AEF08BEF40
:103700000CF0D180C00EF2128FEF1FF0F29CF29EEF
:10371000F2BE87EF1BF0EA6A340EE96EE26A350EFC
:10372000E16E120E016EE6CFEEFF012E93EF1BF05D
:10373000AD6B340EAC6F72EC0AF002C0ADF001C09C
:10374000ACF0AE6BAE5155EC01F0AE2B006E0050FC
:103750009EA8A8EF1BF0AD6E190EAE5DD8A4A2EF27
:103760001BF0100EE96EADC0BFF0ACC0BEF0DCECDB
:103770000BF03A0E9EA8BAEF1BF0AD6EAD6B340E97
:10378000AC6F72EC0AF002C0ADF001C0ACF0ADC09D
:10379000AFF0ACC0AEF0E4EF0CF0C00EF2128FEF61
:1037A0001FF0F29CF29EF2BED2EF1BF0EA6A340EDA
:1037B000E96EE26A350EE16E120E016EE6CFEEFFA3
:1037C000012EDEEF1BF0AD6B340EAC6F72EC0AF025
:1037D00002C0ADF001C0ACF0AE6BAE5171EC01F0C7
:1037E000AE2B006E00509EA8F3EF1BF0AD6E0D0ED9
:1037F000AE5DD8A4EDEF1BF0100EE96EADC0BFF0CA
:10380000ACC0BEF0DCEC0BF0100EAF6FAF5171EC42
:1038100001F0AF2B006E00509EA80CEF1CF0AD6EB7
:103820001B0EAF5DD8A406EF1CF0AD6B340EAC6F71
:1038300072EC0AF002C0ADF001C0ACF0ADC0AFF068
:10384000ACC0AEF010EF0DF0C00EF2128FEF1FF013
:10385000F29CF29EF2BE29EF1CF0D190EA6A340E7F
:10386000E96EE26A350EE16E120E016EE6CFEEFFF2
:10387000012E36EF1CF0AD6B340EAC6F72EC0AF01B
:1038800002C0ADF001C0ACF0AE6BAE518CEC01F0FB
:10389000AE2B006E00509EA84BEF1CF0AD6E0E0ECE
:1038A000AE5DD8A445EF1CF0100EE96EADC0BFF0C0
:1038B000ACC0BEF0DCEC0BF03A0E9EA85DEF1CF045
:1038C000AD6EAD6B340EAC6F72EC0AF002C0ADF0B1
:1038D00001C0ACF0ADC0AFF0ACC0AEF037EF0DF052
:1038E0000D0E9EA871EF1CF0AD6E0A0E9EA876EF2D
:1038F0001CF0AD6E2E0E9EA87BEF1CF0AD6ED1803D
:10390000C00EF2128FEF1FF0CFEC0FF08FEF1FF011
:10391000F29CF29EF2BE89EF1CF0AC6BAC51A3ECB2
:1039200001F0AC2B006E00509EA894EF1CF0AD6E21
:103930000B0EAC5DD8A48EEF1CF0AA6BAA510F0839
:10394000D8A0F5EF1CF0AA51100DF350AC6F0D0E7E
:103950009EA8A8EF1CF0AD6E0A0E9EA8ADEF1CF05D
:10396000AD6EACC0B2F0370EB36F61EC0CF0200E50
:103970009EA8B8EF1CF0AD6E3A0E9EA8BDEF1CF0ED
:10398000AD6E200E9EA8C2EF1CF0AD6EAB6BAB51BE
:103990000708D8A0F2EF1CF0AA51100DF350AC6F3D
:1039A000D890AB35AC25AD6FADC0AEF046EF11F0A1
:1039B0007DC0B2F0370EB36F61EC0CF0200E9EA804
:1039C000DFEF1CF0AD6E7EC0B2F0370EB36F61EC6E
:1039D0000CF0200E9EA8EAEF1CF0AD6E0400AB2B9D
:1039E000C7EF1CF0AA2B9EEF1CF0C00EF2128FEF57
:1039F0001FF0EA6A340EE96EE26A350EE16E120ECD
:103A0000016EE6CFEEFF012E01EF1DF0AD6B340E1F
:103A1000AC6F72EC0AF002C0ADF001C0ACF0AC5378
:103A2000D8A419EF1DF0AD53D8A419EF1DF08FEFF6
:103A30001FF0AD6B340EAC6F72EC0AF002C0ADF04B
:103A400001C0ACF0ADC0B3F0ACC0B2F0230EB56FA6
:103A5000280EB46F80C0B7F07FC0B6F0010EB86F0B
:103A6000B96B7DEC11F08FEF1FF0EA6A340EE96E4E
:103A7000E26A350EE16E120E016EE6CFEEFF012E08
:103A80003DEF1DF0AD6B340EAC6F72EC0AF002C06E
:103A9000ADF001C0ACF0AC53D8A455EF1DF0AD5360
:103AA000D8A455EF1DF08FEF1FF0AD6B340EAC6F47
:103AB00072EC0AF002C0ADF001C0ACF0ADC0B3F0E2
:103AC000ACC0B2F0230EB56F280EB46F80C0B7F053
:103AD0007FC0B6F0B86BB96B7DEC11F08FEF1FF0C3
:103AE000EA6A340EE96EE26A350EE16E120E016E7C
:103AF000E6CFEEFF012E78EF1DF0AD6B340EAC6F0C
:103B000072EC0AF002C0ADF001C0ACF0AC51160886
:103B1000D8A48FEF1DF0AD53D8B491EF1DF08FEF07
:103B20001FF0AC6BAC51B6EC01F0AC2B006E00504A
:103B30009EA898EF1DF0AD6E160EAC5DD8A492EF66
:103B40001DF0B5EF13F08FEF1FF0C3EC07F0AC6B77
:103B5000AC51CFEC01F0AC2B006E00509EA8AEEF44
:103B60001DF0AD6E0D0EAC5DD8A4A8EF1DF0100ECB
:103B7000E96E33C0BFF032C0BEF0DCEC0BF08FEF6B
:103B80001FF0EA6A340EE96EE26A350EE16E120E3B
:103B9000016EE6CFEEFF012EC9EF1DF0AD6B340EC6
:103BA000AC6F72EC0AF002C0ADF001C0ACF0AC53E7
:103BB000D8A4E1EF1DF0AD53D8A4E1EF1DF08FEFD5
:103BC0001FF0AD6B340EAC6F72EC0AF001C000F068
:103BD00002C001F0026A036A03C031F002C030F093
:103BE00001C02FF000C02EF08FEF1FF0EA6A340EF4
:103BF000E96EE26A350EE16E120E016EE6CFEEFF5F
:103C0000012EFEEF1DF0AD6B340EAC6FDEEF13F046
:103C100003C025F002C024F001C023F000C022F050
:103C20008FEF1FF0EA6A340EE96EE26A350EE16E3C
:103C3000120E016EE6CFEEFF012E1AEF1EF0AE6BF4
:103C4000340EAD6F8CEC15F001C0ACF0ACC0ADF033
:103C500091EC16F0F29CF29EF2BE2BEF1EF0AE6BD2
:103C6000340EAD6F8CEC15F001C0ACF0AE6B340EC1
:103C7000AD6F8CEC15F001C0B4F0020EB56F67ECBF
:103C800015F00150036A870FE96E000E0320EA6EFB
:103C9000ECCFAFF0ED52EFCFAEF0B06BB051E5EC42
:103CA00001F0B02B006E00509EA854EF1EF0AD6ED8
:103CB000070EB05DD8A44EEF1EF0ACC0B1F01F0EE1
:103CC000B26F63EC19F0090EB16FB151E5EC01F080
:103CD000B12B006E00509EA86BEF1EF0AD6E0E0E65
:103CE000B15DD8A465EF1EF0100EE96E90C0B4F07F
:103CF0008FC0B3F061EC07F0110EB26FB251E5EC7A
:103D000001F0B22B006E00509EA884EF1EF0AD6E45
:103D1000160EB25DD8A47EEF1EF0100EE96EAFC095
:103D2000B4F0AEC0B3F061EC07F00D0E9EA896EFB4
:103D30001EF0AD6E0A0E9EA89BEF1EF0AD6EC00E7B
:103D4000F212AE6B340EAD6F8CEC15F001C0ACF01E
:103D5000ACC0ADF0E1EC19F08FEF1FF0EA6A340E61
:103D6000E96EE26A350EE16E120E016EE6CFEEFFED
:103D7000012EB6EF1EF0AF6B340EAE6FB3EC0FF04A
:103D80000152D8B427EF1FF02090AE6B340EAD6F08
:103D90008CEC15F001C0ACF0070EB36FD00EB26F13
:103DA000230EB56F280EB46F80C0B7F07FC0B6F099
:103DB000010EB86FACC0B9F07DEC11F0AE6B340EF3
:103DC000AD6F8CEC15F001C0ACF0070EB36FD00EE8
:103DD000B26F230EB56F280EB46F80C0B7F07FC0EE
:103DE000B6F0B86BACC0B9F07DEC11F0AE6B340E30
:103DF000AD6F8CEC15F001C0B4F0020EB56F67EC3E
:103E000015F00150036A910FE96E000E0320EA6E6F
:103E100082C0ECFFED5281C0EFFFAE6B340EAD6F90
:103E20008CEC15F001C0B4F0020EB56F67EC15F024
:103E30000150036A870FE96E000E0320EA6EEC6AF8
:103E4000ED52EF6A010EAC6F17EC09F020808FEF96
:103E50001FF0010EAC6F17EC09F08FEF1FF0207010
:103E600020A045EF1FF0AC6BAC5100EC02F0AC2B86
:103E7000006E00509EA83AEF1FF0AD6E130EAC5DC1
:103E8000D8A434EF1FF055EF1FF0AC6BAC5117EC1A
:103E900002F0AC2B006E00509EA84CEF1FF0AD6EF0
:103EA000110EAC5DD8A446EF1FF08FEF1FF0000E8F
:103EB000016EC250C70B0110C26E100E006E002EB4
:103EC000FED70000C284C2B463EF1FF0C4CF03F07A
:103ED000C350766F03C077F0AC6BAC512DEC02F0A1
:103EE000AC2B006E00509EA873EF1FF0AD6E070E56
:103EF000AC5DD8A46DEF1FF0100EE96E77C0B4F082
:103F000076C0B3F061EC07F08FEF1FF0F29CF29EE9
:103F1000F2BE87EF1FF08BEF1FF08FEF1FF0CBEF9C
:103F200022F0F2CF0EF0F29EE824F76AF736470F40
:103F3000F66E3F0EF7220A00F550FA6E0800F550B3
:103F40000EBEF28EF96E0C37A237823B083650381F
:103F500008395C3D1E3F523E0C3F243CF2396A3A20
:103F60005E3EE03A1E3F72361E3FEC3B1E3F1E3F58
:103F700010391E3FAE3E4A3BAB6B20902190219200
:103F8000F30E21140C09216EA9EC02F0209420A25A
:103F9000D4EF1FF0186AF2BE188EF29ED9EC02F030
:103FA00018BEF28EC7EF1FF0186AF2BE188EF29E8E
:103FB0000A0EBF6FC3EC02F018BEF28EFF0E496E00
:103FC000186AF2BE188EF29ED9EC02F018BEF28E7C
:103FD00004004950FF08D8B49EEF21F04950FA0F71
:103FE000D8B09EEF21F0060FA2EF21F020A203EF40
:103FF00020F0186AF2BE188EF29ED9EC02F018BEBC
:10400000F28EF6EF1FF0186AF2BE188EF29E0A0EBC
:10401000BF6FC3EC02F018BEF28EFF0E496E208017
:10402000209499EC02F0A0EF21F020A222EF20F0E2
:10403000186AF2BE188EF29ED9EC02F018BEF28E0B
:1040400015EF20F0186AF2BE188EF29E0A0EBF6FAE
:10405000C3EC02F018BEF28EAB2B030EAB17AB51C4
:10406000FF0A030B006ED89000360036F30E2114C1
:104070000010216EA9EC02F09EEF21F0070EB36F45
:10408000D00EB26F230EB56F280EB46F80C0B7F09C
:104090007FC0B6F0010EB86FABC0B9F07DEC11F087
:1040A000070EB36FD00EB26F230EB56F280EB46F2C
:1040B00080C0B7F07FC0B6F0B86BABC0B9F07DEC94
:1040C00011F0D890AB35036A910FE96E000E032012
:1040D000EA6E82C0ECFFED5281C0EFFFD890AB35A5
:1040E000036A870FE96E000E0320EA6EEC6AED5258
:1040F000EF6A010EAC6F17EC09F09EEF21F02086FD
:10410000B36B0A0EB26F110EB56F940EB46F80C010
:10411000B7F07FC0B6F0B86BABC0B9F07DEC11F072
:1041200020969EEF21F020A2A0EF20F0186AF2BEA8
:10413000188EF29ED9EC02F018BEF28E93EF20F0AA
:10414000186AF2BE188EF29E0A0EBF6FC3EC02F020
:1041500018BEF28ED890AB35036A910FE96E000E4F
:104160000320EA6EECCF03F0ED52EF50AC6F03C0CA
:10417000ADF0AE6BAF6B9B519D5D006E9C519E5937
:10418000036E0050006E03C001F0026A036A03C0B0
:10419000B3F002C0B2F001C0B1F000C0B0F0EACF9D
:1041A000B5F0E9CFB4F0AFC0C5F0AEC0C4F0ADC05B
:1041B000C3F0ACC0C2F0B3C0C9F0B2C0C8F0B1C067
:1041C000C7F0B0C0C6F007EC0EF0B5C0EAFFB4C04F
:1041D000E9FF03C029F002C028F001C027F000C0A9
:1041E00026F09B51995D006E9C519A59036E0050C8
:1041F000AC6F03C0ADF0186AF2BE188EF29E29C0F3
:10420000BFF028C0BEF027C0BDF026C0BCF0C36B15
:10421000C26BADC0C1F0ACC0C0F051EC02F018BE32
:10422000F28E03C029F002C028F001C027F000C0C0
:1042300026F027C090F026C08FF0F29CF29EF2BECE
:104240001EEF21F0D890AB35036A870FE96E000EA0
:104250000320EA6EECCFADF0ED52EFCFACF0AE6BD9
:10426000AE51E5EC01F0AE2B006E00509EA836EF8B
:1042700021F0AD6E070EAE5DD8A430EF21F0ABC0DB
:10428000B1F01F0EB26F63EC19F0090EAF6FAF51B2
:10429000E5EC01F0AF2B006E00509EA84DEF21F031
:1042A000AD6E0E0EAF5DD8A447EF21F0100EE96E93
:1042B00090C0B4F08FC0B3F061EC07F0110EB06F96
:1042C000B051E5EC01F0B02B006E00509EA866EFF7
:1042D00021F0AD6E160EB05DD8A460EF21F0100E87
:1042E000E96EADC0B4F0ACC0B3F061EC07F00D0EF8
:1042F0009EA878EF21F0AD6E0A0E9EA87DEF21F00A
:10430000AD6EC00EF212ABC0ADF0E1EC19F09EEF55
:1043100021F02086B36B0A0EB26F110EB56F940EAA
:10432000B46F80C0B7F07FC0B6F0010EB86FABC0FD
:10433000B9F07DEC11F020969EEF21F0DEEF1FF03A
:1043400091EF23F0F2CF0EF0F29EE824F76AF736F1
:10435000690FF66E430EF7220A00F550FA6E080058
:10436000F5500EBEF28EF96EEC3F2A407C40FE40C6
:1043700026411243F86AD09E0D8EEA6AE96A030E5E
:10438000AF6EA20EAC6E900EAB6E9488949A94961B
:104390008B96C180C182C184C196070EB46E196A22
:1043A0001A6A226A236A246A256A266A276A286AA0
:1043B000296A2A6A2B6A2C6A2D6A010E2E6E2F6AD0
:1043C000306A316A326A336A486AFF0E496E4A6A55
:1043D0004B6A4C6A4D6A7C6B7D6B7E6B030E7F6F04
:1043E000806B816B826B876B886B896B8A6B8B6B45
:1043F0008C6B8D6B8E6B8F6B906B916B926B936BE9
:10440000946B956B966B976B986B996B9A6B9B6B98
:104410009C6B9D6B9E6B9F6BA06BA16BA26BA36B48
:10442000A46BA56BD4EF04F0C190C182C184C18696
:10443000C19CC28CC28EC18EC280000E016EC25061
:10444000C70B0110C26EFF0E926EFF0E936E000E30
:10445000956EF00E216EA9EC02F0140EAA6F186A88
:10446000F2BE188EF29EFA0EBF6FC3EC02F018BEB9
:10447000F28EAA2FF4D7C284C2B43CEF22F0C4CF8C
:1044800003F0C350AA6F03C0ABF0AB510208D8A031
:1044900070EF22F0D8A452EF22F0AA51BB08D8A0A6
:1044A00070EF22F0FE0E216EA9EC02F0186AF2BE47
:1044B000188EF29E020EBF6FC3EC02F018BEF28E91
:1044C000FF0E216EA9EC02F0186AF2BE188EF29E61
:1044D000320EBF6FC3EC02F018BEF28E3BEF22F03B
:1044E000186AF2BE188EF29EC80EBF6FC3EC02F0BF
:1044F00018BEF28E208A96928D82FEEC04F017EFA1
:1045000005F0E0EC04F060EF05F0C3EC07F00F0EEF
:10451000CD6E9D8A9D80C00EF21299EC02F0A76BC1
:10452000A66B208020922096216A186AF2BE188E0F
:10453000F29EC80EBF6FC3EC02F018BEF28EF2CF2F
:10454000AAF0F29E400EA96EA69CA69EA680A85038
:10455000AABFF28E3408D8A49FEF22F0F2CFAAF0BF
:10456000F29E410EA96EA69CA69EA680A850AABF48
:10457000F28E1208D8A4AEEF22F0A9EC02F0322A93
:10458000D8B4332AAC6B17EC09F0D1801FA6CBEF5F
:1045900022F0CBEF1AF0A86BA8510308D8A08BEF3C
:1045A00023F0A5C000F0A851016ED8B4DDEF22F0D1
:1045B000D8900032012ED8EF22F000A088EF23F02F
:1045C000D890A835036A910FE96E000E0320EA6EB9
:1045D000ECCFABF0ED52EFCFAAF0AB53D8A4F6EF8F
:1045E00022F0AA511008D8B088EF23F0A8C0ADF08F
:1045F00091EC16F0F29CF29EF2BEFBEF22F0D89006
:10460000A835036A870FE96E000E0320EA6EECCF2F
:10461000ABF0ED52EFCFAAF0AC6BAC51E5EC01F092
:10462000AC2B006E00509EA813EF23F0AD6E070E6A
:10463000AC5DD8A40DEF23F0A8C0B1F01F0EB26F8F
:1046400063EC19F0090EAD6FAD51E5EC01F0AD2B47
:10465000006E00509EA82AEF23F0AD6E0E0EAD5DE9
:10466000D8A424EF23F0100EE96E90C0B4F08FC0F0
:10467000B3F061EC07F0110EAE6FAE51E5EC01F056
:10468000AE2B006E00509EA843EF23F0AD6E160EC9
:10469000AE5DD8A43DEF23F0100EE96EABC0B4F0D0
:1046A000AAC0B3F061EC07F00D0E9EA855EF23F001
:1046B000AD6E0A0E9EA85AEF23F0AD6EC00EF21238
:1046C000A8C0ADF0E1EC19F0AA6BAA5140EC02F0E1
:1046D000AA2B006E00509EA86BEF23F0AD6E070E64
:1046E000AA5DD8A465EF23F0010E006EA851016EFB
:1046F000D8B480EF23F0D8900036012E7BEF23F062
:104700000050FF0AA517AC6B17EC09F0CFEC0FF0C7
:10471000A82BCCEF22F04952D8A491EF23F0BCEFA4
:0E4720001FF00400C6EF22F094EF23F0030018
:0200000400F00A
:080000007E047F0380028101F0
:080010000000010002000300E2
:080020000000000001000000D7
:020030000000CE
:02004000341278
:020000040030CA
:0E00000000220E0E000081000FC000E00F4035
:00000001FF
;PIC18F458
