:04000000CAEF14F03F
:08000800056ED8CF06F0E0CF31
:1000100007F00001E9CF0DF0EACF08F0E1CF09F0D9
:10002000E2CF0AF0D9CF0BF0DACF0CF0F3CF14F017
:10003000F4CF15F0FACF16F000C00FF001C010F0A9
:1000400002C011F003C012F004C013F09DA02CEF09
:1000500000F09EB0F2EF00F09DAA32EF00F09EBAE1
:1000600070EF02F00FC000F010C001F011C002F0FC
:1000700012C003F013C004F00DC0E9FF08C0EAFF8E
:10008000088E09C0E1FF0AC0E2FF0BC0D9FF0CC017
:10009000DAFF14C0F3FF15C0F4FF16C0FAFF0550D5
:1000A00007C0E0FF06C0D8FF1000006A016A026ABC
:1000B000036AEA6BEB6BEC6BED6BE951E811E7114E
:1000C000E6112CE0200EEE6FD890E237E337E437EC
:1000D000E537EA37EB37EC37ED37E951ED5D08E10D
:1000E000E851EC5D05E1E751EB5D02E1E651EA5DC7
:1000F0000FE3E651EA5FE751D8A0E73DEB5FE85137
:10010000D8A0E83DEC5FE951D8A0E93DED5FD8808B
:100110000036013602360336EE2FD6D7EA6AEA0EEB
:10012000E96E000C9E989E9A9D9AAB9EAB98AC98F7
:10013000AC9A030E006E002EFED7AB88AB8EAC8A55
:100140009D8A000C21500F0B006EF00E83140010DE
:10015000836E060E006E002EFED70000838A060E08
:10016000006E002EFED70000839A060E006E002E51
:10017000FED70000838A000CEA6AE20EE96EEF50B7
:100180000EE0030E016E006A002EFED7012EFBD793
:100190003C0E006E002EFED700D0EF2EF2D7000CE2
:1001A0002092E26BE25105081BE3E2510F0B006E57
:1001B000F00E83140010836E839C060E006E002EDA
:1001C000FED70000968084B003D02082E2C04BF0BE
:1001D000060E006E002EFED70000838CE22BE2D7C5
:1001E0000400000C000ECE6E800ECF6E010E222693
:1001F000000E232224222522010E4C26000E4D2221
:100200004E224F2225520DE1245000082DE2FF0A14
:1002100008E12350500828E2FF0A03E122507F083A
:1002200023E231C0E5F030C0E4F02FC0E3F02EC08F
:10023000E2F0E96BE86B050EE76FB50EE66F35DFB0
:10024000EFCFE2F0ECCFE3F0ECCFE4F0ECCFE5F071
:10025000010EE2252E6E000EE3212F6E000EE4212A
:10026000306E000EE521316E25C0E5F024C0E4F0CB
:1002700023C0E3F022C0E2F0E96B010EE86F510EFB
:10028000E76F800EE66F11DFEFCF22F0ECCF23F0A7
:10029000ECCF24F0ECCF25F04F5207E14E5205E1B0
:1002A0004D5203E14C50B40808E23CDF4F6A4E6AFD
:1002B0004D6A4C6A4A6A96928D92C284C2B4FED745
:1002C000C4CF03F0C3CFE2F0C4CFE3F0C284C2B422
:1002D000FED7C4CF03F0C350E227C450E323C28447
:1002E000C2B4FED7C4CF03F0C350E227C450E32307
:1002F000C284C2B4FED7C4CF03F0C350E227C450B7
:10030000E323E333E233E333E2333F0EE317E35116
:10031000020813E303E1E25157080FE320BC2084F5
:10032000209A9D9AFE0E216E0DDF0A0EE26F24DFE9
:10033000FF0E216E07DF83D005D020BA02D09D8A40
:10034000F1DE208A1F8220A076D02170255215E18F
:10035000245213E12350FC0805E2FF0A0EE122506B
:1003600020080BE325520EE124520CE123505408DF
:1003700009E303E122505F0805E3F30E21140C09A1
:10038000216E23D025520EE124520CE123508C081B
:1003900009E303E122509F0805E3F30E2114080945
:1003A000216E13D025520DE124520BE12350C408D5
:1003B00008E303E12250DF0804E3F30E2114216E69
:1003C00004D0F30E21140409216EBCDE25C0E5F033
:1003D00024C0E4F023C0E3F022C0E2F0E96BE86B54
:1003E000010EE76FC20EE66F60DEEFCF00F0ECCFDC
:1003F00001F0ECCF02F0ECCF03F00150036E02E10C
:10040000005211E0035003E16E0E005C0EE0035059
:1004100003E1DC0E005C0BE0010E035C03E14A0E1D
:10042000005C07E008D0B48106D0B48304D0B48562
:1004300002D0B48700D0B4DE4B52D8B420849E9052
:1004400032EF00F09EA8FED7AD6E000CFF0EEC6FF1
:10045000EB51A80803E0EB51A90804E1A90EF2DF73
:10046000DF0EEC6FEC51EB15ED6FECDF000C786BF1
:10047000A80EE8DF35C0EAF035C0EBF0E7DF355015
:10048000781B34C0EAF034C0EBF0E0DF3450781B66
:10049000E7C0EBF0DBDFE751781BE8531BE0FF0E12
:1004A000E96FE92B036AE951540FE96E000E03204E
:1004B000EA6EEF50781B036AE951540FE96E000EA3
:1004C0000320EA6EEFCFEAF0EAC0EBF0BFDFE851BD
:1004D000E95DE7E378C0EBF0B9DFA80EB3DF000C0D
:1004E000E46B9EAAFED7AECFE2F0E251A80A03E089
:1004F000010A39E03BD04A50030833E2E36B4A502B
:10050000E35D0BE2036AE351360FE96E000E032050
:10051000EA6EEF50E41BE32BF2D7E45302E04A6AA1
:1005200039D036C0E6F037C0E5F0E551FE0803E10A
:10053000E63D01D008D03450E55D03E13550E65D7D
:1005400002E04A6A27D038C051F039C053F03AC0AF
:1005500052F020AC05D0070EE76FE86B88DF01D0C2
:100560001F864A6A17D0200E506E14D04A501208C7
:100570000FE34A504A2A036A360FE96E000E032041
:10058000EA6EE2515010EF6E4F6A4E6A4D6A4C6A45
:10059000506A00D09E9A32EF00F0C69A949A9488DE
:1005A0009496310EC66E400EC76EC00EC76E35EF04
:1005B00015F094948B94060E006E002EFED700006A
:1005C000C950D70EC96EC730FEE3C950C96AC730DB
:1005D000FEE3C9CF7DF0060E006E002EFED70000B0
:1005E00094948B84000CD06BD06BD03D01D00CD098
:1005F000E0DF7D51BF0B9C0801E106D0210E006EAB
:10060000002EFED7D02BF1D7000C94948B94060EBD
:10061000006E002EFED70000C9509F0EC96EC73075
:10062000FEE3C950C96AC730FEE3C9CF79F0C950AB
:10063000C96AC730FEE3C9CF7AF0C950C96AC7306A
:10064000FEE3C9CF7BF0C950C96AC730FEE3C9CF0A
:100650007CF0060E006E002EFED7000094948B8472
:10066000BBEF15F0CA6703D0CB6702D007D0CB2B06
:10067000C9C0EEFFCA2FFCD7CB2FFAD7000CBE6B38
:10068000220EBD6FBB6BBB51030821E3BB51BD25DF
:10069000BF6F000EBE21C06F200EBB25C16FF2CF11
:1006A000C2F0F29EC1C0A9FFA69CA69EA680A8503B
:1006B000C2BFF28EC16FC0C0EAFFBFC0E9FFC1C0B8
:1006C000C9F0CB6B010ECA6FCDDFBB2BDCD7BE6B85
:1006D0002E0EBD6FBB6BBB51030822E3BB51BD2582
:1006E000BF6F000EBE21C06F200EBB25040FC16F6F
:1006F000F2CFC2F0F29EC1C0A9FFA69CA69EA68022
:10070000A850C2BFF28EC16FC0C0EAFFBFC0E9FFF0
:10071000C1C0C9F0CB6B010ECA6FA4DFBB2BDBD706
:10072000BE6B320EBD6FBB6BBB51010821E3BB51E9
:10073000BD25BF6F000EBE21C06F300EBB25C16F3F
:10074000F2CFC2F0F29EC1C0A9FFA69CA69EA680D1
:10075000A850C2BFF28EC16FC0C0EAFFBFC0E9FFA0
:10076000C1C0C9F0CB6B010ECA6F7CDFBB2BDCD7DD
:10077000BC6BBC510308D8A02ED1D890BC35036AFD
:10078000940F016E000E032201C0BDF003C0BEF045
:10079000BB6BBB51010822E3BB51BD25BF6F000EEF
:1007A000BE21C06FD890BC35BB25C16FF2CFC2F05F
:1007B000F29EC1C0A9FFA69CA69EA680A850C2BF5B
:1007C000F28EC16FC0C0EAFFBFC0E9FFC1C0C9F06F
:1007D000CB6B010ECA6F46DFBB2BDBD7D890BC3585
:1007E000036A940FE96E000E0320EA6EECCFC0F0AE
:1007F000ED52EFCFBFF0C051160812E2FF0A03E13D
:10080000BF5170080DE2D890BC35036A940FE96EB1
:10081000000E0320EA6E170EEC6EED52700EEF6EB6
:10082000D890BC35036A8A0F016E000E032201C006
:10083000BDF003C0BEF0BB6BBB51010824E3BB514C
:10084000BD25BF6F000EBE21C06F100EBB25C16F4E
:10085000D890BC35C127F2CFC2F0F29EC1C0A9FF2B
:10086000A69CA69EA680A850C2BFF28EC16FC0C033
:10087000EAFFBFC0E9FFC1C0C9F0CB6B010ECA6F70
:10088000F1DEBB2BD9D7D890BC35036A8A0FE96E4D
:10089000000E0320EA6EECCFC0F0ED52EFCFBFF0B8
:1008A000D890BC35036A940FE96E000E0320EA6EFF
:1008B000ECCF03F0ED52EFCF01F00350C05D23E326
:1008C00003E1BF51015C1FE2D890BC35036A8A0F77
:1008D000016E000E032203C0C0F0D890BC35036A3D
:1008E000940FE96E000E0320EA6EECCF03F0ED5298
:1008F000EFCFC1F0C0C0EAFF01C0E9FF03C0ECFFC9
:10090000ED52C1C0EFFFD890BC35036AA40F016E51
:10091000000E032201C0BDF003C0BEF0BB6BBB5193
:10092000010824E3BB51BD25BF6F000EBE21C06F7F
:10093000600EBB25C16FD890BC35C127F2CFC2F085
:10094000F29EC1C0A9FFA69CA69EA680A850C2BFC9
:10095000F28EC16FC0C0EAFFBFC0E9FFC1C0C9F0DD
:10096000CB6B010ECA6F7EDEBB2BD9D7D890BC35BE
:10097000036A9C0F016E000E032201C0BDF003C08C
:10098000BEF0BB6BBB51010824E3BB51BD25BF6F5B
:10099000000EBE21C06F700EBB25C16FD890BC3554
:1009A000C127F2CFC2F0F29EC1C0A9FFA69CA69EAD
:1009B000A680A850C2BFF28EC16FC0C0EAFFBFC000
:1009C000E9FFC1C0C9F0CB6B010ECA6F4BDEBB2B78
:1009D000D9D7BC2BCED6BFEF15F0C06B340EBF6F8E
:1009E000C16BC15101082BE3C151BF25C26F000E7D
:1009F000C021C36F500EC125C46FC56BD8B0C52BC5
:100A0000F00EC66FD8B0C62BC76BD8B0C72BF2CFCD
:100A1000C8F0F29EC4C0A9FFA69CA69EA680A850BE
:100A2000C8BFF28EC46FC3C0EAFFC2C0E9FFC4C032
:100A3000C9F0CB6B010ECA6F15DEC12BD2D7000CEB
:100A4000C06BC051030830E3200EC025C26FC051F7
:100A5000080DF3CFC3F025C0C7F024C0C6F023C0F3
:100A6000C5F022C0C4F0C35307E0D890C733C633E3
:100A7000C533C433C32FF9D7C2C0A9FFC4C0A8FF70
:100A8000A69CA69EA684F2CF00F0F29E0F01550E02
:100A9000A76EAA0EA76EA682A6B2FED7A694005095
:100AA000F2120001C02BCDD7C06BC051030831E357
:100AB000200EC025040FC26FC051080DF3CFC3F044
:100AC00031C0C7F030C0C6F02FC0C5F02EC0C4F092
:100AD000C35307E0D890C733C633C533C433C32FDD
:100AE000F9D7C2C0A9FFC4C0A8FFA69CA69EA68431
:100AF000F2CF00F0F29E0F01550EA76EAA0EA76E60
:100B0000A682A6B2FED7A6940050F2120001C02B16
:100B1000CCD7C16BC15103083CE3C06BC051010885
:100B200036E3100EC025C26FD890C135C227D890C9
:100B3000C135036A8A0FE96E000E0320EA6EECCF1E
:100B4000C4F0ED52EFCFC3F0C051080DF3CF00F069
:100B5000005205E0D890C433C333002EFBD7C2C087
:100B6000A9FFC3C0A8FFA69CA69EA684F2CF00F052
:100B7000F29E0F01550EA76EAA0EA76EA682A6B210
:100B8000FED7A6940050F2120001C02BC7D7C12B8C
:100B9000C1D7C06BC05101082AE3300EC025C26F17
:100BA000C051080DF3CF00F033C0C4F032C0C3F021
:100BB000005205E0D890C433C333002EFBD7C2C027
:100BC000A9FFC3C0A8FFA69CA69EA684F2CF00F0F2
:100BD000F29E0F01550EA76EAA0EA76EA682A6B2B0
:100BE000FED7A6940050F2120001C02BD3D7BF2D20
:100BF000BED0C16BC15103083AE3C06BC0510108BC
:100C000034E3D890C135C025C26FD890C135036A8E
:100C1000940FE96E000E0320EA6EECCFC4F0ED52A3
:100C2000EFCFC3F0C051080DF3CF00F0005205E044
:100C3000D890C433C333002EFBD7C2C0A9FFC3C0B2
:100C4000A8FFA69CA69EA684F2CF00F0F29E0F01FC
:100C5000550EA76EAA0EA76EA682A6B2FED7A694C0
:100C60000050F2120001C02BC9D7C12BC3D7C16BF2
:100C7000C15103083CE3C06BC051010836E3600E6C
:100C8000C025C26FD890C135C227D890C135036A3C
:100C9000A40FE96E000E0320EA6EECCFC4F0ED5213
:100CA000EFCFC3F0C051080DF3CF00F0005205E0C4
:100CB000D890C433C333002EFBD7C2C0A9FFC3C032
:100CC000A8FFA69CA69EA684F2CF00F0F29E0F017C
:100CD000550EA76EAA0EA76EA682A6B2FED7A69440
:100CE0000050F2120001C02BC7D7C12BC1D7C16B76
:100CF000C15103083CE3C06BC051010836E3700EDC
:100D0000C025C26FD890C135C227D890C135036ABB
:100D10009C0FE96E000E0320EA6EECCFC4F0ED529A
:100D2000EFCFC3F0C051080DF3CF00F0005205E043
:100D3000D890C433C333002EFBD7C2C0A9FFC3C0B1
:100D4000A8FFA69CA69EA684F2CF00F0F29E0F01FB
:100D5000550EA76EAA0EA76EA682A6B2FED7A694BF
:100D60000050F2120001C02BC7D7C12BC1D7000C15
:100D70007A51260803E1D890CD37CE3734DC9494ED
:100D80008B94060E006E002EFED70000C950D20EC6
:100D9000C96EC730FEE3CEC0D0F0C950CEC0C9FF87
:100DA000C730FEE3CDC0D0F0C950CDC0C9FFC730B9
:100DB000FEE3C950CFC0C9FFC730FEE3C950C96ABE
:100DC000C730FEE3C950C96AC730FEE3C950C96ADB
:100DD000C730FEE3C950C96AC730FEE3C950C96ACB
:100DE000C730FEE3C9CF7EF0C950C96AC730FEE301
:100DF000C9CF7FF094948B84000CCE6BCD6B560ED4
:100E0000CF6FB6DF7FC0AFF07EC0AEF0CE6BCD6BE4
:100E1000580ECF6FADDF7FC0B1F07EC0B0F0CE6BAB
:100E2000CD6B5A0ECF6FA4DF7FC0B3F07EC0B2F09F
:100E3000CE6BCD6B5C0ECF6F9BDF7FC0ADF07EC005
:100E4000ACF0FDEF15F0FF0EBF6FBF2BF3EC02F01F
:100E500094948B94C950500EC96EC730FEE3BF39CD
:100E6000C06FC033070EC017C950C0C0C9FFC7301C
:100E7000FEE3BF35C06FC037C037F80EC017C9508A
:100E8000C0C0C9FFC730FEE3C950C96AC730FEE31E
:100E900094948B84BF3DD9D7F3EC02F005EF0FF0AB
:100EA0007A51260803E1D890BF37C037F3EC02F03F
:100EB00094948B94060E006E002EFED70000C9504D
:100EC000830EC96EC730FEE3C0C0C1F0C950C0C0B8
:100ED000C9FFC730FEE3BFC0C1F0C950BFC0C9FFE2
:100EE000C730FEE3C950C96AC730FEE394948B84CF
:100EF0001BEF0FF0F3EC02F07A51260803E1D890D3
:100F0000BF37C03794948B94C950530EC96EC73005
:100F1000FEE3C0C0C1F0C950C0C0C9FFC730FEE386
:100F2000BFC0C1F0C950BFC0C9FFC730FEE3C95040
:100F3000C96AC730FEE394948B8433EF0FF0786B6B
:100F4000A80E22EC02F035C0C1F0186AF2BE188E6D
:100F5000F29E35C0EBF026EC02F018BEF28E355052
:100F6000781B34C0C1F0186AF2BE188EF29E34C0ED
:100F7000EBF026EC02F018BEF28E3450781B186AA3
:100F8000F2BE188EF29E030EEB6F26EC02F018BE36
:100F9000F28E030E781BF3EC02F094948B94060E01
:100FA000006E002EFED70000C950D10EC96EC730AA
:100FB000FEE3C950C96AC730FEE3C950C96AC730E9
:100FC000FEE3C950C96AC730FEE3FF0EBF6FBF2BF7
:100FD000C950C96AC730FEE3C9CFC0F0C051781B01
:100FE000186AF2BE188EF29EC0C0EBF026EC02F03A
:100FF00018BEF28EBF3DEBD794948B84186AF2BE74
:10100000188EF29E78C0EBF026EC02F018BEF28E3D
:10101000A80E22EC02F047EF0FF0F3EC02F09494EC
:101020008B94060E006E002EFED70000C950840E71
:10103000C96EC730FEE3C950C96AC730FEE3C95064
:10104000C96AC730FEE3C950C0C0C9FFC730FEE35C
:10105000C15101080CE2FF0EC26FC950BFC0C9FFE9
:10106000C730FEE3C22BC151C25DF7E305D0C950C2
:10107000BFC0C9FFC730FEE394948B84000CF3EC2F
:1010800002F094948B94060E006E002EFED70000A2
:10109000C9503D0EC96EC730FEE3C9502A0EC96E55
:1010A000C730FEE3C950800EC96EC730FEE3C95099
:1010B000A60EC96EC730FEE394948B8462EF0FF0E6
:1010C000F29CF29EF2BEFDD7F3EC02F0100E006E21
:1010D000002EFED7000094948B94BF51010B006E3C
:1010E000036A0050031006E0C950820EC96EC73073
:1010F000FEE305D0C950850EC96EC730FEE37A51B4
:10110000260803E1D890BF37C037C0C0C4F0C9502B
:10111000C0C0C9FFC730FEE3BFC0C4F0C950BFC0E4
:10112000C9FFC730FEE3C950C96AC730FEE3C26BCE
:10113000FF0EC16FCC0EC26F9EAAFED7AECFC3F01A
:10114000C351C21BC950C3C0C9FFC730FEE3C12B86
:10115000C13DF2D794948B84C00EF21279EF0FF058
:10116000CA6BCB6BCC6BCD6B93988A9893908A901B
:1011700093928A9293948A9493968A96186AF2BE6E
:10118000188EF29E140EE26FBCEC00F018BEF28EC8
:10119000C951030801E25ED1208CC951FC0F17E24E
:1011A000040F2BEF0AF092841F9480B41F840FD099
:1011B00092861F9480B61F840AD092881F9480B8AC
:1011C0001F8405D0928A1F9480BA1F8400D0C85310
:1011D00002E193988A88186AF2BE188EF29EC80EB1
:1011E000E26FBCEC00F018BEF28EC951FC0F0FE2AA
:1011F000040F41EF0AF093908A8009D093928A827B
:1012000006D093948A8403D093968A8600D0186A75
:10121000F2BE188EF29E0A0EE26FBCEC00F018BE11
:10122000F28E25C029F024C028F023C027F022C068
:1012300026F025C02DF024C02CF023C02BF022C0B6
:101240002AF0836B826B04002650225C006E2750CC
:101250002358016E285024582950255801C0CBF03E
:1012600000C0CAF02A50225C006E2B502358016E39
:101270002C5024582D50255801C0CDF000C0CCF082
:10128000C951FC0F17E2040F57EF0AF0928420981F
:1012900080B420880FD09286209880B620880AD00B
:1012A0009288209880B8208805D0928A209880BAA9
:1012B000208800D020A60FD0C85303E14B5003086C
:1012C00005E0C85307E04B50050804E120A202D016
:1012D000208601D0209620B62DD020A402D02094C4
:1012E00092D0C551CB5D05E303E1C451CA5D01E372
:1012F0008AD0C351835D16E303E1C251825D12E3DC
:10130000C951FC0F0FE2040F6DEF0AF093908A9021
:1013100009D093928A9206D093948A9403D093969C
:101320008A9600D0C751CD5D05E303E1C651CC5D7F
:1013300001E369D0006A20B800841F500018040B34
:1013400061E025C02DF024C02CF023C02BF022C07A
:101350002AF01F9420B81F84C8531EE1D890C935C5
:10136000036A8A0FE96E000E0320EA6EECCFCFF01D
:10137000ED52EFCFCEF0CE5302E1CF530DE0D89037
:10138000C935036A8A0FE96E000E0320EA6EFF0E6C
:10139000EF2602E2EE52ED06C8532DE0D890C93593
:1013A000036A8A0FE96E000E0320EA6EECCFCFF0DD
:1013B000ED52EFCFCEF0D890C935036A940FE96EA5
:1013C000000E0320EA6EECCF03F0ED52EFCF01F0F8
:1013D000CF51035C10E303E10150CE5D0CE2D890E5
:1013E000C935036A8A0FE96E000E0320EA6E010E0A
:1013F000EE2601E3EF2A010E8227000E83232172DD
:10140000A2EC00F020D7209493908A9093928A9235
:1014100093948A9493968A96020ECE6F186AF2BEBF
:10142000188EF29EFA0EE26FBCEC00F018BEF28E3F
:10143000CE2FF4D793988A98186AF2BE188EF29E2F
:10144000140EE26FBCEC00F018BEF28E2182A2EC0A
:1014500000F0209C000CF2CF0EF0F29EE824F76A18
:10146000F7367B0FF66E140EF7220A00F550FA6E6F
:101470000800F5500EBEF28EF96EA611B011BA1129
:10148000C411F2CF0EF0F29EE824F76AF736A70FE8
:10149000F66E140EF7220A00F550FA6E0800F550A9
:1014A0000EBEF28EF96EF611FC1102120812F2CF86
:1014B0000EF0F29EE824F76AF736D30FF66E140E9C
:1014C000F7220A00F550FA6E0800F5500EBEF28EB3
:1014D000F96E8C129612A012AA12F2CF0EF0F29EA2
:1014E000E824F76AF736FF0FF66E140EF7220A00AB
:1014F000F550FA6E0800F5500EBEF28EF96E0C1320
:10150000121318131E13DC6BDD6B010EDE6FDA6A2B
:10151000D96AE16BD40EE06FEA6AD80EE96EE1C0D9
:10152000E2FFE0C0E1FFDEC0DFF0D890E550EE0260
:10153000F350DC23F450DD23DF2FF7D7DCC0DEFFD0
:10154000DDC0DCF0DD6BD8B0DD2BE02BD8B4E12BB7
:10155000DE2BDE510508E0E1000CD890BF35036AB0
:101560008A0FE96E000E0320EA6EECCFC1F0ED5257
:10157000EFCFC0F0050E9225016E000E9321036E91
:101580000350C15D26E303E1C051015C22E2D89023
:10159000BF35036A8A0FE96E000E0320EA6EECCFB6
:1015A000C1F0ED52EFCFC0F09251C05F9351C15BDB
:1015B000C1C0C3F0C0C0C2F0110EC56F940EC46F9D
:1015C00081C0C7F080C0C6F0C86BBFC0C9F0C8DD1D
:1015D0008BD0D890BF35036A8A0FE96E000E0320C6
:1015E000EA6EECCFC1F0ED52EFCFC0F0050EC02790
:1015F000000EC123C151935D26E303E19251C05D0A
:1016000022E2D890BF35036A8A0FE96E000E0320EC
:10161000EA6EECCF03F0ED52EF50925DC06F0350D5
:101620009359C16FC36FC0C0C2F0110EC56F940E45
:10163000C46F81C0C7F080C0C6F0010EC86FBFC0C4
:10164000C9F08EDD51D0925320E193531EE1D89022
:10165000BF35036A940FE96E000E0320EA6EECCFEB
:10166000C1F0ED52EFCFC0F0C1C0C3F0C0C0C2F0B6
:10167000110EC56F940EC46F81C0C7F080C0C6F054
:10168000C86BBFC0C9F06CDD2FD0D890BF35036ADE
:10169000940FE96E000E0320EA6EECCF03F0ED52DA
:1016A000EF50925D21E10350935D1EE1D890BF356C
:1016B000036A940FE96E000E0320EA6EECCFC1F0CE
:1016C000ED52EFCFC0F0C1C0C3F0C0C0C2F0110EE8
:1016D000C56F940EC46F81C0C7F080C0C6F0010E04
:1016E000C86FBFC0C9F03CDD000C936B926B2FC07C
:1016F000CBF02EC0CAF02FC0CEF02EC0CDF0CF6BF5
:10170000B8EC06F07FC003F07E512E5C07E1035079
:101710002F5C04E1305202E1315201E0D7D2E10EF8
:101720002224CA6F000E2320CB6F000E2420CC6F22
:10173000000E2520CD6F186AF2BE188EF29EE56F5E
:10174000CCC0E4F0CBC0E3F0CAC0E2F0E96BE86BD8
:10175000010EE76FC20EE66F55EC00F018BEF28E78
:1017600001C0C3F000C0C2F0E10E2224CA6F000E17
:101770002320CB6F000E2420CC6F000E2520CD6FD0
:10178000186AF2BE188EF29EE56FCCC0E4F0CBC0B2
:10179000E3F0CAC0E2F0E96BE86B010EE76FC20E3E
:1017A000E66F55EC00F018BEF28EEFCFC4F0ECCF30
:1017B000C5F02FC0CBF02EC0CAF02FC0CEF02EC087
:1017C000CDF0020ECF6FB8EC06F07FC0C1F07EC046
:1017D000C0F0C351C15D04E312E1C051C25D0FE32B
:1017E0007C0EC025016E000EC121036E0350C35D47
:1017F000D8A0A0D004E1C251015CD8B09BD0D89051
:10180000BF35036A940FE96E000E0320EA6EECCF39
:1018100003F0ED52EFCFCAF003C0CBF0CC6BCD6B31
:10182000D890BF35036AA40FE96E000E0320EA6E5C
:10183000ECCF03F0ED52EF50AC5D006E0350AD59AC
:10184000036E005003C001F0026A036A03C0D1F0C6
:1018500002C0D0F001C0CFF000C0CEF0EACFD3F08C
:10186000E9CFD2F0CDC0D7F0CCC0D6F0CBC0D5F008
:10187000CAC0D4F003C0DBF002C0DAF001C0D9F076
:1018800000C0D8F040DED3C0EAFFD2C0E9FF03C0F9
:1018900029F002C028F001C027F000C026F0D8903F
:1018A000BF35036A9C0FE96E000E0320EA6EECCF91
:1018B000CBF0ED52EFCFCAF0D890BF35036AA40F3A
:1018C000E96E000E0320EA6EECCF03F0ED52EF500C
:1018D000CA5D006E0350CB59036E00C0CAF0CB6FD7
:1018E000EACFCDF0E9CFCCF0186AF2BE188EF29EA6
:1018F00029C0E5F028C0E4F027C0E3F026C0E2F0FC
:10190000E96BE86BE76F00C0E6F055EC00F018BE3D
:10191000F28ECDC0EAFFCCC0E9FF03C029F002C0BF
:1019200028F001C027F000C026F027C093F026C0A1
:1019300092F0CCD12FC0CBF02EC0CAF0C051C25D06
:10194000006EC151C359036E0050D890003600504C
:10195000040FCC6F2FC0CEF02EC0CDF0CF6FB8ECFF
:1019600006F07FC0C7F07EC0C6F02FC0CBF02EC0FF
:10197000CAF0C051C25D006EC151C359036E005020
:10198000D89000360050060FCC6F2FC0CEF02EC07E
:10199000CDF0CF6FB8EC06F07FC0C9F07EC0C8F0C4
:1019A000C751C95D5CE303E1C851C65D58E2C65149
:1019B000C85D006EC751C959036E00C0CAF0CB6F35
:1019C000CC6BCD6BC4C000F0C5C001F0026A036AE5
:1019D00003C0D1F002C0D0F0C5C0CFF0C4C0CEF07B
:1019E000CDC0D7F0CCC0D6F0D56FCAC0D4F003C0FC
:1019F000DBF002C0DAF0C5C0D9F0C4C0D8F083DD96
:101A000003C029F002C028F001C027F000C026F072
:101A1000186AF2BE188EF29E29C0E5F028C0E4F0E4
:101A200027C0E3F026C0E2F0E96BE86B010EE76F38
:101A3000C20EE66F55EC00F018BEF28E03C029F01E
:101A400002C028F001C027F000C026F027C0C9F06E
:101A500026C0C8F0C851C627C951C72357D0C8519E
:101A6000C65D006EC951C759036E00C0CAF0CB6F86
:101A7000CC6BCD6BC4C000F0C5C001F0026A036A34
:101A800003C0D1F002C0D0F0C5C0CFF0C4C0CEF0CA
:101A9000CDC0D7F0CCC0D6F0D56FCAC0D4F003C04B
:101AA000DBF002C0DAF0C5C0D9F0C4C0D8F02BDD3D
:101AB00003C029F002C028F001C027F000C026F0C2
:101AC000186AF2BE188EF29E29C0E5F028C0E4F034
:101AD00027C0E3F026C0E2F0E96BE86B010EE76F88
:101AE000C20EE66F55EC00F018BEF28E03C029F06E
:101AF00002C028F001C027F000C026F027C0C9F0BE
:101B000026C0C8F0C851C65FC951C75BD890BF3561
:101B1000036A9C0FE96E000E0320EA6EECCF03F01F
:101B2000ED52EFCF01F00350C75D13E303E1015025
:101B3000C65D0FE3D890BF35036A9C0FE96E000EB7
:101B40000320EA6EECCF03F0ED52EFCFC6F003C0F6
:101B5000C7F0D890BF35036AA40FE96E000E0320CA
:101B6000EA6EECCF03F0ED52EFCF01F0C751035C0A
:101B700013E303E1C651015C0FE3D890BF35036A5C
:101B8000A40FE96E000E0320EA6EECCF03F0ED52D5
:101B9000EFCFC6F003C0C7F0D890BF35036A940FEB
:101BA000E96E000E0320EA6EECCF03F0ED52EFCFAA
:101BB000CAF003C0CBF0CC6BCD6BD890BF35036AB5
:101BC000A40FE96E000E0320EA6EECCF03F0ED5295
:101BD000EF50C65D006E0350C759036E005003C03E
:101BE00001F0026A036A03C0D1F002C0D0F001C064
:101BF000CFF000C0CEF0EACFD3F0E9CFD2F0CDC025
:101C0000D7F0CCC0D6F0CBC0D5F0CAC0D4F003C05A
:101C1000DBF002C0DAF001C0D9F000C0D8F073DC0C
:101C2000D3C0EAFFD2C0E9FF03C029F002C028F008
:101C300001C027F000C026F0D890BF35036A9C0F82
:101C4000E96E000E0320EA6EECCFCBF0ED52EFCF41
:101C5000CAF0D890BF35036AA40FE96E000E0320C6
:101C6000EA6EECCF03F0ED52EF50CA5D006E035008
:101C7000CB59036E00C0CAF0CB6FEACFCDF0E9CFED
:101C8000CCF0186AF2BE188EF29E29C0E5F028C08A
:101C9000E4F027C0E3F026C0E2F0E96BE86BE76F01
:101CA00000C0E6F055EC00F018BEF28ECDC0EAFFA1
:101CB000CCC0E9FF03C029F002C028F001C027F022
:101CC00000C026F027C093F026C092F0000CBF6B36
:101CD000BF51010834E3500EBF25C06FC16BD8B0AF
:101CE000C12BF00EC26FD8B0C22BC36BD8B0C32BC0
:101CF000BF51080DF3CF00F035C0C5F034C0C4F0BB
:101D0000005205E0D890C533C433002EFBD7C0C0C5
:101D1000A9FFC4C0A8FFA69CA69EA684F2CF00F08F
:101D2000F29E0F01550EA76EAA0EA76EA682A6B24E
:101D3000FED7A6940050F2120001BF2BC9D79BEF2B
:101D400012F0070EC05F0BE3EA6AC00EE96ED8908E
:101D5000EF32EF5004E001D000D0EF2EFDD7D4EFEA
:101D600012F01F964F6A4E6A4D6A4C6A5150800AB3
:101D70004AE0020A56E0010AD8B46BD0070AD8B488
:101D800080D0010AD8B487D00B0AD8B499D0010A00
:101D9000D8B4A4D0BF0AD8B4C8D0010AD8B4D6D019
:101DA000030AD8B4E4D0120AD8B401D1010AD8B4D5
:101DB0003BD1030AD8B474D1010AD8B42DD2070A92
:101DC000D8B486D2010AD8B4CCD2030AD8B40ED380
:101DD000010AD8B424D30F0AD8B443D3380AD8B4EC
:101DE00062D3010AD8B484D3030AD8B49ED3010ABB
:101DF000D8B4ACD3120AD8B4C4D3030AD8B4EDEF24
:101E000012F019EF13F023EF07F0186AF2BE188EE4
:101E1000F29EE76BE86B37EC02F018BEF28E19EF1A
:101E200013F0F29CF29EF2BEFDD753C0C0F052C038
:101E3000BFF050EF07F0186AF2BE188EF29EE76B03
:101E4000E86B37EC02F018BEF28EC00EF21219EFFA
:101E500013F0F29CF29EF2BEFDD753C0C0F052C008
:101E6000BFF07AEF07F0186AF2BE188EF29EE76BA9
:101E7000E86B37EC02F018BEF28EC00EF21219EFCA
:101E800013F0F29CF29EF2BEFDD79FEF07F0C00E5A
:101E9000F21219EF13F0F29CF29EF2BEFDD7BF6B67
:101EA000C06BFF0EC16F0DEC08F0550EBF6F100E2A
:101EB000C06F080EC16F0DEC08F0C00EF212B9D35E
:101EC0003FEF08F0186AF2BE188EF29E060EE76F1A
:101ED000E86B37EC02F018BEF28EABD3F29CF29EA8
:101EE000F2BEFDD7D19053C0C0F052C0BFF060EF3A
:101EF00008F0EA6A540EE96EE26A520EE16E020ED2
:101F0000016EE6CFEEFF012EFCD7186AF2BE188EE6
:101F1000F29E080EE76F010EE86F37EC02F018BE74
:101F2000F28ED180C00EF21284D3316A306A53C06F
:101F30002FF052C02EF0186AF2BE188EF29EE76B98
:101F4000E86B37EC02F018BEF28E73D3256A246A70
:101F500053C023F052C022F0186AF2BE188EF29ECF
:101F6000E76BE86B37EC02F018BEF28E62D3BE6B03
:101F7000220EBD6F020EBD25BF6F000EBE21C06FC9
:101F8000EA6EBFC0E9FFE26A520EE16E020E016E18
:101F9000E6CFEEFF012EFCD7186AF2BE188EF29E35
:101FA000E76BE86B37EC02F018BEF28E42D320AC40
:101FB0000CD0186AF2BE188EF29E010EE76FE86B25
:101FC00037EC02F018BEF28E34D3186AF2BE188EC7
:101FD000F29EE76BE86B37EC02F018BEF28E52C04F
:101FE000BFF053503F0BC06F5338026E036A02328A
:101FF0000232030E021602C0C1F0C0C0C3F052C0CC
:10200000C2F0230EC56F280EC46F81C0C7F080C018
:10201000C6F0010EC86F02C0C9F0B0EC08F083C072
:1020200085F082C084F005D320AC0CD0186AF2BED3
:10203000188EF29E010EE76FE86B37EC02F018BEC7
:10204000F28EF7D2186AF2BE188EF29EE76BE86B3A
:1020500037EC02F018BEF28E52C0BFF053503F0B67
:10206000C06F5338026E036A02320232030E021648
:1020700002C0C1F0C0C0C3F052C0C2F0230EC56F91
:10208000280EC46F81C0C7F080C0C6F0C86B02C004
:10209000C9F0B0EC08F083C085F082C084F0C9D2EA
:1020A00020AC0CD0186AF2BE188EF29E010EE76FBB
:1020B000E86B37EC02F018BEF28EBBD2186AF2BEA3
:1020C000188EF29EE76BE86B37EC02F018BEF28ECA
:1020D000D8905234036A940FE96E000E0320EA6E22
:1020E000ECCF03F0ED52EFCFBFF003C0C0F0C16BF7
:1020F000C26BD8905234036AA40FE96E000E03201D
:10210000EA6EECCF03F0ED52EF50AC5D006E035081
:10211000AD59036E005003C001F0026A036A03C0A8
:10212000C6F002C0C5F001C0C4F000C0C3F0EACFE1
:10213000C8F0E9CFC7F0C2C0D7F0C1C0D6F0C0C068
:10214000D5F0BFC0D4F003C0DBF002C0DAF001C0AC
:10215000D9F000C0D8F083EC0AF0C8C0EAFFC7C0CD
:10216000E9FF03C029F002C028F001C027F000C039
:1021700026F0D8905234036A9C0FE96E000E0320BB
:10218000EA6EECCFC0F0ED52EFCFBFF0D8905234F2
:10219000036AA40FE96E000E0320EA6EECCF03F091
:1021A000ED52EF50BF5D006E0350C059036E00C08A
:1021B000BFF0C06FEACFC2F0E9CFC1F0186AF2BE3B
:1021C000188EF29E29C0E5F028C0E4F027C0E3F0A5
:1021D00026C0E2F0E96BE86BE76F00C0E6F055EC73
:1021E00000F018BEF28EC2C0EAFFC1C0E9FF03C012
:1021F00029F002C028F001C027F000C026F027C057
:1022000093F026C092F052C0BFF0ADEC0AF083C04C
:1022100085F082C084F00DD220AC0CD0186AF2BEDA
:10222000188EF29E010EE76FE86B37EC02F018BED5
:10223000F28EFFD1186AF2BE188EF29EE76BE86B41
:1022400037EC02F018BEF28E170EC36F700EC26F1D
:10225000230EC56F280EC46F81C0C7F080C0C6F0C2
:10226000010EC86F52C0C9F0B0EC08F0170EC36F72
:10227000700EC26F230EC56F280EC46F81C0C7F0E9
:1022800080C0C6F0C86B52C0C9F0B0EC08F0D8905E
:102290005234036A940FE96E000E0320EA6E83C085
:1022A000ECFFED5282C0EFFFD8905234036A8A0FE0
:1022B000E96E000E0320EA6EEC6AED52EF6A010E41
:1022C000BF6F20EC05F083C085F082C084F0B1D1EF
:1022D000EA6A540EE96EE26AA40EE16E080E016E1F
:1022E000E6CFEEFF012EFCD7EA6A5C0EE96EE26AE9
:1022F0009C0EE16E080E016EE6CFEEFF012EFCD7BC
:10230000EA6A640EE96EE26AAC0EE16E020E016EDC
:10231000E6CFEEFF012EFCD7EA6A660EE96EE26AAE
:10232000940EE16E080E016EE6CFEEFF012EFCD793
:10233000EA6A6E0EE96EE26A8A0EE16E080E016EBE
:10234000E6CFEEFF012EFCD7186AF2BE188EF29E81
:10235000040EE76F210EE86F37EC02F018BEF28E24
:1023600068D120AC0CD0186AF2BE188EF29E010E15
:10237000E76FE86B37EC02F018BEF28E5AD1D890B6
:102380005234036A940FE96E000E0320EA6EECCF1C
:10239000C0F0ED52EFCFBFF0C05303E1BF511008C2
:1023A00020E252C0BFF075EC0BF0EA6A540EE96E01
:1023B000E26A920EE16E020E016EE6CFEEFF012E92
:1023C000FCD7186AF2BE188EF29E0B0EE76F010E54
:1023D000E86F37EC02F018BEF28E52C0BFF0ADECE1
:1023E0000AF083C085F082C084F023D1EA6A540EDB
:1023F000E96EE26A840EE16E020E016EE6CFEEFF38
:10240000012EFCD7186AF2BE188EF29E050EE76FF9
:10241000010EE86F37EC02F018BEF28E0AD152506E
:10242000030B006E036A0050D89000360050036A18
:10243000A40FE96E000E0320EA6E5250FC0BEF6E03
:1024400053C0ECFF010EBF6F20EC05F0186AF2BE1E
:10245000188EF29EE76BE86B37EC02F018BEF28E36
:10246000E8D05250030B006E036A0050D89000363B
:102470000050036A9C0FE96E000E0320EA6E525072
:10248000FC0BEF6E53C0ECFF010EBF6F20EC05F0AC
:10249000186AF2BE188EF29EE76BE86B37EC02F01A
:1024A00018BEF28EC6D0EA6A540EE96EE26A2E0EAB
:1024B000E16E040E016EE6CFEEFF012EFCD7EA6A54
:1024C000580EE96EE26A220EE16E040E016EE6CF4E
:1024D000EEFF012EFCD7186AF2BE188EF29E090E8E
:1024E000E76F070EE86F37EC02F018BEF28EA1D04E
:1024F000EA6A540EE96EE26A1F0EE16EE6CFEEFF65
:10250000EA6A550EE96EE26A200EE16EE6CFEEFF52
:10251000186AF2BE188EF29E0A0EE76F010EE86F7F
:1025200037EC02F018BEF28E84D053C035F052C0A2
:1025300034F067EF0EF0186AF2BE188EF29EE76B69
:10254000E86B37EC02F018BEF28E73D0EDEC04F0BD
:10255000EA6A540EE96EE26A340EE16E020E016E12
:10256000E6CFEEFF012EFCD7186AF2BE188EF29E5F
:102570000B0EE76F010EE86F37EC02F018BEF28E1B
:1025800058D0525205E1535203E196928D9224D0D5
:10259000522C17D0535215E196928D82040EBF6FC4
:1025A000E00EC06FA1EF0EF0BF2FFAD7186AF2BE8F
:1025B000188EF29EE76BE86B37EC02F018BEF28ED5
:1025C0000BD0186AF2BE188EF29E010EE76FE86B10
:1025D00037EC02F018BEF28E2CD052520EE153525C
:1025E0000CE12090186AF2BE188EF29EE76BE86B41
:1025F00037EC02F018BEF28E1BD0522C0ED0535284
:102600000CE12080186AF2BE188EF29EE76BE86B30
:1026100037EC02F018BEF28E0BD0186AF2BE188E9C
:10262000F29E010EE76FE86B37EC02F018BEF28EF7
:1026300000D002EF16F0BC6B209021902192F30E97
:1026400021140C09216EA2EC00F0209420A209D0E4
:10265000186AF2BE188EF29ED0EC00F018BEF28E10
:10266000F5D7186AF2BE188EF29E0A0EE26FBCEC25
:1026700000F018BEF28EFF0E4B6E186AF2BE188E76
:10268000F29ED0EC00F018BEF28E04004B50FF0812
:10269000D8B465D14B50FA0FD8B061D1060FB2EF64
:1026A00014F020A209D0186AF2BE188EF29ED0EC67
:1026B00000F018BEF28EF5D7186AF2BE188EF29EA0
:1026C0000A0EE26FBCEC00F018BEF28EFF0E4B6EED
:1026D0002080209492EC00F043D120A209D0186A07
:1026E000F2BE188EF29ED0EC00F018BEF28EF5D736
:1026F000186AF2BE188EF29E0A0EE26FBCEC00F071
:1027000018BEF28EBC2B030EBC17BC51FF0A030B84
:10271000006ED89000360036F30E21140010216EA2
:10272000A2EC00F01CD1070EC36FD00EC26F230EB7
:10273000C56F280EC46F81C0C7F080C0C6F0010EFF
:10274000C86FBCC0C9F0B0EC08F0070EC36FD00E64
:10275000C26F230EC56F280EC46F81C0C7F080C042
:10276000C6F0C86BBCC0C9F0B0EC08F0D890BC355E
:10277000036A940FE96E000E0320EA6E83C0ECFF3B
:10278000ED5282C0EFFFD890BC35036A8A0FE96E24
:10279000000E0320EA6EEC6AED52EF6A010EBF6F85
:1027A00020EC05F0DCD02086C36B0A0EC26F110E40
:1027B000C56F940EC46F81C0C7F080C0C6F0C86BEF
:1027C000BCC0C9F0B0EC08F02096C9D020A209D056
:1027D000186AF2BE188EF29ED0EC00F018BEF28E8F
:1027E000F5D7186AF2BE188EF29E0A0EE26FBCECA4
:1027F00000F018BEF28ED890BC35036A940FE96ED3
:10280000000E0320EA6EECCF03F0ED52EFCFBDF0E7
:1028100003C0BEF0BF6BC06BD890BC35036AA40F79
:10282000E96E000E0320EA6EECCF03F0ED52EF509C
:10283000AC5D006E0350AD59036E005003C001F053
:10284000026A036A03C0C4F002C0C3F001C0C2F050
:1028500000C0C1F0EACFC6F0E9CFC5F0C0C0D7F0E4
:10286000BFC0D6F0BEC0D5F0BDC0D4F003C0DBF011
:1028700002C0DAF001C0D9F000C0D8F083EC0AF051
:10288000C6C0EAFFC5C0E9FF03C029F002C028F0B6
:1028900001C027F000C026F0D890BC35036A9C0F19
:1028A000E96E000E0320EA6EECCFBEF0ED52EFCFE2
:1028B000BDF0D890BC35036AA40FE96E000E03206A
:1028C000EA6EECCF03F0ED52EF50BD5D006E0350A9
:1028D000BE59036E00C0BDF0BE6FEACFC0F0E9CFB5
:1028E000BFF0186AF2BE188EF29E29C0E5F028C02B
:1028F000E4F027C0E3F026C0E2F0E96BE86BE76F95
:1029000000C0E6F055EC00F018BEF28EC0C0EAFF41
:10291000BFC0E9FF03C029F002C028F001C027F0C2
:1029200000C026F027C093F026C092F0BCC0BFF0D4
:10293000ADEC0AF014D02086C36B0A0EC26F110EE4
:10294000C56F940EC46F81C0C7F080C0C6F0010E81
:10295000C86FBCC0C9F0B0EC08F0209600D08BD690
:1029600043EF16F0F2CF0EF0F29EE824F76AF73646
:10297000890FF66E290EF7220A00F550FA6E08004C
:10298000F5500EBEF28EF96EA226DA262627A6276D
:10299000CC273629F86AD09E088EEA6AE96A030EC7
:1029A000AF6EA20EAC6E900EAB6E9488949A949615
:1029B0008B96C180C182C184C196070EB46E196A1C
:1029C0001A6A226A236A246A256A266A276A286A9A
:1029D000296A2A6A2B6A2C6A2D6A010E2E6E2F6ACA
:1029E000306A316A326A336A750E346E356A4A6A01
:1029F000FF0E4B6E4C6A4D6A4E6A4F6A506A516ABE
:102A00007D6B7E6B7F6B020E806F816B826B836B45
:102A10008A6B8B6B8C6B8D6B8E6B8F6B906B916BF2
:102A2000926B936B946B956B966B976B986B996BA2
:102A30009A6B9B6B9C6B9D6B9E6B9F6BA06BA16B52
:102A4000A26BA36BA46BA56BA66BA76BA86BA96B02
:102A5000AA6BAB6BAC6BAD6BAE6BAF6BB06BB16BB2
:102A6000B26BB36BB46BCDEF02F0C190C182C18485
:102A7000C186C19CC28CC28EC18EC280000E016E06
:102A8000C250C70B0110C26EFF0E926E936E000E05
:102A9000956EF00E216EA2EC00F0140EBB6F186A5A
:102AA000F2BE188EF29EFA0EE26FBCEC00F018BE79
:102AB000F28EBB2FF4D7209CC284C2B4FED7C4CF01
:102AC00003F0C3CFBBF0C4CFBCF0C284C2B4FED706
:102AD000C4CF03F0C350BB27C450BC23C284C2B4CC
:102AE000FED7C4CF03F0C350BB27C450BC23C2845D
:102AF000C2B4FED7C4CF03F0C350BB27C450BC231D
:102B0000BC33BB33BC33BB333F0EBC17BC510208D4
:102B100021E303E1BB5189081DE3FE0E216EA2EC07
:102B200000F0186AF2BE188EF29E020EE26FBCEC44
:102B300000F018BEF28EFF0E216EA2EC00F0186AB3
:102B4000F2BE188EF29E320EE26FBCEC00F018BEA0
:102B5000F28EB2D7186AF2BE188EF29EC80EE26FDD
:102B6000BCEC00F018BEF28E208A96928D92F3ECA7
:102B700002F005EF03F0D9EC02F03FEF03F0EDECCB
:102B800004F00F0ECD6E9D8A9D80C00EF21292EC65
:102B900000F0B66BB56B208020922096216A186AEF
:102BA000F2BE188EF29EC80EE26FBCEC00F018BEAA
:102BB000F28EF2CFBBF0F29E400EA96EA69CA69EAE
:102BC000A680A850BBBFF28E3408F3E1F2CFBBF071
:102BD000F29E410EA96EA69CA69EA680A850BBBFE1
:102BE000F28E1208F3E1A2EC00F0322AD8B4332AB4
:102BF000BF6B20EC05F0FDEF06F0D1801FA602D0E0
:102C0000B1EF0EF0ABA202D092EC00F0B96BB9516B
:102C1000030836E3B4C000F0B951016E04E0D89067
:102C20000032012EFCD700A029D0D890B935036A14
:102C3000940FE96E000E0320EA6EECCFBCF0ED526B
:102C4000EFCFBBF0BC5303E1BB51100817E2B9C092
:102C5000BFF075EC0BF0B9C0BFF0ADEC0AF0010E9F
:102C6000006EB951016E04E0D8900036012EFCD7F9
:102C70000050FF0AB417BF6B20EC05F0B92BC7D783
:102C80004B5201E1D8D40400C284C2B4FED7C3CFF2
:102C9000B7F0C4CFB8F0C284C2B4FED7C4CF03F03B
:102CA000C3CFBBF0C4CFBCF0C284C2B4FED7C4CF84
:102CB00003F0C350BB27C450BC23C284C2B4FED7A8
:102CC000C4CF03F0C350BB27C450BC23C284C2B4DA
:102CD000FED7C4CF03F0C350BB27C450BC23BC33C2
:102CE000BB33BC33BB333F0EBC17BC51020805E3FA
:102CF00003E1BB515708D8B0030080D7FFD70300CA
:0200000400F00A
:080000007E047F0380028101F0
:080010000000010002000300E2
:080020000000000001000000D7
:020030000000CE
:02004000341278
:02005000FEFFB1
:08006000804C814C824C834C62
:08007000807B817B827B837B96
:020000040030CA
:0E00000000220E0E000081000FC000E00F4035
:00000001FF
;PIC18F458
;CRC=C274  CREATED="17-Sep-12 23:18"
