:020000040000FA
:1000000024EF00F0F76A140FF66E000EF7220900D5
:10001000F55012000D0A2068656C6C6F2100EA6AC9
:10002000070EE96EEF500EE00C0E016E006A002E16
:10003000FED7012EFBD7F70E006E002EFED700D0A4
:10004000EF2EF2D745EF00F0F86AD09EEA6AE96A2F
:10005000400EAF6EA20EAC6E900EAB6EC180C18230
:10006000C184C196070EB46E066A0650CBDF062A1D
:10007000006E00509EA8FED7AD6E090E065CF5E13D
:10008000020E066EFA0E076ECAD7062EFBD7ECD705
:0200900003006B
:020000040030CA
:0E00000000260C0E000081000FC00FE00F4024
:00000001FF
;PIC18F458
