:020000040000FA
:04000000CCEF00F051
:08000800056ED8CF06F0E0CF31
:1000100007F00001E9CF0DF0EACF08F0E1CF09F0D9
:10002000E2CF0AF0D9CF0BF0DACF0CF0F3CF14F017
:10003000F4CF15F0FACF16F000C00FF001C010F0A9
:1000400002C011F003C012F004C013F09DA02CEF09
:1000500000F09EB06FEF00F09DAA32EF00F09EBA64
:1000600078EF00F00FC000F010C001F011C002F0F6
:1000700012C003F013C004F00E8E0DC0E9FF08C0DB
:10008000EAFF09C0E1FF0AC0E2FF0BC0D9FF0CC0C4
:10009000DAFF14C0F3FF15C0F4FF16C0FAFF0550D5
:1000A00007C0E0FF06C0D8FF100021500F0B006E04
:1000B000F00E83140010836E060E006E002EFED725
:1000C0000000838A060E006E002EFED70000839A81
:1000D000060E006E002EFED70000838A000CFF0E75
:1000E000CF6EF00ECE6E2170E0DF9E9032EF00F00A
:1000F0009EAAFED7AECFA8F0A851080A05E0050ACF
:1001000005E0070A11E011D0480623D0036A4850E1
:10011000340FE96E000E0320EA6EEF6A48500008C3
:10012000D8A01F86486A15D014D0A8511F0810E225
:10013000A8517E080DE3485012080AE34850482AA7
:10014000036A340FE96E000E0320EA6EA8C0EFFFC9
:1001500000D09E9A32EF00F0C69A949A94889496B2
:10016000310EC66E400EC76EC00EC76E21EF01F095
:10017000EA6AA60EE96EEF500EE0030E016E006A09
:10018000002EFED7012EFBD73C0E006E002EFED7B0
:1001900000D0EF2EF2D7000CF86AD09E0D8EEA6ADE
:1001A000E96A030EAF6EA20EAC6E900EAB6E948831
:1001B000949A94968B96C180C182C184C196070E91
:1001C000B46E196A1A6A226A236A246A256A266A40
:1001D000276A286A296A2A6A2B6A2C6A2D6A010E04
:1001E0002E6E2F6A306A316A326A336A486AFF0EAD
:1001F000496E786B796B7A6B030E7B6F7C6B7D6BD2
:100200007E6B836B846B856B866B876B886B896B6E
:100210008A6B8B6B8C6B8D6B8E6B8F6B906B916B1A
:10022000926B936B946B956B966B976B986B996BCA
:100230009A6B9B6B9C6B9D6B9E6B9F6BA06BA16B7A
:100240008BD7C190C182C184C186C19CC28CC28E31
:10025000C18EC280000E016EC250C70B0110C26E6B
:10026000FF0E926E936E000E956EC284C2B4FED7DE
:10027000C4CF03F0C3CFA6F0C450A76F020811E3A8
:1002800003E1A65189080DE3FE0E216E0EDF020E7A
:10029000A66F6EDFFF0E216E08DF320EA66F68DFDD
:1002A000E4D7C80EA66F64DF208A070ECD6E9D804E
:0A02B000D190C00EF212FFD7030038
:0200000400F00A
:080000007E047F0380028101F0
:080010000000010002000300E2
:080020000000000001000000D7
:020030000000CE
:02004000341278
:020000040030CA
:0E00000000220C0E000081000FC00FE00F4028
:00000001FF
;PIC18F458
